{
  "contractName": "creator",
  "abi": [
    {
      "inputs": [
        {
          "internalType": "string",
          "name": "yk_token_name",
          "type": "string"
        },
        {
          "internalType": "string",
          "name": "yk_token_symbol",
          "type": "string"
        },
        {
          "internalType": "string",
          "name": "voter_token_name",
          "type": "string"
        },
        {
          "internalType": "string",
          "name": "voter_token_symbol",
          "type": "string"
        }
      ],
      "name": "createToken",
      "outputs": [
        {
          "internalType": "address",
          "name": "",
          "type": "address"
        },
        {
          "internalType": "address",
          "name": "",
          "type": "address"
        }
      ],
      "stateMutability": "nonpayable",
      "type": "function"
    }
  ],
  "bytecode": "0x608060405234801561001057600080fd5b50614c07806100206000396000f3fe60806040523480156200001157600080fd5b50600436106200002e5760003560e01c8063a07696591462000033575b600080fd5b6200005160048036038101906200004b919062000368565b6200006a565b604051620000619291906200049b565b60405180910390f35b600080600033905060008787836040516200008590620001e4565b62000093939291906200055b565b604051809103906000f080158015620000b0573d6000803e3d6000fd5b5090506000868684604051620000c690620001e4565b620000d4939291906200055b565b604051809103906000f080158015620000f1573d6000803e3d6000fd5b5090508173ffffffffffffffffffffffffffffffffffffffff1663f2fde38b846040518263ffffffff1660e01b81526004016200012f9190620005a6565b600060405180830381600087803b1580156200014a57600080fd5b505af11580156200015f573d6000803e3d6000fd5b505050508073ffffffffffffffffffffffffffffffffffffffff1663f2fde38b846040518263ffffffff1660e01b81526004016200019e9190620005a6565b600060405180830381600087803b158015620001b957600080fd5b505af1158015620001ce573d6000803e3d6000fd5b5050505081819450945050505094509492505050565b61460e80620005c483390190565b6000604051905090565b600080fd5b600080fd5b600080fd5b600080fd5b6000601f19601f8301169050919050565b7f4e487b7100000000000000000000000000000000000000000000000000000000600052604160045260246000fd5b6200025b8262000210565b810181811067ffffffffffffffff821117156200027d576200027c62000221565b5b80604052505050565b600062000292620001f2565b9050620002a0828262000250565b919050565b600067ffffffffffffffff821115620002c357620002c262000221565b5b620002ce8262000210565b9050602081019050919050565b82818337600083830152505050565b600062000301620002fb84620002a5565b62000286565b90508281526020810184848401111562000320576200031f6200020b565b5b6200032d848285620002db565b509392505050565b600082601f8301126200034d576200034c62000206565b5b81356200035f848260208601620002ea565b91505092915050565b60008060008060808587031215620003855762000384620001fc565b5b600085013567ffffffffffffffff811115620003a657620003a562000201565b5b620003b48782880162000335565b945050602085013567ffffffffffffffff811115620003d857620003d762000201565b5b620003e68782880162000335565b935050604085013567ffffffffffffffff8111156200040a576200040962000201565b5b620004188782880162000335565b925050606085013567ffffffffffffffff8111156200043c576200043b62000201565b5b6200044a8782880162000335565b91505092959194509250565b600073ffffffffffffffffffffffffffffffffffffffff82169050919050565b6000620004838262000456565b9050919050565b620004958162000476565b82525050565b6000604082019050620004b260008301856200048a565b620004c160208301846200048a565b9392505050565b600081519050919050565b600082825260208201905092915050565b60005b8381101562000504578082015181840152602081019050620004e7565b8381111562000514576000848401525b50505050565b60006200052782620004c8565b620005338185620004d3565b935062000545818560208601620004e4565b620005508162000210565b840191505092915050565b600060608201905081810360008301526200057781866200051a565b905081810360208301526200058d81856200051a565b90506200059e60408301846200048a565b949350505050565b6000602082019050620005bd60008301846200048a565b9291505056fe60806040523480156200001157600080fd5b506040516200460e3803806200460e8339818101604052810190620000379190620005dc565b82828160039080519060200190620000519291906200032a565b5080600490805190602001906200006a9291906200032a565b5050506200008d62000081620000dc60201b60201c565b620000e460201b60201c565b620000cb81620000a2620001aa60201b60201c565b600a620000b0919062000810565b6103e8620000bf919062000861565b620001b360201b60201c565b600060068190555050505062000a34565b600033905090565b6000600560009054906101000a900473ffffffffffffffffffffffffffffffffffffffff16905081600560006101000a81548173ffffffffffffffffffffffffffffffffffffffff021916908373ffffffffffffffffffffffffffffffffffffffff1602179055508173ffffffffffffffffffffffffffffffffffffffff168173ffffffffffffffffffffffffffffffffffffffff167f8be0079c531659141344cd1fd0a4f28419497f9722a3daafe3b4186f6b6457e060405160405180910390a35050565b60006012905090565b600073ffffffffffffffffffffffffffffffffffffffff168273ffffffffffffffffffffffffffffffffffffffff160362000225576040517f08c379a00000000000000000000000000000000000000000000000000000000081526004016200021c9062000923565b60405180910390fd5b62000239600083836200032060201b60201c565b80600260008282546200024d919062000945565b92505081905550806000808473ffffffffffffffffffffffffffffffffffffffff1673ffffffffffffffffffffffffffffffffffffffff168152602001908152602001600020600082825401925050819055508173ffffffffffffffffffffffffffffffffffffffff16600073ffffffffffffffffffffffffffffffffffffffff167fddf252ad1be2c89b69c2b068fc378daa952ba7f163c4a11628f55a4df523b3ef83604051620003009190620009b3565b60405180910390a36200031c600083836200032560201b60201c565b5050565b505050565b505050565b8280546200033890620009ff565b90600052602060002090601f0160209004810192826200035c5760008555620003a8565b82601f106200037757805160ff1916838001178555620003a8565b82800160010185558215620003a8579182015b82811115620003a75782518255916020019190600101906200038a565b5b509050620003b79190620003bb565b5090565b5b80821115620003d6576000816000905550600101620003bc565b5090565b6000604051905090565b600080fd5b600080fd5b600080fd5b600080fd5b6000601f19601f8301169050919050565b7f4e487b7100000000000000000000000000000000000000000000000000000000600052604160045260246000fd5b6200044382620003f8565b810181811067ffffffffffffffff8211171562000465576200046462000409565b5b80604052505050565b60006200047a620003da565b905062000488828262000438565b919050565b600067ffffffffffffffff821115620004ab57620004aa62000409565b5b620004b682620003f8565b9050602081019050919050565b60005b83811015620004e3578082015181840152602081019050620004c6565b83811115620004f3576000848401525b50505050565b6000620005106200050a846200048d565b6200046e565b9050828152602081018484840111156200052f576200052e620003f3565b5b6200053c848285620004c3565b509392505050565b600082601f8301126200055c576200055b620003ee565b5b81516200056e848260208601620004f9565b91505092915050565b600073ffffffffffffffffffffffffffffffffffffffff82169050919050565b6000620005a48262000577565b9050919050565b620005b68162000597565b8114620005c257600080fd5b50565b600081519050620005d681620005ab565b92915050565b600080600060608486031215620005f857620005f7620003e4565b5b600084015167ffffffffffffffff811115620006195762000618620003e9565b5b620006278682870162000544565b935050602084015167ffffffffffffffff8111156200064b576200064a620003e9565b5b620006598682870162000544565b92505060406200066c86828701620005c5565b9150509250925092565b7f4e487b7100000000000000000000000000000000000000000000000000000000600052601160045260246000fd5b60008160011c9050919050565b6000808291508390505b60018511156200070457808604811115620006dc57620006db62000676565b5b6001851615620006ec5780820291505b8081029050620006fc85620006a5565b9450620006bc565b94509492505050565b6000826200071f5760019050620007f2565b816200072f5760009050620007f2565b8160018114620007485760028114620007535762000789565b6001915050620007f2565b60ff84111562000768576200076762000676565b5b8360020a91508482111562000782576200078162000676565b5b50620007f2565b5060208310610133831016604e8410600b8410161715620007c35782820a905083811115620007bd57620007bc62000676565b5b620007f2565b620007d28484846001620006b2565b92509050818404811115620007ec57620007eb62000676565b5b81810290505b9392505050565b6000819050919050565b600060ff82169050919050565b60006200081d82620007f9565b91506200082a8362000803565b9250620008597fffffffffffffffffffffffffffffffffffffffffffffffffffffffffffffffff84846200070d565b905092915050565b60006200086e82620007f9565b91506200087b83620007f9565b9250817fffffffffffffffffffffffffffffffffffffffffffffffffffffffffffffffff0483118215151615620008b757620008b662000676565b5b828202905092915050565b600082825260208201905092915050565b7f45524332303a206d696e7420746f20746865207a65726f206164647265737300600082015250565b60006200090b601f83620008c2565b91506200091882620008d3565b602082019050919050565b600060208201905081810360008301526200093e81620008fc565b9050919050565b60006200095282620007f9565b91506200095f83620007f9565b9250827fffffffffffffffffffffffffffffffffffffffffffffffffffffffffffffffff0382111562000997576200099662000676565b5b828201905092915050565b620009ad81620007f9565b82525050565b6000602082019050620009ca6000830184620009a2565b92915050565b7f4e487b7100000000000000000000000000000000000000000000000000000000600052602260045260246000fd5b6000600282049050600182168062000a1857607f821691505b60208210810362000a2e5762000a2d620009d0565b5b50919050565b613bca8062000a446000396000f3fe608060405234801561001057600080fd5b50600436106102275760003560e01c80638da9e67711610130578063b1d1ea97116100b8578063d2c0ec0e1161007c578063d2c0ec0e1461073a578063dd62ed3e14610758578063f2fde38b14610788578063fc13d518146107a4578063ff2b5fa1146107c057610227565b8063b1d1ea971461065c578063c3b639b61461068c578063c7461ae0146106aa578063c989828a146106da578063cea0ce9f1461070a57610227565b8063a19dea70116100ff578063a19dea7014610580578063a38e21051461059c578063a457c2d7146105cc578063a9059cbb146105fc578063a95bbced1461062c57610227565b80638da9e677146104f6578063937347d5146105265780639386d6ba1461054457806395d89b411461056257610227565b806340c10f19116101b3578063715018a611610182578063715018a614610452578063731f062b1461045c5780637ed60ea91461048c5780638749e2bb146104bc5780638da5cb5b146104d857610227565b806340c10f19146103a657806349016934146103c25780635dc73582146103f257806370a082311461042257610227565b806323b872dd116101fa57806323b872dd146102c8578063313ce567146102f857806331da1ee4146103165780633950935114610346578063396473f71461037657610227565b806306fdde031461022c578063095ea7b31461024a57806318160ddd1461027a5780631dba534e14610298575b600080fd5b6102346107dc565b6040516102419190612ecd565b60405180910390f35b610264600480360381019061025f9190612f88565b61086e565b6040516102719190612fe3565b60405180910390f35b610282610891565b60405161028f919061300d565b60405180910390f35b6102b260048036038101906102ad9190613028565b61089b565b6040516102bf919061300d565b60405180910390f35b6102e260048036038101906102dd9190613055565b6108b3565b6040516102ef9190612fe3565b60405180910390f35b6103006108e2565b60405161030d91906130c4565b60405180910390f35b610330600480360381019061032b91906130df565b6108eb565b60405161033d919061300d565b60405180910390f35b610360600480360381019061035b9190612f88565b610910565b60405161036d9190612fe3565b60405180910390f35b610390600480360381019061038b9190613028565b610947565b60405161039d9190612fe3565b60405180910390f35b6103c060048036038101906103bb9190612f88565b610dab565b005b6103dc60048036038101906103d79190613055565b610dc1565b6040516103e99190612fe3565b60405180910390f35b61040c60048036038101906104079190613028565b611460565b6040516104199190612fe3565b60405180910390f35b61043c60048036038101906104379190613028565b6117a8565b604051610449919061300d565b60405180910390f35b61045a6117f0565b005b6104766004803603810190610471919061311f565b611804565b604051610483919061315b565b60405180910390f35b6104a660048036038101906104a19190613028565b611843565b6040516104b3919061300d565b60405180910390f35b6104d660048036038101906104d19190613028565b61185b565b005b6104e06118a7565b6040516104ed919061315b565b60405180910390f35b610510600480360381019061050b9190612f88565b6118d1565b60405161051d9190612fe3565b60405180910390f35b61052e611a76565b60405161053b919061315b565b60405180910390f35b61054c611a9c565b604051610559919061300d565b60405180910390f35b61056a611aa2565b6040516105779190612ecd565b60405180910390f35b61059a6004803603810190610595919061311f565b611b34565b005b6105b660048036038101906105b19190612f88565b611b9e565b6040516105c39190612fe3565b60405180910390f35b6105e660048036038101906105e19190612f88565b611bcd565b6040516105f39190612fe3565b60405180910390f35b61061660048036038101906106119190612f88565b611c44565b6040516106239190612fe3565b60405180910390f35b61064660048036038101906106419190613028565b611fdf565b604051610653919061300d565b60405180910390f35b610676600480360381019061067191906130df565b612028565b6040516106839190612fe3565b60405180910390f35b610694612190565b6040516106a19190612fe3565b60405180910390f35b6106c460048036038101906106bf9190612f88565b61229c565b6040516106d1919061315b565b60405180910390f35b6106f460048036038101906106ef9190613028565b6122ea565b604051610701919061300d565b60405180910390f35b610724600480360381019061071f9190613028565b612302565b604051610731919061300d565b60405180910390f35b61074261234b565b60405161074f919061300d565b60405180910390f35b610772600480360381019061076d91906130df565b612351565b60405161077f919061300d565b60405180910390f35b6107a2600480360381019061079d9190613028565b6123d8565b005b6107be60048036038101906107b99190613176565b61245b565b005b6107da60048036038101906107d59190613176565b612528565b005b6060600380546107eb906131e5565b80601f0160208091040260200160405190810160405280929190818152602001828054610817906131e5565b80156108645780601f1061083957610100808354040283529160200191610864565b820191906000526020600020905b81548152906001019060200180831161084757829003601f168201915b5050505050905090565b6000806108796125f5565b90506108868185856125fd565b600191505092915050565b6000600254905090565b600d6020528060005260406000206000915090505481565b6000806108be6125f5565b90506108cb8582856127c6565b6108d6858585612852565b60019150509392505050565b60006012905090565b600c602052816000526040600020602052806000526040600020600091509150505481565b60008061091b6125f5565b905061093c81858561092d8589612351565b6109379190613245565b6125fd565b600191505092915050565b6000600760009054906101000a900473ffffffffffffffffffffffffffffffffffffffff1673ffffffffffffffffffffffffffffffffffffffff1661098a6125f5565b73ffffffffffffffffffffffffffffffffffffffff1614806109de57503073ffffffffffffffffffffffffffffffffffffffff166109c66125f5565b73ffffffffffffffffffffffffffffffffffffffff16145b610a1d576040517f08c379a0000000000000000000000000000000000000000000000000000000008152600401610a14906132e7565b60405180910390fd5b60005b600b60008473ffffffffffffffffffffffffffffffffffffffff1673ffffffffffffffffffffffffffffffffffffffff16815260200190815260200160002080549050811015610cb9576000600b60008573ffffffffffffffffffffffffffffffffffffffff1673ffffffffffffffffffffffffffffffffffffffff1681526020019081526020016000208281548110610abd57610abc613307565b5b9060005260206000200160009054906101000a900473ffffffffffffffffffffffffffffffffffffffff1690506000600c60008673ffffffffffffffffffffffffffffffffffffffff1673ffffffffffffffffffffffffffffffffffffffff16815260200190815260200160002060008373ffffffffffffffffffffffffffffffffffffffff1673ffffffffffffffffffffffffffffffffffffffff168152602001908152602001600020549050610b76828683612852565b80600e60008473ffffffffffffffffffffffffffffffffffffffff1673ffffffffffffffffffffffffffffffffffffffff1681526020019081526020016000206000828254610bc59190613336565b9250508190555080600d60008773ffffffffffffffffffffffffffffffffffffffff1673ffffffffffffffffffffffffffffffffffffffff1681526020019081526020016000206000828254610c1b9190613245565b925050819055506000600c60008773ffffffffffffffffffffffffffffffffffffffff1673ffffffffffffffffffffffffffffffffffffffff16815260200190815260200160002060008473ffffffffffffffffffffffffffffffffffffffff1673ffffffffffffffffffffffffffffffffffffffff1681526020019081526020016000208190555050508080610cb19061336a565b915050610a20565b50600b60008373ffffffffffffffffffffffffffffffffffffffff1673ffffffffffffffffffffffffffffffffffffffff1681526020019081526020016000206000610d059190612d6c565b600067ffffffffffffffff811115610d2057610d1f6133b2565b5b604051908082528060200260200182016040528015610d4e5781602001602082028036833780820191505090505b50600b60008473ffffffffffffffffffffffffffffffffffffffff1673ffffffffffffffffffffffffffffffffffffffff1681526020019081526020016000209080519060200190610da1929190612d8d565b5060019050919050565b610db3612ac8565b610dbd8282612b46565b5050565b6000600760009054906101000a900473ffffffffffffffffffffffffffffffffffffffff1673ffffffffffffffffffffffffffffffffffffffff16610e046125f5565b73ffffffffffffffffffffffffffffffffffffffff161480610e5857503073ffffffffffffffffffffffffffffffffffffffff16610e406125f5565b73ffffffffffffffffffffffffffffffffffffffff16145b610e97576040517f08c379a0000000000000000000000000000000000000000000000000000000008152600401610e8e906132e7565b60405180910390fd5b60005b600654811015610f8a5760011515600860008773ffffffffffffffffffffffffffffffffffffffff1673ffffffffffffffffffffffffffffffffffffffff168152602001908152602001600020600083815260200190815260200160002060009054906101000a900460ff16151503610f77576001600860008673ffffffffffffffffffffffffffffffffffffffff1673ffffffffffffffffffffffffffffffffffffffff168152602001908152602001600020600083815260200190815260200160002060006101000a81548160ff0219169083151502179055505b8080610f829061336a565b915050610e9a565b50610f96848484612852565b81600e60008673ffffffffffffffffffffffffffffffffffffffff1673ffffffffffffffffffffffffffffffffffffffff1681526020019081526020016000206000828254610fe59190613336565b9250508190555081600d60008573ffffffffffffffffffffffffffffffffffffffff1673ffffffffffffffffffffffffffffffffffffffff168152602001908152602001600020600082825461103b9190613245565b9250508190555081600c60008573ffffffffffffffffffffffffffffffffffffffff1673ffffffffffffffffffffffffffffffffffffffff16815260200190815260200160002060008673ffffffffffffffffffffffffffffffffffffffff1673ffffffffffffffffffffffffffffffffffffffff16815260200190815260200160002060008282546110ce9190613336565b925050819055506000600c60008573ffffffffffffffffffffffffffffffffffffffff1673ffffffffffffffffffffffffffffffffffffffff16815260200190815260200160002060008673ffffffffffffffffffffffffffffffffffffffff1673ffffffffffffffffffffffffffffffffffffffff16815260200190815260200160002054036114555760005b600b60008573ffffffffffffffffffffffffffffffffffffffff1673ffffffffffffffffffffffffffffffffffffffff16815260200190815260200160002080549050811015611453578473ffffffffffffffffffffffffffffffffffffffff16600b60008673ffffffffffffffffffffffffffffffffffffffff1673ffffffffffffffffffffffffffffffffffffffff168152602001908152602001600020828154811061120e5761120d613307565b5b9060005260206000200160009054906101000a900473ffffffffffffffffffffffffffffffffffffffff1673ffffffffffffffffffffffffffffffffffffffff160361144057600b60008573ffffffffffffffffffffffffffffffffffffffff1673ffffffffffffffffffffffffffffffffffffffff1681526020019081526020016000206001600b60008773ffffffffffffffffffffffffffffffffffffffff1673ffffffffffffffffffffffffffffffffffffffff168152602001908152602001600020805490506112e29190613336565b815481106112f3576112f2613307565b5b9060005260206000200160009054906101000a900473ffffffffffffffffffffffffffffffffffffffff16600b60008673ffffffffffffffffffffffffffffffffffffffff1673ffffffffffffffffffffffffffffffffffffffff168152602001908152602001600020828154811061136f5761136e613307565b5b9060005260206000200160006101000a81548173ffffffffffffffffffffffffffffffffffffffff021916908373ffffffffffffffffffffffffffffffffffffffff160217905550600b60008573ffffffffffffffffffffffffffffffffffffffff1673ffffffffffffffffffffffffffffffffffffffff168152602001908152602001600020805480611406576114056133e1565b5b6001900381819060005260206000200160006101000a81549073ffffffffffffffffffffffffffffffffffffffff02191690559055611453565b808061144b9061336a565b91505061115c565b505b600190509392505050565b6000600760009054906101000a900473ffffffffffffffffffffffffffffffffffffffff1673ffffffffffffffffffffffffffffffffffffffff166114a36125f5565b73ffffffffffffffffffffffffffffffffffffffff1614806114f757503073ffffffffffffffffffffffffffffffffffffffff166114df6125f5565b73ffffffffffffffffffffffffffffffffffffffff16145b611536576040517f08c379a000000000000000000000000000000000000000000000000000000000815260040161152d906132e7565b60405180910390fd5b61153f82610947565b50600a60008373ffffffffffffffffffffffffffffffffffffffff1673ffffffffffffffffffffffffffffffffffffffff16815260200190815260200160002054600d60008473ffffffffffffffffffffffffffffffffffffffff1673ffffffffffffffffffffffffffffffffffffffff1681526020019081526020016000205414611600576040517f08c379a00000000000000000000000000000000000000000000000000000000081526004016115f79061345c565b60405180910390fd5b6000600d60008473ffffffffffffffffffffffffffffffffffffffff1673ffffffffffffffffffffffffffffffffffffffff168152602001908152602001600020540361165057600190506117a3565b600d60008373ffffffffffffffffffffffffffffffffffffffff1673ffffffffffffffffffffffffffffffffffffffff16815260200190815260200160002054600f60008282546116a19190613336565b9250508190555061171482600760009054906101000a900473ffffffffffffffffffffffffffffffffffffffff16600d60008673ffffffffffffffffffffffffffffffffffffffff1673ffffffffffffffffffffffffffffffffffffffff16815260200190815260200160002054612852565b6000600a60008473ffffffffffffffffffffffffffffffffffffffff1673ffffffffffffffffffffffffffffffffffffffff168152602001908152602001600020819055506000600d60008473ffffffffffffffffffffffffffffffffffffffff1673ffffffffffffffffffffffffffffffffffffffff16815260200190815260200160002081905550600190505b919050565b60008060008373ffffffffffffffffffffffffffffffffffffffff1673ffffffffffffffffffffffffffffffffffffffff168152602001908152602001600020549050919050565b6117f8612ac8565b6118026000612c9c565b565b6009818154811061181457600080fd5b906000526020600020016000915054906101000a900473ffffffffffffffffffffffffffffffffffffffff1681565b600a6020528060005260406000206000915090505481565b611863612ac8565b80600760006101000a81548173ffffffffffffffffffffffffffffffffffffffff021916908373ffffffffffffffffffffffffffffffffffffffff16021790555050565b6000600560009054906101000a900473ffffffffffffffffffffffffffffffffffffffff16905090565b6000806118dc6125f5565b9050600760009054906101000a900473ffffffffffffffffffffffffffffffffffffffff1673ffffffffffffffffffffffffffffffffffffffff168173ffffffffffffffffffffffffffffffffffffffff161461193857600080fd5b611943818585612852565b82600d60008673ffffffffffffffffffffffffffffffffffffffff1673ffffffffffffffffffffffffffffffffffffffff16815260200190815260200160002060008282546119929190613245565b9250508190555082600a60008673ffffffffffffffffffffffffffffffffffffffff1673ffffffffffffffffffffffffffffffffffffffff16815260200190815260200160002060008282546119e89190613245565b925050819055506009849080600181540180825580915050600190039060005260206000200160009091909190916101000a81548173ffffffffffffffffffffffffffffffffffffffff021916908373ffffffffffffffffffffffffffffffffffffffff16021790555082600f6000828254611a649190613245565b92505081905550600191505092915050565b600760009054906101000a900473ffffffffffffffffffffffffffffffffffffffff1681565b600f5481565b606060048054611ab1906131e5565b80601f0160208091040260200160405190810160405280929190818152602001828054611add906131e5565b8015611b2a5780601f10611aff57610100808354040283529160200191611b2a565b820191906000526020600020905b815481529060010190602001808311611b0d57829003601f168201915b5050505050905090565b6000339050600760009054906101000a900473ffffffffffffffffffffffffffffffffffffffff1673ffffffffffffffffffffffffffffffffffffffff168173ffffffffffffffffffffffffffffffffffffffff1614611b9357600080fd5b816006819055505050565b60086020528160005260406000206020528060005260406000206000915091509054906101000a900460ff1681565b600080611bd86125f5565b90506000611be68286612351565b905083811015611c2b576040517f08c379a0000000000000000000000000000000000000000000000000000000008152600401611c22906134ee565b60405180910390fd5b611c3882868684036125fd565b60019250505092915050565b600080611c4f6125f5565b9050611c5a816117a8565b831115611c9c576040517f08c379a0000000000000000000000000000000000000000000000000000000008152600401611c939061355a565b60405180910390fd5b600d60008273ffffffffffffffffffffffffffffffffffffffff1673ffffffffffffffffffffffffffffffffffffffff16815260200190815260200160002054831115611d1e576040517f08c379a0000000000000000000000000000000000000000000000000000000008152600401611d15906135ec565b60405180910390fd5b60005b600654811015611de95760011515600860008473ffffffffffffffffffffffffffffffffffffffff1673ffffffffffffffffffffffffffffffffffffffff168152602001908152602001600020600083815260200190815260200160002060009054906101000a900460ff16151503611dd6576000611dd5576040517f08c379a0000000000000000000000000000000000000000000000000000000008152600401611dcc90613658565b60405180910390fd5b5b8080611de19061336a565b915050611d21565b50611df5818585612852565b82600d60008373ffffffffffffffffffffffffffffffffffffffff1673ffffffffffffffffffffffffffffffffffffffff1681526020019081526020016000206000828254611e449190613336565b9250508190555082600e60008673ffffffffffffffffffffffffffffffffffffffff1673ffffffffffffffffffffffffffffffffffffffff1681526020019081526020016000206000828254611e9a9190613245565b9250508190555082600c60008373ffffffffffffffffffffffffffffffffffffffff1673ffffffffffffffffffffffffffffffffffffffff16815260200190815260200160002060008673ffffffffffffffffffffffffffffffffffffffff1673ffffffffffffffffffffffffffffffffffffffff1681526020019081526020016000206000828254611f2d9190613245565b92505081905550600b60008273ffffffffffffffffffffffffffffffffffffffff1673ffffffffffffffffffffffffffffffffffffffff168152602001908152602001600020849080600181540180825580915050600190039060005260206000200160009091909190916101000a81548173ffffffffffffffffffffffffffffffffffffffff021916908373ffffffffffffffffffffffffffffffffffffffff160217905550600191505092915050565b6000600e60008373ffffffffffffffffffffffffffffffffffffffff1673ffffffffffffffffffffffffffffffffffffffff168152602001908152602001600020549050919050565b6000600760009054906101000a900473ffffffffffffffffffffffffffffffffffffffff1673ffffffffffffffffffffffffffffffffffffffff1661206b6125f5565b73ffffffffffffffffffffffffffffffffffffffff1614806120bf57503073ffffffffffffffffffffffffffffffffffffffff166120a76125f5565b73ffffffffffffffffffffffffffffffffffffffff16145b6120fe576040517f08c379a00000000000000000000000000000000000000000000000000000000081526004016120f5906132e7565b60405180910390fd5b6121858383600c60008673ffffffffffffffffffffffffffffffffffffffff1673ffffffffffffffffffffffffffffffffffffffff16815260200190815260200160002060008773ffffffffffffffffffffffffffffffffffffffff1673ffffffffffffffffffffffffffffffffffffffff16815260200190815260200160002054610dc1565b506001905092915050565b6000600760009054906101000a900473ffffffffffffffffffffffffffffffffffffffff1673ffffffffffffffffffffffffffffffffffffffff166121d36125f5565b73ffffffffffffffffffffffffffffffffffffffff1614612229576040517f08c379a0000000000000000000000000000000000000000000000000000000008152600401612220906136c4565b60405180910390fd5b60005b60098054905081101561229457612280600982815481106122505761224f613307565b5b9060005260206000200160009054906101000a900473ffffffffffffffffffffffffffffffffffffffff16611460565b50808061228c9061336a565b91505061222c565b506001905090565b600b60205281600052604060002081815481106122b857600080fd5b906000526020600020016000915091509054906101000a900473ffffffffffffffffffffffffffffffffffffffff1681565b600e6020528060005260406000206000915090505481565b6000600d60008373ffffffffffffffffffffffffffffffffffffffff1673ffffffffffffffffffffffffffffffffffffffff168152602001908152602001600020549050919050565b60065481565b6000600160008473ffffffffffffffffffffffffffffffffffffffff1673ffffffffffffffffffffffffffffffffffffffff16815260200190815260200160002060008373ffffffffffffffffffffffffffffffffffffffff1673ffffffffffffffffffffffffffffffffffffffff16815260200190815260200160002054905092915050565b6123e0612ac8565b600073ffffffffffffffffffffffffffffffffffffffff168173ffffffffffffffffffffffffffffffffffffffff160361244f576040517f08c379a000000000000000000000000000000000000000000000000000000000815260040161244690613756565b60405180910390fd5b61245881612c9c565b50565b6000339050600760009054906101000a900473ffffffffffffffffffffffffffffffffffffffff1673ffffffffffffffffffffffffffffffffffffffff168173ffffffffffffffffffffffffffffffffffffffff16146124ba57600080fd5b6001600860008473ffffffffffffffffffffffffffffffffffffffff1673ffffffffffffffffffffffffffffffffffffffff168152602001908152602001600020600085815260200190815260200160002060006101000a81548160ff021916908315150217905550505050565b6000339050600760009054906101000a900473ffffffffffffffffffffffffffffffffffffffff1673ffffffffffffffffffffffffffffffffffffffff168173ffffffffffffffffffffffffffffffffffffffff161461258757600080fd5b6000600860008473ffffffffffffffffffffffffffffffffffffffff1673ffffffffffffffffffffffffffffffffffffffff168152602001908152602001600020600085815260200190815260200160002060006101000a81548160ff021916908315150217905550505050565b600033905090565b600073ffffffffffffffffffffffffffffffffffffffff168373ffffffffffffffffffffffffffffffffffffffff160361266c576040517f08c379a0000000000000000000000000000000000000000000000000000000008152600401612663906137e8565b60405180910390fd5b600073ffffffffffffffffffffffffffffffffffffffff168273ffffffffffffffffffffffffffffffffffffffff16036126db576040517f08c379a00000000000000000000000000000000000000000000000000000000081526004016126d29061387a565b60405180910390fd5b80600160008573ffffffffffffffffffffffffffffffffffffffff1673ffffffffffffffffffffffffffffffffffffffff16815260200190815260200160002060008473ffffffffffffffffffffffffffffffffffffffff1673ffffffffffffffffffffffffffffffffffffffff168152602001908152602001600020819055508173ffffffffffffffffffffffffffffffffffffffff168373ffffffffffffffffffffffffffffffffffffffff167f8c5be1e5ebec7d5bd14f71427d1e84f3dd0314c0f7b2291e5b200ac8c7c3b925836040516127b9919061300d565b60405180910390a3505050565b60006127d28484612351565b90507fffffffffffffffffffffffffffffffffffffffffffffffffffffffffffffffff811461284c578181101561283e576040517f08c379a0000000000000000000000000000000000000000000000000000000008152600401612835906138e6565b60405180910390fd5b61284b84848484036125fd565b5b50505050565b600073ffffffffffffffffffffffffffffffffffffffff168373ffffffffffffffffffffffffffffffffffffffff16036128c1576040517f08c379a00000000000000000000000000000000000000000000000000000000081526004016128b890613978565b60405180910390fd5b600073ffffffffffffffffffffffffffffffffffffffff168273ffffffffffffffffffffffffffffffffffffffff1603612930576040517f08c379a000000000000000000000000000000000000000000000000000000000815260040161292790613a0a565b60405180910390fd5b61293b838383612d62565b60008060008573ffffffffffffffffffffffffffffffffffffffff1673ffffffffffffffffffffffffffffffffffffffff168152602001908152602001600020549050818110156129c1576040517f08c379a00000000000000000000000000000000000000000000000000000000081526004016129b890613a9c565b60405180910390fd5b8181036000808673ffffffffffffffffffffffffffffffffffffffff1673ffffffffffffffffffffffffffffffffffffffff16815260200190815260200160002081905550816000808573ffffffffffffffffffffffffffffffffffffffff1673ffffffffffffffffffffffffffffffffffffffff168152602001908152602001600020600082825401925050819055508273ffffffffffffffffffffffffffffffffffffffff168473ffffffffffffffffffffffffffffffffffffffff167fddf252ad1be2c89b69c2b068fc378daa952ba7f163c4a11628f55a4df523b3ef84604051612aaf919061300d565b60405180910390a3612ac2848484612d67565b50505050565b612ad06125f5565b73ffffffffffffffffffffffffffffffffffffffff16612aee6118a7565b73ffffffffffffffffffffffffffffffffffffffff1614612b44576040517f08c379a0000000000000000000000000000000000000000000000000000000008152600401612b3b90613b08565b60405180910390fd5b565b600073ffffffffffffffffffffffffffffffffffffffff168273ffffffffffffffffffffffffffffffffffffffff1603612bb5576040517f08c379a0000000000000000000000000000000000000000000000000000000008152600401612bac90613b74565b60405180910390fd5b612bc160008383612d62565b8060026000828254612bd39190613245565b92505081905550806000808473ffffffffffffffffffffffffffffffffffffffff1673ffffffffffffffffffffffffffffffffffffffff168152602001908152602001600020600082825401925050819055508173ffffffffffffffffffffffffffffffffffffffff16600073ffffffffffffffffffffffffffffffffffffffff167fddf252ad1be2c89b69c2b068fc378daa952ba7f163c4a11628f55a4df523b3ef83604051612c84919061300d565b60405180910390a3612c9860008383612d67565b5050565b6000600560009054906101000a900473ffffffffffffffffffffffffffffffffffffffff16905081600560006101000a81548173ffffffffffffffffffffffffffffffffffffffff021916908373ffffffffffffffffffffffffffffffffffffffff1602179055508173ffffffffffffffffffffffffffffffffffffffff168173ffffffffffffffffffffffffffffffffffffffff167f8be0079c531659141344cd1fd0a4f28419497f9722a3daafe3b4186f6b6457e060405160405180910390a35050565b505050565b505050565b5080546000825590600052602060002090810190612d8a9190612e17565b50565b828054828255906000526020600020908101928215612e06579160200282015b82811115612e055782518260006101000a81548173ffffffffffffffffffffffffffffffffffffffff021916908373ffffffffffffffffffffffffffffffffffffffff16021790555091602001919060010190612dad565b5b509050612e139190612e17565b5090565b5b80821115612e30576000816000905550600101612e18565b5090565b600081519050919050565b600082825260208201905092915050565b60005b83811015612e6e578082015181840152602081019050612e53565b83811115612e7d576000848401525b50505050565b6000601f19601f8301169050919050565b6000612e9f82612e34565b612ea98185612e3f565b9350612eb9818560208601612e50565b612ec281612e83565b840191505092915050565b60006020820190508181036000830152612ee78184612e94565b905092915050565b600080fd5b600073ffffffffffffffffffffffffffffffffffffffff82169050919050565b6000612f1f82612ef4565b9050919050565b612f2f81612f14565b8114612f3a57600080fd5b50565b600081359050612f4c81612f26565b92915050565b6000819050919050565b612f6581612f52565b8114612f7057600080fd5b50565b600081359050612f8281612f5c565b92915050565b60008060408385031215612f9f57612f9e612eef565b5b6000612fad85828601612f3d565b9250506020612fbe85828601612f73565b9150509250929050565b60008115159050919050565b612fdd81612fc8565b82525050565b6000602082019050612ff86000830184612fd4565b92915050565b61300781612f52565b82525050565b60006020820190506130226000830184612ffe565b92915050565b60006020828403121561303e5761303d612eef565b5b600061304c84828501612f3d565b91505092915050565b60008060006060848603121561306e5761306d612eef565b5b600061307c86828701612f3d565b935050602061308d86828701612f3d565b925050604061309e86828701612f73565b9150509250925092565b600060ff82169050919050565b6130be816130a8565b82525050565b60006020820190506130d960008301846130b5565b92915050565b600080604083850312156130f6576130f5612eef565b5b600061310485828601612f3d565b925050602061311585828601612f3d565b9150509250929050565b60006020828403121561313557613134612eef565b5b600061314384828501612f73565b91505092915050565b61315581612f14565b82525050565b6000602082019050613170600083018461314c565b92915050565b6000806040838503121561318d5761318c612eef565b5b600061319b85828601612f73565b92505060206131ac85828601612f3d565b9150509250929050565b7f4e487b7100000000000000000000000000000000000000000000000000000000600052602260045260246000fd5b600060028204905060018216806131fd57607f821691505b6020821081036132105761320f6131b6565b5b50919050565b7f4e487b7100000000000000000000000000000000000000000000000000000000600052601160045260246000fd5b600061325082612f52565b915061325b83612f52565b9250827fffffffffffffffffffffffffffffffffffffffffffffffffffffffffffffffff038211156132905761328f613216565b5b828201905092915050565b7f73656e646572206973206e6f742064616f206f7220746f6b656e000000000000600082015250565b60006132d1601a83612e3f565b91506132dc8261329b565b602082019050919050565b60006020820190508181036000830152613300816132c4565b9050919050565b7f4e487b7100000000000000000000000000000000000000000000000000000000600052603260045260246000fd5b600061334182612f52565b915061334c83612f52565b92508282101561335f5761335e613216565b5b828203905092915050565b600061337582612f52565b91507fffffffffffffffffffffffffffffffffffffffffffffffffffffffffffffffff82036133a7576133a6613216565b5b600182019050919050565b7f4e487b7100000000000000000000000000000000000000000000000000000000600052604160045260246000fd5b7f4e487b7100000000000000000000000000000000000000000000000000000000600052603160045260246000fd5b7f736f6d657468696e672077656e7420766572792077726f6e6720000000000000600082015250565b6000613446601a83612e3f565b915061345182613410565b602082019050919050565b6000602082019050818103600083015261347581613439565b9050919050565b7f45524332303a2064656372656173656420616c6c6f77616e63652062656c6f7760008201527f207a65726f000000000000000000000000000000000000000000000000000000602082015250565b60006134d8602583612e3f565b91506134e38261347c565b604082019050919050565b60006020820190508181036000830152613507816134cb565b9050919050565b7f6e6f7420656e6f75676820696e2062616c616e63652000000000000000000000600082015250565b6000613544601683612e3f565b915061354f8261350e565b602082019050919050565b6000602082019050818103600083015261357381613537565b9050919050565b7f63616e742073656e64206465627420746f6b656e732c20796f7520646f206e6f60008201527f74206861766520656e6f75676820746f6b656e73200000000000000000000000602082015250565b60006135d6603583612e3f565b91506135e18261357a565b604082019050919050565b60006020820190508181036000830152613605816135c9565b9050919050565b7f686176652061637469766520766f74696e670000000000000000000000000000600082015250565b6000613642601283612e3f565b915061364d8261360c565b602082019050919050565b6000602082019050818103600083015261367181613635565b9050919050565b7f73656e646572206973206e6f742064616f000000000000000000000000000000600082015250565b60006136ae601183612e3f565b91506136b982613678565b602082019050919050565b600060208201905081810360008301526136dd816136a1565b9050919050565b7f4f776e61626c653a206e6577206f776e657220697320746865207a65726f206160008201527f6464726573730000000000000000000000000000000000000000000000000000602082015250565b6000613740602683612e3f565b915061374b826136e4565b604082019050919050565b6000602082019050818103600083015261376f81613733565b9050919050565b7f45524332303a20617070726f76652066726f6d20746865207a65726f2061646460008201527f7265737300000000000000000000000000000000000000000000000000000000602082015250565b60006137d2602483612e3f565b91506137dd82613776565b604082019050919050565b60006020820190508181036000830152613801816137c5565b9050919050565b7f45524332303a20617070726f766520746f20746865207a65726f20616464726560008201527f7373000000000000000000000000000000000000000000000000000000000000602082015250565b6000613864602283612e3f565b915061386f82613808565b604082019050919050565b6000602082019050818103600083015261389381613857565b9050919050565b7f45524332303a20696e73756666696369656e7420616c6c6f77616e6365000000600082015250565b60006138d0601d83612e3f565b91506138db8261389a565b602082019050919050565b600060208201905081810360008301526138ff816138c3565b9050919050565b7f45524332303a207472616e736665722066726f6d20746865207a65726f20616460008201527f6472657373000000000000000000000000000000000000000000000000000000602082015250565b6000613962602583612e3f565b915061396d82613906565b604082019050919050565b6000602082019050818103600083015261399181613955565b9050919050565b7f45524332303a207472616e7366657220746f20746865207a65726f206164647260008201527f6573730000000000000000000000000000000000000000000000000000000000602082015250565b60006139f4602383612e3f565b91506139ff82613998565b604082019050919050565b60006020820190508181036000830152613a23816139e7565b9050919050565b7f45524332303a207472616e7366657220616d6f756e742065786365656473206260008201527f616c616e63650000000000000000000000000000000000000000000000000000602082015250565b6000613a86602683612e3f565b9150613a9182613a2a565b604082019050919050565b60006020820190508181036000830152613ab581613a79565b9050919050565b7f4f776e61626c653a2063616c6c6572206973206e6f7420746865206f776e6572600082015250565b6000613af2602083612e3f565b9150613afd82613abc565b602082019050919050565b60006020820190508181036000830152613b2181613ae5565b9050919050565b7f45524332303a206d696e7420746f20746865207a65726f206164647265737300600082015250565b6000613b5e601f83612e3f565b9150613b6982613b28565b602082019050919050565b60006020820190508181036000830152613b8d81613b51565b905091905056fea26469706673582212201a7cdfece853732ba74f6fa0d6a49479daadd1f0817f05974201c26a5f47ec8664736f6c634300080d0033a264697066735822122083bebd14e1cfdc76f71c052d32cdef554cad64b9e00fd2b9716d141ac7eb618b64736f6c634300080d0033",
  "immutableReferences": {},
  "source": "// SPDX-License-Identifier: GPL-3.0\r\npragma solidity >=0.7.0 <0.9.0;\r\npragma experimental ABIEncoderV2;\r\n//import \"./DAO.sol\";\r\nimport \"./token.sol\";\r\nimport \"./icreator.sol\";\r\n\r\n\r\ncontract creator is icreator {\r\n\r\n\r\n    //create tokens, and transfer ownership to the factory\r\n    function createToken(string memory yk_token_name, string memory yk_token_symbol, string memory voter_token_name, string memory voter_token_symbol ) external override returns (address, address){\r\n        address my_factory = msg.sender;\r\n        SUToken yk_token = new SUToken(yk_token_name, yk_token_symbol, my_factory);\r\n        SUToken voter_token = new SUToken(voter_token_name, voter_token_symbol, my_factory);\r\n        yk_token.transferOwnership(my_factory);\r\n        voter_token.transferOwnership(my_factory);\r\n        return (address(yk_token), address(voter_token));\r\n    }\r\n\r\n}",
  "sourcePath": "C:\\Users\\batu0\\Desktop\\Visual_Studio_Code\\SU_Govern\\contract_for_front_end\\ui_sol_deneme2\\ui_sol_deneme\\sol_ui\\blockchain1\\contracts\\creator.sol",
  "compiler": {
    "name": "solc",
    "version": "0.8.13+commit.abaa5c0e.Emscripten.clang"
  },
  "schemaVersion": "3.4.12",
  "updatedAt": "2023-02-28T13:53:38.913Z",
  "devdoc": {
    "kind": "dev",
    "methods": {},
    "version": 1
  },
  "userdoc": {
    "kind": "user",
    "methods": {},
    "version": 1
  }
}