{
  "contractName": "DAOFactory",
  "abi": [
    {
      "inputs": [
        {
          "internalType": "address",
          "name": "myCreator",
          "type": "address"
        }
      ],
      "stateMutability": "nonpayable",
      "type": "constructor"
    },
    {
      "inputs": [
        {
          "internalType": "uint256",
          "name": "",
          "type": "uint256"
        }
      ],
      "name": "all_daos",
      "outputs": [
        {
          "internalType": "contract MyDAO",
          "name": "",
          "type": "address"
        }
      ],
      "stateMutability": "view",
      "type": "function"
    },
    {
      "inputs": [
        {
          "internalType": "contract MyDAO",
          "name": "",
          "type": "address"
        }
      ],
      "name": "child_parent",
      "outputs": [
        {
          "internalType": "contract MyDAO",
          "name": "",
          "type": "address"
        }
      ],
      "stateMutability": "view",
      "type": "function"
    },
    {
      "inputs": [
        {
          "internalType": "contract MyDAO",
          "name": "",
          "type": "address"
        }
      ],
      "name": "dao_exists",
      "outputs": [
        {
          "internalType": "bool",
          "name": "",
          "type": "bool"
        }
      ],
      "stateMutability": "view",
      "type": "function"
    },
    {
      "inputs": [
        {
          "internalType": "contract MyDAO",
          "name": "",
          "type": "address"
        }
      ],
      "name": "dao_first_yk",
      "outputs": [
        {
          "internalType": "address",
          "name": "",
          "type": "address"
        }
      ],
      "stateMutability": "view",
      "type": "function"
    },
    {
      "inputs": [
        {
          "internalType": "contract MyDAO",
          "name": "",
          "type": "address"
        }
      ],
      "name": "dao_tokens_voter",
      "outputs": [
        {
          "internalType": "contract ISUToken",
          "name": "",
          "type": "address"
        }
      ],
      "stateMutability": "view",
      "type": "function"
    },
    {
      "inputs": [
        {
          "internalType": "contract MyDAO",
          "name": "",
          "type": "address"
        }
      ],
      "name": "dao_tokens_yk",
      "outputs": [
        {
          "internalType": "contract ISUToken",
          "name": "",
          "type": "address"
        }
      ],
      "stateMutability": "view",
      "type": "function"
    },
    {
      "inputs": [
        {
          "internalType": "address",
          "name": "",
          "type": "address"
        }
      ],
      "name": "is_a_dao_creator",
      "outputs": [
        {
          "internalType": "bool",
          "name": "",
          "type": "bool"
        }
      ],
      "stateMutability": "view",
      "type": "function"
    },
    {
      "inputs": [],
      "name": "next_dao_id",
      "outputs": [
        {
          "internalType": "uint256",
          "name": "",
          "type": "uint256"
        }
      ],
      "stateMutability": "view",
      "type": "function"
    },
    {
      "inputs": [
        {
          "internalType": "contract MyDAO",
          "name": "",
          "type": "address"
        }
      ],
      "name": "num_children",
      "outputs": [
        {
          "internalType": "uint256",
          "name": "",
          "type": "uint256"
        }
      ],
      "stateMutability": "view",
      "type": "function"
    },
    {
      "inputs": [
        {
          "internalType": "contract MyDAO",
          "name": "",
          "type": "address"
        },
        {
          "internalType": "uint256",
          "name": "",
          "type": "uint256"
        }
      ],
      "name": "parent_child_daos",
      "outputs": [
        {
          "internalType": "contract MyDAO",
          "name": "",
          "type": "address"
        }
      ],
      "stateMutability": "view",
      "type": "function"
    },
    {
      "inputs": [
        {
          "internalType": "contract ISUToken",
          "name": "",
          "type": "address"
        }
      ],
      "name": "token_first_yk",
      "outputs": [
        {
          "internalType": "address",
          "name": "",
          "type": "address"
        }
      ],
      "stateMutability": "view",
      "type": "function"
    },
    {
      "inputs": [],
      "name": "top_dao",
      "outputs": [
        {
          "internalType": "address",
          "name": "",
          "type": "address"
        }
      ],
      "stateMutability": "view",
      "type": "function"
    },
    {
      "inputs": [
        {
          "internalType": "string",
          "name": "dao_name",
          "type": "string"
        },
        {
          "internalType": "string",
          "name": "dao_description",
          "type": "string"
        },
        {
          "internalType": "string",
          "name": "yk_token_name",
          "type": "string"
        },
        {
          "internalType": "string",
          "name": "yk_token_symbol",
          "type": "string"
        },
        {
          "internalType": "string",
          "name": "voter_token_name",
          "type": "string"
        },
        {
          "internalType": "string",
          "name": "voter_token_symbol",
          "type": "string"
        }
      ],
      "name": "createDAOTop",
      "outputs": [],
      "stateMutability": "nonpayable",
      "type": "function"
    },
    {
      "inputs": [
        {
          "internalType": "contract MyDAO",
          "name": "parent",
          "type": "address"
        },
        {
          "internalType": "string",
          "name": "dao_name",
          "type": "string"
        },
        {
          "internalType": "string",
          "name": "dao_description",
          "type": "string"
        },
        {
          "internalType": "string",
          "name": "yk_token_name",
          "type": "string"
        },
        {
          "internalType": "string",
          "name": "yk_token_symbol",
          "type": "string"
        },
        {
          "internalType": "string",
          "name": "voter_token_name",
          "type": "string"
        },
        {
          "internalType": "string",
          "name": "voter_token_symbol",
          "type": "string"
        }
      ],
      "name": "createChildDAO",
      "outputs": [],
      "stateMutability": "nonpayable",
      "type": "function"
    },
    {
      "inputs": [
        {
          "internalType": "contract MyDAO",
          "name": "to_be_minted",
          "type": "address"
        },
        {
          "internalType": "uint256",
          "name": "amount",
          "type": "uint256"
        },
        {
          "internalType": "address",
          "name": "sender",
          "type": "address"
        }
      ],
      "name": "mint_dao_yk",
      "outputs": [],
      "stateMutability": "nonpayable",
      "type": "function"
    },
    {
      "inputs": [
        {
          "internalType": "contract MyDAO",
          "name": "to_be_minted",
          "type": "address"
        },
        {
          "internalType": "uint256",
          "name": "amount",
          "type": "uint256"
        },
        {
          "internalType": "address",
          "name": "sender",
          "type": "address"
        }
      ],
      "name": "mint_dao_voter",
      "outputs": [],
      "stateMutability": "nonpayable",
      "type": "function"
    },
    {
      "inputs": [
        {
          "internalType": "address",
          "name": "input_creator",
          "type": "address"
        }
      ],
      "name": "addCreator",
      "outputs": [],
      "stateMutability": "nonpayable",
      "type": "function"
    },
    {
      "inputs": [
        {
          "internalType": "contract MyDAO",
          "name": "mydao",
          "type": "address"
        }
      ],
      "name": "getParentDAO",
      "outputs": [
        {
          "internalType": "contract MyDAO",
          "name": "",
          "type": "address"
        }
      ],
      "stateMutability": "view",
      "type": "function"
    },
    {
      "inputs": [
        {
          "internalType": "uint256",
          "name": "id",
          "type": "uint256"
        }
      ],
      "name": "getCurrentDAO",
      "outputs": [
        {
          "internalType": "contract MyDAO",
          "name": "",
          "type": "address"
        }
      ],
      "stateMutability": "view",
      "type": "function"
    },
    {
      "inputs": [
        {
          "internalType": "contract MyDAO",
          "name": "to_be_deleted",
          "type": "address"
        },
        {
          "internalType": "address",
          "name": "sender",
          "type": "address"
        }
      ],
      "name": "delete_DAO",
      "outputs": [],
      "stateMutability": "nonpayable",
      "type": "function"
    }
  ],
  "bytecode": "0x60806040523480156200001157600080fd5b5060405162009daa38038062009daa833981810160405281019062000037919062000149565b80600c60006101000a81548173ffffffffffffffffffffffffffffffffffffffff021916908373ffffffffffffffffffffffffffffffffffffffff1602179055506001600360003373ffffffffffffffffffffffffffffffffffffffff1673ffffffffffffffffffffffffffffffffffffffff16815260200190815260200160002060006101000a81548160ff0219169083151502179055506000600b81905550506200017b565b600080fd5b600073ffffffffffffffffffffffffffffffffffffffff82169050919050565b60006200011182620000e4565b9050919050565b620001238162000104565b81146200012f57600080fd5b50565b600081519050620001438162000118565b92915050565b600060208284031215620001625762000161620000df565b5b6000620001728482850162000132565b91505092915050565b619c1f806200018b6000396000f3fe60806040523480156200001157600080fd5b5060043610620001485760003560e01c80636d61d4c911620000bd578063af26fc49116200007b578063af26fc4914620003e1578063ba15cdd91462000401578063eff1f44f1462000437578063f5a353d1146200046d578063fe4524b314620004a35762000148565b80636d61d4c914620002fd5780637a57c0ff146200033357806381a6520a146200036957806383bef7a9146200039f578063958c02b414620003bf5762000148565b80634c9a7fa3116200010b5780634c9a7fa3146200022f57806350ee8e8f14620002515780635a76df3414620002715780635ab178d914620002915780636b84526514620002c75762000148565b8063205cdcff146200014d5780632345a8f0146200016d5780632c36b4b414620001a35780633b9dce0514620001d95780633efb7ae214620001f9575b600080fd5b6200016b600480360381019062000165919062002bbc565b620004d9565b005b6200018b600480360381019062000185919062002c18565b620006f5565b6040516200019a919062002cb5565b60405180910390f35b620001c16004803603810190620001bb919062002c18565b62000728565b604051620001d0919062002cf7565b60405180910390f35b620001f76004803603810190620001f1919062002d14565b62000791565b005b62000217600480360381019062000211919062002d46565b620007ec565b60405162000226919062002cf7565b60405180910390f35b620002396200081f565b60405162000248919062002d89565b60405180910390f35b6200026f600480360381019062000269919062002bbc565b62000843565b005b6200028f600480360381019062000289919062002f08565b62000a5f565b005b620002af6004803603810190620002a9919062002c18565b620013f9565b604051620002be919062002cf7565b60405180910390f35b620002e56004803603810190620002df919062002c18565b6200142c565b604051620002f4919062002d89565b60405180910390f35b6200031b600480360381019062000315919062002c18565b6200145f565b6040516200032a919062002cb5565b60405180910390f35b6200035160048036038101906200034b919062002d46565b62001492565b60405162000360919062002cf7565b60405180910390f35b620003876004803603810190620003819190620030a3565b620014cf565b60405162000396919062002d89565b60405180910390f35b620003bd6004803603810190620003b79190620030d5565b62001502565b005b620003c962001f04565b604051620003d891906200312d565b60405180910390f35b620003ff6004803603810190620003f991906200314a565b62001f0a565b005b6200041f600480360381019062000419919062002c18565b62002a0e565b6040516200042e9190620032d4565b60405180910390f35b6200045560048036038101906200044f919062002c18565b62002a2e565b6040516200046491906200312d565b60405180910390f35b6200048b6004803603810190620004859190620032f1565b62002a46565b6040516200049a919062002cf7565b60405180910390f35b620004c16004803603810190620004bb919062002d14565b62002a95565b604051620004d09190620032d4565b60405180910390f35b8273ffffffffffffffffffffffffffffffffffffffff1663a47eb7cf826040518263ffffffff1660e01b815260040162000514919062002d89565b602060405180830381865afa15801562000532573d6000803e3d6000fd5b505050506040513d601f19601f8201168201806040525081019062000558919062003369565b6200059a576040517f08c379a00000000000000000000000000000000000000000000000000000000081526004016200059190620033fc565b60405180910390fd5b8273ffffffffffffffffffffffffffffffffffffffff163373ffffffffffffffffffffffffffffffffffffffff16146200060b576040517f08c379a000000000000000000000000000000000000000000000000000000000815260040162000602906200346e565b60405180910390fd5b600460008473ffffffffffffffffffffffffffffffffffffffff1673ffffffffffffffffffffffffffffffffffffffff16815260200190815260200160002060009054906101000a900473ffffffffffffffffffffffffffffffffffffffff1673ffffffffffffffffffffffffffffffffffffffff166340c10f1984670de0b6b3a7640000856200069d9190620034bf565b6040518363ffffffff1660e01b8152600401620006bc92919062003520565b600060405180830381600087803b158015620006d757600080fd5b505af1158015620006ec573d6000803e3d6000fd5b50505050505050565b60046020528060005260406000206000915054906101000a900473ffffffffffffffffffffffffffffffffffffffff1681565b6000600960008373ffffffffffffffffffffffffffffffffffffffff1673ffffffffffffffffffffffffffffffffffffffff16815260200190815260200160002060009054906101000a900473ffffffffffffffffffffffffffffffffffffffff169050919050565b6001600360008373ffffffffffffffffffffffffffffffffffffffff1673ffffffffffffffffffffffffffffffffffffffff16815260200190815260200160002060006101000a81548160ff02191690831515021790555050565b600a6020528060005260406000206000915054906101000a900473ffffffffffffffffffffffffffffffffffffffff1681565b60008054906101000a900473ffffffffffffffffffffffffffffffffffffffff1681565b8273ffffffffffffffffffffffffffffffffffffffff1663a47eb7cf826040518263ffffffff1660e01b81526004016200087e919062002d89565b602060405180830381865afa1580156200089c573d6000803e3d6000fd5b505050506040513d601f19601f82011682018060405250810190620008c2919062003369565b62000904576040517f08c379a0000000000000000000000000000000000000000000000000000000008152600401620008fb90620033fc565b60405180910390fd5b8273ffffffffffffffffffffffffffffffffffffffff163373ffffffffffffffffffffffffffffffffffffffff161462000975576040517f08c379a00000000000000000000000000000000000000000000000000000000081526004016200096c906200346e565b60405180910390fd5b600560008473ffffffffffffffffffffffffffffffffffffffff1673ffffffffffffffffffffffffffffffffffffffff16815260200190815260200160002060009054906101000a900473ffffffffffffffffffffffffffffffffffffffff1673ffffffffffffffffffffffffffffffffffffffff166340c10f1984670de0b6b3a76400008562000a079190620034bf565b6040518363ffffffff1660e01b815260040162000a2692919062003520565b600060405180830381600087803b15801562000a4157600080fd5b505af115801562000a56573d6000803e3d6000fd5b50505050505050565b60011515600360003373ffffffffffffffffffffffffffffffffffffffff1673ffffffffffffffffffffffffffffffffffffffff16815260200190815260200160002060009054906101000a900460ff1615151462000af5576040517f08c379a000000000000000000000000000000000000000000000000000000000815260040162000aec906200359d565b60405180910390fd5b600c60009054906101000a900473ffffffffffffffffffffffffffffffffffffffff1673ffffffffffffffffffffffffffffffffffffffff1663a0769659858585856040518563ffffffff1660e01b815260040162000b58949392919062003641565b60408051808303816000875af115801562000b77573d6000803e3d6000fd5b505050506040513d601f19601f8201168201806040525081019062000b9d9190620036c1565b600d6000600e60008491906101000a81548173ffffffffffffffffffffffffffffffffffffffff021916908373ffffffffffffffffffffffffffffffffffffffff1602179055508391906101000a81548173ffffffffffffffffffffffffffffffffffffffff021916908373ffffffffffffffffffffffffffffffffffffffff16021790555050506000600d60009054906101000a900473ffffffffffffffffffffffffffffffffffffffff1690506000600e60009054906101000a900473ffffffffffffffffffffffffffffffffffffffff16905060008888600b543386863060405162000c8c9062002ab5565b62000c9e97969594939291906200372d565b604051809103906000f08015801562000cbb573d6000803e3d6000fd5b5090508273ffffffffffffffffffffffffffffffffffffffff16633950935182683635c9adc5dea000006040518363ffffffff1660e01b815260040162000d04929190620037fb565b6020604051808303816000875af115801562000d24573d6000803e3d6000fd5b505050506040513d601f19601f8201168201806040525081019062000d4a919062003369565b508273ffffffffffffffffffffffffffffffffffffffff16633950935130683635c9adc5dea000006040518363ffffffff1660e01b815260040162000d91929190620037fb565b6020604051808303816000875af115801562000db1573d6000803e3d6000fd5b505050506040513d601f19601f8201168201806040525081019062000dd7919062003369565b508173ffffffffffffffffffffffffffffffffffffffff16633950935182683635c9adc5dea000006040518363ffffffff1660e01b815260040162000e1e929190620037fb565b6020604051808303816000875af115801562000e3e573d6000803e3d6000fd5b505050506040513d601f19601f8201168201806040525081019062000e64919062003369565b508173ffffffffffffffffffffffffffffffffffffffff16633950935130683635c9adc5dea000006040518363ffffffff1660e01b815260040162000eab929190620037fb565b6020604051808303816000875af115801562000ecb573d6000803e3d6000fd5b505050506040513d601f19601f8201168201806040525081019062000ef1919062003369565b508273ffffffffffffffffffffffffffffffffffffffff16638749e2bb826040518263ffffffff1660e01b815260040162000f2d919062002d89565b600060405180830381600087803b15801562000f4857600080fd5b505af115801562000f5d573d6000803e3d6000fd5b505050508173ffffffffffffffffffffffffffffffffffffffff16638749e2bb826040518263ffffffff1660e01b815260040162000f9c919062002d89565b600060405180830381600087803b15801562000fb757600080fd5b505af115801562000fcc573d6000803e3d6000fd5b5050505082600460008373ffffffffffffffffffffffffffffffffffffffff1673ffffffffffffffffffffffffffffffffffffffff16815260200190815260200160002060006101000a81548173ffffffffffffffffffffffffffffffffffffffff021916908373ffffffffffffffffffffffffffffffffffffffff16021790555081600560008373ffffffffffffffffffffffffffffffffffffffff1673ffffffffffffffffffffffffffffffffffffffff16815260200190815260200160002060006101000a81548173ffffffffffffffffffffffffffffffffffffffff021916908373ffffffffffffffffffffffffffffffffffffffff16021790555033600660008373ffffffffffffffffffffffffffffffffffffffff1673ffffffffffffffffffffffffffffffffffffffff16815260200190815260200160002060006101000a81548173ffffffffffffffffffffffffffffffffffffffff021916908373ffffffffffffffffffffffffffffffffffffffff16021790555033600760008573ffffffffffffffffffffffffffffffffffffffff1673ffffffffffffffffffffffffffffffffffffffff16815260200190815260200160002060006101000a81548173ffffffffffffffffffffffffffffffffffffffff021916908373ffffffffffffffffffffffffffffffffffffffff160217905550806000806101000a81548173ffffffffffffffffffffffffffffffffffffffff021916908373ffffffffffffffffffffffffffffffffffffffff1602179055506001600860008373ffffffffffffffffffffffffffffffffffffffff1673ffffffffffffffffffffffffffffffffffffffff16815260200190815260200160002060006101000a81548160ff0219169083151502179055508173ffffffffffffffffffffffffffffffffffffffff166323b872dd3083683635c9adc5dea000006040518463ffffffff1660e01b8152600401620012a89392919062003828565b6020604051808303816000875af1158015620012c8573d6000803e3d6000fd5b505050506040513d601f19601f82011682018060405250810190620012ee919062003369565b508273ffffffffffffffffffffffffffffffffffffffff166323b872dd3083683635c9adc5dea000006040518463ffffffff1660e01b8152600401620013379392919062003828565b6020604051808303816000875af115801562001357573d6000803e3d6000fd5b505050506040513d601f19601f820116820180604052508101906200137d919062003369565b5080600a6000600b54815260200190815260200160002060006101000a81548173ffffffffffffffffffffffffffffffffffffffff021916908373ffffffffffffffffffffffffffffffffffffffff1602179055506001600b6000828254620013e7919062003865565b92505081905550505050505050505050565b60096020528060005260406000206000915054906101000a900473ffffffffffffffffffffffffffffffffffffffff1681565b60066020528060005260406000206000915054906101000a900473ffffffffffffffffffffffffffffffffffffffff1681565b60056020528060005260406000206000915054906101000a900473ffffffffffffffffffffffffffffffffffffffff1681565b6000600a600083815260200190815260200160002060009054906101000a900473ffffffffffffffffffffffffffffffffffffffff169050919050565b60076020528060005260406000206000915054906101000a900473ffffffffffffffffffffffffffffffffffffffff1681565b8173ffffffffffffffffffffffffffffffffffffffff1663a47eb7cf826040518263ffffffff1660e01b81526004016200153d919062002d89565b602060405180830381865afa1580156200155b573d6000803e3d6000fd5b505050506040513d601f19601f8201168201806040525081019062001581919062003369565b80620015b857503073ffffffffffffffffffffffffffffffffffffffff163373ffffffffffffffffffffffffffffffffffffffff16145b80620015ef57508173ffffffffffffffffffffffffffffffffffffffff163373ffffffffffffffffffffffffffffffffffffffff16145b62001631576040517f08c379a00000000000000000000000000000000000000000000000000000000081526004016200162890620033fc565b60405180910390fd5b8173ffffffffffffffffffffffffffffffffffffffff163373ffffffffffffffffffffffffffffffffffffffff1614620016a2576040517f08c379a000000000000000000000000000000000000000000000000000000000815260040162001699906200346e565b60405180910390fd5b600160026000600960008673ffffffffffffffffffffffffffffffffffffffff1673ffffffffffffffffffffffffffffffffffffffff16815260200190815260200160002060009054906101000a900473ffffffffffffffffffffffffffffffffffffffff1673ffffffffffffffffffffffffffffffffffffffff1673ffffffffffffffffffffffffffffffffffffffff1681526020019081526020016000206000828254620017539190620038c2565b9250508190555060005b600160008473ffffffffffffffffffffffffffffffffffffffff1673ffffffffffffffffffffffffffffffffffffffff168152602001908152602001600020805490508110156200189e57600160008473ffffffffffffffffffffffffffffffffffffffff1673ffffffffffffffffffffffffffffffffffffffff1681526020019081526020016000208181548110620017fc57620017fb620038fd565b5b9060005260206000200160009054906101000a900473ffffffffffffffffffffffffffffffffffffffff1673ffffffffffffffffffffffffffffffffffffffff166319f339616040518163ffffffff1660e01b8152600401600060405180830381600087803b1580156200186f57600080fd5b505af115801562001884573d6000803e3d6000fd5b50505050808062001895906200392c565b9150506200175d565b5060005b60016000600960008673ffffffffffffffffffffffffffffffffffffffff1673ffffffffffffffffffffffffffffffffffffffff16815260200190815260200160002060009054906101000a900473ffffffffffffffffffffffffffffffffffffffff1673ffffffffffffffffffffffffffffffffffffffff1673ffffffffffffffffffffffffffffffffffffffff1681526020019081526020016000208054905081101562001de1578273ffffffffffffffffffffffffffffffffffffffff1660016000600960008773ffffffffffffffffffffffffffffffffffffffff1673ffffffffffffffffffffffffffffffffffffffff16815260200190815260200160002060009054906101000a900473ffffffffffffffffffffffffffffffffffffffff1673ffffffffffffffffffffffffffffffffffffffff1673ffffffffffffffffffffffffffffffffffffffff168152602001908152602001600020828154811062001a165762001a15620038fd565b5b9060005260206000200160009054906101000a900473ffffffffffffffffffffffffffffffffffffffff1673ffffffffffffffffffffffffffffffffffffffff160362001dcb5760016000600960008673ffffffffffffffffffffffffffffffffffffffff1673ffffffffffffffffffffffffffffffffffffffff16815260200190815260200160002060009054906101000a900473ffffffffffffffffffffffffffffffffffffffff1673ffffffffffffffffffffffffffffffffffffffff1673ffffffffffffffffffffffffffffffffffffffff1681526020019081526020016000206001806000600960008873ffffffffffffffffffffffffffffffffffffffff1673ffffffffffffffffffffffffffffffffffffffff16815260200190815260200160002060009054906101000a900473ffffffffffffffffffffffffffffffffffffffff1673ffffffffffffffffffffffffffffffffffffffff1673ffffffffffffffffffffffffffffffffffffffff1681526020019081526020016000208054905062001baa9190620038c2565b8154811062001bbe5762001bbd620038fd565b5b9060005260206000200160009054906101000a900473ffffffffffffffffffffffffffffffffffffffff1660016000600960008773ffffffffffffffffffffffffffffffffffffffff1673ffffffffffffffffffffffffffffffffffffffff16815260200190815260200160002060009054906101000a900473ffffffffffffffffffffffffffffffffffffffff1673ffffffffffffffffffffffffffffffffffffffff1673ffffffffffffffffffffffffffffffffffffffff168152602001908152602001600020828154811062001c9c5762001c9b620038fd565b5b9060005260206000200160006101000a81548173ffffffffffffffffffffffffffffffffffffffff021916908373ffffffffffffffffffffffffffffffffffffffff16021790555060016000600960008673ffffffffffffffffffffffffffffffffffffffff1673ffffffffffffffffffffffffffffffffffffffff16815260200190815260200160002060009054906101000a900473ffffffffffffffffffffffffffffffffffffffff1673ffffffffffffffffffffffffffffffffffffffff1673ffffffffffffffffffffffffffffffffffffffff16815260200190815260200160002080548062001d955762001d9462003979565b5b6001900381819060005260206000200160006101000a81549073ffffffffffffffffffffffffffffffffffffffff021916905590555b808062001dd8906200392c565b915050620018a2565b506000600860008473ffffffffffffffffffffffffffffffffffffffff1673ffffffffffffffffffffffffffffffffffffffff16815260200190815260200160002060006101000a81548160ff021916908315150217905550600080600a60008573ffffffffffffffffffffffffffffffffffffffff16634b4967e86040518163ffffffff1660e01b8152600401602060405180830381865afa15801562001e8d573d6000803e3d6000fd5b505050506040513d601f19601f8201168201806040525081019062001eb39190620039bf565b815260200190815260200160002060006101000a81548173ffffffffffffffffffffffffffffffffffffffff021916908373ffffffffffffffffffffffffffffffffffffffff160217905550505050565b600b5481565b600115158773ffffffffffffffffffffffffffffffffffffffff1663a47eb7cf336040518263ffffffff1660e01b815260040162001f49919062002d89565b602060405180830381865afa15801562001f67573d6000803e3d6000fd5b505050506040513d601f19601f8201168201806040525081019062001f8d919062003369565b15151462001fd2576040517f08c379a000000000000000000000000000000000000000000000000000000000815260040162001fc99062003a41565b60405180910390fd5b600c60009054906101000a900473ffffffffffffffffffffffffffffffffffffffff1673ffffffffffffffffffffffffffffffffffffffff1663a0769659858585856040518563ffffffff1660e01b815260040162002035949392919062003641565b60408051808303816000875af115801562002054573d6000803e3d6000fd5b505050506040513d601f19601f820116820180604052508101906200207a9190620036c1565b600d6000600e60008491906101000a81548173ffffffffffffffffffffffffffffffffffffffff021916908373ffffffffffffffffffffffffffffffffffffffff1602179055508391906101000a81548173ffffffffffffffffffffffffffffffffffffffff021916908373ffffffffffffffffffffffffffffffffffffffff16021790555050506000600d60009054906101000a900473ffffffffffffffffffffffffffffffffffffffff1690506000600e60009054906101000a900473ffffffffffffffffffffffffffffffffffffffff16905060008888600b5433868630604051620021699062002ab5565b6200217b97969594939291906200372d565b604051809103906000f08015801562002198573d6000803e3d6000fd5b5090508273ffffffffffffffffffffffffffffffffffffffff16633950935182683635c9adc5dea000006040518363ffffffff1660e01b8152600401620021e1929190620037fb565b6020604051808303816000875af115801562002201573d6000803e3d6000fd5b505050506040513d601f19601f8201168201806040525081019062002227919062003369565b508273ffffffffffffffffffffffffffffffffffffffff16633950935130683635c9adc5dea000006040518363ffffffff1660e01b81526004016200226e929190620037fb565b6020604051808303816000875af11580156200228e573d6000803e3d6000fd5b505050506040513d601f19601f82011682018060405250810190620022b4919062003369565b508173ffffffffffffffffffffffffffffffffffffffff16633950935182683635c9adc5dea000006040518363ffffffff1660e01b8152600401620022fb929190620037fb565b6020604051808303816000875af11580156200231b573d6000803e3d6000fd5b505050506040513d601f19601f8201168201806040525081019062002341919062003369565b508173ffffffffffffffffffffffffffffffffffffffff16633950935130683635c9adc5dea000006040518363ffffffff1660e01b815260040162002388929190620037fb565b6020604051808303816000875af1158015620023a8573d6000803e3d6000fd5b505050506040513d601f19601f82011682018060405250810190620023ce919062003369565b508273ffffffffffffffffffffffffffffffffffffffff16638749e2bb826040518263ffffffff1660e01b81526004016200240a919062002d89565b600060405180830381600087803b1580156200242557600080fd5b505af11580156200243a573d6000803e3d6000fd5b505050508173ffffffffffffffffffffffffffffffffffffffff16638749e2bb826040518263ffffffff1660e01b815260040162002479919062002d89565b600060405180830381600087803b1580156200249457600080fd5b505af1158015620024a9573d6000803e3d6000fd5b5050505082600460008373ffffffffffffffffffffffffffffffffffffffff1673ffffffffffffffffffffffffffffffffffffffff16815260200190815260200160002060006101000a81548173ffffffffffffffffffffffffffffffffffffffff021916908373ffffffffffffffffffffffffffffffffffffffff16021790555081600560008373ffffffffffffffffffffffffffffffffffffffff1673ffffffffffffffffffffffffffffffffffffffff16815260200190815260200160002060006101000a81548173ffffffffffffffffffffffffffffffffffffffff021916908373ffffffffffffffffffffffffffffffffffffffff16021790555033600660008373ffffffffffffffffffffffffffffffffffffffff1673ffffffffffffffffffffffffffffffffffffffff16815260200190815260200160002060006101000a81548173ffffffffffffffffffffffffffffffffffffffff021916908373ffffffffffffffffffffffffffffffffffffffff16021790555033600760008573ffffffffffffffffffffffffffffffffffffffff1673ffffffffffffffffffffffffffffffffffffffff16815260200190815260200160002060006101000a81548173ffffffffffffffffffffffffffffffffffffffff021916908373ffffffffffffffffffffffffffffffffffffffff1602179055506001600860008373ffffffffffffffffffffffffffffffffffffffff1673ffffffffffffffffffffffffffffffffffffffff16815260200190815260200160002060006101000a81548160ff021916908315150217905550600160008b73ffffffffffffffffffffffffffffffffffffffff1673ffffffffffffffffffffffffffffffffffffffff168152602001908152602001600020819080600181540180825580915050600190039060005260206000200160009091909190916101000a81548173ffffffffffffffffffffffffffffffffffffffff021916908373ffffffffffffffffffffffffffffffffffffffff1602179055506001600260008c73ffffffffffffffffffffffffffffffffffffffff1673ffffffffffffffffffffffffffffffffffffffff1681526020019081526020016000206000828254620027ef919062003865565b9250508190555089600960008373ffffffffffffffffffffffffffffffffffffffff1673ffffffffffffffffffffffffffffffffffffffff16815260200190815260200160002060006101000a81548173ffffffffffffffffffffffffffffffffffffffff021916908373ffffffffffffffffffffffffffffffffffffffff1602179055508173ffffffffffffffffffffffffffffffffffffffff166323b872dd3083683635c9adc5dea000006040518463ffffffff1660e01b8152600401620028bc9392919062003828565b6020604051808303816000875af1158015620028dc573d6000803e3d6000fd5b505050506040513d601f19601f8201168201806040525081019062002902919062003369565b508273ffffffffffffffffffffffffffffffffffffffff166323b872dd3083683635c9adc5dea000006040518463ffffffff1660e01b81526004016200294b9392919062003828565b6020604051808303816000875af11580156200296b573d6000803e3d6000fd5b505050506040513d601f19601f8201168201806040525081019062002991919062003369565b5080600a6000600b54815260200190815260200160002060006101000a81548173ffffffffffffffffffffffffffffffffffffffff021916908373ffffffffffffffffffffffffffffffffffffffff1602179055506001600b6000828254620029fb919062003865565b9250508190555050505050505050505050565b60086020528060005260406000206000915054906101000a900460ff1681565b60026020528060005260406000206000915090505481565b6001602052816000526040600020818154811062002a6357600080fd5b906000526020600020016000915091509054906101000a900473ffffffffffffffffffffffffffffffffffffffff1681565b60036020528060005260406000206000915054906101000a900460ff1681565b6161868062003a6483390190565b6000604051905090565b600080fd5b600080fd5b600073ffffffffffffffffffffffffffffffffffffffff82169050919050565b600062002b048262002ad7565b9050919050565b600062002b188262002af7565b9050919050565b62002b2a8162002b0b565b811462002b3657600080fd5b50565b60008135905062002b4a8162002b1f565b92915050565b6000819050919050565b62002b658162002b50565b811462002b7157600080fd5b50565b60008135905062002b858162002b5a565b92915050565b62002b968162002af7565b811462002ba257600080fd5b50565b60008135905062002bb68162002b8b565b92915050565b60008060006060848603121562002bd85762002bd762002acd565b5b600062002be88682870162002b39565b935050602062002bfb8682870162002b74565b925050604062002c0e8682870162002ba5565b9150509250925092565b60006020828403121562002c315762002c3062002acd565b5b600062002c418482850162002b39565b91505092915050565b6000819050919050565b600062002c7562002c6f62002c698462002ad7565b62002c4a565b62002ad7565b9050919050565b600062002c898262002c54565b9050919050565b600062002c9d8262002c7c565b9050919050565b62002caf8162002c90565b82525050565b600060208201905062002ccc600083018462002ca4565b92915050565b600062002cdf8262002c7c565b9050919050565b62002cf18162002cd2565b82525050565b600060208201905062002d0e600083018462002ce6565b92915050565b60006020828403121562002d2d5762002d2c62002acd565b5b600062002d3d8482850162002ba5565b91505092915050565b60006020828403121562002d5f5762002d5e62002acd565b5b600062002d6f8482850162002b74565b91505092915050565b62002d838162002af7565b82525050565b600060208201905062002da0600083018462002d78565b92915050565b600080fd5b600080fd5b6000601f19601f8301169050919050565b7f4e487b7100000000000000000000000000000000000000000000000000000000600052604160045260246000fd5b62002dfb8262002db0565b810181811067ffffffffffffffff8211171562002e1d5762002e1c62002dc1565b5b80604052505050565b600062002e3262002ac3565b905062002e40828262002df0565b919050565b600067ffffffffffffffff82111562002e635762002e6262002dc1565b5b62002e6e8262002db0565b9050602081019050919050565b82818337600083830152505050565b600062002ea162002e9b8462002e45565b62002e26565b90508281526020810184848401111562002ec05762002ebf62002dab565b5b62002ecd84828562002e7b565b509392505050565b600082601f83011262002eed5762002eec62002da6565b5b813562002eff84826020860162002e8a565b91505092915050565b60008060008060008060c0878903121562002f285762002f2762002acd565b5b600087013567ffffffffffffffff81111562002f495762002f4862002ad2565b5b62002f5789828a0162002ed5565b965050602087013567ffffffffffffffff81111562002f7b5762002f7a62002ad2565b5b62002f8989828a0162002ed5565b955050604087013567ffffffffffffffff81111562002fad5762002fac62002ad2565b5b62002fbb89828a0162002ed5565b945050606087013567ffffffffffffffff81111562002fdf5762002fde62002ad2565b5b62002fed89828a0162002ed5565b935050608087013567ffffffffffffffff81111562003011576200301062002ad2565b5b6200301f89828a0162002ed5565b92505060a087013567ffffffffffffffff81111562003043576200304262002ad2565b5b6200305189828a0162002ed5565b9150509295509295509295565b60006200306b8262002af7565b9050919050565b6200307d816200305e565b81146200308957600080fd5b50565b6000813590506200309d8162003072565b92915050565b600060208284031215620030bc57620030bb62002acd565b5b6000620030cc848285016200308c565b91505092915050565b60008060408385031215620030ef57620030ee62002acd565b5b6000620030ff8582860162002b39565b9250506020620031128582860162002ba5565b9150509250929050565b620031278162002b50565b82525050565b60006020820190506200314460008301846200311c565b92915050565b600080600080600080600060e0888a0312156200316c576200316b62002acd565b5b60006200317c8a828b0162002b39565b975050602088013567ffffffffffffffff811115620031a0576200319f62002ad2565b5b620031ae8a828b0162002ed5565b965050604088013567ffffffffffffffff811115620031d257620031d162002ad2565b5b620031e08a828b0162002ed5565b955050606088013567ffffffffffffffff81111562003204576200320362002ad2565b5b620032128a828b0162002ed5565b945050608088013567ffffffffffffffff81111562003236576200323562002ad2565b5b620032448a828b0162002ed5565b93505060a088013567ffffffffffffffff81111562003268576200326762002ad2565b5b620032768a828b0162002ed5565b92505060c088013567ffffffffffffffff8111156200329a576200329962002ad2565b5b620032a88a828b0162002ed5565b91505092959891949750929550565b60008115159050919050565b620032ce81620032b7565b82525050565b6000602082019050620032eb6000830184620032c3565b92915050565b600080604083850312156200330b576200330a62002acd565b5b60006200331b8582860162002b39565b92505060206200332e8582860162002b74565b9150509250929050565b6200334381620032b7565b81146200334f57600080fd5b50565b600081519050620033638162003338565b92915050565b60006020828403121562003382576200338162002acd565b5b6000620033928482850162003352565b91505092915050565b600082825260208201905092915050565b7f4e6f7420594b206f662073656c65637465642044414f00000000000000000000600082015250565b6000620033e46016836200339b565b9150620033f182620033ac565b602082019050919050565b600060208201905081810360008301526200341781620033d5565b9050919050565b7f446f6e2774206576656e20747279000000000000000000000000000000000000600082015250565b600062003456600e836200339b565b915062003463826200341e565b602082019050919050565b60006020820190508181036000830152620034898162003447565b9050919050565b7f4e487b7100000000000000000000000000000000000000000000000000000000600052601160045260246000fd5b6000620034cc8262002b50565b9150620034d98362002b50565b9250817fffffffffffffffffffffffffffffffffffffffffffffffffffffffffffffffff048311821515161562003515576200351462003490565b5b828202905092915050565b600060408201905062003537600083018562002d78565b6200354660208301846200311c565b9392505050565b7f4e6f7420616464656420617320612044414f2043726561746f72000000000000600082015250565b600062003585601a836200339b565b915062003592826200354d565b602082019050919050565b60006020820190508181036000830152620035b88162003576565b9050919050565b600081519050919050565b60005b83811015620035ea578082015181840152602081019050620035cd565b83811115620035fa576000848401525b50505050565b60006200360d82620035bf565b6200361981856200339b565b93506200362b818560208601620035ca565b620036368162002db0565b840191505092915050565b600060808201905081810360008301526200365d818762003600565b9050818103602083015262003673818662003600565b9050818103604083015262003689818562003600565b905081810360608301526200369f818462003600565b905095945050505050565b600081519050620036bb8162002b8b565b92915050565b60008060408385031215620036db57620036da62002acd565b5b6000620036eb85828601620036aa565b9250506020620036fe85828601620036aa565b9150509250929050565b6000620037158262002c7c565b9050919050565b620037278162003708565b82525050565b600060e082019050818103600083015262003749818a62003600565b905081810360208301526200375f818962003600565b90506200377060408301886200311c565b6200377f606083018762002d78565b6200378e608083018662002ca4565b6200379d60a083018562002ca4565b620037ac60c08301846200371c565b98975050505050505050565b6000819050919050565b6000620037e3620037dd620037d784620037b8565b62002c4a565b62002b50565b9050919050565b620037f581620037c2565b82525050565b600060408201905062003812600083018562002d78565b620038216020830184620037ea565b9392505050565b60006060820190506200383f600083018662002d78565b6200384e602083018562002d78565b6200385d6040830184620037ea565b949350505050565b6000620038728262002b50565b91506200387f8362002b50565b9250827fffffffffffffffffffffffffffffffffffffffffffffffffffffffffffffffff03821115620038b757620038b662003490565b5b828201905092915050565b6000620038cf8262002b50565b9150620038dc8362002b50565b925082821015620038f257620038f162003490565b5b828203905092915050565b7f4e487b7100000000000000000000000000000000000000000000000000000000600052603260045260246000fd5b6000620039398262002b50565b91507fffffffffffffffffffffffffffffffffffffffffffffffffffffffffffffffff82036200396e576200396d62003490565b5b600182019050919050565b7f4e487b7100000000000000000000000000000000000000000000000000000000600052603160045260246000fd5b600081519050620039b98162002b5a565b92915050565b600060208284031215620039d857620039d762002acd565b5b6000620039e884828501620039a8565b91505092915050565b7f4e6f74206120594b206f6620706172656e742044414f00000000000000000000600082015250565b600062003a296016836200339b565b915062003a3682620039f1565b602082019050919050565b6000602082019050818103600083015262003a5c8162003a1a565b905091905056fe60806040523480156200001157600080fd5b506040516200618638038062006186833981810160405281019062000037919062000577565b80600560006101000a81548173ffffffffffffffffffffffffffffffffffffffff021916908373ffffffffffffffffffffffffffffffffffffffff16021790555086600090805190602001906200009092919062000200565b50846003819055508560019080519060200190620000b092919062000200565b5082600d60006101000a81548173ffffffffffffffffffffffffffffffffffffffff021916908373ffffffffffffffffffffffffffffffffffffffff16021790555081600c60006101000a81548173ffffffffffffffffffffffffffffffffffffffff021916908373ffffffffffffffffffffffffffffffffffffffff160217905550670de0b6b3a7640000600b60008673ffffffffffffffffffffffffffffffffffffffff1673ffffffffffffffffffffffffffffffffffffffff16815260200190815260200160002060008282546200018c919062000697565b92505081905550670de0b6b3a7640000600a60008673ffffffffffffffffffffffffffffffffffffffff1673ffffffffffffffffffffffffffffffffffffffff1681526020019081526020016000206000828254620001ec919062000697565b925050819055505050505050505062000758565b8280546200020e9062000723565b90600052602060002090601f0160209004810192826200023257600085556200027e565b82601f106200024d57805160ff19168380011785556200027e565b828001600101855582156200027e579182015b828111156200027d57825182559160200191906001019062000260565b5b5090506200028d919062000291565b5090565b5b80821115620002ac57600081600090555060010162000292565b5090565b6000604051905090565b600080fd5b600080fd5b600080fd5b600080fd5b6000601f19601f8301169050919050565b7f4e487b7100000000000000000000000000000000000000000000000000000000600052604160045260246000fd5b6200031982620002ce565b810181811067ffffffffffffffff821117156200033b576200033a620002df565b5b80604052505050565b600062000350620002b0565b90506200035e82826200030e565b919050565b600067ffffffffffffffff821115620003815762000380620002df565b5b6200038c82620002ce565b9050602081019050919050565b60005b83811015620003b95780820151818401526020810190506200039c565b83811115620003c9576000848401525b50505050565b6000620003e6620003e08462000363565b62000344565b905082815260208101848484011115620004055762000404620002c9565b5b6200041284828562000399565b509392505050565b600082601f830112620004325762000431620002c4565b5b815162000444848260208601620003cf565b91505092915050565b6000819050919050565b62000462816200044d565b81146200046e57600080fd5b50565b600081519050620004828162000457565b92915050565b600073ffffffffffffffffffffffffffffffffffffffff82169050919050565b6000620004b58262000488565b9050919050565b620004c781620004a8565b8114620004d357600080fd5b50565b600081519050620004e781620004bc565b92915050565b6000620004fa82620004a8565b9050919050565b6200050c81620004ed565b81146200051857600080fd5b50565b6000815190506200052c8162000501565b92915050565b60006200053f82620004a8565b9050919050565b620005518162000532565b81146200055d57600080fd5b50565b600081519050620005718162000546565b92915050565b600080600080600080600060e0888a031215620005995762000598620002ba565b5b600088015167ffffffffffffffff811115620005ba57620005b9620002bf565b5b620005c88a828b016200041a565b975050602088015167ffffffffffffffff811115620005ec57620005eb620002bf565b5b620005fa8a828b016200041a565b96505060406200060d8a828b0162000471565b9550506060620006208a828b01620004d6565b9450506080620006338a828b016200051b565b93505060a0620006468a828b016200051b565b92505060c0620006598a828b0162000560565b91505092959891949750929550565b7f4e487b7100000000000000000000000000000000000000000000000000000000600052601160045260246000fd5b6000620006a4826200044d565b9150620006b1836200044d565b9250827fffffffffffffffffffffffffffffffffffffffffffffffffffffffffffffffff03821115620006e957620006e862000668565b5b828201905092915050565b7f4e487b7100000000000000000000000000000000000000000000000000000000600052602260045260246000fd5b600060028204905060018216806200073c57607f821691505b602082108103620007525762000751620006f4565b5b50919050565b615a1e80620007686000396000f3fe608060405234801561001057600080fd5b506004361061027f5760003560e01c80638661fa701161015c578063c1bff3e0116100ce578063e5c28c9011610087578063e5c28c901461074b578063e93768821461077b578063f08c03bc14610799578063f70e51a7146107b5578063f8a8fd6d146107d3578063f9b8a27a146107f15761027f565b8063c1bff3e014610677578063cf5265d814610693578063d25129c41461069d578063d8c6bc21146106cd578063d978ffba146106fd578063dd3bf85c1461072d5761027f565b8063a2ded95011610120578063a2ded950146105b9578063a38b39d4146105d5578063a44b21ae146105f1578063a47eb7cf1461060d578063a9a2a4a31461063d578063bdf52c221461066d5761027f565b80638661fa70146105035780638a19ab351461051f5780638f7c59d01461053b5780639d92c1081461056b5780639f2524ee146105895761027f565b8063451abcec116101f557806362b25fc6116101b957806362b25fc61461046957806364944d4d1461048757806371df56051461049157806375fd8377146104c15780637b93e652146104dd5780637e11a556146104e75761027f565b8063451abcec146103c35780634a9f1575146103e15780634b4967e8146103eb578063560d09b6146104095780635d808950146104395761027f565b806319f339611161024757806319f339611461032b57806323ee2c83146103355780632ab09d14146103515780632c14ed171461036f578063339a9e591461038b57806342b9d7e4146103a75761027f565b8063013cf08b1461028457806307e25f27146102bb57806310742870146102d7578063114d7756146102f357806314e72f431461030f575b600080fd5b61029e600480360381019061029991906140fc565b61080d565b6040516102b2989796959493929190614289565b60405180910390f35b6102d560048036038101906102d091906140fc565b610a1a565b005b6102f160048036038101906102ec9190614348565b610a5c565b005b61030d60048036038101906103089190614348565b610b46565b005b61032960048036038101906103249190614375565b610bea565b005b610333610c9f565b005b61034f600480360381019061034a9190614375565b610ef8565b005b610359611001565b60405161036691906143b5565b60405180910390f35b610389600480360381019061038491906140fc565b611007565b005b6103a560048036038101906103a09190614348565b611049565b005b6103c160048036038101906103bc91906140fc565b6110ed565b005b6103cb6112ab565b6040516103d891906144dc565b60405180910390f35b6103e96113e6565b005b6103f36114c4565b60405161040091906143b5565b60405180910390f35b610423600480360381019061041e91906140fc565b6114ce565b60405161043091906143b5565b60405180910390f35b610453600480360381019061044e91906140fc565b6114f7565b60405161046091906144fe565b60405180910390f35b6104716115a3565b60405161047e91906144dc565b60405180910390f35b61048f6116de565b005b6104ab60048036038101906104a69190614348565b6117bc565b6040516104b891906143b5565b60405180910390f35b6104db60048036038101906104d69190614375565b6117d4565b005b6104e5611959565b005b61050160048036038101906104fc9190614375565b6119fa565b005b61051d600480360381019061051891906147fe565b611b03565b005b610539600480360381019061053491906140fc565b61216b565b005b610555600480360381019061055091906140fc565b612316565b60405161056291906144dc565b60405180910390f35b61057361249d565b60405161058091906144fe565b60405180910390f35b6105a3600480360381019061059e9190614375565b61252b565b6040516105b091906148a4565b60405180910390f35b6105d360048036038101906105ce91906140fc565b61255a565b005b6105ef60048036038101906105ea9190614348565b61259c565b005b61060b600480360381019061060691906148bf565b612686565b005b61062760048036038101906106229190614348565b612deb565b60405161063491906148a4565b60405180910390f35b61065760048036038101906106529190614375565b6131c0565b60405161066491906143b5565b60405180910390f35b6106756131e5565b005b610691600480360381019061068c919061495e565b613286565b005b61069b6135b7565b005b6106b760048036038101906106b291906140fc565b6137c8565b6040516106c49190614b19565b60405180910390f35b6106e760048036038101906106e29190614348565b6138c3565b6040516106f491906143b5565b60405180910390f35b610717600480360381019061071291906140fc565b6138db565b60405161072491906144fe565b60405180910390f35b610735613989565b6040516107429190614b9a565b60405180910390f35b61076560048036038101906107609190614375565b6139af565b60405161077291906148a4565b60405180910390f35b6107836139de565b60405161079091906144fe565b60405180910390f35b6107b360048036038101906107ae9190614375565b613a6c565b005b6107bd613bf1565b6040516107ca9190614b9a565b60405180910390f35b6107db613c17565b6040516107e89190614bb5565b60405180910390f35b61080b60048036038101906108069190614375565b613c3d565b005b60066020528060005260406000206000915090508060000154908060010160009054906101000a900473ffffffffffffffffffffffffffffffffffffffff169080600201805461085c90614bff565b80601f016020809104026020016040519081016040528092919081815260200182805461088890614bff565b80156108d55780601f106108aa576101008083540402835291602001916108d5565b820191906000526020600020905b8154815290600101906020018083116108b857829003601f168201915b5050505050908060030180546108ea90614bff565b80601f016020809104026020016040519081016040528092919081815260200182805461091690614bff565b80156109635780601f1061093857610100808354040283529160200191610963565b820191906000526020600020905b81548152906001019060200180831161094657829003601f168201915b5050505050908060040154908060070160009054906101000a900460ff169080600801549080600901805461099790614bff565b80601f01602080910402602001604051908101604052809291908181526020018280546109c390614bff565b8015610a105780601f106109e557610100808354040283529160200191610a10565b820191906000526020600020905b8154815290600101906020018083116109f357829003601f168201915b5050505050905088565b60016006600083815260200190815260200160002060070160006101000a81548160ff02191690836002811115610a5457610a53614212565b5b021790555050565b610a6533612deb565b610aa4576040517f08c379a0000000000000000000000000000000000000000000000000000000008152600401610a9b90614c7c565b60405180910390fd5b600d60009054906101000a900473ffffffffffffffffffffffffffffffffffffffff1673ffffffffffffffffffffffffffffffffffffffff16635dc73582826040518263ffffffff1660e01b8152600401610aff9190614bb5565b6020604051808303816000875af1158015610b1e573d6000803e3d6000fd5b505050506040513d601f19601f82011682018060405250810190610b429190614cc8565b5050565b600d60009054906101000a900473ffffffffffffffffffffffffffffffffffffffff1673ffffffffffffffffffffffffffffffffffffffff1663b1d1ea9782336040518363ffffffff1660e01b8152600401610ba3929190614cf5565b6020604051808303816000875af1158015610bc2573d6000803e3d6000fd5b505050506040513d601f19601f82011682018060405250810190610be69190614cc8565b5050565b610bf333612deb565b610c32576040517f08c379a0000000000000000000000000000000000000000000000000000000008152600401610c2990614d6a565b60405180910390fd5b670de0b6b3a764000081610c469190614db9565b600b60008473ffffffffffffffffffffffffffffffffffffffff1673ffffffffffffffffffffffffffffffffffffffff1681526020019081526020016000206000828254610c949190614e13565b925050819055505050565b610ca833612deb565b80610d005750600560009054906101000a900473ffffffffffffffffffffffffffffffffffffffff1673ffffffffffffffffffffffffffffffffffffffff163373ffffffffffffffffffffffffffffffffffffffff16145b610d3f576040517f08c379a0000000000000000000000000000000000000000000000000000000008152600401610d3690614edb565b60405180910390fd5b600c60009054906101000a900473ffffffffffffffffffffffffffffffffffffffff1673ffffffffffffffffffffffffffffffffffffffff1663c3b639b66040518163ffffffff1660e01b81526004016020604051808303816000875af1158015610dae573d6000803e3d6000fd5b505050506040513d601f19601f82011682018060405250810190610dd29190614cc8565b50600560009054906101000a900473ffffffffffffffffffffffffffffffffffffffff1673ffffffffffffffffffffffffffffffffffffffff166383bef7a930336040518363ffffffff1660e01b8152600401610e30929190614f1c565b600060405180830381600087803b158015610e4a57600080fd5b505af1158015610e5e573d6000803e3d6000fd5b50505050600d60009054906101000a900473ffffffffffffffffffffffffffffffffffffffff1673ffffffffffffffffffffffffffffffffffffffff1663c3b639b66040518163ffffffff1660e01b81526004016020604051808303816000875af1158015610ed1573d6000803e3d6000fd5b505050506040513d601f19601f82011682018060405250810190610ef59190614cc8565b50565b610f0133612deb565b610f40576040517f08c379a0000000000000000000000000000000000000000000000000000000008152600401610f3790614d6a565b60405180910390fd5b600c60009054906101000a900473ffffffffffffffffffffffffffffffffffffffff1673ffffffffffffffffffffffffffffffffffffffff16638da9e67783670de0b6b3a764000084610f939190614db9565b6040518363ffffffff1660e01b8152600401610fb0929190614f45565b6020604051808303816000875af1158015610fcf573d6000803e3d6000fd5b505050506040513d601f19601f82011682018060405250810190610ff39190614cc8565b50610ffd81613cf2565b5050565b600e5481565b60026006600083815260200190815260200160002060070160006101000a81548160ff0219169083600281111561104157611040614212565b5b021790555050565b600c60009054906101000a900473ffffffffffffffffffffffffffffffffffffffff1673ffffffffffffffffffffffffffffffffffffffff1663b1d1ea9782336040518363ffffffff1660e01b81526004016110a6929190614cf5565b6020604051808303816000875af11580156110c5573d6000803e3d6000fd5b505050506040513d601f19601f820116820180604052508101906110e99190614cc8565b5050565b670de0b6b3a7640000816111019190614db9565b600a60003373ffffffffffffffffffffffffffffffffffffffff1673ffffffffffffffffffffffffffffffffffffffff168152602001908152602001600020541015611182576040517f08c379a000000000000000000000000000000000000000000000000000000000815260040161117990614fba565b60405180910390fd5b670de0b6b3a7640000816111969190614db9565b600a60003373ffffffffffffffffffffffffffffffffffffffff1673ffffffffffffffffffffffffffffffffffffffff16815260200190815260200160002060008282546111e49190614fda565b92505081905550600c60009054906101000a900473ffffffffffffffffffffffffffffffffffffffff1673ffffffffffffffffffffffffffffffffffffffff16638da9e67733670de0b6b3a76400008461123e9190614db9565b6040518363ffffffff1660e01b815260040161125b929190614f45565b6020604051808303816000875af115801561127a573d6000803e3d6000fd5b505050506040513d601f19601f8201168201806040525081019061129e9190614cc8565b506112a881613cf2565b50565b60606000600e5467ffffffffffffffff8111156112cb576112ca614525565b5b6040519080825280602002602001820160405280156112fe57816020015b60608152602001906001900390816112e95790505b50905060005b600e548110156113de5760066000828152602001908152602001600020600301805461132f90614bff565b80601f016020809104026020016040519081016040528092919081815260200182805461135b90614bff565b80156113a85780601f1061137d576101008083540402835291602001916113a8565b820191906000526020600020905b81548152906001019060200180831161138b57829003601f168201915b50505050508282815181106113c0576113bf61500e565b5b602002602001018190525080806113d69061503d565b915050611304565b508091505090565b6113ef33612deb565b61142e576040517f08c379a000000000000000000000000000000000000000000000000000000000815260040161142590614c7c565b60405180910390fd5b600d60009054906101000a900473ffffffffffffffffffffffffffffffffffffffff1673ffffffffffffffffffffffffffffffffffffffff1663c3b639b66040518163ffffffff1660e01b81526004016020604051808303816000875af115801561149d573d6000803e3d6000fd5b505050506040513d601f19601f820116820180604052508101906114c19190614cc8565b50565b6000600354905090565b600080600090506006600084815260200190815260200160002060080154905080915050919050565b6002818154811061150757600080fd5b90600052602060002001600091509050805461152290614bff565b80601f016020809104026020016040519081016040528092919081815260200182805461154e90614bff565b801561159b5780601f106115705761010080835404028352916020019161159b565b820191906000526020600020905b81548152906001019060200180831161157e57829003601f168201915b505050505081565b60606000600e5467ffffffffffffffff8111156115c3576115c2614525565b5b6040519080825280602002602001820160405280156115f657816020015b60608152602001906001900390816115e15790505b50905060005b600e548110156116d65760066000828152602001908152602001600020600201805461162790614bff565b80601f016020809104026020016040519081016040528092919081815260200182805461165390614bff565b80156116a05780601f10611675576101008083540402835291602001916116a0565b820191906000526020600020905b81548152906001019060200180831161168357829003601f168201915b50505050508282815181106116b8576116b761500e565b5b602002602001018190525080806116ce9061503d565b9150506115fc565b508091505090565b6116e733612deb565b611726576040517f08c379a000000000000000000000000000000000000000000000000000000000815260040161171d90614c7c565b60405180910390fd5b600c60009054906101000a900473ffffffffffffffffffffffffffffffffffffffff1673ffffffffffffffffffffffffffffffffffffffff1663c3b639b66040518163ffffffff1660e01b81526004016020604051808303816000875af1158015611795573d6000803e3d6000fd5b505050506040513d601f19601f820116820180604052508101906117b99190614cc8565b50565b600b6020528060005260406000206000915090505481565b600d60009054906101000a900473ffffffffffffffffffffffffffffffffffffffff1673ffffffffffffffffffffffffffffffffffffffff1663a95bbced836040518263ffffffff1660e01b815260040161182f9190614bb5565b602060405180830381865afa15801561184c573d6000803e3d6000fd5b505050506040513d601f19601f82011682018060405250810190611870919061509a565b8111156118b2576040517f08c379a00000000000000000000000000000000000000000000000000000000081526004016118a990615113565b60405180910390fd5b600d60009054906101000a900473ffffffffffffffffffffffffffffffffffffffff1673ffffffffffffffffffffffffffffffffffffffff1663490169348333846040518463ffffffff1660e01b815260040161191193929190615133565b6020604051808303816000875af1158015611930573d6000803e3d6000fd5b505050506040513d601f19601f820116820180604052508101906119549190614cc8565b505050565b600c60009054906101000a900473ffffffffffffffffffffffffffffffffffffffff1673ffffffffffffffffffffffffffffffffffffffff1663396473f7336040518263ffffffff1660e01b81526004016119b49190614bb5565b6020604051808303816000875af11580156119d3573d6000803e3d6000fd5b505050506040513d601f19601f820116820180604052508101906119f79190614cc8565b50565b611a0333612deb565b611a42576040517f08c379a0000000000000000000000000000000000000000000000000000000008152600401611a3990614d6a565b60405180910390fd5b600d60009054906101000a900473ffffffffffffffffffffffffffffffffffffffff1673ffffffffffffffffffffffffffffffffffffffff16638da9e67783670de0b6b3a764000084611a959190614db9565b6040518363ffffffff1660e01b8152600401611ab2929190614f45565b6020604051808303816000875af1158015611ad1573d6000803e3d6000fd5b505050506040513d601f19601f82011682018060405250810190611af59190614cc8565b50611aff81613d86565b5050565b600060066000858152602001908152602001600020905060001515600760003373ffffffffffffffffffffffffffffffffffffffff1673ffffffffffffffffffffffffffffffffffffffff168152602001908152602001600020600086815260200190815260200160002060009054906101000a900460ff16151514611bbe576040517f08c379a0000000000000000000000000000000000000000000000000000000008152600401611bb5906151b6565b60405180910390fd5b6000600c60009054906101000a900473ffffffffffffffffffffffffffffffffffffffff1673ffffffffffffffffffffffffffffffffffffffff166370a08231336040518263ffffffff1660e01b8152600401611c1b9190614bb5565b602060405180830381865afa158015611c38573d6000803e3d6000fd5b505050506040513d601f19601f82011682018060405250810190611c5c919061509a565b11611c9c576040517f08c379a0000000000000000000000000000000000000000000000000000000008152600401611c9390615248565b60405180910390fd5b62093a808160040154611caf9190614e13565b421115611cf1576040517f08c379a0000000000000000000000000000000000000000000000000000000008152600401611ce8906152b4565b60405180910390fd5b600280811115611d0457611d03614212565b5b6006600086815260200190815260200160002060070160009054906101000a900460ff166002811115611d3a57611d39614212565b5b14611d7a576040517f08c379a0000000000000000000000000000000000000000000000000000000008152600401611d7190615320565b60405180910390fd5b6000805b8351811015611dc257838181518110611d9a57611d9961500e565b5b602002602001015182611dad9190614e13565b91508080611dba9061503d565b915050611d7e565b508160080154811115611dd457600080fd5b6000805b8360050180549050811015611ef05760005b8651811015611edc57611ebf856005018381548110611e0c57611e0b61500e565b5b906000526020600020018054611e2190614bff565b80601f0160208091040260200160405190810160405280929190818152602001828054611e4d90614bff565b8015611e9a5780601f10611e6f57610100808354040283529160200191611e9a565b820191906000526020600020905b815481529060010190602001808311611e7d57829003601f168201915b5050505050888381518110611eb257611eb161500e565b5b6020026020010151613e1a565b15611ec957600192505b8080611ed49061503d565b915050611dea565b508080611ee89061503d565b915050611dd8565b506001151581151514611f0257600080fd5b60005b836005018054905081101561206a5760005b865181101561205657611fec856005018381548110611f3957611f3861500e565b5b906000526020600020018054611f4e90614bff565b80601f0160208091040260200160405190810160405280929190818152602001828054611f7a90614bff565b8015611fc75780601f10611f9c57610100808354040283529160200191611fc7565b820191906000526020600020905b815481529060010190602001808311611faa57829003601f168201915b5050505050888381518110611fdf57611fde61500e565b5b6020026020010151613e1a565b15612043578581815181106120045761200361500e565b5b60200260200101518560060183815481106120225761202161500e565b5b90600052602060002001600082825461203b9190614e13565b925050819055505b808061204e9061503d565b915050611f17565b5080806120629061503d565b915050611f05565b506001600760003373ffffffffffffffffffffffffffffffffffffffff1673ffffffffffffffffffffffffffffffffffffffff168152602001908152602001600020600088815260200190815260200160002060006101000a81548160ff021916908315150217905550600c60009054906101000a900473ffffffffffffffffffffffffffffffffffffffff1673ffffffffffffffffffffffffffffffffffffffff1663fc13d51887336040518363ffffffff1660e01b8152600401612131929190615340565b600060405180830381600087803b15801561214b57600080fd5b505af115801561215f573d6000803e3d6000fd5b50505050505050505050565b80600b60003373ffffffffffffffffffffffffffffffffffffffff1673ffffffffffffffffffffffffffffffffffffffff1681526020019081526020016000205410156121ed576040517f08c379a00000000000000000000000000000000000000000000000000000000081526004016121e490614fba565b60405180910390fd5b670de0b6b3a7640000816122019190614db9565b600b60003373ffffffffffffffffffffffffffffffffffffffff1673ffffffffffffffffffffffffffffffffffffffff168152602001908152602001600020600082825461224f9190614fda565b92505081905550600d60009054906101000a900473ffffffffffffffffffffffffffffffffffffffff1673ffffffffffffffffffffffffffffffffffffffff16638da9e67733670de0b6b3a7640000846122a99190614db9565b6040518363ffffffff1660e01b81526004016122c6929190614f45565b6020604051808303816000875af11580156122e5573d6000803e3d6000fd5b505050506040513d601f19601f820116820180604052508101906123099190614cc8565b5061231381613d86565b50565b60606000600660008481526020019081526020016000206005018054905067ffffffffffffffff81111561234d5761234c614525565b5b60405190808252806020026020018201604052801561238057816020015b606081526020019060019003908161236b5790505b50905060005b6006600085815260200190815260200160002060050180549050811015612493576006600085815260200190815260200160002060050181815481106123cf576123ce61500e565b5b9060005260206000200180546123e490614bff565b80601f016020809104026020016040519081016040528092919081815260200182805461241090614bff565b801561245d5780601f106124325761010080835404028352916020019161245d565b820191906000526020600020905b81548152906001019060200180831161244057829003601f168201915b50505050508282815181106124755761247461500e565b5b6020026020010181905250808061248b9061503d565b915050612386565b5080915050919050565b600180546124aa90614bff565b80601f01602080910402602001604051908101604052809291908181526020018280546124d690614bff565b80156125235780601f106124f857610100808354040283529160200191612523565b820191906000526020600020905b81548152906001019060200180831161250657829003601f168201915b505050505081565b60076020528160005260406000206020528060005260406000206000915091509054906101000a900460ff1681565b60006006600083815260200190815260200160002060070160006101000a81548160ff0219169083600281111561259457612593614212565b5b021790555050565b6125a533612deb565b6125e4576040517f08c379a00000000000000000000000000000000000000000000000000000000081526004016125db90614c7c565b60405180910390fd5b600c60009054906101000a900473ffffffffffffffffffffffffffffffffffffffff1673ffffffffffffffffffffffffffffffffffffffff16635dc73582826040518263ffffffff1660e01b815260040161263f9190614bb5565b6020604051808303816000875af115801561265e573d6000803e3d6000fd5b505050506040513d601f19601f820116820180604052508101906126829190614cc8565b5050565b600060066000868152602001908152602001600020905060001515600760003373ffffffffffffffffffffffffffffffffffffffff1673ffffffffffffffffffffffffffffffffffffffff168152602001908152602001600020600087815260200190815260200160002060009054906101000a900460ff16151514612741576040517f08c379a0000000000000000000000000000000000000000000000000000000008152600401612738906151b6565b60405180910390fd5b670de0b6b3a7640000600c60009054906101000a900473ffffffffffffffffffffffffffffffffffffffff1673ffffffffffffffffffffffffffffffffffffffff166370a08231336040518263ffffffff1660e01b81526004016127a59190614bb5565b602060405180830381865afa1580156127c2573d6000803e3d6000fd5b505050506040513d601f19601f820116820180604052508101906127e6919061509a565b6127f09190615398565b821115612832576040517f08c379a00000000000000000000000000000000000000000000000000000000081526004016128299061543b565b60405180910390fd5b6000600c60009054906101000a900473ffffffffffffffffffffffffffffffffffffffff1673ffffffffffffffffffffffffffffffffffffffff166370a08231336040518263ffffffff1660e01b815260040161288f9190614bb5565b602060405180830381865afa1580156128ac573d6000803e3d6000fd5b505050506040513d601f19601f820116820180604052508101906128d0919061509a565b11612910576040517f08c379a0000000000000000000000000000000000000000000000000000000008152600401612907906154cd565b60405180910390fd5b62093a8081600401546129239190614e13565b421115612965576040517f08c379a000000000000000000000000000000000000000000000000000000000815260040161295c906152b4565b60405180910390fd5b60028081111561297857612977614212565b5b6006600087815260200190815260200160002060070160009054906101000a900460ff1660028111156129ae576129ad614212565b5b146129ee576040517f08c379a00000000000000000000000000000000000000000000000000000000081526004016129e590615320565b60405180910390fd5b6000805b8451811015612a3657848181518110612a0e57612a0d61500e565b5b602002602001015182612a219190614e13565b91508080612a2e9061503d565b9150506129f2565b508160080154811115612a4857600080fd5b6000805b8360050180549050811015612b645760005b8751811015612b5057612b33856005018381548110612a8057612a7f61500e565b5b906000526020600020018054612a9590614bff565b80601f0160208091040260200160405190810160405280929190818152602001828054612ac190614bff565b8015612b0e5780601f10612ae357610100808354040283529160200191612b0e565b820191906000526020600020905b815481529060010190602001808311612af157829003601f168201915b5050505050898381518110612b2657612b2561500e565b5b6020026020010151613e1a565b15612b3d57600192505b8080612b489061503d565b915050612a5e565b508080612b5c9061503d565b915050612a4c565b506001151581151514612b7657600080fd5b60005b8360050180549050811015612ce95760005b8751811015612cd557612c60856005018381548110612bad57612bac61500e565b5b906000526020600020018054612bc290614bff565b80601f0160208091040260200160405190810160405280929190818152602001828054612bee90614bff565b8015612c3b5780601f10612c1057610100808354040283529160200191612c3b565b820191906000526020600020905b815481529060010190602001808311612c1e57829003601f168201915b5050505050898381518110612c5357612c5261500e565b5b6020026020010151613e1a565b15612cc25785878281518110612c7957612c7861500e565b5b6020026020010151612c8b9190614db9565b856006018381548110612ca157612ca061500e565b5b906000526020600020016000828254612cba9190614e13565b925050819055505b8080612ccd9061503d565b915050612b8b565b508080612ce19061503d565b915050612b79565b506001600760003373ffffffffffffffffffffffffffffffffffffffff1673ffffffffffffffffffffffffffffffffffffffff168152602001908152602001600020600089815260200190815260200160002060006101000a81548160ff021916908315150217905550600c60009054906101000a900473ffffffffffffffffffffffffffffffffffffffff1673ffffffffffffffffffffffffffffffffffffffff1663fc13d51888336040518363ffffffff1660e01b8152600401612db0929190615340565b600060405180830381600087803b158015612dca57600080fd5b505af1158015612dde573d6000803e3d6000fd5b5050505050505050505050565b60006001600d60009054906101000a900473ffffffffffffffffffffffffffffffffffffffff1673ffffffffffffffffffffffffffffffffffffffff166370a08231846040518263ffffffff1660e01b8152600401612e4a9190614bb5565b602060405180830381865afa158015612e67573d6000803e3d6000fd5b505050506040513d601f19601f82011682018060405250810190612e8b919061509a565b10612e9957600190506131bb565b6000600560009054906101000a900473ffffffffffffffffffffffffffffffffffffffff1673ffffffffffffffffffffffffffffffffffffffff16637a57c0ff6003546040518263ffffffff1660e01b8152600401612ef891906143b5565b602060405180830381865afa158015612f15573d6000803e3d6000fd5b505050506040513d601f19601f82011682018060405250810190612f39919061552b565b90506000600560009054906101000a900473ffffffffffffffffffffffffffffffffffffffff1673ffffffffffffffffffffffffffffffffffffffff16632c36b4b4836040518263ffffffff1660e01b8152600401612f989190615558565b602060405180830381865afa158015612fb5573d6000803e3d6000fd5b505050506040513d601f19601f82011682018060405250810190612fd9919061552b565b905060005b600073ffffffffffffffffffffffffffffffffffffffff168273ffffffffffffffffffffffffffffffffffffffff16146131b457670de0b6b3a76400008273ffffffffffffffffffffffffffffffffffffffff1663f70e51a76040518163ffffffff1660e01b8152600401602060405180830381865afa158015613066573d6000803e3d6000fd5b505050506040513d601f19601f8201168201806040525081019061308a91906155b1565b73ffffffffffffffffffffffffffffffffffffffff166370a08231876040518263ffffffff1660e01b81526004016130c29190614bb5565b602060405180830381865afa1580156130df573d6000803e3d6000fd5b505050506040513d601f19601f82011682018060405250810190613103919061509a565b1061311157600190506131b4565b600560009054906101000a900473ffffffffffffffffffffffffffffffffffffffff1673ffffffffffffffffffffffffffffffffffffffff16632c36b4b4836040518263ffffffff1660e01b815260040161316c9190615558565b602060405180830381865afa158015613189573d6000803e3d6000fd5b505050506040513d601f19601f820116820180604052508101906131ad919061552b565b9150612fde565b8093505050505b919050565b6009602052816000526040600020602052806000526040600020600091509150505481565b600d60009054906101000a900473ffffffffffffffffffffffffffffffffffffffff1673ffffffffffffffffffffffffffffffffffffffff1663396473f7336040518263ffffffff1660e01b81526004016132409190614bb5565b6020604051808303816000875af115801561325f573d6000803e3d6000fd5b505050506040513d601f19601f820116820180604052508101906132839190614cc8565b50565b61328f33612deb565b6132ce576040517f08c379a00000000000000000000000000000000000000000000000000000000081526004016132c590615650565b60405180910390fd5b606060008203613315576040518060400160405280600681526020017f6e6f726d616c00000000000000000000000000000000000000000000000000008152509050613357565b60018203613356576040518060400160405280600881526020017f776569676874656400000000000000000000000000000000000000000000000081525090505b5b604051806101400160405280600e5481526020013373ffffffffffffffffffffffffffffffffffffffff1681526020018881526020018781526020014281526020018681526020018581526020016002808111156133b8576133b7614212565b5b81526020018481526020018281525060066000600e5481526020019081526020016000206000820151816000015560208201518160010160006101000a81548173ffffffffffffffffffffffffffffffffffffffff021916908373ffffffffffffffffffffffffffffffffffffffff1602179055506040820151816002019080519060200190613449929190613efe565b506060820151816003019080519060200190613466929190613efe565b506080820151816004015560a082015181600501908051906020019061348d929190613f84565b5060c08201518160060190805190602001906134aa929190613fe4565b5060e08201518160070160006101000a81548160ff021916908360028111156134d6576134d5614212565b5b02179055506101008201518160080155610120820151816009019080519060200190613503929190613efe565b50905050600e600081548092919061351a9061503d565b9190505550600c60009054906101000a900473ffffffffffffffffffffffffffffffffffffffff1673ffffffffffffffffffffffffffffffffffffffff1663a19dea70600e546040518263ffffffff1660e01b815260040161357c91906143b5565b600060405180830381600087803b15801561359657600080fd5b505af11580156135aa573d6000803e3d6000fd5b5050505050505050505050565b60005b600e548110156137c5576002808111156135d7576135d6614212565b5b6006600083815260200190815260200160002060070160009054906101000a900460ff16600281111561360d5761360c614212565b5b146136a257600c60009054906101000a900473ffffffffffffffffffffffffffffffffffffffff1673ffffffffffffffffffffffffffffffffffffffff1663ff2b5fa182336040518363ffffffff1660e01b815260040161366f929190615340565b600060405180830381600087803b15801561368957600080fd5b505af115801561369d573d6000803e3d6000fd5b505050505b7f4c42442933829b3de657efc6a23fbe895206dd2453c5a00c3e26d2e969f8272760066000838152602001908152602001600020600001546006600084815260200190815260200160002060010160009054906101000a900473ffffffffffffffffffffffffffffffffffffffff16600660008581526020019081526020016000206002016006600086815260200190815260200160002060030160066000878152602001908152602001600020600501600660008881526020019081526020016000206006016006600089815260200190815260200160002060080154600660008a81526020019081526020016000206009016040516137aa989796959493929190615910565b60405180910390a180806137bd9061503d565b9150506135ba565b50565b60606000600660008481526020019081526020016000206006018054905067ffffffffffffffff8111156137ff576137fe614525565b5b60405190808252806020026020018201604052801561382d5781602001602082028036833780820191505090505b50905060005b60066000858152602001908152602001600020600601805490508110156138b95760066000858152602001908152602001600020600601818154811061387c5761387b61500e565b5b906000526020600020015482828151811061389a5761389961500e565b5b60200260200101818152505080806138b19061503d565b915050613833565b5080915050919050565b600a6020528060005260406000206000915090505481565b6060600060066000848152602001908152602001600020600901805461390090614bff565b80601f016020809104026020016040519081016040528092919081815260200182805461392c90614bff565b80156139795780601f1061394e57610100808354040283529160200191613979565b820191906000526020600020905b81548152906001019060200180831161395c57829003601f168201915b5050505050905080915050919050565b600c60009054906101000a900473ffffffffffffffffffffffffffffffffffffffff1681565b60086020528160005260406000206020528060005260406000206000915091509054906101000a900460ff1681565b600080546139eb90614bff565b80601f0160208091040260200160405190810160405280929190818152602001828054613a1790614bff565b8015613a645780601f10613a3957610100808354040283529160200191613a64565b820191906000526020600020905b815481529060010190602001808311613a4757829003601f168201915b505050505081565b600c60009054906101000a900473ffffffffffffffffffffffffffffffffffffffff1673ffffffffffffffffffffffffffffffffffffffff1663a95bbced836040518263ffffffff1660e01b8152600401613ac79190614bb5565b602060405180830381865afa158015613ae4573d6000803e3d6000fd5b505050506040513d601f19601f82011682018060405250810190613b08919061509a565b811115613b4a576040517f08c379a0000000000000000000000000000000000000000000000000000000008152600401613b4190615113565b60405180910390fd5b600c60009054906101000a900473ffffffffffffffffffffffffffffffffffffffff1673ffffffffffffffffffffffffffffffffffffffff1663490169348333846040518463ffffffff1660e01b8152600401613ba993929190615133565b6020604051808303816000875af1158015613bc8573d6000803e3d6000fd5b505050506040513d601f19601f82011682018060405250810190613bec9190614cc8565b505050565b600d60009054906101000a900473ffffffffffffffffffffffffffffffffffffffff1681565b600460009054906101000a900473ffffffffffffffffffffffffffffffffffffffff1681565b613c4633612deb565b613c85576040517f08c379a0000000000000000000000000000000000000000000000000000000008152600401613c7c90614d6a565b60405180910390fd5b670de0b6b3a764000081613c999190614db9565b600a60008473ffffffffffffffffffffffffffffffffffffffff1673ffffffffffffffffffffffffffffffffffffffff1681526020019081526020016000206000828254613ce79190614e13565b925050819055505050565b600560009054906101000a900473ffffffffffffffffffffffffffffffffffffffff1673ffffffffffffffffffffffffffffffffffffffff166350ee8e8f3083336040518463ffffffff1660e01b8152600401613d51939291906159b1565b600060405180830381600087803b158015613d6b57600080fd5b505af1158015613d7f573d6000803e3d6000fd5b5050505050565b600560009054906101000a900473ffffffffffffffffffffffffffffffffffffffff1673ffffffffffffffffffffffffffffffffffffffff1663205cdcff3083336040518463ffffffff1660e01b8152600401613de5939291906159b1565b600060405180830381600087803b158015613dff57600080fd5b505af1158015613e13573d6000803e3d6000fd5b5050505050565b600080839050600083905060008251905081518114613e3f5760009350505050613ef8565b60005b81811015613eef57828181518110613e5d57613e5c61500e565b5b602001015160f81c60f81b7effffffffffffffffffffffffffffffffffffffffffffffffffffffffffffff1916848281518110613e9d57613e9c61500e565b5b602001015160f81c60f81b7effffffffffffffffffffffffffffffffffffffffffffffffffffffffffffff191614613edc576000945050505050613ef8565b8080613ee79061503d565b915050613e42565b50600193505050505b92915050565b828054613f0a90614bff565b90600052602060002090601f016020900481019282613f2c5760008555613f73565b82601f10613f4557805160ff1916838001178555613f73565b82800160010185558215613f73579182015b82811115613f72578251825591602001919060010190613f57565b5b509050613f809190614031565b5090565b828054828255906000526020600020908101928215613fd3579160200282015b82811115613fd2578251829080519060200190613fc2929190613efe565b5091602001919060010190613fa4565b5b509050613fe0919061404e565b5090565b828054828255906000526020600020908101928215614020579160200282015b8281111561401f578251825591602001919060010190614004565b5b50905061402d9190614031565b5090565b5b8082111561404a576000816000905550600101614032565b5090565b5b8082111561406e57600081816140659190614072565b5060010161404f565b5090565b50805461407e90614bff565b6000825580601f1061409057506140af565b601f0160209004906000526020600020908101906140ae9190614031565b5b50565b6000604051905090565b600080fd5b600080fd5b6000819050919050565b6140d9816140c6565b81146140e457600080fd5b50565b6000813590506140f6816140d0565b92915050565b600060208284031215614112576141116140bc565b5b6000614120848285016140e7565b91505092915050565b614132816140c6565b82525050565b600073ffffffffffffffffffffffffffffffffffffffff82169050919050565b600061416382614138565b9050919050565b61417381614158565b82525050565b600081519050919050565b600082825260208201905092915050565b60005b838110156141b3578082015181840152602081019050614198565b838111156141c2576000848401525b50505050565b6000601f19601f8301169050919050565b60006141e482614179565b6141ee8185614184565b93506141fe818560208601614195565b614207816141c8565b840191505092915050565b7f4e487b7100000000000000000000000000000000000000000000000000000000600052602160045260246000fd5b6003811061425257614251614212565b5b50565b600081905061426382614241565b919050565b600061427382614255565b9050919050565b61428381614268565b82525050565b60006101008201905061429f600083018b614129565b6142ac602083018a61416a565b81810360408301526142be81896141d9565b905081810360608301526142d281886141d9565b90506142e16080830187614129565b6142ee60a083018661427a565b6142fb60c0830185614129565b81810360e083015261430d81846141d9565b90509998505050505050505050565b61432581614158565b811461433057600080fd5b50565b6000813590506143428161431c565b92915050565b60006020828403121561435e5761435d6140bc565b5b600061436c84828501614333565b91505092915050565b6000806040838503121561438c5761438b6140bc565b5b600061439a85828601614333565b92505060206143ab858286016140e7565b9150509250929050565b60006020820190506143ca6000830184614129565b92915050565b600081519050919050565b600082825260208201905092915050565b6000819050602082019050919050565b600082825260208201905092915050565b600061441882614179565b61442281856143fc565b9350614432818560208601614195565b61443b816141c8565b840191505092915050565b6000614452838361440d565b905092915050565b6000602082019050919050565b6000614472826143d0565b61447c81856143db565b93508360208202850161448e856143ec565b8060005b858110156144ca57848403895281516144ab8582614446565b94506144b68361445a565b925060208a01995050600181019050614492565b50829750879550505050505092915050565b600060208201905081810360008301526144f68184614467565b905092915050565b6000602082019050818103600083015261451881846141d9565b905092915050565b600080fd5b7f4e487b7100000000000000000000000000000000000000000000000000000000600052604160045260246000fd5b61455d826141c8565b810181811067ffffffffffffffff8211171561457c5761457b614525565b5b80604052505050565b600061458f6140b2565b905061459b8282614554565b919050565b600067ffffffffffffffff8211156145bb576145ba614525565b5b602082029050602081019050919050565b600080fd5b600080fd5b600067ffffffffffffffff8211156145f1576145f0614525565b5b6145fa826141c8565b9050602081019050919050565b82818337600083830152505050565b6000614629614624846145d6565b614585565b905082815260208101848484011115614645576146446145d1565b5b614650848285614607565b509392505050565b600082601f83011261466d5761466c614520565b5b813561467d848260208601614616565b91505092915050565b6000614699614694846145a0565b614585565b905080838252602082019050602084028301858111156146bc576146bb6145cc565b5b835b8181101561470357803567ffffffffffffffff8111156146e1576146e0614520565b5b8086016146ee8982614658565b855260208501945050506020810190506146be565b5050509392505050565b600082601f83011261472257614721614520565b5b8135614732848260208601614686565b91505092915050565b600067ffffffffffffffff82111561475657614755614525565b5b602082029050602081019050919050565b600061477a6147758461473b565b614585565b9050808382526020820190506020840283018581111561479d5761479c6145cc565b5b835b818110156147c657806147b288826140e7565b84526020840193505060208101905061479f565b5050509392505050565b600082601f8301126147e5576147e4614520565b5b81356147f5848260208601614767565b91505092915050565b600080600060608486031215614817576148166140bc565b5b6000614825868287016140e7565b935050602084013567ffffffffffffffff811115614846576148456140c1565b5b6148528682870161470d565b925050604084013567ffffffffffffffff811115614873576148726140c1565b5b61487f868287016147d0565b9150509250925092565b60008115159050919050565b61489e81614889565b82525050565b60006020820190506148b96000830184614895565b92915050565b600080600080608085870312156148d9576148d86140bc565b5b60006148e7878288016140e7565b945050602085013567ffffffffffffffff811115614908576149076140c1565b5b6149148782880161470d565b935050604085013567ffffffffffffffff811115614935576149346140c1565b5b614941878288016147d0565b9250506060614952878288016140e7565b91505092959194509250565b60008060008060008060c0878903121561497b5761497a6140bc565b5b600087013567ffffffffffffffff811115614999576149986140c1565b5b6149a589828a01614658565b965050602087013567ffffffffffffffff8111156149c6576149c56140c1565b5b6149d289828a01614658565b955050604087013567ffffffffffffffff8111156149f3576149f26140c1565b5b6149ff89828a0161470d565b945050606087013567ffffffffffffffff811115614a2057614a1f6140c1565b5b614a2c89828a016147d0565b9350506080614a3d89828a016140e7565b92505060a0614a4e89828a016140e7565b9150509295509295509295565b600081519050919050565b600082825260208201905092915050565b6000819050602082019050919050565b614a90816140c6565b82525050565b6000614aa28383614a87565b60208301905092915050565b6000602082019050919050565b6000614ac682614a5b565b614ad08185614a66565b9350614adb83614a77565b8060005b83811015614b0c578151614af38882614a96565b9750614afe83614aae565b925050600181019050614adf565b5085935050505092915050565b60006020820190508181036000830152614b338184614abb565b905092915050565b6000819050919050565b6000614b60614b5b614b5684614138565b614b3b565b614138565b9050919050565b6000614b7282614b45565b9050919050565b6000614b8482614b67565b9050919050565b614b9481614b79565b82525050565b6000602082019050614baf6000830184614b8b565b92915050565b6000602082019050614bca600083018461416a565b92915050565b7f4e487b7100000000000000000000000000000000000000000000000000000000600052602260045260246000fd5b60006002820490506001821680614c1757607f821691505b602082108103614c2a57614c29614bd0565b5b50919050565b7f646f6573206e6f74206861766520796b2070726976696c696765730000000000600082015250565b6000614c66601b83614184565b9150614c7182614c30565b602082019050919050565b60006020820190508181036000830152614c9581614c59565b9050919050565b614ca581614889565b8114614cb057600080fd5b50565b600081519050614cc281614c9c565b92915050565b600060208284031215614cde57614cdd6140bc565b5b6000614cec84828501614cb3565b91505092915050565b6000604082019050614d0a600083018561416a565b614d17602083018461416a565b9392505050565b7f4e6f74206120594b000000000000000000000000000000000000000000000000600082015250565b6000614d54600883614184565b9150614d5f82614d1e565b602082019050919050565b60006020820190508181036000830152614d8381614d47565b9050919050565b7f4e487b7100000000000000000000000000000000000000000000000000000000600052601160045260246000fd5b6000614dc4826140c6565b9150614dcf836140c6565b9250817fffffffffffffffffffffffffffffffffffffffffffffffffffffffffffffffff0483118215151615614e0857614e07614d8a565b5b828202905092915050565b6000614e1e826140c6565b9150614e29836140c6565b9250827fffffffffffffffffffffffffffffffffffffffffffffffffffffffffffffffff03821115614e5e57614e5d614d8a565b5b828201905092915050565b7f646f6573206e6f74206861766520796b2070726976696c69676573206f72206960008201527f73206e6f7420666163746f727900000000000000000000000000000000000000602082015250565b6000614ec5602d83614184565b9150614ed082614e69565b604082019050919050565b60006020820190508181036000830152614ef481614eb8565b9050919050565b6000614f0682614b67565b9050919050565b614f1681614efb565b82525050565b6000604082019050614f316000830185614f0d565b614f3e602083018461416a565b9392505050565b6000604082019050614f5a600083018561416a565b614f676020830184614129565b9392505050565b7f4e6f7420656e6f75676820736861726573000000000000000000000000000000600082015250565b6000614fa4601183614184565b9150614faf82614f6e565b602082019050919050565b60006020820190508181036000830152614fd381614f97565b9050919050565b6000614fe5826140c6565b9150614ff0836140c6565b92508282101561500357615002614d8a565b5b828203905092915050565b7f4e487b7100000000000000000000000000000000000000000000000000000000600052603260045260246000fd5b6000615048826140c6565b91507fffffffffffffffffffffffffffffffffffffffffffffffffffffffffffffffff820361507a57615079614d8a565b5b600182019050919050565b600081519050615094816140d0565b92915050565b6000602082840312156150b0576150af6140bc565b5b60006150be84828501615085565b91505092915050565b7f6e6f7420656e6f756768206465627420736f6d65686f77000000000000000000600082015250565b60006150fd601783614184565b9150615108826150c7565b602082019050919050565b6000602082019050818103600083015261512c816150f0565b9050919050565b6000606082019050615148600083018661416a565b615155602083018561416a565b6151626040830184614129565b949350505050565b7f616c726561647920766f74656400000000000000000000000000000000000000600082015250565b60006151a0600d83614184565b91506151ab8261516a565b602082019050919050565b600060208201905081810360008301526151cf81615193565b9050919050565b7f4e6f7420656e6f7567682073686172657320746f20766f7465206f6e2061207060008201527f726f706f73616c00000000000000000000000000000000000000000000000000602082015250565b6000615232602783614184565b915061523d826151d6565b604082019050919050565b6000602082019050818103600083015261526181615225565b9050919050565b7f566f74696e6720706572696f64206973206f7665720000000000000000000000600082015250565b600061529e601583614184565b91506152a982615268565b602082019050919050565b600060208201905081810360008301526152cd81615291565b9050919050565b7f566f74696e6720706572696f642069732066696e697368656400000000000000600082015250565b600061530a601983614184565b9150615315826152d4565b602082019050919050565b60006020820190508181036000830152615339816152fd565b9050919050565b60006040820190506153556000830185614129565b615362602083018461416a565b9392505050565b7f4e487b7100000000000000000000000000000000000000000000000000000000600052601260045260246000fd5b60006153a3826140c6565b91506153ae836140c6565b9250826153be576153bd615369565b5b828204905092915050565b7f446f6e74206861766520656e6f75676820746f6b656e7320286368616e67652060008201527f7765696768742900000000000000000000000000000000000000000000000000602082015250565b6000615425602783614184565b9150615430826153c9565b604082019050919050565b6000602082019050818103600083015261545481615418565b9050919050565b7f446f6e74206861766520656e6f75676820746f6b656e7320286c69746572616c60008201527f6c79203029000000000000000000000000000000000000000000000000000000602082015250565b60006154b7602583614184565b91506154c28261545b565b604082019050919050565b600060208201905081810360008301526154e6816154aa565b9050919050565b60006154f882614158565b9050919050565b615508816154ed565b811461551357600080fd5b50565b600081519050615525816154ff565b92915050565b600060208284031215615541576155406140bc565b5b600061554f84828501615516565b91505092915050565b600060208201905061556d6000830184614f0d565b92915050565b600061557e82614158565b9050919050565b61558e81615573565b811461559957600080fd5b50565b6000815190506155ab81615585565b92915050565b6000602082840312156155c7576155c66140bc565b5b60006155d58482850161559c565b91505092915050565b7f4e6f7420656e6f7567682073686172657320746f20637265617465206120707260008201527f6f706f73616c0000000000000000000000000000000000000000000000000000602082015250565b600061563a602683614184565b9150615645826155de565b604082019050919050565b600060208201905081810360008301526156698161562d565b9050919050565b60008190508160005260206000209050919050565b6000815461569281614bff565b61569c8186614184565b945060018216600081146156b757600181146156c9576156fc565b60ff19831686526020860193506156fc565b6156d285615670565b60005b838110156156f4578154818901526001820191506020810190506156d5565b808801955050505b50505092915050565b600081549050919050565b60008190508160005260206000209050919050565b6000815461573281614bff565b61573c81866143fc565b9450600182166000811461575757600181146157695761579c565b60ff198316865260208601935061579c565b61577285615670565b60005b8381101561579457815481890152600182019150602081019050615775565b808801955050505b50505092915050565b60006157b18383615725565b905092915050565b6000600182019050919050565b60006157d182615705565b6157db81856143db565b9350836020820285016157ed85615710565b8060005b858110156158285784840389528161580985826157a5565b9450615814836157b9565b925060208a019950506001810190506157f1565b50829750879550505050505092915050565b600081549050919050565b60008190508160005260206000209050919050565b60008160001c9050919050565b6000819050919050565b600061588461587f8361585a565b615867565b9050919050565b60006158978254615871565b9050919050565b6000600182019050919050565b60006158b68261583a565b6158c08185614a66565b93506158cb83615845565b8060005b83811015615903576158e08261588b565b6158ea8882614a96565b97506158f58361589e565b9250506001810190506158cf565b5085935050505092915050565b600061010082019050615926600083018b614129565b615933602083018a61416a565b81810360408301526159458189615685565b905081810360608301526159598188615685565b9050818103608083015261596d81876157c6565b905081810360a083015261598181866158ab565b905061599060c0830185614129565b81810360e08301526159a28184615685565b90509998505050505050505050565b60006060820190506159c66000830186614f0d565b6159d36020830185614129565b6159e0604083018461416a565b94935050505056fea2646970667358221220c08ab4924d62c36d2ade8893d71446dbfb6b25557cd26ecc8ec244d96018240f64736f6c634300080d0033a264697066735822122018f17a426fd7a6e322213372a1fdff039759d0a3254482fd63c613e65589eaaa64736f6c634300080d0033",
  "immutableReferences": {},
  "source": "// SPDX-License-Identifier: GPL-3.0\r\npragma solidity >=0.7.0 <0.9.0;\r\npragma experimental ABIEncoderV2;\r\n//import \"./DAO.sol\";\r\nimport \"./newDAO1.sol\";\r\nimport \"./itoken.sol\";\r\nimport \"./icreator.sol\";\r\n\r\ncontract DAOFactory {\r\n    address public top_dao;\r\n    mapping(MyDAO => MyDAO[]) public parent_child_daos;\r\n    mapping(MyDAO => uint) public num_children;\r\n    //MyDAO[] public _child_daos;\r\n    //address[] public dao_creators_top;\r\n    mapping(address => bool) public is_a_dao_creator;\r\n    mapping(MyDAO => ISUToken) public dao_tokens_yk;\r\n    mapping(MyDAO => ISUToken) public dao_tokens_voter;\r\n    mapping(MyDAO => address) public dao_first_yk; // for an edge case \r\n    mapping(ISUToken => address) public token_first_yk;\r\n    mapping(MyDAO => bool) public dao_exists;\r\n    mapping (MyDAO => MyDAO) public child_parent;\r\n    //event num_contracts(uint num);\r\n    mapping(uint256 => MyDAO) public all_daos;\r\n    uint256 public next_dao_id; \r\n    icreator my_creator;\r\n    address private yk_token_address;\r\n    address private voter_token_address;\r\n    \r\n    constructor(address myCreator) {\r\n        my_creator = icreator(myCreator);\r\n        is_a_dao_creator[msg.sender] = true;   \r\n        next_dao_id = 0;\r\n    }\r\n\r\n    //so first the dao and the token will be created, factory will have the tokens and dao will have the allowance to use \r\n    //these tokens, the yk will be able to withdraw, send and deposit yk_tokens\r\n    function createDAOTop( string memory dao_name,  string memory dao_description, string memory yk_token_name, string memory yk_token_symbol, string memory voter_token_name, string memory voter_token_symbol) public {\r\n        require(is_a_dao_creator[msg.sender] == true, 'Not added as a DAO Creator');\r\n        //line below mints 1000 tokens to this factory, also makes factory the owner of these tokens\r\n \r\n        //ISUToken yk_token = new ISUToken(yk_token_name, yk_token_symbol, address(this));\r\n        //ISUToken voter_token = new ISUToken(voter_token_name, voter_token_symbol, address(this));\r\n\r\n        (yk_token_address, voter_token_address) = my_creator.createToken(yk_token_name,yk_token_symbol,  voter_token_name,  voter_token_symbol);\r\n\r\n        ISUToken yk_token = ISUToken(yk_token_address);\r\n        ISUToken voter_token = ISUToken(voter_token_address);\r\n        MyDAO c = new MyDAO(dao_name, dao_description,next_dao_id, msg.sender, yk_token, voter_token, this);\r\n        //token.mint(address(c), 1000*10**18);\r\n        //with this function my dao can use the tokens my factory has however it wishes, it is currently only 1000, can add mint later\r\n        yk_token.increaseAllowance(address(c), 1000* 10**18);\r\n        yk_token.increaseAllowance(address(this), 1000* 10**18);\r\n        voter_token.increaseAllowance(address(c), 1000* 10**18);\r\n        voter_token.increaseAllowance(address(this), 1000* 10**18);\r\n        yk_token.assignDAO( address(c));\r\n        voter_token.assignDAO( address(c));\r\n        //we save which dao has which yk tokens and which voter tokens\r\n\r\n        dao_tokens_yk[c] = yk_token;\r\n        dao_tokens_voter[c] = voter_token;\r\n        dao_first_yk[c] = msg.sender;\r\n        token_first_yk[yk_token] = msg.sender;\r\n        top_dao = address(c);\r\n        dao_exists[c] = true;\r\n\r\n        //tokens are minted to factory right, we are sending them to dao so they can utilize it.\r\n        voter_token.transferFrom(address(this), address(c), 1000 * 10**18);\r\n        yk_token.transferFrom(address(this), address(c), (1000 * 10 ** 18));\r\n        all_daos[next_dao_id] = c;\r\n\r\n\r\n\r\n        next_dao_id += 1;\r\n    }\r\n\r\n\r\n    function createChildDAO( MyDAO parent, string memory dao_name,  string memory dao_description, string memory yk_token_name, string memory yk_token_symbol, string memory voter_token_name, string memory voter_token_symbol) public {\r\n        require(parent.has_yk_priviliges(msg.sender) == true, 'Not a YK of parent DAO');\r\n        //line below mints 1000 tokens to this factory, also makes factory the owner of these tokens\r\n \r\n\r\n        (yk_token_address, voter_token_address) = my_creator.createToken(yk_token_name,yk_token_symbol,  voter_token_name,  voter_token_symbol);\r\n        ISUToken yk_token = ISUToken(yk_token_address);\r\n        ISUToken voter_token = ISUToken(voter_token_address);\r\n        MyDAO c = new MyDAO(dao_name, dao_description,next_dao_id, msg.sender, yk_token, voter_token, this);\r\n        //token.mint(address(c), 1000*10**18);\r\n        //with this function my dao can use the tokens my factory has however it wishes, it is currently only 1000, can add mint later\r\n        yk_token.increaseAllowance(address(c), 1000* 10**18);\r\n        yk_token.increaseAllowance(address(this), 1000* 10**18);\r\n        voter_token.increaseAllowance(address(c), 1000* 10**18);\r\n        voter_token.increaseAllowance(address(this), 1000* 10**18);\r\n        //check if assignDAO works with interface\r\n        yk_token.assignDAO( address(c));\r\n        voter_token.assignDAO( address(c));\r\n        //we save which dao has which yk tokens and which voter tokens\r\n\r\n        dao_tokens_yk[c] = yk_token;\r\n        dao_tokens_voter[c] = voter_token;\r\n        dao_first_yk[c] = msg.sender;\r\n        token_first_yk[yk_token] = msg.sender;\r\n        //top_dao = address(c);\r\n        dao_exists[c] = true;\r\n        parent_child_daos[parent].push(c);\r\n        num_children[parent] += 1;\r\n        child_parent[c] = parent;\r\n        \r\n        \r\n\r\n        //tokens are minted to factory right, we are sending them to dao so they can utilize it.\r\n        voter_token.transferFrom(address(this), address(c), 1000 * 10**18);\r\n        yk_token.transferFrom(address(this), address(c), (1000 * 10 ** 18));\r\n\r\n\r\n\r\n\r\n        all_daos[next_dao_id] = c;\r\n        next_dao_id += 1;\r\n    }\r\n\r\n    function mint_dao_yk(MyDAO to_be_minted, uint amount, address sender) public {\r\n        require(to_be_minted.has_yk_priviliges(sender), \"Not YK of selected DAO\");\r\n        //make sure the one who sends this is dao\r\n        require(msg.sender == address(to_be_minted), \"Don't even try\");\r\n        dao_tokens_yk[to_be_minted].mint(address(to_be_minted), amount*10**18);\r\n    }\r\n\r\n    function mint_dao_voter(MyDAO to_be_minted, uint amount, address sender) public {\r\n        require(to_be_minted.has_yk_priviliges(sender), \"Not YK of selected DAO\");\r\n        //make sure the one who sends this is dao\r\n        require(msg.sender == address(to_be_minted), \"Don't even try\");\r\n        dao_tokens_voter[to_be_minted].mint(address(to_be_minted), amount*10**18);\r\n    }\r\n\r\n   \r\n\r\n\r\n    function addCreator(address input_creator) public\r\n    {\r\n        is_a_dao_creator[input_creator] = true;\r\n    }\r\n    function getParentDAO(MyDAO mydao)  public view returns (MyDAO){\r\n        return child_parent[mydao];\r\n\r\n    }\r\n    function getCurrentDAO(uint256 id)  public view returns (MyDAO){\r\n        return all_daos[id];\r\n\r\n    }\r\n\r\n\r\n\r\n    function delete_DAO(MyDAO to_be_deleted, address sender) public {\r\n        require(to_be_deleted.has_yk_priviliges(sender) || msg.sender == address(this) || msg.sender == address(to_be_deleted), \"Not YK of selected DAO\");\r\n        //make sure the one who sends this is dao\r\n        require(msg.sender == address(to_be_deleted), \"Don't even try\");\r\n\r\n\r\n        num_children[child_parent[to_be_deleted]] -= 1;\r\n        for (uint i = 0 ; i < parent_child_daos[to_be_deleted].length; i++){\r\n            parent_child_daos[to_be_deleted][i].delete_this_dao();            \r\n        }\r\n        for ( uint i = 0; i < parent_child_daos[child_parent[to_be_deleted]].length; i++){\r\n            if( parent_child_daos[child_parent[to_be_deleted]][i]== to_be_deleted){\r\n                //user_delegations[to][i];\r\n                //string element = myArray[index];\r\n                parent_child_daos[child_parent[to_be_deleted]][i] = parent_child_daos[child_parent[to_be_deleted]][parent_child_daos[child_parent[to_be_deleted]].length - 1];\r\n                parent_child_daos[child_parent[to_be_deleted]].pop();\r\n\r\n                \r\n            }\r\n\r\n        }        \r\n        dao_exists[to_be_deleted] = false;\r\n        MyDAO c;\r\n        all_daos[ to_be_deleted.getDaoid()] = c;\r\n    }\r\n\r\n}",
  "sourcePath": "C:\\Users\\batu0\\Desktop\\Visual_Studio_Code\\SU_Govern\\contract_for_front_end\\ui_sol_deneme2\\ui_sol_deneme\\sol_ui\\blockchain1\\contracts\\newFactory1.sol",
  "compiler": {
    "name": "solc",
    "version": "0.8.13+commit.abaa5c0e.Emscripten.clang"
  },
  "schemaVersion": "3.4.12",
  "updatedAt": "2023-02-28T13:53:38.959Z",
  "devdoc": {
    "kind": "dev",
    "methods": {},
    "version": 1
  },
  "userdoc": {
    "kind": "user",
    "methods": {},
    "version": 1
  }
}