{
	"data": {
		"bytecode": {
			"linkReferences": {},
			"object": "60806040523480156200001157600080fd5b5060405162003b9e38038062003b9e833981016040819052620000349162000210565b600680546001600160a01b0319166001600160a01b03831617905560006200005d898262000385565b506004859055600162000071878262000385565b50600e80546001600160a01b038086166001600160a01b031992831617909255600d8054928516929091169190911790556003620000b0888262000385565b506001600160a01b0384166000908152600c602052604081208054670de0b6b3a76400009290620000e390849062000451565b90915550506001600160a01b0384166000908152600b602052604081208054670de0b6b3a764000092906200011a90849062000451565b909155506200047998505050505050505050565b634e487b7160e01b600052604160045260246000fd5b600082601f8301126200015657600080fd5b81516001600160401b03808211156200017357620001736200012e565b604051601f8301601f19908116603f011681019082821181831017156200019e576200019e6200012e565b81604052838152602092508683858801011115620001bb57600080fd5b600091505b83821015620001df5785820183015181830184015290820190620001c0565b600093810190920192909252949350505050565b80516001600160a01b03811681146200020b57600080fd5b919050565b600080600080600080600080610100898b0312156200022e57600080fd5b88516001600160401b03808211156200024657600080fd5b620002548c838d0162000144565b995060208b01519150808211156200026b57600080fd5b620002798c838d0162000144565b985060408b01519150808211156200029057600080fd5b506200029f8b828c0162000144565b96505060608901519450620002b760808a01620001f3565b9350620002c760a08a01620001f3565b9250620002d760c08a01620001f3565b9150620002e760e08a01620001f3565b90509295985092959890939650565b600181811c908216806200030b57607f821691505b6020821081036200032c57634e487b7160e01b600052602260045260246000fd5b50919050565b601f8211156200038057600081815260208120601f850160051c810160208610156200035b5750805b601f850160051c820191505b818110156200037c5782815560010162000367565b5050505b505050565b81516001600160401b03811115620003a157620003a16200012e565b620003b981620003b28454620002f6565b8462000332565b602080601f831160018114620003f15760008415620003d85750858301515b600019600386901b1c1916600185901b1785556200037c565b600085815260208120601f198616915b82811015620004225788860151825594840194600190910190840162000401565b5085821015620004415787850151600019600388901b60f8161c191681555b5050505050600190811b01905550565b808201808211156200047357634e487b7160e01b600052601160045260246000fd5b92915050565b61371580620004896000396000f3fe608060405234801561001057600080fd5b506004361061028a5760003560e01c80638a19ab351161015c578063c1bff3e0116100ce578063e5c28c9011610087578063e5c28c90146105dd578063e93768821461060b578063f08c03bc14610613578063f70e51a714610626578063f8a8fd6d14610639578063f9b8a27a1461064c57600080fd5b8063c1bff3e014610544578063cf5265d814610557578063d25129c41461055f578063d8c6bc211461057f578063d978ffba1461059f578063dd3bf85c146105b257600080fd5b8063a38b39d411610120578063a38b39d4146104d0578063a44b21ae146104e3578063a47eb7cf146104f6578063a9a2a4a314610509578063aba8315014610534578063bdf52c221461053c57600080fd5b80638a19ab35146104515780638f7c59d0146104645780639d92c108146104775780639f2524ee1461047f578063a2ded950146104bd57600080fd5b8063451abcec1161020057806364944d4d116101b957806364944d4d146103e857806371df5605146103f057806375fd8377146104105780637b93e652146104235780637e11a5561461042b5780638661fa701461043e57600080fd5b8063451abcec146103785780634a9f15751461038d5780634b4967e814610395578063560d09b61461039d5780635d808950146103c057806362b25fc6146103e057600080fd5b806319f339611161025257806319f339611461030d57806323ee2c83146103155780632ab09d14146103285780632c14ed171461033f578063339a9e591461035257806342b9d7e41461036557600080fd5b8063013cf08b1461028f57806307e25f27146102bf57806310742870146102d4578063114d7756146102e757806314e72f43146102fa575b600080fd5b6102a261029d366004612d3b565b61065f565b6040516102b6989796959493929190612db0565b60405180910390f35b6102d26102cd366004612d3b565b61084b565b005b6102d26102e2366004612e57565b610872565b6102d26102f5366004612e57565b610915565b6102d2610308366004612e7b565b61094d565b6102d26109b5565b6102d2610323366004612e7b565b610b8e565b610331600f5481565b6040519081526020016102b6565b6102d261034d366004612d3b565b610c50565b6102d2610360366004612e57565b610c74565b6102d2610373366004612d3b565b610cac565b610380610de3565b6040516102b69190612ea7565b6102d2610f15565b600454610331565b6103316103ab366004612d3b565b60009081526007602052604090206008015490565b6103d36103ce366004612d3b565b610f8f565b6040516102b69190612f09565b61038061103b565b6102d2611167565b6103316103fe366004612e57565b600c6020526000908152604090205481565b6102d261041e366004612e7b565b6111e1565b6102d261131b565b6102d2610439366004612e7b565b611366565b6102d261044c3660046130e2565b611428565b6102d261045f366004612d3b565b6118de565b610380610472366004612d3b565b611a04565b6103d3611b71565b6104ad61048d366004612e7b565b600860209081526000928352604080842090915290825290205460ff1681565b60405190151581526020016102b6565b6102d26104cb366004612d3b565b611b7e565b6102d26104de366004612e57565b611b9d565b6102d26104f136600461314f565b611bf4565b6104ad610504366004612e57565b612185565b610331610517366004612e7b565b600a60209081526000928352604080842090915290825290205481565b6103d361245d565b6102d261246a565b6102d26105523660046131c4565b61249a565b6102d26126db565b61057261056d366004612d3b565b612807565b6040516102b69190613283565b61033161058d366004612e57565b600b6020526000908152604090205481565b6103d36105ad366004612d3b565b6128da565b600d546105c5906001600160a01b031681565b6040516001600160a01b0390911681526020016102b6565b6104ad6105eb366004612e7b565b600960209081526000928352604080842090915290825290205460ff1681565b6103d3612981565b6102d2610621366004612e7b565b61298e565b600e546105c5906001600160a01b031681565b6005546105c5906001600160a01b031681565b6102d261065a366004612e7b565b612a84565b60076020526000908152604090208054600182015460028301805492936001600160a01b0390921692610691906132c7565b80601f01602080910402602001604051908101604052809291908181526020018280546106bd906132c7565b801561070a5780601f106106df5761010080835404028352916020019161070a565b820191906000526020600020905b8154815290600101906020018083116106ed57829003601f168201915b50505050509080600301805461071f906132c7565b80601f016020809104026020016040519081016040528092919081815260200182805461074b906132c7565b80156107985780601f1061076d57610100808354040283529160200191610798565b820191906000526020600020905b81548152906001019060200180831161077b57829003601f168201915b5050506004840154600785015460088601546009870180549697939660ff9093169550909350906107c8906132c7565b80601f01602080910402602001604051908101604052809291908181526020018280546107f4906132c7565b80156108415780601f1061081657610100808354040283529160200191610841565b820191906000526020600020905b81548152906001019060200180831161082457829003601f168201915b5050505050905088565b60008181526007602081905260409091200180546001919060ff191682805b021790555050565b61087b33612185565b6108a05760405162461bcd60e51b8152600401610897906132fb565b60405180910390fd5b600e54604051632ee39ac160e11b81526001600160a01b03838116600483015290911690635dc73582906024015b6020604051808303816000875af11580156108ed573d6000803e3d6000fd5b505050506040513d601f19601f820116820180604052508101906109119190613332565b5050565b600e5460405163b1d1ea9760e01b81526001600160a01b0383811660048301523360248301529091169063b1d1ea97906044016108ce565b61095633612185565b6109725760405162461bcd60e51b815260040161089790613354565b61098481670de0b6b3a764000061338c565b6001600160a01b0383166000908152600c6020526040812080549091906109ac9084906133a3565b90915550505050565b6109be33612185565b806109d357506006546001600160a01b031633145b610a355760405162461bcd60e51b815260206004820152602d60248201527f646f6573206e6f74206861766520796b2070726976696c69676573206f72206960448201526c73206e6f7420666163746f727960981b6064820152608401610897565b600d60009054906101000a90046001600160a01b03166001600160a01b031663c3b639b66040518163ffffffff1660e01b81526004016020604051808303816000875af1158015610a8a573d6000803e3d6000fd5b505050506040513d601f19601f82011682018060405250810190610aae9190613332565b506006546040516383bef7a960e01b81523060048201523360248201526001600160a01b03909116906383bef7a990604401600060405180830381600087803b158015610afa57600080fd5b505af1158015610b0e573d6000803e3d6000fd5b50505050600e60009054906101000a90046001600160a01b03166001600160a01b031663c3b639b66040518163ffffffff1660e01b81526004016020604051808303816000875af1158015610b67573d6000803e3d6000fd5b505050506040513d601f19601f82011682018060405250810190610b8b9190613332565b50565b610b9733612185565b610bb35760405162461bcd60e51b815260040161089790613354565b600d546001600160a01b0316638da9e67783610bd784670de0b6b3a764000061338c565b6040516001600160e01b031960e085901b1681526001600160a01b03909216600483015260248201526044016020604051808303816000875af1158015610c22573d6000803e3d6000fd5b505050506040513d601f19601f82011682018060405250810190610c469190613332565b5061091181612ae3565b60008181526007602081905260409091200180546002919060ff191660018361086a565b600d5460405163b1d1ea9760e01b81526001600160a01b0383811660048301523360248301529091169063b1d1ea97906044016108ce565b610cbe81670de0b6b3a764000061338c565b336000908152600b60205260409020541015610d105760405162461bcd60e51b81526020600482015260116024820152704e6f7420656e6f7567682073686172657360781b6044820152606401610897565b610d2281670de0b6b3a764000061338c565b336000908152600b602052604081208054909190610d419084906133b6565b9091555050600d546001600160a01b0316638da9e67733610d6a84670de0b6b3a764000061338c565b6040516001600160e01b031960e085901b1681526001600160a01b03909216600483015260248201526044016020604051808303816000875af1158015610db5573d6000803e3d6000fd5b505050506040513d601f19601f82011682018060405250810190610dd99190613332565b50610b8b81612ae3565b60606000600f5467ffffffffffffffff811115610e0257610e02612f1c565b604051908082528060200260200182016040528015610e3557816020015b6060815260200190600190039081610e205790505b50905060005b600f54811015610f0f5760008181526007602052604090206003018054610e61906132c7565b80601f0160208091040260200160405190810160405280929190818152602001828054610e8d906132c7565b8015610eda5780601f10610eaf57610100808354040283529160200191610eda565b820191906000526020600020905b815481529060010190602001808311610ebd57829003601f168201915b5050505050828281518110610ef157610ef16133c9565b60200260200101819052508080610f07906133df565b915050610e3b565b50919050565b610f1e33612185565b610f3a5760405162461bcd60e51b8152600401610897906132fb565b600e60009054906101000a90046001600160a01b03166001600160a01b031663c3b639b66040518163ffffffff1660e01b81526004016020604051808303816000875af1158015610b67573d6000803e3d6000fd5b60028181548110610f9f57600080fd5b906000526020600020016000915090508054610fba906132c7565b80601f0160208091040260200160405190810160405280929190818152602001828054610fe6906132c7565b80156110335780601f1061100857610100808354040283529160200191611033565b820191906000526020600020905b81548152906001019060200180831161101657829003601f168201915b505050505081565b60606000600f5467ffffffffffffffff81111561105a5761105a612f1c565b60405190808252806020026020018201604052801561108d57816020015b60608152602001906001900390816110785790505b50905060005b600f54811015610f0f57600081815260076020526040902060020180546110b9906132c7565b80601f01602080910402602001604051908101604052809291908181526020018280546110e5906132c7565b80156111325780601f1061110757610100808354040283529160200191611132565b820191906000526020600020905b81548152906001019060200180831161111557829003601f168201915b5050505050828281518110611149576111496133c9565b6020026020010181905250808061115f906133df565b915050611093565b61117033612185565b61118c5760405162461bcd60e51b8152600401610897906132fb565b600d60009054906101000a90046001600160a01b03166001600160a01b031663c3b639b66040518163ffffffff1660e01b81526004016020604051808303816000875af1158015610b67573d6000803e3d6000fd5b600e5460405163a95bbced60e01b81526001600160a01b0384811660048301529091169063a95bbced90602401602060405180830381865afa15801561122b573d6000803e3d6000fd5b505050506040513d601f19601f8201168201806040525081019061124f91906133f8565b8111156112985760405162461bcd60e51b81526020600482015260176024820152766e6f7420656e6f756768206465627420736f6d65686f7760481b6044820152606401610897565b600e546040516312405a4d60e21b81526001600160a01b03848116600483015233602483015260448201849052909116906349016934906064015b6020604051808303816000875af11580156112f2573d6000803e3d6000fd5b505050506040513d601f19601f820116820180604052508101906113169190613332565b505050565b600d5460405163396473f760e01b81523360048201526001600160a01b039091169063396473f7906024015b6020604051808303816000875af1158015610b67573d6000803e3d6000fd5b61136f33612185565b61138b5760405162461bcd60e51b815260040161089790613354565b600e546001600160a01b0316638da9e677836113af84670de0b6b3a764000061338c565b6040516001600160e01b031960e085901b1681526001600160a01b03909216600483015260248201526044016020604051808303816000875af11580156113fa573d6000803e3d6000fd5b505050506040513d601f19601f8201168201806040525081019061141e9190613332565b5061091181612b51565b6000838152600760209081526040808320338452600883528184208785529092529091205460ff161561148d5760405162461bcd60e51b815260206004820152600d60248201526c185b1c9958591e481d9bdd1959609a1b6044820152606401610897565b600d546040516370a0823160e01b81523360048201526000916001600160a01b0316906370a0823190602401602060405180830381865afa1580156114d6573d6000803e3d6000fd5b505050506040513d601f19601f820116820180604052508101906114fa91906133f8565b116115575760405162461bcd60e51b815260206004820152602760248201527f4e6f7420656e6f7567682073686172657320746f20766f7465206f6e206120706044820152661c9bdc1bdcd85b60ca1b6064820152608401610897565b62093a80816004015461156a91906133a3565b4211156115b15760405162461bcd60e51b81526020600482015260156024820152742b37ba34b733903832b934b7b21034b99037bb32b960591b6044820152606401610897565b60026000858152600760208190526040909120015460ff1660028111156115da576115da612d9a565b146116235760405162461bcd60e51b8152602060048201526019602482015278159bdd1a5b99c81c195c9a5bd9081a5cc8199a5b9a5cda1959603a1b6044820152606401610897565b6000805b835181101561166957838181518110611642576116426133c9565b60200260200101518261165591906133a3565b915080611661816133df565b915050611627565b50816008015481111561167b57600080fd5b6000805b60058401548110156117905760005b865181101561177d576117618560050183815481106116af576116af6133c9565b9060005260206000200180546116c4906132c7565b80601f01602080910402602001604051908101604052809291908181526020018280546116f0906132c7565b801561173d5780601f106117125761010080835404028352916020019161173d565b820191906000526020600020905b81548152906001019060200180831161172057829003601f168201915b5050505050888381518110611754576117546133c9565b6020026020010151612b8e565b1561176b57600192505b80611775816133df565b91505061168e565b5080611788816133df565b91505061167f565b506001811515146117a057600080fd5b60005b600584015481101561184b5760005b8651811015611838576117d38560050183815481106116af576116af6133c9565b15611826578581815181106117ea576117ea6133c9565b6020026020010151856006018381548110611807576118076133c9565b90600052602060002001600082825461182091906133a3565b90915550505b80611830816133df565b9150506117b2565b5080611843816133df565b9150506117a3565b503360008181526008602090815260408083208a845290915290819020805460ff19166001179055600d549051631f827aa360e31b81526004810189905260248101929092526001600160a01b03169063fc13d51890604401600060405180830381600087803b1580156118be57600080fd5b505af11580156118d2573d6000803e3d6000fd5b50505050505050505050565b336000908152600c60205260409020548111156119315760405162461bcd60e51b81526020600482015260116024820152704e6f7420656e6f7567682073686172657360781b6044820152606401610897565b61194381670de0b6b3a764000061338c565b336000908152600c6020526040812080549091906119629084906133b6565b9091555050600e546001600160a01b0316638da9e6773361198b84670de0b6b3a764000061338c565b6040516001600160e01b031960e085901b1681526001600160a01b03909216600483015260248201526044016020604051808303816000875af11580156119d6573d6000803e3d6000fd5b505050506040513d601f19601f820116820180604052508101906119fa9190613332565b50610b8b81612b51565b6000818152600760205260408120600501546060919067ffffffffffffffff811115611a3257611a32612f1c565b604051908082528060200260200182016040528015611a6557816020015b6060815260200190600190039081611a505790505b50905060005b600084815260076020526040902060050154811015611b6a576000848152600760205260409020600501805482908110611aa757611aa76133c9565b906000526020600020018054611abc906132c7565b80601f0160208091040260200160405190810160405280929190818152602001828054611ae8906132c7565b8015611b355780601f10611b0a57610100808354040283529160200191611b35565b820191906000526020600020905b815481529060010190602001808311611b1857829003601f168201915b5050505050828281518110611b4c57611b4c6133c9565b60200260200101819052508080611b62906133df565b915050611a6b565b5092915050565b60018054610fba906132c7565b6000818152600760208190526040822001805460ff191660018361086a565b611ba633612185565b611bc25760405162461bcd60e51b8152600401610897906132fb565b600d54604051632ee39ac160e11b81526001600160a01b03838116600483015290911690635dc73582906024016108ce565b6000848152600760209081526040808320338452600883528184208885529092529091205460ff1615611c595760405162461bcd60e51b815260206004820152600d60248201526c185b1c9958591e481d9bdd1959609a1b6044820152606401610897565b600d546040516370a0823160e01b8152336004820152670de0b6b3a7640000916001600160a01b0316906370a0823190602401602060405180830381865afa158015611ca9573d6000803e3d6000fd5b505050506040513d601f19601f82011682018060405250810190611ccd91906133f8565b611cd79190613411565b821115611d365760405162461bcd60e51b815260206004820152602760248201527f446f6e74206861766520656e6f75676820746f6b656e7320286368616e6765206044820152667765696768742960c81b6064820152608401610897565b600d546040516370a0823160e01b81523360048201526000916001600160a01b0316906370a0823190602401602060405180830381865afa158015611d7f573d6000803e3d6000fd5b505050506040513d601f19601f82011682018060405250810190611da391906133f8565b11611dfe5760405162461bcd60e51b815260206004820152602560248201527f446f6e74206861766520656e6f75676820746f6b656e7320286c69746572616c6044820152646c7920302960d81b6064820152608401610897565b62093a808160040154611e1191906133a3565b421115611e585760405162461bcd60e51b81526020600482015260156024820152742b37ba34b733903832b934b7b21034b99037bb32b960591b6044820152606401610897565b60026000868152600760208190526040909120015460ff166002811115611e8157611e81612d9a565b14611eca5760405162461bcd60e51b8152602060048201526019602482015278159bdd1a5b99c81c195c9a5bd9081a5cc8199a5b9a5cda1959603a1b6044820152606401610897565b6000805b8451811015611f1057848181518110611ee957611ee96133c9565b602002602001015182611efc91906133a3565b915080611f08816133df565b915050611ece565b508160080154811115611f2257600080fd5b6000805b600584015481101561202a5760005b875181101561201757611ffb856005018381548110611f5657611f566133c9565b906000526020600020018054611f6b906132c7565b80601f0160208091040260200160405190810160405280929190818152602001828054611f97906132c7565b8015611fe45780601f10611fb957610100808354040283529160200191611fe4565b820191906000526020600020905b815481529060010190602001808311611fc757829003601f168201915b5050505050898381518110611754576117546133c9565b1561200557600192505b8061200f816133df565b915050611f35565b5080612022816133df565b915050611f26565b5060018115151461203a57600080fd5b60005b60058401548110156120f05760005b87518110156120dd5761206d856005018381548110611f5657611f566133c9565b156120cb5785878281518110612085576120856133c9565b6020026020010151612097919061338c565b8560060183815481106120ac576120ac6133c9565b9060005260206000200160008282546120c591906133a3565b90915550505b806120d5816133df565b91505061204c565b50806120e8816133df565b91505061203d565b503360008181526008602090815260408083208b845290915290819020805460ff19166001179055600d549051631f827aa360e31b8152600481018a905260248101929092526001600160a01b03169063fc13d518906044015b600060405180830381600087803b15801561216457600080fd5b505af1158015612178573d6000803e3d6000fd5b5050505050505050505050565b600e546040516370a0823160e01b81526001600160a01b0383811660048301526000926001929116906370a0823190602401602060405180830381865afa1580156121d4573d6000803e3d6000fd5b505050506040513d601f19601f820116820180604052508101906121f891906133f8565b1061220557506001919050565b60065460048054604051637a57c0ff60e01b8152918201526000916001600160a01b031690637a57c0ff90602401602060405180830381865afa158015612250573d6000803e3d6000fd5b505050506040513d601f19601f820116820180604052508101906122749190613433565b600654604051630b0dad2d60e21b81526001600160a01b03808416600483015292935060009290911690632c36b4b490602401602060405180830381865afa1580156122c4573d6000803e3d6000fd5b505050506040513d601f19601f820116820180604052508101906122e89190613433565b905060005b6001600160a01b0382161561245557670de0b6b3a7640000826001600160a01b031663f70e51a76040518163ffffffff1660e01b8152600401602060405180830381865afa158015612343573d6000803e3d6000fd5b505050506040513d601f19601f820116820180604052508101906123679190613433565b6040516370a0823160e01b81526001600160a01b03888116600483015291909116906370a0823190602401602060405180830381865afa1580156123af573d6000803e3d6000fd5b505050506040513d601f19601f820116820180604052508101906123d391906133f8565b106123e057506001612455565b600654604051630b0dad2d60e21b81526001600160a01b03848116600483015290911690632c36b4b490602401602060405180830381865afa15801561242a573d6000803e3d6000fd5b505050506040513d601f19601f8201168201806040525081019061244e9190613433565b91506122ed565b949350505050565b60038054610fba906132c7565b600e5460405163396473f760e01b81523360048201526001600160a01b039091169063396473f790602401611347565b6124a333612185565b6124fe5760405162461bcd60e51b815260206004820152602660248201527f4e6f7420656e6f7567682073686172657320746f2063726561746520612070726044820152651bdc1bdcd85b60d21b6064820152608401610897565b60608160000361252b57506040805180820190915260068152651b9bdc9b585b60d21b6020820152612554565b8160010361255457506040805180820190915260088152671dd95a59da1d195960c21b60208201525b6040805161014081018252600f5481523360208201529081018890526060810187905242608082015260a0810186905260c0810185905260e081016002815260208082018690526040918201849052600f5460009081526007825282902083518155908301516001820180546001600160a01b0319166001600160a01b039092169190911790559082015160028201906125ee908261349e565b5060608201516003820190612603908261349e565b506080820151600482015560a08201518051612629916005840191602090910190612c32565b5060c08201518051612645916006840191602090910190612c88565b5060e082015160078201805460ff1916600183600281111561266957612669612d9a565b02179055506101008201516008820155610120820151600982019061268e908261349e565b5050600f8054915060006126a1836133df565b9091555050600d54600f54604051630a19dea760e41b81526001600160a01b039092169163a19dea709161214a9160040190815260200190565b60005b600f54811015610b8b5760026000828152600760208190526040909120015460ff16600281111561271157612711612d9a565b1461277e57600d54604051600162d4a05f60e01b03198152600481018390523360248201526001600160a01b039091169063ff2b5fa190604401600060405180830381600087803b15801561276557600080fd5b505af1158015612779573d6000803e3d6000fd5b505050505b6000818152600760205260409081902080546001820154600883015493517f4c42442933829b3de657efc6a23fbe895206dd2453c5a00c3e26d2e969f82727946127ed946001600160a01b0390931692600281019260038201926005830192600681019260099091019061361b565b60405180910390a1806127ff816133df565b9150506126de565b6000818152600760205260408120600601546060919067ffffffffffffffff81111561283557612835612f1c565b60405190808252806020026020018201604052801561285e578160200160208202803683370190505b50905060005b600084815260076020526040902060060154811015611b6a5760008481526007602052604090206006018054829081106128a0576128a06133c9565b90600052602060002001548282815181106128bd576128bd6133c9565b6020908102919091010152806128d2816133df565b915050612864565b6000818152600760205260408120600901805460609291906128fb906132c7565b80601f0160208091040260200160405190810160405280929190818152602001828054612927906132c7565b80156129745780601f1061294957610100808354040283529160200191612974565b820191906000526020600020905b81548152906001019060200180831161295757829003601f168201915b5093979650505050505050565b60008054610fba906132c7565b600d5460405163a95bbced60e01b81526001600160a01b0384811660048301529091169063a95bbced90602401602060405180830381865afa1580156129d8573d6000803e3d6000fd5b505050506040513d601f19601f820116820180604052508101906129fc91906133f8565b811115612a455760405162461bcd60e51b81526020600482015260176024820152766e6f7420656e6f756768206465627420736f6d65686f7760481b6044820152606401610897565b600d546040516312405a4d60e21b81526001600160a01b03848116600483015233602483015260448201849052909116906349016934906064016112d3565b612a8d33612185565b612aa95760405162461bcd60e51b815260040161089790613354565b612abb81670de0b6b3a764000061338c565b6001600160a01b0383166000908152600b6020526040812080549091906109ac9084906133a3565b6006546040516350ee8e8f60e01b8152306004820152602481018390523360448201526001600160a01b03909116906350ee8e8f906064015b600060405180830381600087803b158015612b3657600080fd5b505af1158015612b4a573d6000803e3d6000fd5b5050505050565b60065460405163205cdcff60e01b8152306004820152602481018390523360448201526001600160a01b039091169063205cdcff90606401612b1c565b8151815160009184918491908114612bac5760009350505050612c2c565b60005b81811015612c2357828181518110612bc957612bc96133c9565b602001015160f81c60f81b6001600160f81b031916848281518110612bf057612bf06133c9565b01602001516001600160f81b03191614612c11576000945050505050612c2c565b80612c1b816133df565b915050612baf565b50600193505050505b92915050565b828054828255906000526020600020908101928215612c78579160200282015b82811115612c785782518290612c68908261349e565b5091602001919060010190612c52565b50612c84929150612ccf565b5090565b828054828255906000526020600020908101928215612cc3579160200282015b82811115612cc3578251825591602001919060010190612ca8565b50612c84929150612cec565b80821115612c84576000612ce38282612d01565b50600101612ccf565b5b80821115612c845760008155600101612ced565b508054612d0d906132c7565b6000825580601f10612d1d575050565b601f016020900490600052602060002090810190610b8b9190612cec565b600060208284031215612d4d57600080fd5b5035919050565b6000815180845260005b81811015612d7a57602081850181015186830182015201612d5e565b506000602082860101526020601f19601f83011685010191505092915050565b634e487b7160e01b600052602160045260246000fd5b8881526001600160a01b038816602082015261010060408201819052600090612ddb8382018a612d54565b90508281036060840152612def8189612d54565b905086608084015260038610612e1557634e487b7160e01b600052602160045260246000fd5b8560a08401528460c084015282810360e0840152612e338185612d54565b9b9a5050505050505050505050565b6001600160a01b0381168114610b8b57600080fd5b600060208284031215612e6957600080fd5b8135612e7481612e42565b9392505050565b60008060408385031215612e8e57600080fd5b8235612e9981612e42565b946020939093013593505050565b6000602080830181845280855180835260408601915060408160051b870101925083870160005b82811015612efc57603f19888603018452612eea858351612d54565b94509285019290850190600101612ece565b5092979650505050505050565b602081526000612e746020830184612d54565b634e487b7160e01b600052604160045260246000fd5b604051601f8201601f1916810167ffffffffffffffff81118282101715612f5b57612f5b612f1c565b604052919050565b600067ffffffffffffffff821115612f7d57612f7d612f1c565b5060051b60200190565b600082601f830112612f9857600080fd5b813567ffffffffffffffff811115612fb257612fb2612f1c565b612fc5601f8201601f1916602001612f32565b818152846020838601011115612fda57600080fd5b816020850160208301376000918101602001919091529392505050565b600082601f83011261300857600080fd5b8135602061301d61301883612f63565b612f32565b82815260059290921b8401810191818101908684111561303c57600080fd5b8286015b8481101561307c57803567ffffffffffffffff8111156130605760008081fd5b61306e8986838b0101612f87565b845250918301918301613040565b509695505050505050565b600082601f83011261309857600080fd5b813560206130a861301883612f63565b82815260059290921b840181019181810190868411156130c757600080fd5b8286015b8481101561307c57803583529183019183016130cb565b6000806000606084860312156130f757600080fd5b83359250602084013567ffffffffffffffff8082111561311657600080fd5b61312287838801612ff7565b9350604086013591508082111561313857600080fd5b5061314586828701613087565b9150509250925092565b6000806000806080858703121561316557600080fd5b84359350602085013567ffffffffffffffff8082111561318457600080fd5b61319088838901612ff7565b945060408701359150808211156131a657600080fd5b506131b387828801613087565b949793965093946060013593505050565b60008060008060008060c087890312156131dd57600080fd5b863567ffffffffffffffff808211156131f557600080fd5b6132018a838b01612f87565b9750602089013591508082111561321757600080fd5b6132238a838b01612f87565b9650604089013591508082111561323957600080fd5b6132458a838b01612ff7565b9550606089013591508082111561325b57600080fd5b5061326889828a01613087565b9350506080870135915060a087013590509295509295509295565b6020808252825182820181905260009190848201906040850190845b818110156132bb5783518352928401929184019160010161329f565b50909695505050505050565b600181811c908216806132db57607f821691505b602082108103610f0f57634e487b7160e01b600052602260045260246000fd5b6020808252601b908201527f646f6573206e6f74206861766520796b2070726976696c696765730000000000604082015260600190565b60006020828403121561334457600080fd5b81518015158114612e7457600080fd5b6020808252600890820152674e6f74206120594b60c01b604082015260600190565b634e487b7160e01b600052601160045260246000fd5b8082028115828204841417612c2c57612c2c613376565b80820180821115612c2c57612c2c613376565b81810381811115612c2c57612c2c613376565b634e487b7160e01b600052603260045260246000fd5b6000600182016133f1576133f1613376565b5060010190565b60006020828403121561340a57600080fd5b5051919050565b60008261342e57634e487b7160e01b600052601260045260246000fd5b500490565b60006020828403121561344557600080fd5b8151612e7481612e42565b601f82111561131657600081815260208120601f850160051c810160208610156134775750805b601f850160051c820191505b8181101561349657828155600101613483565b505050505050565b815167ffffffffffffffff8111156134b8576134b8612f1c565b6134cc816134c684546132c7565b84613450565b602080601f83116001811461350157600084156134e95750858301515b600019600386901b1c1916600185901b178555613496565b600085815260208120601f198616915b8281101561353057888601518255948401946001909101908401613511565b508582101561354e5787850151600019600388901b60f8161c191681555b5050505050600190811b01905550565b6000815461356b816132c7565b80855260206001838116801561358857600181146135a2576135d0565b60ff1985168884015283151560051b8801830195506135d0565b866000528260002060005b858110156135c85781548a82018601529083019084016135ad565b890184019650505b505050505092915050565b6000815480845260208085019450836000528060002060005b83811015613610578154875295820195600191820191016135f4565b509495945050505050565b60006101008a8352602060018060a01b038b16818501528160408501526136448285018b61355e565b91508382036060850152613658828a61355e565b915083820360808501528188548084528284019150828160051b8501018a6000528360002060005b838110156136ad57868303601f1901855261369b838361355e565b94860194925060019182019101613680565b505086810360a08801526136c1818b6135db565b9450505050508460c084015282810360e0840152612e33818561355e56fea2646970667358221220c4076a6fdea99d9c2a28ff359bafbcbc329fe261872d0f0516fd30a7a7aa376964736f6c63430008120033",
			"opcodes": "PUSH1 0x80 PUSH1 0x40 MSTORE CALLVALUE DUP1 ISZERO PUSH3 0x11 JUMPI PUSH1 0x0 DUP1 REVERT JUMPDEST POP PUSH1 0x40 MLOAD PUSH3 0x3B9E CODESIZE SUB DUP1 PUSH3 0x3B9E DUP4 CODECOPY DUP2 ADD PUSH1 0x40 DUP2 SWAP1 MSTORE PUSH3 0x34 SWAP2 PUSH3 0x210 JUMP JUMPDEST PUSH1 0x6 DUP1 SLOAD PUSH1 0x1 PUSH1 0x1 PUSH1 0xA0 SHL SUB NOT AND PUSH1 0x1 PUSH1 0x1 PUSH1 0xA0 SHL SUB DUP4 AND OR SWAP1 SSTORE PUSH1 0x0 PUSH3 0x5D DUP10 DUP3 PUSH3 0x385 JUMP JUMPDEST POP PUSH1 0x4 DUP6 SWAP1 SSTORE PUSH1 0x1 PUSH3 0x71 DUP8 DUP3 PUSH3 0x385 JUMP JUMPDEST POP PUSH1 0xE DUP1 SLOAD PUSH1 0x1 PUSH1 0x1 PUSH1 0xA0 SHL SUB DUP1 DUP7 AND PUSH1 0x1 PUSH1 0x1 PUSH1 0xA0 SHL SUB NOT SWAP3 DUP4 AND OR SWAP1 SWAP3 SSTORE PUSH1 0xD DUP1 SLOAD SWAP3 DUP6 AND SWAP3 SWAP1 SWAP2 AND SWAP2 SWAP1 SWAP2 OR SWAP1 SSTORE PUSH1 0x3 PUSH3 0xB0 DUP9 DUP3 PUSH3 0x385 JUMP JUMPDEST POP PUSH1 0x1 PUSH1 0x1 PUSH1 0xA0 SHL SUB DUP5 AND PUSH1 0x0 SWAP1 DUP2 MSTORE PUSH1 0xC PUSH1 0x20 MSTORE PUSH1 0x40 DUP2 KECCAK256 DUP1 SLOAD PUSH8 0xDE0B6B3A7640000 SWAP3 SWAP1 PUSH3 0xE3 SWAP1 DUP5 SWAP1 PUSH3 0x451 JUMP JUMPDEST SWAP1 SWAP2 SSTORE POP POP PUSH1 0x1 PUSH1 0x1 PUSH1 0xA0 SHL SUB DUP5 AND PUSH1 0x0 SWAP1 DUP2 MSTORE PUSH1 0xB PUSH1 0x20 MSTORE PUSH1 0x40 DUP2 KECCAK256 DUP1 SLOAD PUSH8 0xDE0B6B3A7640000 SWAP3 SWAP1 PUSH3 0x11A SWAP1 DUP5 SWAP1 PUSH3 0x451 JUMP JUMPDEST SWAP1 SWAP2 SSTORE POP PUSH3 0x479 SWAP9 POP POP POP POP POP POP POP POP POP JUMP JUMPDEST PUSH4 0x4E487B71 PUSH1 0xE0 SHL PUSH1 0x0 MSTORE PUSH1 0x41 PUSH1 0x4 MSTORE PUSH1 0x24 PUSH1 0x0 REVERT JUMPDEST PUSH1 0x0 DUP3 PUSH1 0x1F DUP4 ADD SLT PUSH3 0x156 JUMPI PUSH1 0x0 DUP1 REVERT JUMPDEST DUP2 MLOAD PUSH1 0x1 PUSH1 0x1 PUSH1 0x40 SHL SUB DUP1 DUP3 GT ISZERO PUSH3 0x173 JUMPI PUSH3 0x173 PUSH3 0x12E JUMP JUMPDEST PUSH1 0x40 MLOAD PUSH1 0x1F DUP4 ADD PUSH1 0x1F NOT SWAP1 DUP2 AND PUSH1 0x3F ADD AND DUP2 ADD SWAP1 DUP3 DUP3 GT DUP2 DUP4 LT OR ISZERO PUSH3 0x19E JUMPI PUSH3 0x19E PUSH3 0x12E JUMP JUMPDEST DUP2 PUSH1 0x40 MSTORE DUP4 DUP2 MSTORE PUSH1 0x20 SWAP3 POP DUP7 DUP4 DUP6 DUP9 ADD ADD GT ISZERO PUSH3 0x1BB JUMPI PUSH1 0x0 DUP1 REVERT JUMPDEST PUSH1 0x0 SWAP2 POP JUMPDEST DUP4 DUP3 LT ISZERO PUSH3 0x1DF JUMPI DUP6 DUP3 ADD DUP4 ADD MLOAD DUP2 DUP4 ADD DUP5 ADD MSTORE SWAP1 DUP3 ADD SWAP1 PUSH3 0x1C0 JUMP JUMPDEST PUSH1 0x0 SWAP4 DUP2 ADD SWAP1 SWAP3 ADD SWAP3 SWAP1 SWAP3 MSTORE SWAP5 SWAP4 POP POP POP POP JUMP JUMPDEST DUP1 MLOAD PUSH1 0x1 PUSH1 0x1 PUSH1 0xA0 SHL SUB DUP2 AND DUP2 EQ PUSH3 0x20B JUMPI PUSH1 0x0 DUP1 REVERT JUMPDEST SWAP2 SWAP1 POP JUMP JUMPDEST PUSH1 0x0 DUP1 PUSH1 0x0 DUP1 PUSH1 0x0 DUP1 PUSH1 0x0 DUP1 PUSH2 0x100 DUP10 DUP12 SUB SLT ISZERO PUSH3 0x22E JUMPI PUSH1 0x0 DUP1 REVERT JUMPDEST DUP9 MLOAD PUSH1 0x1 PUSH1 0x1 PUSH1 0x40 SHL SUB DUP1 DUP3 GT ISZERO PUSH3 0x246 JUMPI PUSH1 0x0 DUP1 REVERT JUMPDEST PUSH3 0x254 DUP13 DUP4 DUP14 ADD PUSH3 0x144 JUMP JUMPDEST SWAP10 POP PUSH1 0x20 DUP12 ADD MLOAD SWAP2 POP DUP1 DUP3 GT ISZERO PUSH3 0x26B JUMPI PUSH1 0x0 DUP1 REVERT JUMPDEST PUSH3 0x279 DUP13 DUP4 DUP14 ADD PUSH3 0x144 JUMP JUMPDEST SWAP9 POP PUSH1 0x40 DUP12 ADD MLOAD SWAP2 POP DUP1 DUP3 GT ISZERO PUSH3 0x290 JUMPI PUSH1 0x0 DUP1 REVERT JUMPDEST POP PUSH3 0x29F DUP12 DUP3 DUP13 ADD PUSH3 0x144 JUMP JUMPDEST SWAP7 POP POP PUSH1 0x60 DUP10 ADD MLOAD SWAP5 POP PUSH3 0x2B7 PUSH1 0x80 DUP11 ADD PUSH3 0x1F3 JUMP JUMPDEST SWAP4 POP PUSH3 0x2C7 PUSH1 0xA0 DUP11 ADD PUSH3 0x1F3 JUMP JUMPDEST SWAP3 POP PUSH3 0x2D7 PUSH1 0xC0 DUP11 ADD PUSH3 0x1F3 JUMP JUMPDEST SWAP2 POP PUSH3 0x2E7 PUSH1 0xE0 DUP11 ADD PUSH3 0x1F3 JUMP JUMPDEST SWAP1 POP SWAP3 SWAP6 SWAP9 POP SWAP3 SWAP6 SWAP9 SWAP1 SWAP4 SWAP7 POP JUMP JUMPDEST PUSH1 0x1 DUP2 DUP2 SHR SWAP1 DUP3 AND DUP1 PUSH3 0x30B JUMPI PUSH1 0x7F DUP3 AND SWAP2 POP JUMPDEST PUSH1 0x20 DUP3 LT DUP2 SUB PUSH3 0x32C JUMPI PUSH4 0x4E487B71 PUSH1 0xE0 SHL PUSH1 0x0 MSTORE PUSH1 0x22 PUSH1 0x4 MSTORE PUSH1 0x24 PUSH1 0x0 REVERT JUMPDEST POP SWAP2 SWAP1 POP JUMP JUMPDEST PUSH1 0x1F DUP3 GT ISZERO PUSH3 0x380 JUMPI PUSH1 0x0 DUP2 DUP2 MSTORE PUSH1 0x20 DUP2 KECCAK256 PUSH1 0x1F DUP6 ADD PUSH1 0x5 SHR DUP2 ADD PUSH1 0x20 DUP7 LT ISZERO PUSH3 0x35B JUMPI POP DUP1 JUMPDEST PUSH1 0x1F DUP6 ADD PUSH1 0x5 SHR DUP3 ADD SWAP2 POP JUMPDEST DUP2 DUP2 LT ISZERO PUSH3 0x37C JUMPI DUP3 DUP2 SSTORE PUSH1 0x1 ADD PUSH3 0x367 JUMP JUMPDEST POP POP POP JUMPDEST POP POP POP JUMP JUMPDEST DUP2 MLOAD PUSH1 0x1 PUSH1 0x1 PUSH1 0x40 SHL SUB DUP2 GT ISZERO PUSH3 0x3A1 JUMPI PUSH3 0x3A1 PUSH3 0x12E JUMP JUMPDEST PUSH3 0x3B9 DUP2 PUSH3 0x3B2 DUP5 SLOAD PUSH3 0x2F6 JUMP JUMPDEST DUP5 PUSH3 0x332 JUMP JUMPDEST PUSH1 0x20 DUP1 PUSH1 0x1F DUP4 GT PUSH1 0x1 DUP2 EQ PUSH3 0x3F1 JUMPI PUSH1 0x0 DUP5 ISZERO PUSH3 0x3D8 JUMPI POP DUP6 DUP4 ADD MLOAD JUMPDEST PUSH1 0x0 NOT PUSH1 0x3 DUP7 SWAP1 SHL SHR NOT AND PUSH1 0x1 DUP6 SWAP1 SHL OR DUP6 SSTORE PUSH3 0x37C JUMP JUMPDEST PUSH1 0x0 DUP6 DUP2 MSTORE PUSH1 0x20 DUP2 KECCAK256 PUSH1 0x1F NOT DUP7 AND SWAP2 JUMPDEST DUP3 DUP2 LT ISZERO PUSH3 0x422 JUMPI DUP9 DUP7 ADD MLOAD DUP3 SSTORE SWAP5 DUP5 ADD SWAP5 PUSH1 0x1 SWAP1 SWAP2 ADD SWAP1 DUP5 ADD PUSH3 0x401 JUMP JUMPDEST POP DUP6 DUP3 LT ISZERO PUSH3 0x441 JUMPI DUP8 DUP6 ADD MLOAD PUSH1 0x0 NOT PUSH1 0x3 DUP9 SWAP1 SHL PUSH1 0xF8 AND SHR NOT AND DUP2 SSTORE JUMPDEST POP POP POP POP POP PUSH1 0x1 SWAP1 DUP2 SHL ADD SWAP1 SSTORE POP JUMP JUMPDEST DUP1 DUP3 ADD DUP1 DUP3 GT ISZERO PUSH3 0x473 JUMPI PUSH4 0x4E487B71 PUSH1 0xE0 SHL PUSH1 0x0 MSTORE PUSH1 0x11 PUSH1 0x4 MSTORE PUSH1 0x24 PUSH1 0x0 REVERT JUMPDEST SWAP3 SWAP2 POP POP JUMP JUMPDEST PUSH2 0x3715 DUP1 PUSH3 0x489 PUSH1 0x0 CODECOPY PUSH1 0x0 RETURN INVALID PUSH1 0x80 PUSH1 0x40 MSTORE CALLVALUE DUP1 ISZERO PUSH2 0x10 JUMPI PUSH1 0x0 DUP1 REVERT JUMPDEST POP PUSH1 0x4 CALLDATASIZE LT PUSH2 0x28A JUMPI PUSH1 0x0 CALLDATALOAD PUSH1 0xE0 SHR DUP1 PUSH4 0x8A19AB35 GT PUSH2 0x15C JUMPI DUP1 PUSH4 0xC1BFF3E0 GT PUSH2 0xCE JUMPI DUP1 PUSH4 0xE5C28C90 GT PUSH2 0x87 JUMPI DUP1 PUSH4 0xE5C28C90 EQ PUSH2 0x5DD JUMPI DUP1 PUSH4 0xE9376882 EQ PUSH2 0x60B JUMPI DUP1 PUSH4 0xF08C03BC EQ PUSH2 0x613 JUMPI DUP1 PUSH4 0xF70E51A7 EQ PUSH2 0x626 JUMPI DUP1 PUSH4 0xF8A8FD6D EQ PUSH2 0x639 JUMPI DUP1 PUSH4 0xF9B8A27A EQ PUSH2 0x64C JUMPI PUSH1 0x0 DUP1 REVERT JUMPDEST DUP1 PUSH4 0xC1BFF3E0 EQ PUSH2 0x544 JUMPI DUP1 PUSH4 0xCF5265D8 EQ PUSH2 0x557 JUMPI DUP1 PUSH4 0xD25129C4 EQ PUSH2 0x55F JUMPI DUP1 PUSH4 0xD8C6BC21 EQ PUSH2 0x57F JUMPI DUP1 PUSH4 0xD978FFBA EQ PUSH2 0x59F JUMPI DUP1 PUSH4 0xDD3BF85C EQ PUSH2 0x5B2 JUMPI PUSH1 0x0 DUP1 REVERT JUMPDEST DUP1 PUSH4 0xA38B39D4 GT PUSH2 0x120 JUMPI DUP1 PUSH4 0xA38B39D4 EQ PUSH2 0x4D0 JUMPI DUP1 PUSH4 0xA44B21AE EQ PUSH2 0x4E3 JUMPI DUP1 PUSH4 0xA47EB7CF EQ PUSH2 0x4F6 JUMPI DUP1 PUSH4 0xA9A2A4A3 EQ PUSH2 0x509 JUMPI DUP1 PUSH4 0xABA83150 EQ PUSH2 0x534 JUMPI DUP1 PUSH4 0xBDF52C22 EQ PUSH2 0x53C JUMPI PUSH1 0x0 DUP1 REVERT JUMPDEST DUP1 PUSH4 0x8A19AB35 EQ PUSH2 0x451 JUMPI DUP1 PUSH4 0x8F7C59D0 EQ PUSH2 0x464 JUMPI DUP1 PUSH4 0x9D92C108 EQ PUSH2 0x477 JUMPI DUP1 PUSH4 0x9F2524EE EQ PUSH2 0x47F JUMPI DUP1 PUSH4 0xA2DED950 EQ PUSH2 0x4BD JUMPI PUSH1 0x0 DUP1 REVERT JUMPDEST DUP1 PUSH4 0x451ABCEC GT PUSH2 0x200 JUMPI DUP1 PUSH4 0x64944D4D GT PUSH2 0x1B9 JUMPI DUP1 PUSH4 0x64944D4D EQ PUSH2 0x3E8 JUMPI DUP1 PUSH4 0x71DF5605 EQ PUSH2 0x3F0 JUMPI DUP1 PUSH4 0x75FD8377 EQ PUSH2 0x410 JUMPI DUP1 PUSH4 0x7B93E652 EQ PUSH2 0x423 JUMPI DUP1 PUSH4 0x7E11A556 EQ PUSH2 0x42B JUMPI DUP1 PUSH4 0x8661FA70 EQ PUSH2 0x43E JUMPI PUSH1 0x0 DUP1 REVERT JUMPDEST DUP1 PUSH4 0x451ABCEC EQ PUSH2 0x378 JUMPI DUP1 PUSH4 0x4A9F1575 EQ PUSH2 0x38D JUMPI DUP1 PUSH4 0x4B4967E8 EQ PUSH2 0x395 JUMPI DUP1 PUSH4 0x560D09B6 EQ PUSH2 0x39D JUMPI DUP1 PUSH4 0x5D808950 EQ PUSH2 0x3C0 JUMPI DUP1 PUSH4 0x62B25FC6 EQ PUSH2 0x3E0 JUMPI PUSH1 0x0 DUP1 REVERT JUMPDEST DUP1 PUSH4 0x19F33961 GT PUSH2 0x252 JUMPI DUP1 PUSH4 0x19F33961 EQ PUSH2 0x30D JUMPI DUP1 PUSH4 0x23EE2C83 EQ PUSH2 0x315 JUMPI DUP1 PUSH4 0x2AB09D14 EQ PUSH2 0x328 JUMPI DUP1 PUSH4 0x2C14ED17 EQ PUSH2 0x33F JUMPI DUP1 PUSH4 0x339A9E59 EQ PUSH2 0x352 JUMPI DUP1 PUSH4 0x42B9D7E4 EQ PUSH2 0x365 JUMPI PUSH1 0x0 DUP1 REVERT JUMPDEST DUP1 PUSH4 0x13CF08B EQ PUSH2 0x28F JUMPI DUP1 PUSH4 0x7E25F27 EQ PUSH2 0x2BF JUMPI DUP1 PUSH4 0x10742870 EQ PUSH2 0x2D4 JUMPI DUP1 PUSH4 0x114D7756 EQ PUSH2 0x2E7 JUMPI DUP1 PUSH4 0x14E72F43 EQ PUSH2 0x2FA JUMPI JUMPDEST PUSH1 0x0 DUP1 REVERT JUMPDEST PUSH2 0x2A2 PUSH2 0x29D CALLDATASIZE PUSH1 0x4 PUSH2 0x2D3B JUMP JUMPDEST PUSH2 0x65F JUMP JUMPDEST PUSH1 0x40 MLOAD PUSH2 0x2B6 SWAP9 SWAP8 SWAP7 SWAP6 SWAP5 SWAP4 SWAP3 SWAP2 SWAP1 PUSH2 0x2DB0 JUMP JUMPDEST PUSH1 0x40 MLOAD DUP1 SWAP2 SUB SWAP1 RETURN JUMPDEST PUSH2 0x2D2 PUSH2 0x2CD CALLDATASIZE PUSH1 0x4 PUSH2 0x2D3B JUMP JUMPDEST PUSH2 0x84B JUMP JUMPDEST STOP JUMPDEST PUSH2 0x2D2 PUSH2 0x2E2 CALLDATASIZE PUSH1 0x4 PUSH2 0x2E57 JUMP JUMPDEST PUSH2 0x872 JUMP JUMPDEST PUSH2 0x2D2 PUSH2 0x2F5 CALLDATASIZE PUSH1 0x4 PUSH2 0x2E57 JUMP JUMPDEST PUSH2 0x915 JUMP JUMPDEST PUSH2 0x2D2 PUSH2 0x308 CALLDATASIZE PUSH1 0x4 PUSH2 0x2E7B JUMP JUMPDEST PUSH2 0x94D JUMP JUMPDEST PUSH2 0x2D2 PUSH2 0x9B5 JUMP JUMPDEST PUSH2 0x2D2 PUSH2 0x323 CALLDATASIZE PUSH1 0x4 PUSH2 0x2E7B JUMP JUMPDEST PUSH2 0xB8E JUMP JUMPDEST PUSH2 0x331 PUSH1 0xF SLOAD DUP2 JUMP JUMPDEST PUSH1 0x40 MLOAD SWAP1 DUP2 MSTORE PUSH1 0x20 ADD PUSH2 0x2B6 JUMP JUMPDEST PUSH2 0x2D2 PUSH2 0x34D CALLDATASIZE PUSH1 0x4 PUSH2 0x2D3B JUMP JUMPDEST PUSH2 0xC50 JUMP JUMPDEST PUSH2 0x2D2 PUSH2 0x360 CALLDATASIZE PUSH1 0x4 PUSH2 0x2E57 JUMP JUMPDEST PUSH2 0xC74 JUMP JUMPDEST PUSH2 0x2D2 PUSH2 0x373 CALLDATASIZE PUSH1 0x4 PUSH2 0x2D3B JUMP JUMPDEST PUSH2 0xCAC JUMP JUMPDEST PUSH2 0x380 PUSH2 0xDE3 JUMP JUMPDEST PUSH1 0x40 MLOAD PUSH2 0x2B6 SWAP2 SWAP1 PUSH2 0x2EA7 JUMP JUMPDEST PUSH2 0x2D2 PUSH2 0xF15 JUMP JUMPDEST PUSH1 0x4 SLOAD PUSH2 0x331 JUMP JUMPDEST PUSH2 0x331 PUSH2 0x3AB CALLDATASIZE PUSH1 0x4 PUSH2 0x2D3B JUMP JUMPDEST PUSH1 0x0 SWAP1 DUP2 MSTORE PUSH1 0x7 PUSH1 0x20 MSTORE PUSH1 0x40 SWAP1 KECCAK256 PUSH1 0x8 ADD SLOAD SWAP1 JUMP JUMPDEST PUSH2 0x3D3 PUSH2 0x3CE CALLDATASIZE PUSH1 0x4 PUSH2 0x2D3B JUMP JUMPDEST PUSH2 0xF8F JUMP JUMPDEST PUSH1 0x40 MLOAD PUSH2 0x2B6 SWAP2 SWAP1 PUSH2 0x2F09 JUMP JUMPDEST PUSH2 0x380 PUSH2 0x103B JUMP JUMPDEST PUSH2 0x2D2 PUSH2 0x1167 JUMP JUMPDEST PUSH2 0x331 PUSH2 0x3FE CALLDATASIZE PUSH1 0x4 PUSH2 0x2E57 JUMP JUMPDEST PUSH1 0xC PUSH1 0x20 MSTORE PUSH1 0x0 SWAP1 DUP2 MSTORE PUSH1 0x40 SWAP1 KECCAK256 SLOAD DUP2 JUMP JUMPDEST PUSH2 0x2D2 PUSH2 0x41E CALLDATASIZE PUSH1 0x4 PUSH2 0x2E7B JUMP JUMPDEST PUSH2 0x11E1 JUMP JUMPDEST PUSH2 0x2D2 PUSH2 0x131B JUMP JUMPDEST PUSH2 0x2D2 PUSH2 0x439 CALLDATASIZE PUSH1 0x4 PUSH2 0x2E7B JUMP JUMPDEST PUSH2 0x1366 JUMP JUMPDEST PUSH2 0x2D2 PUSH2 0x44C CALLDATASIZE PUSH1 0x4 PUSH2 0x30E2 JUMP JUMPDEST PUSH2 0x1428 JUMP JUMPDEST PUSH2 0x2D2 PUSH2 0x45F CALLDATASIZE PUSH1 0x4 PUSH2 0x2D3B JUMP JUMPDEST PUSH2 0x18DE JUMP JUMPDEST PUSH2 0x380 PUSH2 0x472 CALLDATASIZE PUSH1 0x4 PUSH2 0x2D3B JUMP JUMPDEST PUSH2 0x1A04 JUMP JUMPDEST PUSH2 0x3D3 PUSH2 0x1B71 JUMP JUMPDEST PUSH2 0x4AD PUSH2 0x48D CALLDATASIZE PUSH1 0x4 PUSH2 0x2E7B JUMP JUMPDEST PUSH1 0x8 PUSH1 0x20 SWAP1 DUP2 MSTORE PUSH1 0x0 SWAP3 DUP4 MSTORE PUSH1 0x40 DUP1 DUP5 KECCAK256 SWAP1 SWAP2 MSTORE SWAP1 DUP3 MSTORE SWAP1 KECCAK256 SLOAD PUSH1 0xFF AND DUP2 JUMP JUMPDEST PUSH1 0x40 MLOAD SWAP1 ISZERO ISZERO DUP2 MSTORE PUSH1 0x20 ADD PUSH2 0x2B6 JUMP JUMPDEST PUSH2 0x2D2 PUSH2 0x4CB CALLDATASIZE PUSH1 0x4 PUSH2 0x2D3B JUMP JUMPDEST PUSH2 0x1B7E JUMP JUMPDEST PUSH2 0x2D2 PUSH2 0x4DE CALLDATASIZE PUSH1 0x4 PUSH2 0x2E57 JUMP JUMPDEST PUSH2 0x1B9D JUMP JUMPDEST PUSH2 0x2D2 PUSH2 0x4F1 CALLDATASIZE PUSH1 0x4 PUSH2 0x314F JUMP JUMPDEST PUSH2 0x1BF4 JUMP JUMPDEST PUSH2 0x4AD PUSH2 0x504 CALLDATASIZE PUSH1 0x4 PUSH2 0x2E57 JUMP JUMPDEST PUSH2 0x2185 JUMP JUMPDEST PUSH2 0x331 PUSH2 0x517 CALLDATASIZE PUSH1 0x4 PUSH2 0x2E7B JUMP JUMPDEST PUSH1 0xA PUSH1 0x20 SWAP1 DUP2 MSTORE PUSH1 0x0 SWAP3 DUP4 MSTORE PUSH1 0x40 DUP1 DUP5 KECCAK256 SWAP1 SWAP2 MSTORE SWAP1 DUP3 MSTORE SWAP1 KECCAK256 SLOAD DUP2 JUMP JUMPDEST PUSH2 0x3D3 PUSH2 0x245D JUMP JUMPDEST PUSH2 0x2D2 PUSH2 0x246A JUMP JUMPDEST PUSH2 0x2D2 PUSH2 0x552 CALLDATASIZE PUSH1 0x4 PUSH2 0x31C4 JUMP JUMPDEST PUSH2 0x249A JUMP JUMPDEST PUSH2 0x2D2 PUSH2 0x26DB JUMP JUMPDEST PUSH2 0x572 PUSH2 0x56D CALLDATASIZE PUSH1 0x4 PUSH2 0x2D3B JUMP JUMPDEST PUSH2 0x2807 JUMP JUMPDEST PUSH1 0x40 MLOAD PUSH2 0x2B6 SWAP2 SWAP1 PUSH2 0x3283 JUMP JUMPDEST PUSH2 0x331 PUSH2 0x58D CALLDATASIZE PUSH1 0x4 PUSH2 0x2E57 JUMP JUMPDEST PUSH1 0xB PUSH1 0x20 MSTORE PUSH1 0x0 SWAP1 DUP2 MSTORE PUSH1 0x40 SWAP1 KECCAK256 SLOAD DUP2 JUMP JUMPDEST PUSH2 0x3D3 PUSH2 0x5AD CALLDATASIZE PUSH1 0x4 PUSH2 0x2D3B JUMP JUMPDEST PUSH2 0x28DA JUMP JUMPDEST PUSH1 0xD SLOAD PUSH2 0x5C5 SWAP1 PUSH1 0x1 PUSH1 0x1 PUSH1 0xA0 SHL SUB AND DUP2 JUMP JUMPDEST PUSH1 0x40 MLOAD PUSH1 0x1 PUSH1 0x1 PUSH1 0xA0 SHL SUB SWAP1 SWAP2 AND DUP2 MSTORE PUSH1 0x20 ADD PUSH2 0x2B6 JUMP JUMPDEST PUSH2 0x4AD PUSH2 0x5EB CALLDATASIZE PUSH1 0x4 PUSH2 0x2E7B JUMP JUMPDEST PUSH1 0x9 PUSH1 0x20 SWAP1 DUP2 MSTORE PUSH1 0x0 SWAP3 DUP4 MSTORE PUSH1 0x40 DUP1 DUP5 KECCAK256 SWAP1 SWAP2 MSTORE SWAP1 DUP3 MSTORE SWAP1 KECCAK256 SLOAD PUSH1 0xFF AND DUP2 JUMP JUMPDEST PUSH2 0x3D3 PUSH2 0x2981 JUMP JUMPDEST PUSH2 0x2D2 PUSH2 0x621 CALLDATASIZE PUSH1 0x4 PUSH2 0x2E7B JUMP JUMPDEST PUSH2 0x298E JUMP JUMPDEST PUSH1 0xE SLOAD PUSH2 0x5C5 SWAP1 PUSH1 0x1 PUSH1 0x1 PUSH1 0xA0 SHL SUB AND DUP2 JUMP JUMPDEST PUSH1 0x5 SLOAD PUSH2 0x5C5 SWAP1 PUSH1 0x1 PUSH1 0x1 PUSH1 0xA0 SHL SUB AND DUP2 JUMP JUMPDEST PUSH2 0x2D2 PUSH2 0x65A CALLDATASIZE PUSH1 0x4 PUSH2 0x2E7B JUMP JUMPDEST PUSH2 0x2A84 JUMP JUMPDEST PUSH1 0x7 PUSH1 0x20 MSTORE PUSH1 0x0 SWAP1 DUP2 MSTORE PUSH1 0x40 SWAP1 KECCAK256 DUP1 SLOAD PUSH1 0x1 DUP3 ADD SLOAD PUSH1 0x2 DUP4 ADD DUP1 SLOAD SWAP3 SWAP4 PUSH1 0x1 PUSH1 0x1 PUSH1 0xA0 SHL SUB SWAP1 SWAP3 AND SWAP3 PUSH2 0x691 SWAP1 PUSH2 0x32C7 JUMP JUMPDEST DUP1 PUSH1 0x1F ADD PUSH1 0x20 DUP1 SWAP2 DIV MUL PUSH1 0x20 ADD PUSH1 0x40 MLOAD SWAP1 DUP2 ADD PUSH1 0x40 MSTORE DUP1 SWAP3 SWAP2 SWAP1 DUP2 DUP2 MSTORE PUSH1 0x20 ADD DUP3 DUP1 SLOAD PUSH2 0x6BD SWAP1 PUSH2 0x32C7 JUMP JUMPDEST DUP1 ISZERO PUSH2 0x70A JUMPI DUP1 PUSH1 0x1F LT PUSH2 0x6DF JUMPI PUSH2 0x100 DUP1 DUP4 SLOAD DIV MUL DUP4 MSTORE SWAP2 PUSH1 0x20 ADD SWAP2 PUSH2 0x70A JUMP JUMPDEST DUP3 ADD SWAP2 SWAP1 PUSH1 0x0 MSTORE PUSH1 0x20 PUSH1 0x0 KECCAK256 SWAP1 JUMPDEST DUP2 SLOAD DUP2 MSTORE SWAP1 PUSH1 0x1 ADD SWAP1 PUSH1 0x20 ADD DUP1 DUP4 GT PUSH2 0x6ED JUMPI DUP3 SWAP1 SUB PUSH1 0x1F AND DUP3 ADD SWAP2 JUMPDEST POP POP POP POP POP SWAP1 DUP1 PUSH1 0x3 ADD DUP1 SLOAD PUSH2 0x71F SWAP1 PUSH2 0x32C7 JUMP JUMPDEST DUP1 PUSH1 0x1F ADD PUSH1 0x20 DUP1 SWAP2 DIV MUL PUSH1 0x20 ADD PUSH1 0x40 MLOAD SWAP1 DUP2 ADD PUSH1 0x40 MSTORE DUP1 SWAP3 SWAP2 SWAP1 DUP2 DUP2 MSTORE PUSH1 0x20 ADD DUP3 DUP1 SLOAD PUSH2 0x74B SWAP1 PUSH2 0x32C7 JUMP JUMPDEST DUP1 ISZERO PUSH2 0x798 JUMPI DUP1 PUSH1 0x1F LT PUSH2 0x76D JUMPI PUSH2 0x100 DUP1 DUP4 SLOAD DIV MUL DUP4 MSTORE SWAP2 PUSH1 0x20 ADD SWAP2 PUSH2 0x798 JUMP JUMPDEST DUP3 ADD SWAP2 SWAP1 PUSH1 0x0 MSTORE PUSH1 0x20 PUSH1 0x0 KECCAK256 SWAP1 JUMPDEST DUP2 SLOAD DUP2 MSTORE SWAP1 PUSH1 0x1 ADD SWAP1 PUSH1 0x20 ADD DUP1 DUP4 GT PUSH2 0x77B JUMPI DUP3 SWAP1 SUB PUSH1 0x1F AND DUP3 ADD SWAP2 JUMPDEST POP POP POP PUSH1 0x4 DUP5 ADD SLOAD PUSH1 0x7 DUP6 ADD SLOAD PUSH1 0x8 DUP7 ADD SLOAD PUSH1 0x9 DUP8 ADD DUP1 SLOAD SWAP7 SWAP8 SWAP4 SWAP7 PUSH1 0xFF SWAP1 SWAP4 AND SWAP6 POP SWAP1 SWAP4 POP SWAP1 PUSH2 0x7C8 SWAP1 PUSH2 0x32C7 JUMP JUMPDEST DUP1 PUSH1 0x1F ADD PUSH1 0x20 DUP1 SWAP2 DIV MUL PUSH1 0x20 ADD PUSH1 0x40 MLOAD SWAP1 DUP2 ADD PUSH1 0x40 MSTORE DUP1 SWAP3 SWAP2 SWAP1 DUP2 DUP2 MSTORE PUSH1 0x20 ADD DUP3 DUP1 SLOAD PUSH2 0x7F4 SWAP1 PUSH2 0x32C7 JUMP JUMPDEST DUP1 ISZERO PUSH2 0x841 JUMPI DUP1 PUSH1 0x1F LT PUSH2 0x816 JUMPI PUSH2 0x100 DUP1 DUP4 SLOAD DIV MUL DUP4 MSTORE SWAP2 PUSH1 0x20 ADD SWAP2 PUSH2 0x841 JUMP JUMPDEST DUP3 ADD SWAP2 SWAP1 PUSH1 0x0 MSTORE PUSH1 0x20 PUSH1 0x0 KECCAK256 SWAP1 JUMPDEST DUP2 SLOAD DUP2 MSTORE SWAP1 PUSH1 0x1 ADD SWAP1 PUSH1 0x20 ADD DUP1 DUP4 GT PUSH2 0x824 JUMPI DUP3 SWAP1 SUB PUSH1 0x1F AND DUP3 ADD SWAP2 JUMPDEST POP POP POP POP POP SWAP1 POP DUP9 JUMP JUMPDEST PUSH1 0x0 DUP2 DUP2 MSTORE PUSH1 0x7 PUSH1 0x20 DUP2 SWAP1 MSTORE PUSH1 0x40 SWAP1 SWAP2 KECCAK256 ADD DUP1 SLOAD PUSH1 0x1 SWAP2 SWAP1 PUSH1 0xFF NOT AND DUP3 DUP1 JUMPDEST MUL OR SWAP1 SSTORE POP POP JUMP JUMPDEST PUSH2 0x87B CALLER PUSH2 0x2185 JUMP JUMPDEST PUSH2 0x8A0 JUMPI PUSH1 0x40 MLOAD PUSH3 0x461BCD PUSH1 0xE5 SHL DUP2 MSTORE PUSH1 0x4 ADD PUSH2 0x897 SWAP1 PUSH2 0x32FB JUMP JUMPDEST PUSH1 0x40 MLOAD DUP1 SWAP2 SUB SWAP1 REVERT JUMPDEST PUSH1 0xE SLOAD PUSH1 0x40 MLOAD PUSH4 0x2EE39AC1 PUSH1 0xE1 SHL DUP2 MSTORE PUSH1 0x1 PUSH1 0x1 PUSH1 0xA0 SHL SUB DUP4 DUP2 AND PUSH1 0x4 DUP4 ADD MSTORE SWAP1 SWAP2 AND SWAP1 PUSH4 0x5DC73582 SWAP1 PUSH1 0x24 ADD JUMPDEST PUSH1 0x20 PUSH1 0x40 MLOAD DUP1 DUP4 SUB DUP2 PUSH1 0x0 DUP8 GAS CALL ISZERO DUP1 ISZERO PUSH2 0x8ED JUMPI RETURNDATASIZE PUSH1 0x0 DUP1 RETURNDATACOPY RETURNDATASIZE PUSH1 0x0 REVERT JUMPDEST POP POP POP POP PUSH1 0x40 MLOAD RETURNDATASIZE PUSH1 0x1F NOT PUSH1 0x1F DUP3 ADD AND DUP3 ADD DUP1 PUSH1 0x40 MSTORE POP DUP2 ADD SWAP1 PUSH2 0x911 SWAP2 SWAP1 PUSH2 0x3332 JUMP JUMPDEST POP POP JUMP JUMPDEST PUSH1 0xE SLOAD PUSH1 0x40 MLOAD PUSH4 0xB1D1EA97 PUSH1 0xE0 SHL DUP2 MSTORE PUSH1 0x1 PUSH1 0x1 PUSH1 0xA0 SHL SUB DUP4 DUP2 AND PUSH1 0x4 DUP4 ADD MSTORE CALLER PUSH1 0x24 DUP4 ADD MSTORE SWAP1 SWAP2 AND SWAP1 PUSH4 0xB1D1EA97 SWAP1 PUSH1 0x44 ADD PUSH2 0x8CE JUMP JUMPDEST PUSH2 0x956 CALLER PUSH2 0x2185 JUMP JUMPDEST PUSH2 0x972 JUMPI PUSH1 0x40 MLOAD PUSH3 0x461BCD PUSH1 0xE5 SHL DUP2 MSTORE PUSH1 0x4 ADD PUSH2 0x897 SWAP1 PUSH2 0x3354 JUMP JUMPDEST PUSH2 0x984 DUP2 PUSH8 0xDE0B6B3A7640000 PUSH2 0x338C JUMP JUMPDEST PUSH1 0x1 PUSH1 0x1 PUSH1 0xA0 SHL SUB DUP4 AND PUSH1 0x0 SWAP1 DUP2 MSTORE PUSH1 0xC PUSH1 0x20 MSTORE PUSH1 0x40 DUP2 KECCAK256 DUP1 SLOAD SWAP1 SWAP2 SWAP1 PUSH2 0x9AC SWAP1 DUP5 SWAP1 PUSH2 0x33A3 JUMP JUMPDEST SWAP1 SWAP2 SSTORE POP POP POP POP JUMP JUMPDEST PUSH2 0x9BE CALLER PUSH2 0x2185 JUMP JUMPDEST DUP1 PUSH2 0x9D3 JUMPI POP PUSH1 0x6 SLOAD PUSH1 0x1 PUSH1 0x1 PUSH1 0xA0 SHL SUB AND CALLER EQ JUMPDEST PUSH2 0xA35 JUMPI PUSH1 0x40 MLOAD PUSH3 0x461BCD PUSH1 0xE5 SHL DUP2 MSTORE PUSH1 0x20 PUSH1 0x4 DUP3 ADD MSTORE PUSH1 0x2D PUSH1 0x24 DUP3 ADD MSTORE PUSH32 0x646F6573206E6F74206861766520796B2070726976696C69676573206F722069 PUSH1 0x44 DUP3 ADD MSTORE PUSH13 0x73206E6F7420666163746F7279 PUSH1 0x98 SHL PUSH1 0x64 DUP3 ADD MSTORE PUSH1 0x84 ADD PUSH2 0x897 JUMP JUMPDEST PUSH1 0xD PUSH1 0x0 SWAP1 SLOAD SWAP1 PUSH2 0x100 EXP SWAP1 DIV PUSH1 0x1 PUSH1 0x1 PUSH1 0xA0 SHL SUB AND PUSH1 0x1 PUSH1 0x1 PUSH1 0xA0 SHL SUB AND PUSH4 0xC3B639B6 PUSH1 0x40 MLOAD DUP2 PUSH4 0xFFFFFFFF AND PUSH1 0xE0 SHL DUP2 MSTORE PUSH1 0x4 ADD PUSH1 0x20 PUSH1 0x40 MLOAD DUP1 DUP4 SUB DUP2 PUSH1 0x0 DUP8 GAS CALL ISZERO DUP1 ISZERO PUSH2 0xA8A JUMPI RETURNDATASIZE PUSH1 0x0 DUP1 RETURNDATACOPY RETURNDATASIZE PUSH1 0x0 REVERT JUMPDEST POP POP POP POP PUSH1 0x40 MLOAD RETURNDATASIZE PUSH1 0x1F NOT PUSH1 0x1F DUP3 ADD AND DUP3 ADD DUP1 PUSH1 0x40 MSTORE POP DUP2 ADD SWAP1 PUSH2 0xAAE SWAP2 SWAP1 PUSH2 0x3332 JUMP JUMPDEST POP PUSH1 0x6 SLOAD PUSH1 0x40 MLOAD PUSH4 0x83BEF7A9 PUSH1 0xE0 SHL DUP2 MSTORE ADDRESS PUSH1 0x4 DUP3 ADD MSTORE CALLER PUSH1 0x24 DUP3 ADD MSTORE PUSH1 0x1 PUSH1 0x1 PUSH1 0xA0 SHL SUB SWAP1 SWAP2 AND SWAP1 PUSH4 0x83BEF7A9 SWAP1 PUSH1 0x44 ADD PUSH1 0x0 PUSH1 0x40 MLOAD DUP1 DUP4 SUB DUP2 PUSH1 0x0 DUP8 DUP1 EXTCODESIZE ISZERO DUP1 ISZERO PUSH2 0xAFA JUMPI PUSH1 0x0 DUP1 REVERT JUMPDEST POP GAS CALL ISZERO DUP1 ISZERO PUSH2 0xB0E JUMPI RETURNDATASIZE PUSH1 0x0 DUP1 RETURNDATACOPY RETURNDATASIZE PUSH1 0x0 REVERT JUMPDEST POP POP POP POP PUSH1 0xE PUSH1 0x0 SWAP1 SLOAD SWAP1 PUSH2 0x100 EXP SWAP1 DIV PUSH1 0x1 PUSH1 0x1 PUSH1 0xA0 SHL SUB AND PUSH1 0x1 PUSH1 0x1 PUSH1 0xA0 SHL SUB AND PUSH4 0xC3B639B6 PUSH1 0x40 MLOAD DUP2 PUSH4 0xFFFFFFFF AND PUSH1 0xE0 SHL DUP2 MSTORE PUSH1 0x4 ADD PUSH1 0x20 PUSH1 0x40 MLOAD DUP1 DUP4 SUB DUP2 PUSH1 0x0 DUP8 GAS CALL ISZERO DUP1 ISZERO PUSH2 0xB67 JUMPI RETURNDATASIZE PUSH1 0x0 DUP1 RETURNDATACOPY RETURNDATASIZE PUSH1 0x0 REVERT JUMPDEST POP POP POP POP PUSH1 0x40 MLOAD RETURNDATASIZE PUSH1 0x1F NOT PUSH1 0x1F DUP3 ADD AND DUP3 ADD DUP1 PUSH1 0x40 MSTORE POP DUP2 ADD SWAP1 PUSH2 0xB8B SWAP2 SWAP1 PUSH2 0x3332 JUMP JUMPDEST POP JUMP JUMPDEST PUSH2 0xB97 CALLER PUSH2 0x2185 JUMP JUMPDEST PUSH2 0xBB3 JUMPI PUSH1 0x40 MLOAD PUSH3 0x461BCD PUSH1 0xE5 SHL DUP2 MSTORE PUSH1 0x4 ADD PUSH2 0x897 SWAP1 PUSH2 0x3354 JUMP JUMPDEST PUSH1 0xD SLOAD PUSH1 0x1 PUSH1 0x1 PUSH1 0xA0 SHL SUB AND PUSH4 0x8DA9E677 DUP4 PUSH2 0xBD7 DUP5 PUSH8 0xDE0B6B3A7640000 PUSH2 0x338C JUMP JUMPDEST PUSH1 0x40 MLOAD PUSH1 0x1 PUSH1 0x1 PUSH1 0xE0 SHL SUB NOT PUSH1 0xE0 DUP6 SWAP1 SHL AND DUP2 MSTORE PUSH1 0x1 PUSH1 0x1 PUSH1 0xA0 SHL SUB SWAP1 SWAP3 AND PUSH1 0x4 DUP4 ADD MSTORE PUSH1 0x24 DUP3 ADD MSTORE PUSH1 0x44 ADD PUSH1 0x20 PUSH1 0x40 MLOAD DUP1 DUP4 SUB DUP2 PUSH1 0x0 DUP8 GAS CALL ISZERO DUP1 ISZERO PUSH2 0xC22 JUMPI RETURNDATASIZE PUSH1 0x0 DUP1 RETURNDATACOPY RETURNDATASIZE PUSH1 0x0 REVERT JUMPDEST POP POP POP POP PUSH1 0x40 MLOAD RETURNDATASIZE PUSH1 0x1F NOT PUSH1 0x1F DUP3 ADD AND DUP3 ADD DUP1 PUSH1 0x40 MSTORE POP DUP2 ADD SWAP1 PUSH2 0xC46 SWAP2 SWAP1 PUSH2 0x3332 JUMP JUMPDEST POP PUSH2 0x911 DUP2 PUSH2 0x2AE3 JUMP JUMPDEST PUSH1 0x0 DUP2 DUP2 MSTORE PUSH1 0x7 PUSH1 0x20 DUP2 SWAP1 MSTORE PUSH1 0x40 SWAP1 SWAP2 KECCAK256 ADD DUP1 SLOAD PUSH1 0x2 SWAP2 SWAP1 PUSH1 0xFF NOT AND PUSH1 0x1 DUP4 PUSH2 0x86A JUMP JUMPDEST PUSH1 0xD SLOAD PUSH1 0x40 MLOAD PUSH4 0xB1D1EA97 PUSH1 0xE0 SHL DUP2 MSTORE PUSH1 0x1 PUSH1 0x1 PUSH1 0xA0 SHL SUB DUP4 DUP2 AND PUSH1 0x4 DUP4 ADD MSTORE CALLER PUSH1 0x24 DUP4 ADD MSTORE SWAP1 SWAP2 AND SWAP1 PUSH4 0xB1D1EA97 SWAP1 PUSH1 0x44 ADD PUSH2 0x8CE JUMP JUMPDEST PUSH2 0xCBE DUP2 PUSH8 0xDE0B6B3A7640000 PUSH2 0x338C JUMP JUMPDEST CALLER PUSH1 0x0 SWAP1 DUP2 MSTORE PUSH1 0xB PUSH1 0x20 MSTORE PUSH1 0x40 SWAP1 KECCAK256 SLOAD LT ISZERO PUSH2 0xD10 JUMPI PUSH1 0x40 MLOAD PUSH3 0x461BCD PUSH1 0xE5 SHL DUP2 MSTORE PUSH1 0x20 PUSH1 0x4 DUP3 ADD MSTORE PUSH1 0x11 PUSH1 0x24 DUP3 ADD MSTORE PUSH17 0x4E6F7420656E6F75676820736861726573 PUSH1 0x78 SHL PUSH1 0x44 DUP3 ADD MSTORE PUSH1 0x64 ADD PUSH2 0x897 JUMP JUMPDEST PUSH2 0xD22 DUP2 PUSH8 0xDE0B6B3A7640000 PUSH2 0x338C JUMP JUMPDEST CALLER PUSH1 0x0 SWAP1 DUP2 MSTORE PUSH1 0xB PUSH1 0x20 MSTORE PUSH1 0x40 DUP2 KECCAK256 DUP1 SLOAD SWAP1 SWAP2 SWAP1 PUSH2 0xD41 SWAP1 DUP5 SWAP1 PUSH2 0x33B6 JUMP JUMPDEST SWAP1 SWAP2 SSTORE POP POP PUSH1 0xD SLOAD PUSH1 0x1 PUSH1 0x1 PUSH1 0xA0 SHL SUB AND PUSH4 0x8DA9E677 CALLER PUSH2 0xD6A DUP5 PUSH8 0xDE0B6B3A7640000 PUSH2 0x338C JUMP JUMPDEST PUSH1 0x40 MLOAD PUSH1 0x1 PUSH1 0x1 PUSH1 0xE0 SHL SUB NOT PUSH1 0xE0 DUP6 SWAP1 SHL AND DUP2 MSTORE PUSH1 0x1 PUSH1 0x1 PUSH1 0xA0 SHL SUB SWAP1 SWAP3 AND PUSH1 0x4 DUP4 ADD MSTORE PUSH1 0x24 DUP3 ADD MSTORE PUSH1 0x44 ADD PUSH1 0x20 PUSH1 0x40 MLOAD DUP1 DUP4 SUB DUP2 PUSH1 0x0 DUP8 GAS CALL ISZERO DUP1 ISZERO PUSH2 0xDB5 JUMPI RETURNDATASIZE PUSH1 0x0 DUP1 RETURNDATACOPY RETURNDATASIZE PUSH1 0x0 REVERT JUMPDEST POP POP POP POP PUSH1 0x40 MLOAD RETURNDATASIZE PUSH1 0x1F NOT PUSH1 0x1F DUP3 ADD AND DUP3 ADD DUP1 PUSH1 0x40 MSTORE POP DUP2 ADD SWAP1 PUSH2 0xDD9 SWAP2 SWAP1 PUSH2 0x3332 JUMP JUMPDEST POP PUSH2 0xB8B DUP2 PUSH2 0x2AE3 JUMP JUMPDEST PUSH1 0x60 PUSH1 0x0 PUSH1 0xF SLOAD PUSH8 0xFFFFFFFFFFFFFFFF DUP2 GT ISZERO PUSH2 0xE02 JUMPI PUSH2 0xE02 PUSH2 0x2F1C JUMP JUMPDEST PUSH1 0x40 MLOAD SWAP1 DUP1 DUP3 MSTORE DUP1 PUSH1 0x20 MUL PUSH1 0x20 ADD DUP3 ADD PUSH1 0x40 MSTORE DUP1 ISZERO PUSH2 0xE35 JUMPI DUP2 PUSH1 0x20 ADD JUMPDEST PUSH1 0x60 DUP2 MSTORE PUSH1 0x20 ADD SWAP1 PUSH1 0x1 SWAP1 SUB SWAP1 DUP2 PUSH2 0xE20 JUMPI SWAP1 POP JUMPDEST POP SWAP1 POP PUSH1 0x0 JUMPDEST PUSH1 0xF SLOAD DUP2 LT ISZERO PUSH2 0xF0F JUMPI PUSH1 0x0 DUP2 DUP2 MSTORE PUSH1 0x7 PUSH1 0x20 MSTORE PUSH1 0x40 SWAP1 KECCAK256 PUSH1 0x3 ADD DUP1 SLOAD PUSH2 0xE61 SWAP1 PUSH2 0x32C7 JUMP JUMPDEST DUP1 PUSH1 0x1F ADD PUSH1 0x20 DUP1 SWAP2 DIV MUL PUSH1 0x20 ADD PUSH1 0x40 MLOAD SWAP1 DUP2 ADD PUSH1 0x40 MSTORE DUP1 SWAP3 SWAP2 SWAP1 DUP2 DUP2 MSTORE PUSH1 0x20 ADD DUP3 DUP1 SLOAD PUSH2 0xE8D SWAP1 PUSH2 0x32C7 JUMP JUMPDEST DUP1 ISZERO PUSH2 0xEDA JUMPI DUP1 PUSH1 0x1F LT PUSH2 0xEAF JUMPI PUSH2 0x100 DUP1 DUP4 SLOAD DIV MUL DUP4 MSTORE SWAP2 PUSH1 0x20 ADD SWAP2 PUSH2 0xEDA JUMP JUMPDEST DUP3 ADD SWAP2 SWAP1 PUSH1 0x0 MSTORE PUSH1 0x20 PUSH1 0x0 KECCAK256 SWAP1 JUMPDEST DUP2 SLOAD DUP2 MSTORE SWAP1 PUSH1 0x1 ADD SWAP1 PUSH1 0x20 ADD DUP1 DUP4 GT PUSH2 0xEBD JUMPI DUP3 SWAP1 SUB PUSH1 0x1F AND DUP3 ADD SWAP2 JUMPDEST POP POP POP POP POP DUP3 DUP3 DUP2 MLOAD DUP2 LT PUSH2 0xEF1 JUMPI PUSH2 0xEF1 PUSH2 0x33C9 JUMP JUMPDEST PUSH1 0x20 MUL PUSH1 0x20 ADD ADD DUP2 SWAP1 MSTORE POP DUP1 DUP1 PUSH2 0xF07 SWAP1 PUSH2 0x33DF JUMP JUMPDEST SWAP2 POP POP PUSH2 0xE3B JUMP JUMPDEST POP SWAP2 SWAP1 POP JUMP JUMPDEST PUSH2 0xF1E CALLER PUSH2 0x2185 JUMP JUMPDEST PUSH2 0xF3A JUMPI PUSH1 0x40 MLOAD PUSH3 0x461BCD PUSH1 0xE5 SHL DUP2 MSTORE PUSH1 0x4 ADD PUSH2 0x897 SWAP1 PUSH2 0x32FB JUMP JUMPDEST PUSH1 0xE PUSH1 0x0 SWAP1 SLOAD SWAP1 PUSH2 0x100 EXP SWAP1 DIV PUSH1 0x1 PUSH1 0x1 PUSH1 0xA0 SHL SUB AND PUSH1 0x1 PUSH1 0x1 PUSH1 0xA0 SHL SUB AND PUSH4 0xC3B639B6 PUSH1 0x40 MLOAD DUP2 PUSH4 0xFFFFFFFF AND PUSH1 0xE0 SHL DUP2 MSTORE PUSH1 0x4 ADD PUSH1 0x20 PUSH1 0x40 MLOAD DUP1 DUP4 SUB DUP2 PUSH1 0x0 DUP8 GAS CALL ISZERO DUP1 ISZERO PUSH2 0xB67 JUMPI RETURNDATASIZE PUSH1 0x0 DUP1 RETURNDATACOPY RETURNDATASIZE PUSH1 0x0 REVERT JUMPDEST PUSH1 0x2 DUP2 DUP2 SLOAD DUP2 LT PUSH2 0xF9F JUMPI PUSH1 0x0 DUP1 REVERT JUMPDEST SWAP1 PUSH1 0x0 MSTORE PUSH1 0x20 PUSH1 0x0 KECCAK256 ADD PUSH1 0x0 SWAP2 POP SWAP1 POP DUP1 SLOAD PUSH2 0xFBA SWAP1 PUSH2 0x32C7 JUMP JUMPDEST DUP1 PUSH1 0x1F ADD PUSH1 0x20 DUP1 SWAP2 DIV MUL PUSH1 0x20 ADD PUSH1 0x40 MLOAD SWAP1 DUP2 ADD PUSH1 0x40 MSTORE DUP1 SWAP3 SWAP2 SWAP1 DUP2 DUP2 MSTORE PUSH1 0x20 ADD DUP3 DUP1 SLOAD PUSH2 0xFE6 SWAP1 PUSH2 0x32C7 JUMP JUMPDEST DUP1 ISZERO PUSH2 0x1033 JUMPI DUP1 PUSH1 0x1F LT PUSH2 0x1008 JUMPI PUSH2 0x100 DUP1 DUP4 SLOAD DIV MUL DUP4 MSTORE SWAP2 PUSH1 0x20 ADD SWAP2 PUSH2 0x1033 JUMP JUMPDEST DUP3 ADD SWAP2 SWAP1 PUSH1 0x0 MSTORE PUSH1 0x20 PUSH1 0x0 KECCAK256 SWAP1 JUMPDEST DUP2 SLOAD DUP2 MSTORE SWAP1 PUSH1 0x1 ADD SWAP1 PUSH1 0x20 ADD DUP1 DUP4 GT PUSH2 0x1016 JUMPI DUP3 SWAP1 SUB PUSH1 0x1F AND DUP3 ADD SWAP2 JUMPDEST POP POP POP POP POP DUP2 JUMP JUMPDEST PUSH1 0x60 PUSH1 0x0 PUSH1 0xF SLOAD PUSH8 0xFFFFFFFFFFFFFFFF DUP2 GT ISZERO PUSH2 0x105A JUMPI PUSH2 0x105A PUSH2 0x2F1C JUMP JUMPDEST PUSH1 0x40 MLOAD SWAP1 DUP1 DUP3 MSTORE DUP1 PUSH1 0x20 MUL PUSH1 0x20 ADD DUP3 ADD PUSH1 0x40 MSTORE DUP1 ISZERO PUSH2 0x108D JUMPI DUP2 PUSH1 0x20 ADD JUMPDEST PUSH1 0x60 DUP2 MSTORE PUSH1 0x20 ADD SWAP1 PUSH1 0x1 SWAP1 SUB SWAP1 DUP2 PUSH2 0x1078 JUMPI SWAP1 POP JUMPDEST POP SWAP1 POP PUSH1 0x0 JUMPDEST PUSH1 0xF SLOAD DUP2 LT ISZERO PUSH2 0xF0F JUMPI PUSH1 0x0 DUP2 DUP2 MSTORE PUSH1 0x7 PUSH1 0x20 MSTORE PUSH1 0x40 SWAP1 KECCAK256 PUSH1 0x2 ADD DUP1 SLOAD PUSH2 0x10B9 SWAP1 PUSH2 0x32C7 JUMP JUMPDEST DUP1 PUSH1 0x1F ADD PUSH1 0x20 DUP1 SWAP2 DIV MUL PUSH1 0x20 ADD PUSH1 0x40 MLOAD SWAP1 DUP2 ADD PUSH1 0x40 MSTORE DUP1 SWAP3 SWAP2 SWAP1 DUP2 DUP2 MSTORE PUSH1 0x20 ADD DUP3 DUP1 SLOAD PUSH2 0x10E5 SWAP1 PUSH2 0x32C7 JUMP JUMPDEST DUP1 ISZERO PUSH2 0x1132 JUMPI DUP1 PUSH1 0x1F LT PUSH2 0x1107 JUMPI PUSH2 0x100 DUP1 DUP4 SLOAD DIV MUL DUP4 MSTORE SWAP2 PUSH1 0x20 ADD SWAP2 PUSH2 0x1132 JUMP JUMPDEST DUP3 ADD SWAP2 SWAP1 PUSH1 0x0 MSTORE PUSH1 0x20 PUSH1 0x0 KECCAK256 SWAP1 JUMPDEST DUP2 SLOAD DUP2 MSTORE SWAP1 PUSH1 0x1 ADD SWAP1 PUSH1 0x20 ADD DUP1 DUP4 GT PUSH2 0x1115 JUMPI DUP3 SWAP1 SUB PUSH1 0x1F AND DUP3 ADD SWAP2 JUMPDEST POP POP POP POP POP DUP3 DUP3 DUP2 MLOAD DUP2 LT PUSH2 0x1149 JUMPI PUSH2 0x1149 PUSH2 0x33C9 JUMP JUMPDEST PUSH1 0x20 MUL PUSH1 0x20 ADD ADD DUP2 SWAP1 MSTORE POP DUP1 DUP1 PUSH2 0x115F SWAP1 PUSH2 0x33DF JUMP JUMPDEST SWAP2 POP POP PUSH2 0x1093 JUMP JUMPDEST PUSH2 0x1170 CALLER PUSH2 0x2185 JUMP JUMPDEST PUSH2 0x118C JUMPI PUSH1 0x40 MLOAD PUSH3 0x461BCD PUSH1 0xE5 SHL DUP2 MSTORE PUSH1 0x4 ADD PUSH2 0x897 SWAP1 PUSH2 0x32FB JUMP JUMPDEST PUSH1 0xD PUSH1 0x0 SWAP1 SLOAD SWAP1 PUSH2 0x100 EXP SWAP1 DIV PUSH1 0x1 PUSH1 0x1 PUSH1 0xA0 SHL SUB AND PUSH1 0x1 PUSH1 0x1 PUSH1 0xA0 SHL SUB AND PUSH4 0xC3B639B6 PUSH1 0x40 MLOAD DUP2 PUSH4 0xFFFFFFFF AND PUSH1 0xE0 SHL DUP2 MSTORE PUSH1 0x4 ADD PUSH1 0x20 PUSH1 0x40 MLOAD DUP1 DUP4 SUB DUP2 PUSH1 0x0 DUP8 GAS CALL ISZERO DUP1 ISZERO PUSH2 0xB67 JUMPI RETURNDATASIZE PUSH1 0x0 DUP1 RETURNDATACOPY RETURNDATASIZE PUSH1 0x0 REVERT JUMPDEST PUSH1 0xE SLOAD PUSH1 0x40 MLOAD PUSH4 0xA95BBCED PUSH1 0xE0 SHL DUP2 MSTORE PUSH1 0x1 PUSH1 0x1 PUSH1 0xA0 SHL SUB DUP5 DUP2 AND PUSH1 0x4 DUP4 ADD MSTORE SWAP1 SWAP2 AND SWAP1 PUSH4 0xA95BBCED SWAP1 PUSH1 0x24 ADD PUSH1 0x20 PUSH1 0x40 MLOAD DUP1 DUP4 SUB DUP2 DUP7 GAS STATICCALL ISZERO DUP1 ISZERO PUSH2 0x122B JUMPI RETURNDATASIZE PUSH1 0x0 DUP1 RETURNDATACOPY RETURNDATASIZE PUSH1 0x0 REVERT JUMPDEST POP POP POP POP PUSH1 0x40 MLOAD RETURNDATASIZE PUSH1 0x1F NOT PUSH1 0x1F DUP3 ADD AND DUP3 ADD DUP1 PUSH1 0x40 MSTORE POP DUP2 ADD SWAP1 PUSH2 0x124F SWAP2 SWAP1 PUSH2 0x33F8 JUMP JUMPDEST DUP2 GT ISZERO PUSH2 0x1298 JUMPI PUSH1 0x40 MLOAD PUSH3 0x461BCD PUSH1 0xE5 SHL DUP2 MSTORE PUSH1 0x20 PUSH1 0x4 DUP3 ADD MSTORE PUSH1 0x17 PUSH1 0x24 DUP3 ADD MSTORE PUSH23 0x6E6F7420656E6F756768206465627420736F6D65686F77 PUSH1 0x48 SHL PUSH1 0x44 DUP3 ADD MSTORE PUSH1 0x64 ADD PUSH2 0x897 JUMP JUMPDEST PUSH1 0xE SLOAD PUSH1 0x40 MLOAD PUSH4 0x12405A4D PUSH1 0xE2 SHL DUP2 MSTORE PUSH1 0x1 PUSH1 0x1 PUSH1 0xA0 SHL SUB DUP5 DUP2 AND PUSH1 0x4 DUP4 ADD MSTORE CALLER PUSH1 0x24 DUP4 ADD MSTORE PUSH1 0x44 DUP3 ADD DUP5 SWAP1 MSTORE SWAP1 SWAP2 AND SWAP1 PUSH4 0x49016934 SWAP1 PUSH1 0x64 ADD JUMPDEST PUSH1 0x20 PUSH1 0x40 MLOAD DUP1 DUP4 SUB DUP2 PUSH1 0x0 DUP8 GAS CALL ISZERO DUP1 ISZERO PUSH2 0x12F2 JUMPI RETURNDATASIZE PUSH1 0x0 DUP1 RETURNDATACOPY RETURNDATASIZE PUSH1 0x0 REVERT JUMPDEST POP POP POP POP PUSH1 0x40 MLOAD RETURNDATASIZE PUSH1 0x1F NOT PUSH1 0x1F DUP3 ADD AND DUP3 ADD DUP1 PUSH1 0x40 MSTORE POP DUP2 ADD SWAP1 PUSH2 0x1316 SWAP2 SWAP1 PUSH2 0x3332 JUMP JUMPDEST POP POP POP JUMP JUMPDEST PUSH1 0xD SLOAD PUSH1 0x40 MLOAD PUSH4 0x396473F7 PUSH1 0xE0 SHL DUP2 MSTORE CALLER PUSH1 0x4 DUP3 ADD MSTORE PUSH1 0x1 PUSH1 0x1 PUSH1 0xA0 SHL SUB SWAP1 SWAP2 AND SWAP1 PUSH4 0x396473F7 SWAP1 PUSH1 0x24 ADD JUMPDEST PUSH1 0x20 PUSH1 0x40 MLOAD DUP1 DUP4 SUB DUP2 PUSH1 0x0 DUP8 GAS CALL ISZERO DUP1 ISZERO PUSH2 0xB67 JUMPI RETURNDATASIZE PUSH1 0x0 DUP1 RETURNDATACOPY RETURNDATASIZE PUSH1 0x0 REVERT JUMPDEST PUSH2 0x136F CALLER PUSH2 0x2185 JUMP JUMPDEST PUSH2 0x138B JUMPI PUSH1 0x40 MLOAD PUSH3 0x461BCD PUSH1 0xE5 SHL DUP2 MSTORE PUSH1 0x4 ADD PUSH2 0x897 SWAP1 PUSH2 0x3354 JUMP JUMPDEST PUSH1 0xE SLOAD PUSH1 0x1 PUSH1 0x1 PUSH1 0xA0 SHL SUB AND PUSH4 0x8DA9E677 DUP4 PUSH2 0x13AF DUP5 PUSH8 0xDE0B6B3A7640000 PUSH2 0x338C JUMP JUMPDEST PUSH1 0x40 MLOAD PUSH1 0x1 PUSH1 0x1 PUSH1 0xE0 SHL SUB NOT PUSH1 0xE0 DUP6 SWAP1 SHL AND DUP2 MSTORE PUSH1 0x1 PUSH1 0x1 PUSH1 0xA0 SHL SUB SWAP1 SWAP3 AND PUSH1 0x4 DUP4 ADD MSTORE PUSH1 0x24 DUP3 ADD MSTORE PUSH1 0x44 ADD PUSH1 0x20 PUSH1 0x40 MLOAD DUP1 DUP4 SUB DUP2 PUSH1 0x0 DUP8 GAS CALL ISZERO DUP1 ISZERO PUSH2 0x13FA JUMPI RETURNDATASIZE PUSH1 0x0 DUP1 RETURNDATACOPY RETURNDATASIZE PUSH1 0x0 REVERT JUMPDEST POP POP POP POP PUSH1 0x40 MLOAD RETURNDATASIZE PUSH1 0x1F NOT PUSH1 0x1F DUP3 ADD AND DUP3 ADD DUP1 PUSH1 0x40 MSTORE POP DUP2 ADD SWAP1 PUSH2 0x141E SWAP2 SWAP1 PUSH2 0x3332 JUMP JUMPDEST POP PUSH2 0x911 DUP2 PUSH2 0x2B51 JUMP JUMPDEST PUSH1 0x0 DUP4 DUP2 MSTORE PUSH1 0x7 PUSH1 0x20 SWAP1 DUP2 MSTORE PUSH1 0x40 DUP1 DUP4 KECCAK256 CALLER DUP5 MSTORE PUSH1 0x8 DUP4 MSTORE DUP2 DUP5 KECCAK256 DUP8 DUP6 MSTORE SWAP1 SWAP3 MSTORE SWAP1 SWAP2 KECCAK256 SLOAD PUSH1 0xFF AND ISZERO PUSH2 0x148D JUMPI PUSH1 0x40 MLOAD PUSH3 0x461BCD PUSH1 0xE5 SHL DUP2 MSTORE PUSH1 0x20 PUSH1 0x4 DUP3 ADD MSTORE PUSH1 0xD PUSH1 0x24 DUP3 ADD MSTORE PUSH13 0x185B1C9958591E481D9BDD1959 PUSH1 0x9A SHL PUSH1 0x44 DUP3 ADD MSTORE PUSH1 0x64 ADD PUSH2 0x897 JUMP JUMPDEST PUSH1 0xD SLOAD PUSH1 0x40 MLOAD PUSH4 0x70A08231 PUSH1 0xE0 SHL DUP2 MSTORE CALLER PUSH1 0x4 DUP3 ADD MSTORE PUSH1 0x0 SWAP2 PUSH1 0x1 PUSH1 0x1 PUSH1 0xA0 SHL SUB AND SWAP1 PUSH4 0x70A08231 SWAP1 PUSH1 0x24 ADD PUSH1 0x20 PUSH1 0x40 MLOAD DUP1 DUP4 SUB DUP2 DUP7 GAS STATICCALL ISZERO DUP1 ISZERO PUSH2 0x14D6 JUMPI RETURNDATASIZE PUSH1 0x0 DUP1 RETURNDATACOPY RETURNDATASIZE PUSH1 0x0 REVERT JUMPDEST POP POP POP POP PUSH1 0x40 MLOAD RETURNDATASIZE PUSH1 0x1F NOT PUSH1 0x1F DUP3 ADD AND DUP3 ADD DUP1 PUSH1 0x40 MSTORE POP DUP2 ADD SWAP1 PUSH2 0x14FA SWAP2 SWAP1 PUSH2 0x33F8 JUMP JUMPDEST GT PUSH2 0x1557 JUMPI PUSH1 0x40 MLOAD PUSH3 0x461BCD PUSH1 0xE5 SHL DUP2 MSTORE PUSH1 0x20 PUSH1 0x4 DUP3 ADD MSTORE PUSH1 0x27 PUSH1 0x24 DUP3 ADD MSTORE PUSH32 0x4E6F7420656E6F7567682073686172657320746F20766F7465206F6E20612070 PUSH1 0x44 DUP3 ADD MSTORE PUSH7 0x1C9BDC1BDCD85B PUSH1 0xCA SHL PUSH1 0x64 DUP3 ADD MSTORE PUSH1 0x84 ADD PUSH2 0x897 JUMP JUMPDEST PUSH3 0x93A80 DUP2 PUSH1 0x4 ADD SLOAD PUSH2 0x156A SWAP2 SWAP1 PUSH2 0x33A3 JUMP JUMPDEST TIMESTAMP GT ISZERO PUSH2 0x15B1 JUMPI PUSH1 0x40 MLOAD PUSH3 0x461BCD PUSH1 0xE5 SHL DUP2 MSTORE PUSH1 0x20 PUSH1 0x4 DUP3 ADD MSTORE PUSH1 0x15 PUSH1 0x24 DUP3 ADD MSTORE PUSH21 0x2B37BA34B733903832B934B7B21034B99037BB32B9 PUSH1 0x59 SHL PUSH1 0x44 DUP3 ADD MSTORE PUSH1 0x64 ADD PUSH2 0x897 JUMP JUMPDEST PUSH1 0x2 PUSH1 0x0 DUP6 DUP2 MSTORE PUSH1 0x7 PUSH1 0x20 DUP2 SWAP1 MSTORE PUSH1 0x40 SWAP1 SWAP2 KECCAK256 ADD SLOAD PUSH1 0xFF AND PUSH1 0x2 DUP2 GT ISZERO PUSH2 0x15DA JUMPI PUSH2 0x15DA PUSH2 0x2D9A JUMP JUMPDEST EQ PUSH2 0x1623 JUMPI PUSH1 0x40 MLOAD PUSH3 0x461BCD PUSH1 0xE5 SHL DUP2 MSTORE PUSH1 0x20 PUSH1 0x4 DUP3 ADD MSTORE PUSH1 0x19 PUSH1 0x24 DUP3 ADD MSTORE PUSH25 0x159BDD1A5B99C81C195C9A5BD9081A5CC8199A5B9A5CDA1959 PUSH1 0x3A SHL PUSH1 0x44 DUP3 ADD MSTORE PUSH1 0x64 ADD PUSH2 0x897 JUMP JUMPDEST PUSH1 0x0 DUP1 JUMPDEST DUP4 MLOAD DUP2 LT ISZERO PUSH2 0x1669 JUMPI DUP4 DUP2 DUP2 MLOAD DUP2 LT PUSH2 0x1642 JUMPI PUSH2 0x1642 PUSH2 0x33C9 JUMP JUMPDEST PUSH1 0x20 MUL PUSH1 0x20 ADD ADD MLOAD DUP3 PUSH2 0x1655 SWAP2 SWAP1 PUSH2 0x33A3 JUMP JUMPDEST SWAP2 POP DUP1 PUSH2 0x1661 DUP2 PUSH2 0x33DF JUMP JUMPDEST SWAP2 POP POP PUSH2 0x1627 JUMP JUMPDEST POP DUP2 PUSH1 0x8 ADD SLOAD DUP2 GT ISZERO PUSH2 0x167B JUMPI PUSH1 0x0 DUP1 REVERT JUMPDEST PUSH1 0x0 DUP1 JUMPDEST PUSH1 0x5 DUP5 ADD SLOAD DUP2 LT ISZERO PUSH2 0x1790 JUMPI PUSH1 0x0 JUMPDEST DUP7 MLOAD DUP2 LT ISZERO PUSH2 0x177D JUMPI PUSH2 0x1761 DUP6 PUSH1 0x5 ADD DUP4 DUP2 SLOAD DUP2 LT PUSH2 0x16AF JUMPI PUSH2 0x16AF PUSH2 0x33C9 JUMP JUMPDEST SWAP1 PUSH1 0x0 MSTORE PUSH1 0x20 PUSH1 0x0 KECCAK256 ADD DUP1 SLOAD PUSH2 0x16C4 SWAP1 PUSH2 0x32C7 JUMP JUMPDEST DUP1 PUSH1 0x1F ADD PUSH1 0x20 DUP1 SWAP2 DIV MUL PUSH1 0x20 ADD PUSH1 0x40 MLOAD SWAP1 DUP2 ADD PUSH1 0x40 MSTORE DUP1 SWAP3 SWAP2 SWAP1 DUP2 DUP2 MSTORE PUSH1 0x20 ADD DUP3 DUP1 SLOAD PUSH2 0x16F0 SWAP1 PUSH2 0x32C7 JUMP JUMPDEST DUP1 ISZERO PUSH2 0x173D JUMPI DUP1 PUSH1 0x1F LT PUSH2 0x1712 JUMPI PUSH2 0x100 DUP1 DUP4 SLOAD DIV MUL DUP4 MSTORE SWAP2 PUSH1 0x20 ADD SWAP2 PUSH2 0x173D JUMP JUMPDEST DUP3 ADD SWAP2 SWAP1 PUSH1 0x0 MSTORE PUSH1 0x20 PUSH1 0x0 KECCAK256 SWAP1 JUMPDEST DUP2 SLOAD DUP2 MSTORE SWAP1 PUSH1 0x1 ADD SWAP1 PUSH1 0x20 ADD DUP1 DUP4 GT PUSH2 0x1720 JUMPI DUP3 SWAP1 SUB PUSH1 0x1F AND DUP3 ADD SWAP2 JUMPDEST POP POP POP POP POP DUP9 DUP4 DUP2 MLOAD DUP2 LT PUSH2 0x1754 JUMPI PUSH2 0x1754 PUSH2 0x33C9 JUMP JUMPDEST PUSH1 0x20 MUL PUSH1 0x20 ADD ADD MLOAD PUSH2 0x2B8E JUMP JUMPDEST ISZERO PUSH2 0x176B JUMPI PUSH1 0x1 SWAP3 POP JUMPDEST DUP1 PUSH2 0x1775 DUP2 PUSH2 0x33DF JUMP JUMPDEST SWAP2 POP POP PUSH2 0x168E JUMP JUMPDEST POP DUP1 PUSH2 0x1788 DUP2 PUSH2 0x33DF JUMP JUMPDEST SWAP2 POP POP PUSH2 0x167F JUMP JUMPDEST POP PUSH1 0x1 DUP2 ISZERO ISZERO EQ PUSH2 0x17A0 JUMPI PUSH1 0x0 DUP1 REVERT JUMPDEST PUSH1 0x0 JUMPDEST PUSH1 0x5 DUP5 ADD SLOAD DUP2 LT ISZERO PUSH2 0x184B JUMPI PUSH1 0x0 JUMPDEST DUP7 MLOAD DUP2 LT ISZERO PUSH2 0x1838 JUMPI PUSH2 0x17D3 DUP6 PUSH1 0x5 ADD DUP4 DUP2 SLOAD DUP2 LT PUSH2 0x16AF JUMPI PUSH2 0x16AF PUSH2 0x33C9 JUMP JUMPDEST ISZERO PUSH2 0x1826 JUMPI DUP6 DUP2 DUP2 MLOAD DUP2 LT PUSH2 0x17EA JUMPI PUSH2 0x17EA PUSH2 0x33C9 JUMP JUMPDEST PUSH1 0x20 MUL PUSH1 0x20 ADD ADD MLOAD DUP6 PUSH1 0x6 ADD DUP4 DUP2 SLOAD DUP2 LT PUSH2 0x1807 JUMPI PUSH2 0x1807 PUSH2 0x33C9 JUMP JUMPDEST SWAP1 PUSH1 0x0 MSTORE PUSH1 0x20 PUSH1 0x0 KECCAK256 ADD PUSH1 0x0 DUP3 DUP3 SLOAD PUSH2 0x1820 SWAP2 SWAP1 PUSH2 0x33A3 JUMP JUMPDEST SWAP1 SWAP2 SSTORE POP POP JUMPDEST DUP1 PUSH2 0x1830 DUP2 PUSH2 0x33DF JUMP JUMPDEST SWAP2 POP POP PUSH2 0x17B2 JUMP JUMPDEST POP DUP1 PUSH2 0x1843 DUP2 PUSH2 0x33DF JUMP JUMPDEST SWAP2 POP POP PUSH2 0x17A3 JUMP JUMPDEST POP CALLER PUSH1 0x0 DUP2 DUP2 MSTORE PUSH1 0x8 PUSH1 0x20 SWAP1 DUP2 MSTORE PUSH1 0x40 DUP1 DUP4 KECCAK256 DUP11 DUP5 MSTORE SWAP1 SWAP2 MSTORE SWAP1 DUP2 SWAP1 KECCAK256 DUP1 SLOAD PUSH1 0xFF NOT AND PUSH1 0x1 OR SWAP1 SSTORE PUSH1 0xD SLOAD SWAP1 MLOAD PUSH4 0x1F827AA3 PUSH1 0xE3 SHL DUP2 MSTORE PUSH1 0x4 DUP2 ADD DUP10 SWAP1 MSTORE PUSH1 0x24 DUP2 ADD SWAP3 SWAP1 SWAP3 MSTORE PUSH1 0x1 PUSH1 0x1 PUSH1 0xA0 SHL SUB AND SWAP1 PUSH4 0xFC13D518 SWAP1 PUSH1 0x44 ADD PUSH1 0x0 PUSH1 0x40 MLOAD DUP1 DUP4 SUB DUP2 PUSH1 0x0 DUP8 DUP1 EXTCODESIZE ISZERO DUP1 ISZERO PUSH2 0x18BE JUMPI PUSH1 0x0 DUP1 REVERT JUMPDEST POP GAS CALL ISZERO DUP1 ISZERO PUSH2 0x18D2 JUMPI RETURNDATASIZE PUSH1 0x0 DUP1 RETURNDATACOPY RETURNDATASIZE PUSH1 0x0 REVERT JUMPDEST POP POP POP POP POP POP POP POP POP POP JUMP JUMPDEST CALLER PUSH1 0x0 SWAP1 DUP2 MSTORE PUSH1 0xC PUSH1 0x20 MSTORE PUSH1 0x40 SWAP1 KECCAK256 SLOAD DUP2 GT ISZERO PUSH2 0x1931 JUMPI PUSH1 0x40 MLOAD PUSH3 0x461BCD PUSH1 0xE5 SHL DUP2 MSTORE PUSH1 0x20 PUSH1 0x4 DUP3 ADD MSTORE PUSH1 0x11 PUSH1 0x24 DUP3 ADD MSTORE PUSH17 0x4E6F7420656E6F75676820736861726573 PUSH1 0x78 SHL PUSH1 0x44 DUP3 ADD MSTORE PUSH1 0x64 ADD PUSH2 0x897 JUMP JUMPDEST PUSH2 0x1943 DUP2 PUSH8 0xDE0B6B3A7640000 PUSH2 0x338C JUMP JUMPDEST CALLER PUSH1 0x0 SWAP1 DUP2 MSTORE PUSH1 0xC PUSH1 0x20 MSTORE PUSH1 0x40 DUP2 KECCAK256 DUP1 SLOAD SWAP1 SWAP2 SWAP1 PUSH2 0x1962 SWAP1 DUP5 SWAP1 PUSH2 0x33B6 JUMP JUMPDEST SWAP1 SWAP2 SSTORE POP POP PUSH1 0xE SLOAD PUSH1 0x1 PUSH1 0x1 PUSH1 0xA0 SHL SUB AND PUSH4 0x8DA9E677 CALLER PUSH2 0x198B DUP5 PUSH8 0xDE0B6B3A7640000 PUSH2 0x338C JUMP JUMPDEST PUSH1 0x40 MLOAD PUSH1 0x1 PUSH1 0x1 PUSH1 0xE0 SHL SUB NOT PUSH1 0xE0 DUP6 SWAP1 SHL AND DUP2 MSTORE PUSH1 0x1 PUSH1 0x1 PUSH1 0xA0 SHL SUB SWAP1 SWAP3 AND PUSH1 0x4 DUP4 ADD MSTORE PUSH1 0x24 DUP3 ADD MSTORE PUSH1 0x44 ADD PUSH1 0x20 PUSH1 0x40 MLOAD DUP1 DUP4 SUB DUP2 PUSH1 0x0 DUP8 GAS CALL ISZERO DUP1 ISZERO PUSH2 0x19D6 JUMPI RETURNDATASIZE PUSH1 0x0 DUP1 RETURNDATACOPY RETURNDATASIZE PUSH1 0x0 REVERT JUMPDEST POP POP POP POP PUSH1 0x40 MLOAD RETURNDATASIZE PUSH1 0x1F NOT PUSH1 0x1F DUP3 ADD AND DUP3 ADD DUP1 PUSH1 0x40 MSTORE POP DUP2 ADD SWAP1 PUSH2 0x19FA SWAP2 SWAP1 PUSH2 0x3332 JUMP JUMPDEST POP PUSH2 0xB8B DUP2 PUSH2 0x2B51 JUMP JUMPDEST PUSH1 0x0 DUP2 DUP2 MSTORE PUSH1 0x7 PUSH1 0x20 MSTORE PUSH1 0x40 DUP2 KECCAK256 PUSH1 0x5 ADD SLOAD PUSH1 0x60 SWAP2 SWAP1 PUSH8 0xFFFFFFFFFFFFFFFF DUP2 GT ISZERO PUSH2 0x1A32 JUMPI PUSH2 0x1A32 PUSH2 0x2F1C JUMP JUMPDEST PUSH1 0x40 MLOAD SWAP1 DUP1 DUP3 MSTORE DUP1 PUSH1 0x20 MUL PUSH1 0x20 ADD DUP3 ADD PUSH1 0x40 MSTORE DUP1 ISZERO PUSH2 0x1A65 JUMPI DUP2 PUSH1 0x20 ADD JUMPDEST PUSH1 0x60 DUP2 MSTORE PUSH1 0x20 ADD SWAP1 PUSH1 0x1 SWAP1 SUB SWAP1 DUP2 PUSH2 0x1A50 JUMPI SWAP1 POP JUMPDEST POP SWAP1 POP PUSH1 0x0 JUMPDEST PUSH1 0x0 DUP5 DUP2 MSTORE PUSH1 0x7 PUSH1 0x20 MSTORE PUSH1 0x40 SWAP1 KECCAK256 PUSH1 0x5 ADD SLOAD DUP2 LT ISZERO PUSH2 0x1B6A JUMPI PUSH1 0x0 DUP5 DUP2 MSTORE PUSH1 0x7 PUSH1 0x20 MSTORE PUSH1 0x40 SWAP1 KECCAK256 PUSH1 0x5 ADD DUP1 SLOAD DUP3 SWAP1 DUP2 LT PUSH2 0x1AA7 JUMPI PUSH2 0x1AA7 PUSH2 0x33C9 JUMP JUMPDEST SWAP1 PUSH1 0x0 MSTORE PUSH1 0x20 PUSH1 0x0 KECCAK256 ADD DUP1 SLOAD PUSH2 0x1ABC SWAP1 PUSH2 0x32C7 JUMP JUMPDEST DUP1 PUSH1 0x1F ADD PUSH1 0x20 DUP1 SWAP2 DIV MUL PUSH1 0x20 ADD PUSH1 0x40 MLOAD SWAP1 DUP2 ADD PUSH1 0x40 MSTORE DUP1 SWAP3 SWAP2 SWAP1 DUP2 DUP2 MSTORE PUSH1 0x20 ADD DUP3 DUP1 SLOAD PUSH2 0x1AE8 SWAP1 PUSH2 0x32C7 JUMP JUMPDEST DUP1 ISZERO PUSH2 0x1B35 JUMPI DUP1 PUSH1 0x1F LT PUSH2 0x1B0A JUMPI PUSH2 0x100 DUP1 DUP4 SLOAD DIV MUL DUP4 MSTORE SWAP2 PUSH1 0x20 ADD SWAP2 PUSH2 0x1B35 JUMP JUMPDEST DUP3 ADD SWAP2 SWAP1 PUSH1 0x0 MSTORE PUSH1 0x20 PUSH1 0x0 KECCAK256 SWAP1 JUMPDEST DUP2 SLOAD DUP2 MSTORE SWAP1 PUSH1 0x1 ADD SWAP1 PUSH1 0x20 ADD DUP1 DUP4 GT PUSH2 0x1B18 JUMPI DUP3 SWAP1 SUB PUSH1 0x1F AND DUP3 ADD SWAP2 JUMPDEST POP POP POP POP POP DUP3 DUP3 DUP2 MLOAD DUP2 LT PUSH2 0x1B4C JUMPI PUSH2 0x1B4C PUSH2 0x33C9 JUMP JUMPDEST PUSH1 0x20 MUL PUSH1 0x20 ADD ADD DUP2 SWAP1 MSTORE POP DUP1 DUP1 PUSH2 0x1B62 SWAP1 PUSH2 0x33DF JUMP JUMPDEST SWAP2 POP POP PUSH2 0x1A6B JUMP JUMPDEST POP SWAP3 SWAP2 POP POP JUMP JUMPDEST PUSH1 0x1 DUP1 SLOAD PUSH2 0xFBA SWAP1 PUSH2 0x32C7 JUMP JUMPDEST PUSH1 0x0 DUP2 DUP2 MSTORE PUSH1 0x7 PUSH1 0x20 DUP2 SWAP1 MSTORE PUSH1 0x40 DUP3 KECCAK256 ADD DUP1 SLOAD PUSH1 0xFF NOT AND PUSH1 0x1 DUP4 PUSH2 0x86A JUMP JUMPDEST PUSH2 0x1BA6 CALLER PUSH2 0x2185 JUMP JUMPDEST PUSH2 0x1BC2 JUMPI PUSH1 0x40 MLOAD PUSH3 0x461BCD PUSH1 0xE5 SHL DUP2 MSTORE PUSH1 0x4 ADD PUSH2 0x897 SWAP1 PUSH2 0x32FB JUMP JUMPDEST PUSH1 0xD SLOAD PUSH1 0x40 MLOAD PUSH4 0x2EE39AC1 PUSH1 0xE1 SHL DUP2 MSTORE PUSH1 0x1 PUSH1 0x1 PUSH1 0xA0 SHL SUB DUP4 DUP2 AND PUSH1 0x4 DUP4 ADD MSTORE SWAP1 SWAP2 AND SWAP1 PUSH4 0x5DC73582 SWAP1 PUSH1 0x24 ADD PUSH2 0x8CE JUMP JUMPDEST PUSH1 0x0 DUP5 DUP2 MSTORE PUSH1 0x7 PUSH1 0x20 SWAP1 DUP2 MSTORE PUSH1 0x40 DUP1 DUP4 KECCAK256 CALLER DUP5 MSTORE PUSH1 0x8 DUP4 MSTORE DUP2 DUP5 KECCAK256 DUP9 DUP6 MSTORE SWAP1 SWAP3 MSTORE SWAP1 SWAP2 KECCAK256 SLOAD PUSH1 0xFF AND ISZERO PUSH2 0x1C59 JUMPI PUSH1 0x40 MLOAD PUSH3 0x461BCD PUSH1 0xE5 SHL DUP2 MSTORE PUSH1 0x20 PUSH1 0x4 DUP3 ADD MSTORE PUSH1 0xD PUSH1 0x24 DUP3 ADD MSTORE PUSH13 0x185B1C9958591E481D9BDD1959 PUSH1 0x9A SHL PUSH1 0x44 DUP3 ADD MSTORE PUSH1 0x64 ADD PUSH2 0x897 JUMP JUMPDEST PUSH1 0xD SLOAD PUSH1 0x40 MLOAD PUSH4 0x70A08231 PUSH1 0xE0 SHL DUP2 MSTORE CALLER PUSH1 0x4 DUP3 ADD MSTORE PUSH8 0xDE0B6B3A7640000 SWAP2 PUSH1 0x1 PUSH1 0x1 PUSH1 0xA0 SHL SUB AND SWAP1 PUSH4 0x70A08231 SWAP1 PUSH1 0x24 ADD PUSH1 0x20 PUSH1 0x40 MLOAD DUP1 DUP4 SUB DUP2 DUP7 GAS STATICCALL ISZERO DUP1 ISZERO PUSH2 0x1CA9 JUMPI RETURNDATASIZE PUSH1 0x0 DUP1 RETURNDATACOPY RETURNDATASIZE PUSH1 0x0 REVERT JUMPDEST POP POP POP POP PUSH1 0x40 MLOAD RETURNDATASIZE PUSH1 0x1F NOT PUSH1 0x1F DUP3 ADD AND DUP3 ADD DUP1 PUSH1 0x40 MSTORE POP DUP2 ADD SWAP1 PUSH2 0x1CCD SWAP2 SWAP1 PUSH2 0x33F8 JUMP JUMPDEST PUSH2 0x1CD7 SWAP2 SWAP1 PUSH2 0x3411 JUMP JUMPDEST DUP3 GT ISZERO PUSH2 0x1D36 JUMPI PUSH1 0x40 MLOAD PUSH3 0x461BCD PUSH1 0xE5 SHL DUP2 MSTORE PUSH1 0x20 PUSH1 0x4 DUP3 ADD MSTORE PUSH1 0x27 PUSH1 0x24 DUP3 ADD MSTORE PUSH32 0x446F6E74206861766520656E6F75676820746F6B656E7320286368616E676520 PUSH1 0x44 DUP3 ADD MSTORE PUSH7 0x77656967687429 PUSH1 0xC8 SHL PUSH1 0x64 DUP3 ADD MSTORE PUSH1 0x84 ADD PUSH2 0x897 JUMP JUMPDEST PUSH1 0xD SLOAD PUSH1 0x40 MLOAD PUSH4 0x70A08231 PUSH1 0xE0 SHL DUP2 MSTORE CALLER PUSH1 0x4 DUP3 ADD MSTORE PUSH1 0x0 SWAP2 PUSH1 0x1 PUSH1 0x1 PUSH1 0xA0 SHL SUB AND SWAP1 PUSH4 0x70A08231 SWAP1 PUSH1 0x24 ADD PUSH1 0x20 PUSH1 0x40 MLOAD DUP1 DUP4 SUB DUP2 DUP7 GAS STATICCALL ISZERO DUP1 ISZERO PUSH2 0x1D7F JUMPI RETURNDATASIZE PUSH1 0x0 DUP1 RETURNDATACOPY RETURNDATASIZE PUSH1 0x0 REVERT JUMPDEST POP POP POP POP PUSH1 0x40 MLOAD RETURNDATASIZE PUSH1 0x1F NOT PUSH1 0x1F DUP3 ADD AND DUP3 ADD DUP1 PUSH1 0x40 MSTORE POP DUP2 ADD SWAP1 PUSH2 0x1DA3 SWAP2 SWAP1 PUSH2 0x33F8 JUMP JUMPDEST GT PUSH2 0x1DFE JUMPI PUSH1 0x40 MLOAD PUSH3 0x461BCD PUSH1 0xE5 SHL DUP2 MSTORE PUSH1 0x20 PUSH1 0x4 DUP3 ADD MSTORE PUSH1 0x25 PUSH1 0x24 DUP3 ADD MSTORE PUSH32 0x446F6E74206861766520656E6F75676820746F6B656E7320286C69746572616C PUSH1 0x44 DUP3 ADD MSTORE PUSH5 0x6C79203029 PUSH1 0xD8 SHL PUSH1 0x64 DUP3 ADD MSTORE PUSH1 0x84 ADD PUSH2 0x897 JUMP JUMPDEST PUSH3 0x93A80 DUP2 PUSH1 0x4 ADD SLOAD PUSH2 0x1E11 SWAP2 SWAP1 PUSH2 0x33A3 JUMP JUMPDEST TIMESTAMP GT ISZERO PUSH2 0x1E58 JUMPI PUSH1 0x40 MLOAD PUSH3 0x461BCD PUSH1 0xE5 SHL DUP2 MSTORE PUSH1 0x20 PUSH1 0x4 DUP3 ADD MSTORE PUSH1 0x15 PUSH1 0x24 DUP3 ADD MSTORE PUSH21 0x2B37BA34B733903832B934B7B21034B99037BB32B9 PUSH1 0x59 SHL PUSH1 0x44 DUP3 ADD MSTORE PUSH1 0x64 ADD PUSH2 0x897 JUMP JUMPDEST PUSH1 0x2 PUSH1 0x0 DUP7 DUP2 MSTORE PUSH1 0x7 PUSH1 0x20 DUP2 SWAP1 MSTORE PUSH1 0x40 SWAP1 SWAP2 KECCAK256 ADD SLOAD PUSH1 0xFF AND PUSH1 0x2 DUP2 GT ISZERO PUSH2 0x1E81 JUMPI PUSH2 0x1E81 PUSH2 0x2D9A JUMP JUMPDEST EQ PUSH2 0x1ECA JUMPI PUSH1 0x40 MLOAD PUSH3 0x461BCD PUSH1 0xE5 SHL DUP2 MSTORE PUSH1 0x20 PUSH1 0x4 DUP3 ADD MSTORE PUSH1 0x19 PUSH1 0x24 DUP3 ADD MSTORE PUSH25 0x159BDD1A5B99C81C195C9A5BD9081A5CC8199A5B9A5CDA1959 PUSH1 0x3A SHL PUSH1 0x44 DUP3 ADD MSTORE PUSH1 0x64 ADD PUSH2 0x897 JUMP JUMPDEST PUSH1 0x0 DUP1 JUMPDEST DUP5 MLOAD DUP2 LT ISZERO PUSH2 0x1F10 JUMPI DUP5 DUP2 DUP2 MLOAD DUP2 LT PUSH2 0x1EE9 JUMPI PUSH2 0x1EE9 PUSH2 0x33C9 JUMP JUMPDEST PUSH1 0x20 MUL PUSH1 0x20 ADD ADD MLOAD DUP3 PUSH2 0x1EFC SWAP2 SWAP1 PUSH2 0x33A3 JUMP JUMPDEST SWAP2 POP DUP1 PUSH2 0x1F08 DUP2 PUSH2 0x33DF JUMP JUMPDEST SWAP2 POP POP PUSH2 0x1ECE JUMP JUMPDEST POP DUP2 PUSH1 0x8 ADD SLOAD DUP2 GT ISZERO PUSH2 0x1F22 JUMPI PUSH1 0x0 DUP1 REVERT JUMPDEST PUSH1 0x0 DUP1 JUMPDEST PUSH1 0x5 DUP5 ADD SLOAD DUP2 LT ISZERO PUSH2 0x202A JUMPI PUSH1 0x0 JUMPDEST DUP8 MLOAD DUP2 LT ISZERO PUSH2 0x2017 JUMPI PUSH2 0x1FFB DUP6 PUSH1 0x5 ADD DUP4 DUP2 SLOAD DUP2 LT PUSH2 0x1F56 JUMPI PUSH2 0x1F56 PUSH2 0x33C9 JUMP JUMPDEST SWAP1 PUSH1 0x0 MSTORE PUSH1 0x20 PUSH1 0x0 KECCAK256 ADD DUP1 SLOAD PUSH2 0x1F6B SWAP1 PUSH2 0x32C7 JUMP JUMPDEST DUP1 PUSH1 0x1F ADD PUSH1 0x20 DUP1 SWAP2 DIV MUL PUSH1 0x20 ADD PUSH1 0x40 MLOAD SWAP1 DUP2 ADD PUSH1 0x40 MSTORE DUP1 SWAP3 SWAP2 SWAP1 DUP2 DUP2 MSTORE PUSH1 0x20 ADD DUP3 DUP1 SLOAD PUSH2 0x1F97 SWAP1 PUSH2 0x32C7 JUMP JUMPDEST DUP1 ISZERO PUSH2 0x1FE4 JUMPI DUP1 PUSH1 0x1F LT PUSH2 0x1FB9 JUMPI PUSH2 0x100 DUP1 DUP4 SLOAD DIV MUL DUP4 MSTORE SWAP2 PUSH1 0x20 ADD SWAP2 PUSH2 0x1FE4 JUMP JUMPDEST DUP3 ADD SWAP2 SWAP1 PUSH1 0x0 MSTORE PUSH1 0x20 PUSH1 0x0 KECCAK256 SWAP1 JUMPDEST DUP2 SLOAD DUP2 MSTORE SWAP1 PUSH1 0x1 ADD SWAP1 PUSH1 0x20 ADD DUP1 DUP4 GT PUSH2 0x1FC7 JUMPI DUP3 SWAP1 SUB PUSH1 0x1F AND DUP3 ADD SWAP2 JUMPDEST POP POP POP POP POP DUP10 DUP4 DUP2 MLOAD DUP2 LT PUSH2 0x1754 JUMPI PUSH2 0x1754 PUSH2 0x33C9 JUMP JUMPDEST ISZERO PUSH2 0x2005 JUMPI PUSH1 0x1 SWAP3 POP JUMPDEST DUP1 PUSH2 0x200F DUP2 PUSH2 0x33DF JUMP JUMPDEST SWAP2 POP POP PUSH2 0x1F35 JUMP JUMPDEST POP DUP1 PUSH2 0x2022 DUP2 PUSH2 0x33DF JUMP JUMPDEST SWAP2 POP POP PUSH2 0x1F26 JUMP JUMPDEST POP PUSH1 0x1 DUP2 ISZERO ISZERO EQ PUSH2 0x203A JUMPI PUSH1 0x0 DUP1 REVERT JUMPDEST PUSH1 0x0 JUMPDEST PUSH1 0x5 DUP5 ADD SLOAD DUP2 LT ISZERO PUSH2 0x20F0 JUMPI PUSH1 0x0 JUMPDEST DUP8 MLOAD DUP2 LT ISZERO PUSH2 0x20DD JUMPI PUSH2 0x206D DUP6 PUSH1 0x5 ADD DUP4 DUP2 SLOAD DUP2 LT PUSH2 0x1F56 JUMPI PUSH2 0x1F56 PUSH2 0x33C9 JUMP JUMPDEST ISZERO PUSH2 0x20CB JUMPI DUP6 DUP8 DUP3 DUP2 MLOAD DUP2 LT PUSH2 0x2085 JUMPI PUSH2 0x2085 PUSH2 0x33C9 JUMP JUMPDEST PUSH1 0x20 MUL PUSH1 0x20 ADD ADD MLOAD PUSH2 0x2097 SWAP2 SWAP1 PUSH2 0x338C JUMP JUMPDEST DUP6 PUSH1 0x6 ADD DUP4 DUP2 SLOAD DUP2 LT PUSH2 0x20AC JUMPI PUSH2 0x20AC PUSH2 0x33C9 JUMP JUMPDEST SWAP1 PUSH1 0x0 MSTORE PUSH1 0x20 PUSH1 0x0 KECCAK256 ADD PUSH1 0x0 DUP3 DUP3 SLOAD PUSH2 0x20C5 SWAP2 SWAP1 PUSH2 0x33A3 JUMP JUMPDEST SWAP1 SWAP2 SSTORE POP POP JUMPDEST DUP1 PUSH2 0x20D5 DUP2 PUSH2 0x33DF JUMP JUMPDEST SWAP2 POP POP PUSH2 0x204C JUMP JUMPDEST POP DUP1 PUSH2 0x20E8 DUP2 PUSH2 0x33DF JUMP JUMPDEST SWAP2 POP POP PUSH2 0x203D JUMP JUMPDEST POP CALLER PUSH1 0x0 DUP2 DUP2 MSTORE PUSH1 0x8 PUSH1 0x20 SWAP1 DUP2 MSTORE PUSH1 0x40 DUP1 DUP4 KECCAK256 DUP12 DUP5 MSTORE SWAP1 SWAP2 MSTORE SWAP1 DUP2 SWAP1 KECCAK256 DUP1 SLOAD PUSH1 0xFF NOT AND PUSH1 0x1 OR SWAP1 SSTORE PUSH1 0xD SLOAD SWAP1 MLOAD PUSH4 0x1F827AA3 PUSH1 0xE3 SHL DUP2 MSTORE PUSH1 0x4 DUP2 ADD DUP11 SWAP1 MSTORE PUSH1 0x24 DUP2 ADD SWAP3 SWAP1 SWAP3 MSTORE PUSH1 0x1 PUSH1 0x1 PUSH1 0xA0 SHL SUB AND SWAP1 PUSH4 0xFC13D518 SWAP1 PUSH1 0x44 ADD JUMPDEST PUSH1 0x0 PUSH1 0x40 MLOAD DUP1 DUP4 SUB DUP2 PUSH1 0x0 DUP8 DUP1 EXTCODESIZE ISZERO DUP1 ISZERO PUSH2 0x2164 JUMPI PUSH1 0x0 DUP1 REVERT JUMPDEST POP GAS CALL ISZERO DUP1 ISZERO PUSH2 0x2178 JUMPI RETURNDATASIZE PUSH1 0x0 DUP1 RETURNDATACOPY RETURNDATASIZE PUSH1 0x0 REVERT JUMPDEST POP POP POP POP POP POP POP POP POP POP POP JUMP JUMPDEST PUSH1 0xE SLOAD PUSH1 0x40 MLOAD PUSH4 0x70A08231 PUSH1 0xE0 SHL DUP2 MSTORE PUSH1 0x1 PUSH1 0x1 PUSH1 0xA0 SHL SUB DUP4 DUP2 AND PUSH1 0x4 DUP4 ADD MSTORE PUSH1 0x0 SWAP3 PUSH1 0x1 SWAP3 SWAP2 AND SWAP1 PUSH4 0x70A08231 SWAP1 PUSH1 0x24 ADD PUSH1 0x20 PUSH1 0x40 MLOAD DUP1 DUP4 SUB DUP2 DUP7 GAS STATICCALL ISZERO DUP1 ISZERO PUSH2 0x21D4 JUMPI RETURNDATASIZE PUSH1 0x0 DUP1 RETURNDATACOPY RETURNDATASIZE PUSH1 0x0 REVERT JUMPDEST POP POP POP POP PUSH1 0x40 MLOAD RETURNDATASIZE PUSH1 0x1F NOT PUSH1 0x1F DUP3 ADD AND DUP3 ADD DUP1 PUSH1 0x40 MSTORE POP DUP2 ADD SWAP1 PUSH2 0x21F8 SWAP2 SWAP1 PUSH2 0x33F8 JUMP JUMPDEST LT PUSH2 0x2205 JUMPI POP PUSH1 0x1 SWAP2 SWAP1 POP JUMP JUMPDEST PUSH1 0x6 SLOAD PUSH1 0x4 DUP1 SLOAD PUSH1 0x40 MLOAD PUSH4 0x7A57C0FF PUSH1 0xE0 SHL DUP2 MSTORE SWAP2 DUP3 ADD MSTORE PUSH1 0x0 SWAP2 PUSH1 0x1 PUSH1 0x1 PUSH1 0xA0 SHL SUB AND SWAP1 PUSH4 0x7A57C0FF SWAP1 PUSH1 0x24 ADD PUSH1 0x20 PUSH1 0x40 MLOAD DUP1 DUP4 SUB DUP2 DUP7 GAS STATICCALL ISZERO DUP1 ISZERO PUSH2 0x2250 JUMPI RETURNDATASIZE PUSH1 0x0 DUP1 RETURNDATACOPY RETURNDATASIZE PUSH1 0x0 REVERT JUMPDEST POP POP POP POP PUSH1 0x40 MLOAD RETURNDATASIZE PUSH1 0x1F NOT PUSH1 0x1F DUP3 ADD AND DUP3 ADD DUP1 PUSH1 0x40 MSTORE POP DUP2 ADD SWAP1 PUSH2 0x2274 SWAP2 SWAP1 PUSH2 0x3433 JUMP JUMPDEST PUSH1 0x6 SLOAD PUSH1 0x40 MLOAD PUSH4 0xB0DAD2D PUSH1 0xE2 SHL DUP2 MSTORE PUSH1 0x1 PUSH1 0x1 PUSH1 0xA0 SHL SUB DUP1 DUP5 AND PUSH1 0x4 DUP4 ADD MSTORE SWAP3 SWAP4 POP PUSH1 0x0 SWAP3 SWAP1 SWAP2 AND SWAP1 PUSH4 0x2C36B4B4 SWAP1 PUSH1 0x24 ADD PUSH1 0x20 PUSH1 0x40 MLOAD DUP1 DUP4 SUB DUP2 DUP7 GAS STATICCALL ISZERO DUP1 ISZERO PUSH2 0x22C4 JUMPI RETURNDATASIZE PUSH1 0x0 DUP1 RETURNDATACOPY RETURNDATASIZE PUSH1 0x0 REVERT JUMPDEST POP POP POP POP PUSH1 0x40 MLOAD RETURNDATASIZE PUSH1 0x1F NOT PUSH1 0x1F DUP3 ADD AND DUP3 ADD DUP1 PUSH1 0x40 MSTORE POP DUP2 ADD SWAP1 PUSH2 0x22E8 SWAP2 SWAP1 PUSH2 0x3433 JUMP JUMPDEST SWAP1 POP PUSH1 0x0 JUMPDEST PUSH1 0x1 PUSH1 0x1 PUSH1 0xA0 SHL SUB DUP3 AND ISZERO PUSH2 0x2455 JUMPI PUSH8 0xDE0B6B3A7640000 DUP3 PUSH1 0x1 PUSH1 0x1 PUSH1 0xA0 SHL SUB AND PUSH4 0xF70E51A7 PUSH1 0x40 MLOAD DUP2 PUSH4 0xFFFFFFFF AND PUSH1 0xE0 SHL DUP2 MSTORE PUSH1 0x4 ADD PUSH1 0x20 PUSH1 0x40 MLOAD DUP1 DUP4 SUB DUP2 DUP7 GAS STATICCALL ISZERO DUP1 ISZERO PUSH2 0x2343 JUMPI RETURNDATASIZE PUSH1 0x0 DUP1 RETURNDATACOPY RETURNDATASIZE PUSH1 0x0 REVERT JUMPDEST POP POP POP POP PUSH1 0x40 MLOAD RETURNDATASIZE PUSH1 0x1F NOT PUSH1 0x1F DUP3 ADD AND DUP3 ADD DUP1 PUSH1 0x40 MSTORE POP DUP2 ADD SWAP1 PUSH2 0x2367 SWAP2 SWAP1 PUSH2 0x3433 JUMP JUMPDEST PUSH1 0x40 MLOAD PUSH4 0x70A08231 PUSH1 0xE0 SHL DUP2 MSTORE PUSH1 0x1 PUSH1 0x1 PUSH1 0xA0 SHL SUB DUP9 DUP2 AND PUSH1 0x4 DUP4 ADD MSTORE SWAP2 SWAP1 SWAP2 AND SWAP1 PUSH4 0x70A08231 SWAP1 PUSH1 0x24 ADD PUSH1 0x20 PUSH1 0x40 MLOAD DUP1 DUP4 SUB DUP2 DUP7 GAS STATICCALL ISZERO DUP1 ISZERO PUSH2 0x23AF JUMPI RETURNDATASIZE PUSH1 0x0 DUP1 RETURNDATACOPY RETURNDATASIZE PUSH1 0x0 REVERT JUMPDEST POP POP POP POP PUSH1 0x40 MLOAD RETURNDATASIZE PUSH1 0x1F NOT PUSH1 0x1F DUP3 ADD AND DUP3 ADD DUP1 PUSH1 0x40 MSTORE POP DUP2 ADD SWAP1 PUSH2 0x23D3 SWAP2 SWAP1 PUSH2 0x33F8 JUMP JUMPDEST LT PUSH2 0x23E0 JUMPI POP PUSH1 0x1 PUSH2 0x2455 JUMP JUMPDEST PUSH1 0x6 SLOAD PUSH1 0x40 MLOAD PUSH4 0xB0DAD2D PUSH1 0xE2 SHL DUP2 MSTORE PUSH1 0x1 PUSH1 0x1 PUSH1 0xA0 SHL SUB DUP5 DUP2 AND PUSH1 0x4 DUP4 ADD MSTORE SWAP1 SWAP2 AND SWAP1 PUSH4 0x2C36B4B4 SWAP1 PUSH1 0x24 ADD PUSH1 0x20 PUSH1 0x40 MLOAD DUP1 DUP4 SUB DUP2 DUP7 GAS STATICCALL ISZERO DUP1 ISZERO PUSH2 0x242A JUMPI RETURNDATASIZE PUSH1 0x0 DUP1 RETURNDATACOPY RETURNDATASIZE PUSH1 0x0 REVERT JUMPDEST POP POP POP POP PUSH1 0x40 MLOAD RETURNDATASIZE PUSH1 0x1F NOT PUSH1 0x1F DUP3 ADD AND DUP3 ADD DUP1 PUSH1 0x40 MSTORE POP DUP2 ADD SWAP1 PUSH2 0x244E SWAP2 SWAP1 PUSH2 0x3433 JUMP JUMPDEST SWAP2 POP PUSH2 0x22ED JUMP JUMPDEST SWAP5 SWAP4 POP POP POP POP JUMP JUMPDEST PUSH1 0x3 DUP1 SLOAD PUSH2 0xFBA SWAP1 PUSH2 0x32C7 JUMP JUMPDEST PUSH1 0xE SLOAD PUSH1 0x40 MLOAD PUSH4 0x396473F7 PUSH1 0xE0 SHL DUP2 MSTORE CALLER PUSH1 0x4 DUP3 ADD MSTORE PUSH1 0x1 PUSH1 0x1 PUSH1 0xA0 SHL SUB SWAP1 SWAP2 AND SWAP1 PUSH4 0x396473F7 SWAP1 PUSH1 0x24 ADD PUSH2 0x1347 JUMP JUMPDEST PUSH2 0x24A3 CALLER PUSH2 0x2185 JUMP JUMPDEST PUSH2 0x24FE JUMPI PUSH1 0x40 MLOAD PUSH3 0x461BCD PUSH1 0xE5 SHL DUP2 MSTORE PUSH1 0x20 PUSH1 0x4 DUP3 ADD MSTORE PUSH1 0x26 PUSH1 0x24 DUP3 ADD MSTORE PUSH32 0x4E6F7420656E6F7567682073686172657320746F206372656174652061207072 PUSH1 0x44 DUP3 ADD MSTORE PUSH6 0x1BDC1BDCD85B PUSH1 0xD2 SHL PUSH1 0x64 DUP3 ADD MSTORE PUSH1 0x84 ADD PUSH2 0x897 JUMP JUMPDEST PUSH1 0x60 DUP2 PUSH1 0x0 SUB PUSH2 0x252B JUMPI POP PUSH1 0x40 DUP1 MLOAD DUP1 DUP3 ADD SWAP1 SWAP2 MSTORE PUSH1 0x6 DUP2 MSTORE PUSH6 0x1B9BDC9B585B PUSH1 0xD2 SHL PUSH1 0x20 DUP3 ADD MSTORE PUSH2 0x2554 JUMP JUMPDEST DUP2 PUSH1 0x1 SUB PUSH2 0x2554 JUMPI POP PUSH1 0x40 DUP1 MLOAD DUP1 DUP3 ADD SWAP1 SWAP2 MSTORE PUSH1 0x8 DUP2 MSTORE PUSH8 0x1DD95A59DA1D1959 PUSH1 0xC2 SHL PUSH1 0x20 DUP3 ADD MSTORE JUMPDEST PUSH1 0x40 DUP1 MLOAD PUSH2 0x140 DUP2 ADD DUP3 MSTORE PUSH1 0xF SLOAD DUP2 MSTORE CALLER PUSH1 0x20 DUP3 ADD MSTORE SWAP1 DUP2 ADD DUP9 SWAP1 MSTORE PUSH1 0x60 DUP2 ADD DUP8 SWAP1 MSTORE TIMESTAMP PUSH1 0x80 DUP3 ADD MSTORE PUSH1 0xA0 DUP2 ADD DUP7 SWAP1 MSTORE PUSH1 0xC0 DUP2 ADD DUP6 SWAP1 MSTORE PUSH1 0xE0 DUP2 ADD PUSH1 0x2 DUP2 MSTORE PUSH1 0x20 DUP1 DUP3 ADD DUP7 SWAP1 MSTORE PUSH1 0x40 SWAP2 DUP3 ADD DUP5 SWAP1 MSTORE PUSH1 0xF SLOAD PUSH1 0x0 SWAP1 DUP2 MSTORE PUSH1 0x7 DUP3 MSTORE DUP3 SWAP1 KECCAK256 DUP4 MLOAD DUP2 SSTORE SWAP1 DUP4 ADD MLOAD PUSH1 0x1 DUP3 ADD DUP1 SLOAD PUSH1 0x1 PUSH1 0x1 PUSH1 0xA0 SHL SUB NOT AND PUSH1 0x1 PUSH1 0x1 PUSH1 0xA0 SHL SUB SWAP1 SWAP3 AND SWAP2 SWAP1 SWAP2 OR SWAP1 SSTORE SWAP1 DUP3 ADD MLOAD PUSH1 0x2 DUP3 ADD SWAP1 PUSH2 0x25EE SWAP1 DUP3 PUSH2 0x349E JUMP JUMPDEST POP PUSH1 0x60 DUP3 ADD MLOAD PUSH1 0x3 DUP3 ADD SWAP1 PUSH2 0x2603 SWAP1 DUP3 PUSH2 0x349E JUMP JUMPDEST POP PUSH1 0x80 DUP3 ADD MLOAD PUSH1 0x4 DUP3 ADD SSTORE PUSH1 0xA0 DUP3 ADD MLOAD DUP1 MLOAD PUSH2 0x2629 SWAP2 PUSH1 0x5 DUP5 ADD SWAP2 PUSH1 0x20 SWAP1 SWAP2 ADD SWAP1 PUSH2 0x2C32 JUMP JUMPDEST POP PUSH1 0xC0 DUP3 ADD MLOAD DUP1 MLOAD PUSH2 0x2645 SWAP2 PUSH1 0x6 DUP5 ADD SWAP2 PUSH1 0x20 SWAP1 SWAP2 ADD SWAP1 PUSH2 0x2C88 JUMP JUMPDEST POP PUSH1 0xE0 DUP3 ADD MLOAD PUSH1 0x7 DUP3 ADD DUP1 SLOAD PUSH1 0xFF NOT AND PUSH1 0x1 DUP4 PUSH1 0x2 DUP2 GT ISZERO PUSH2 0x2669 JUMPI PUSH2 0x2669 PUSH2 0x2D9A JUMP JUMPDEST MUL OR SWAP1 SSTORE POP PUSH2 0x100 DUP3 ADD MLOAD PUSH1 0x8 DUP3 ADD SSTORE PUSH2 0x120 DUP3 ADD MLOAD PUSH1 0x9 DUP3 ADD SWAP1 PUSH2 0x268E SWAP1 DUP3 PUSH2 0x349E JUMP JUMPDEST POP POP PUSH1 0xF DUP1 SLOAD SWAP2 POP PUSH1 0x0 PUSH2 0x26A1 DUP4 PUSH2 0x33DF JUMP JUMPDEST SWAP1 SWAP2 SSTORE POP POP PUSH1 0xD SLOAD PUSH1 0xF SLOAD PUSH1 0x40 MLOAD PUSH4 0xA19DEA7 PUSH1 0xE4 SHL DUP2 MSTORE PUSH1 0x1 PUSH1 0x1 PUSH1 0xA0 SHL SUB SWAP1 SWAP3 AND SWAP2 PUSH4 0xA19DEA70 SWAP2 PUSH2 0x214A SWAP2 PUSH1 0x4 ADD SWAP1 DUP2 MSTORE PUSH1 0x20 ADD SWAP1 JUMP JUMPDEST PUSH1 0x0 JUMPDEST PUSH1 0xF SLOAD DUP2 LT ISZERO PUSH2 0xB8B JUMPI PUSH1 0x2 PUSH1 0x0 DUP3 DUP2 MSTORE PUSH1 0x7 PUSH1 0x20 DUP2 SWAP1 MSTORE PUSH1 0x40 SWAP1 SWAP2 KECCAK256 ADD SLOAD PUSH1 0xFF AND PUSH1 0x2 DUP2 GT ISZERO PUSH2 0x2711 JUMPI PUSH2 0x2711 PUSH2 0x2D9A JUMP JUMPDEST EQ PUSH2 0x277E JUMPI PUSH1 0xD SLOAD PUSH1 0x40 MLOAD PUSH1 0x1 PUSH3 0xD4A05F PUSH1 0xE0 SHL SUB NOT DUP2 MSTORE PUSH1 0x4 DUP2 ADD DUP4 SWAP1 MSTORE CALLER PUSH1 0x24 DUP3 ADD MSTORE PUSH1 0x1 PUSH1 0x1 PUSH1 0xA0 SHL SUB SWAP1 SWAP2 AND SWAP1 PUSH4 0xFF2B5FA1 SWAP1 PUSH1 0x44 ADD PUSH1 0x0 PUSH1 0x40 MLOAD DUP1 DUP4 SUB DUP2 PUSH1 0x0 DUP8 DUP1 EXTCODESIZE ISZERO DUP1 ISZERO PUSH2 0x2765 JUMPI PUSH1 0x0 DUP1 REVERT JUMPDEST POP GAS CALL ISZERO DUP1 ISZERO PUSH2 0x2779 JUMPI RETURNDATASIZE PUSH1 0x0 DUP1 RETURNDATACOPY RETURNDATASIZE PUSH1 0x0 REVERT JUMPDEST POP POP POP POP JUMPDEST PUSH1 0x0 DUP2 DUP2 MSTORE PUSH1 0x7 PUSH1 0x20 MSTORE PUSH1 0x40 SWAP1 DUP2 SWAP1 KECCAK256 DUP1 SLOAD PUSH1 0x1 DUP3 ADD SLOAD PUSH1 0x8 DUP4 ADD SLOAD SWAP4 MLOAD PUSH32 0x4C42442933829B3DE657EFC6A23FBE895206DD2453C5A00C3E26D2E969F82727 SWAP5 PUSH2 0x27ED SWAP5 PUSH1 0x1 PUSH1 0x1 PUSH1 0xA0 SHL SUB SWAP1 SWAP4 AND SWAP3 PUSH1 0x2 DUP2 ADD SWAP3 PUSH1 0x3 DUP3 ADD SWAP3 PUSH1 0x5 DUP4 ADD SWAP3 PUSH1 0x6 DUP2 ADD SWAP3 PUSH1 0x9 SWAP1 SWAP2 ADD SWAP1 PUSH2 0x361B JUMP JUMPDEST PUSH1 0x40 MLOAD DUP1 SWAP2 SUB SWAP1 LOG1 DUP1 PUSH2 0x27FF DUP2 PUSH2 0x33DF JUMP JUMPDEST SWAP2 POP POP PUSH2 0x26DE JUMP JUMPDEST PUSH1 0x0 DUP2 DUP2 MSTORE PUSH1 0x7 PUSH1 0x20 MSTORE PUSH1 0x40 DUP2 KECCAK256 PUSH1 0x6 ADD SLOAD PUSH1 0x60 SWAP2 SWAP1 PUSH8 0xFFFFFFFFFFFFFFFF DUP2 GT ISZERO PUSH2 0x2835 JUMPI PUSH2 0x2835 PUSH2 0x2F1C JUMP JUMPDEST PUSH1 0x40 MLOAD SWAP1 DUP1 DUP3 MSTORE DUP1 PUSH1 0x20 MUL PUSH1 0x20 ADD DUP3 ADD PUSH1 0x40 MSTORE DUP1 ISZERO PUSH2 0x285E JUMPI DUP2 PUSH1 0x20 ADD PUSH1 0x20 DUP3 MUL DUP1 CALLDATASIZE DUP4 CALLDATACOPY ADD SWAP1 POP JUMPDEST POP SWAP1 POP PUSH1 0x0 JUMPDEST PUSH1 0x0 DUP5 DUP2 MSTORE PUSH1 0x7 PUSH1 0x20 MSTORE PUSH1 0x40 SWAP1 KECCAK256 PUSH1 0x6 ADD SLOAD DUP2 LT ISZERO PUSH2 0x1B6A JUMPI PUSH1 0x0 DUP5 DUP2 MSTORE PUSH1 0x7 PUSH1 0x20 MSTORE PUSH1 0x40 SWAP1 KECCAK256 PUSH1 0x6 ADD DUP1 SLOAD DUP3 SWAP1 DUP2 LT PUSH2 0x28A0 JUMPI PUSH2 0x28A0 PUSH2 0x33C9 JUMP JUMPDEST SWAP1 PUSH1 0x0 MSTORE PUSH1 0x20 PUSH1 0x0 KECCAK256 ADD SLOAD DUP3 DUP3 DUP2 MLOAD DUP2 LT PUSH2 0x28BD JUMPI PUSH2 0x28BD PUSH2 0x33C9 JUMP JUMPDEST PUSH1 0x20 SWAP1 DUP2 MUL SWAP2 SWAP1 SWAP2 ADD ADD MSTORE DUP1 PUSH2 0x28D2 DUP2 PUSH2 0x33DF JUMP JUMPDEST SWAP2 POP POP PUSH2 0x2864 JUMP JUMPDEST PUSH1 0x0 DUP2 DUP2 MSTORE PUSH1 0x7 PUSH1 0x20 MSTORE PUSH1 0x40 DUP2 KECCAK256 PUSH1 0x9 ADD DUP1 SLOAD PUSH1 0x60 SWAP3 SWAP2 SWAP1 PUSH2 0x28FB SWAP1 PUSH2 0x32C7 JUMP JUMPDEST DUP1 PUSH1 0x1F ADD PUSH1 0x20 DUP1 SWAP2 DIV MUL PUSH1 0x20 ADD PUSH1 0x40 MLOAD SWAP1 DUP2 ADD PUSH1 0x40 MSTORE DUP1 SWAP3 SWAP2 SWAP1 DUP2 DUP2 MSTORE PUSH1 0x20 ADD DUP3 DUP1 SLOAD PUSH2 0x2927 SWAP1 PUSH2 0x32C7 JUMP JUMPDEST DUP1 ISZERO PUSH2 0x2974 JUMPI DUP1 PUSH1 0x1F LT PUSH2 0x2949 JUMPI PUSH2 0x100 DUP1 DUP4 SLOAD DIV MUL DUP4 MSTORE SWAP2 PUSH1 0x20 ADD SWAP2 PUSH2 0x2974 JUMP JUMPDEST DUP3 ADD SWAP2 SWAP1 PUSH1 0x0 MSTORE PUSH1 0x20 PUSH1 0x0 KECCAK256 SWAP1 JUMPDEST DUP2 SLOAD DUP2 MSTORE SWAP1 PUSH1 0x1 ADD SWAP1 PUSH1 0x20 ADD DUP1 DUP4 GT PUSH2 0x2957 JUMPI DUP3 SWAP1 SUB PUSH1 0x1F AND DUP3 ADD SWAP2 JUMPDEST POP SWAP4 SWAP8 SWAP7 POP POP POP POP POP POP POP JUMP JUMPDEST PUSH1 0x0 DUP1 SLOAD PUSH2 0xFBA SWAP1 PUSH2 0x32C7 JUMP JUMPDEST PUSH1 0xD SLOAD PUSH1 0x40 MLOAD PUSH4 0xA95BBCED PUSH1 0xE0 SHL DUP2 MSTORE PUSH1 0x1 PUSH1 0x1 PUSH1 0xA0 SHL SUB DUP5 DUP2 AND PUSH1 0x4 DUP4 ADD MSTORE SWAP1 SWAP2 AND SWAP1 PUSH4 0xA95BBCED SWAP1 PUSH1 0x24 ADD PUSH1 0x20 PUSH1 0x40 MLOAD DUP1 DUP4 SUB DUP2 DUP7 GAS STATICCALL ISZERO DUP1 ISZERO PUSH2 0x29D8 JUMPI RETURNDATASIZE PUSH1 0x0 DUP1 RETURNDATACOPY RETURNDATASIZE PUSH1 0x0 REVERT JUMPDEST POP POP POP POP PUSH1 0x40 MLOAD RETURNDATASIZE PUSH1 0x1F NOT PUSH1 0x1F DUP3 ADD AND DUP3 ADD DUP1 PUSH1 0x40 MSTORE POP DUP2 ADD SWAP1 PUSH2 0x29FC SWAP2 SWAP1 PUSH2 0x33F8 JUMP JUMPDEST DUP2 GT ISZERO PUSH2 0x2A45 JUMPI PUSH1 0x40 MLOAD PUSH3 0x461BCD PUSH1 0xE5 SHL DUP2 MSTORE PUSH1 0x20 PUSH1 0x4 DUP3 ADD MSTORE PUSH1 0x17 PUSH1 0x24 DUP3 ADD MSTORE PUSH23 0x6E6F7420656E6F756768206465627420736F6D65686F77 PUSH1 0x48 SHL PUSH1 0x44 DUP3 ADD MSTORE PUSH1 0x64 ADD PUSH2 0x897 JUMP JUMPDEST PUSH1 0xD SLOAD PUSH1 0x40 MLOAD PUSH4 0x12405A4D PUSH1 0xE2 SHL DUP2 MSTORE PUSH1 0x1 PUSH1 0x1 PUSH1 0xA0 SHL SUB DUP5 DUP2 AND PUSH1 0x4 DUP4 ADD MSTORE CALLER PUSH1 0x24 DUP4 ADD MSTORE PUSH1 0x44 DUP3 ADD DUP5 SWAP1 MSTORE SWAP1 SWAP2 AND SWAP1 PUSH4 0x49016934 SWAP1 PUSH1 0x64 ADD PUSH2 0x12D3 JUMP JUMPDEST PUSH2 0x2A8D CALLER PUSH2 0x2185 JUMP JUMPDEST PUSH2 0x2AA9 JUMPI PUSH1 0x40 MLOAD PUSH3 0x461BCD PUSH1 0xE5 SHL DUP2 MSTORE PUSH1 0x4 ADD PUSH2 0x897 SWAP1 PUSH2 0x3354 JUMP JUMPDEST PUSH2 0x2ABB DUP2 PUSH8 0xDE0B6B3A7640000 PUSH2 0x338C JUMP JUMPDEST PUSH1 0x1 PUSH1 0x1 PUSH1 0xA0 SHL SUB DUP4 AND PUSH1 0x0 SWAP1 DUP2 MSTORE PUSH1 0xB PUSH1 0x20 MSTORE PUSH1 0x40 DUP2 KECCAK256 DUP1 SLOAD SWAP1 SWAP2 SWAP1 PUSH2 0x9AC SWAP1 DUP5 SWAP1 PUSH2 0x33A3 JUMP JUMPDEST PUSH1 0x6 SLOAD PUSH1 0x40 MLOAD PUSH4 0x50EE8E8F PUSH1 0xE0 SHL DUP2 MSTORE ADDRESS PUSH1 0x4 DUP3 ADD MSTORE PUSH1 0x24 DUP2 ADD DUP4 SWAP1 MSTORE CALLER PUSH1 0x44 DUP3 ADD MSTORE PUSH1 0x1 PUSH1 0x1 PUSH1 0xA0 SHL SUB SWAP1 SWAP2 AND SWAP1 PUSH4 0x50EE8E8F SWAP1 PUSH1 0x64 ADD JUMPDEST PUSH1 0x0 PUSH1 0x40 MLOAD DUP1 DUP4 SUB DUP2 PUSH1 0x0 DUP8 DUP1 EXTCODESIZE ISZERO DUP1 ISZERO PUSH2 0x2B36 JUMPI PUSH1 0x0 DUP1 REVERT JUMPDEST POP GAS CALL ISZERO DUP1 ISZERO PUSH2 0x2B4A JUMPI RETURNDATASIZE PUSH1 0x0 DUP1 RETURNDATACOPY RETURNDATASIZE PUSH1 0x0 REVERT JUMPDEST POP POP POP POP POP JUMP JUMPDEST PUSH1 0x6 SLOAD PUSH1 0x40 MLOAD PUSH4 0x205CDCFF PUSH1 0xE0 SHL DUP2 MSTORE ADDRESS PUSH1 0x4 DUP3 ADD MSTORE PUSH1 0x24 DUP2 ADD DUP4 SWAP1 MSTORE CALLER PUSH1 0x44 DUP3 ADD MSTORE PUSH1 0x1 PUSH1 0x1 PUSH1 0xA0 SHL SUB SWAP1 SWAP2 AND SWAP1 PUSH4 0x205CDCFF SWAP1 PUSH1 0x64 ADD PUSH2 0x2B1C JUMP JUMPDEST DUP2 MLOAD DUP2 MLOAD PUSH1 0x0 SWAP2 DUP5 SWAP2 DUP5 SWAP2 SWAP1 DUP2 EQ PUSH2 0x2BAC JUMPI PUSH1 0x0 SWAP4 POP POP POP POP PUSH2 0x2C2C JUMP JUMPDEST PUSH1 0x0 JUMPDEST DUP2 DUP2 LT ISZERO PUSH2 0x2C23 JUMPI DUP3 DUP2 DUP2 MLOAD DUP2 LT PUSH2 0x2BC9 JUMPI PUSH2 0x2BC9 PUSH2 0x33C9 JUMP JUMPDEST PUSH1 0x20 ADD ADD MLOAD PUSH1 0xF8 SHR PUSH1 0xF8 SHL PUSH1 0x1 PUSH1 0x1 PUSH1 0xF8 SHL SUB NOT AND DUP5 DUP3 DUP2 MLOAD DUP2 LT PUSH2 0x2BF0 JUMPI PUSH2 0x2BF0 PUSH2 0x33C9 JUMP JUMPDEST ADD PUSH1 0x20 ADD MLOAD PUSH1 0x1 PUSH1 0x1 PUSH1 0xF8 SHL SUB NOT AND EQ PUSH2 0x2C11 JUMPI PUSH1 0x0 SWAP5 POP POP POP POP POP PUSH2 0x2C2C JUMP JUMPDEST DUP1 PUSH2 0x2C1B DUP2 PUSH2 0x33DF JUMP JUMPDEST SWAP2 POP POP PUSH2 0x2BAF JUMP JUMPDEST POP PUSH1 0x1 SWAP4 POP POP POP POP JUMPDEST SWAP3 SWAP2 POP POP JUMP JUMPDEST DUP3 DUP1 SLOAD DUP3 DUP3 SSTORE SWAP1 PUSH1 0x0 MSTORE PUSH1 0x20 PUSH1 0x0 KECCAK256 SWAP1 DUP2 ADD SWAP3 DUP3 ISZERO PUSH2 0x2C78 JUMPI SWAP2 PUSH1 0x20 MUL DUP3 ADD JUMPDEST DUP3 DUP2 GT ISZERO PUSH2 0x2C78 JUMPI DUP3 MLOAD DUP3 SWAP1 PUSH2 0x2C68 SWAP1 DUP3 PUSH2 0x349E JUMP JUMPDEST POP SWAP2 PUSH1 0x20 ADD SWAP2 SWAP1 PUSH1 0x1 ADD SWAP1 PUSH2 0x2C52 JUMP JUMPDEST POP PUSH2 0x2C84 SWAP3 SWAP2 POP PUSH2 0x2CCF JUMP JUMPDEST POP SWAP1 JUMP JUMPDEST DUP3 DUP1 SLOAD DUP3 DUP3 SSTORE SWAP1 PUSH1 0x0 MSTORE PUSH1 0x20 PUSH1 0x0 KECCAK256 SWAP1 DUP2 ADD SWAP3 DUP3 ISZERO PUSH2 0x2CC3 JUMPI SWAP2 PUSH1 0x20 MUL DUP3 ADD JUMPDEST DUP3 DUP2 GT ISZERO PUSH2 0x2CC3 JUMPI DUP3 MLOAD DUP3 SSTORE SWAP2 PUSH1 0x20 ADD SWAP2 SWAP1 PUSH1 0x1 ADD SWAP1 PUSH2 0x2CA8 JUMP JUMPDEST POP PUSH2 0x2C84 SWAP3 SWAP2 POP PUSH2 0x2CEC JUMP JUMPDEST DUP1 DUP3 GT ISZERO PUSH2 0x2C84 JUMPI PUSH1 0x0 PUSH2 0x2CE3 DUP3 DUP3 PUSH2 0x2D01 JUMP JUMPDEST POP PUSH1 0x1 ADD PUSH2 0x2CCF JUMP JUMPDEST JUMPDEST DUP1 DUP3 GT ISZERO PUSH2 0x2C84 JUMPI PUSH1 0x0 DUP2 SSTORE PUSH1 0x1 ADD PUSH2 0x2CED JUMP JUMPDEST POP DUP1 SLOAD PUSH2 0x2D0D SWAP1 PUSH2 0x32C7 JUMP JUMPDEST PUSH1 0x0 DUP3 SSTORE DUP1 PUSH1 0x1F LT PUSH2 0x2D1D JUMPI POP POP JUMP JUMPDEST PUSH1 0x1F ADD PUSH1 0x20 SWAP1 DIV SWAP1 PUSH1 0x0 MSTORE PUSH1 0x20 PUSH1 0x0 KECCAK256 SWAP1 DUP2 ADD SWAP1 PUSH2 0xB8B SWAP2 SWAP1 PUSH2 0x2CEC JUMP JUMPDEST PUSH1 0x0 PUSH1 0x20 DUP3 DUP5 SUB SLT ISZERO PUSH2 0x2D4D JUMPI PUSH1 0x0 DUP1 REVERT JUMPDEST POP CALLDATALOAD SWAP2 SWAP1 POP JUMP JUMPDEST PUSH1 0x0 DUP2 MLOAD DUP1 DUP5 MSTORE PUSH1 0x0 JUMPDEST DUP2 DUP2 LT ISZERO PUSH2 0x2D7A JUMPI PUSH1 0x20 DUP2 DUP6 ADD DUP2 ADD MLOAD DUP7 DUP4 ADD DUP3 ADD MSTORE ADD PUSH2 0x2D5E JUMP JUMPDEST POP PUSH1 0x0 PUSH1 0x20 DUP3 DUP7 ADD ADD MSTORE PUSH1 0x20 PUSH1 0x1F NOT PUSH1 0x1F DUP4 ADD AND DUP6 ADD ADD SWAP2 POP POP SWAP3 SWAP2 POP POP JUMP JUMPDEST PUSH4 0x4E487B71 PUSH1 0xE0 SHL PUSH1 0x0 MSTORE PUSH1 0x21 PUSH1 0x4 MSTORE PUSH1 0x24 PUSH1 0x0 REVERT JUMPDEST DUP9 DUP2 MSTORE PUSH1 0x1 PUSH1 0x1 PUSH1 0xA0 SHL SUB DUP9 AND PUSH1 0x20 DUP3 ADD MSTORE PUSH2 0x100 PUSH1 0x40 DUP3 ADD DUP2 SWAP1 MSTORE PUSH1 0x0 SWAP1 PUSH2 0x2DDB DUP4 DUP3 ADD DUP11 PUSH2 0x2D54 JUMP JUMPDEST SWAP1 POP DUP3 DUP2 SUB PUSH1 0x60 DUP5 ADD MSTORE PUSH2 0x2DEF DUP2 DUP10 PUSH2 0x2D54 JUMP JUMPDEST SWAP1 POP DUP7 PUSH1 0x80 DUP5 ADD MSTORE PUSH1 0x3 DUP7 LT PUSH2 0x2E15 JUMPI PUSH4 0x4E487B71 PUSH1 0xE0 SHL PUSH1 0x0 MSTORE PUSH1 0x21 PUSH1 0x4 MSTORE PUSH1 0x24 PUSH1 0x0 REVERT JUMPDEST DUP6 PUSH1 0xA0 DUP5 ADD MSTORE DUP5 PUSH1 0xC0 DUP5 ADD MSTORE DUP3 DUP2 SUB PUSH1 0xE0 DUP5 ADD MSTORE PUSH2 0x2E33 DUP2 DUP6 PUSH2 0x2D54 JUMP JUMPDEST SWAP12 SWAP11 POP POP POP POP POP POP POP POP POP POP POP JUMP JUMPDEST PUSH1 0x1 PUSH1 0x1 PUSH1 0xA0 SHL SUB DUP2 AND DUP2 EQ PUSH2 0xB8B JUMPI PUSH1 0x0 DUP1 REVERT JUMPDEST PUSH1 0x0 PUSH1 0x20 DUP3 DUP5 SUB SLT ISZERO PUSH2 0x2E69 JUMPI PUSH1 0x0 DUP1 REVERT JUMPDEST DUP2 CALLDATALOAD PUSH2 0x2E74 DUP2 PUSH2 0x2E42 JUMP JUMPDEST SWAP4 SWAP3 POP POP POP JUMP JUMPDEST PUSH1 0x0 DUP1 PUSH1 0x40 DUP4 DUP6 SUB SLT ISZERO PUSH2 0x2E8E JUMPI PUSH1 0x0 DUP1 REVERT JUMPDEST DUP3 CALLDATALOAD PUSH2 0x2E99 DUP2 PUSH2 0x2E42 JUMP JUMPDEST SWAP5 PUSH1 0x20 SWAP4 SWAP1 SWAP4 ADD CALLDATALOAD SWAP4 POP POP POP JUMP JUMPDEST PUSH1 0x0 PUSH1 0x20 DUP1 DUP4 ADD DUP2 DUP5 MSTORE DUP1 DUP6 MLOAD DUP1 DUP4 MSTORE PUSH1 0x40 DUP7 ADD SWAP2 POP PUSH1 0x40 DUP2 PUSH1 0x5 SHL DUP8 ADD ADD SWAP3 POP DUP4 DUP8 ADD PUSH1 0x0 JUMPDEST DUP3 DUP2 LT ISZERO PUSH2 0x2EFC JUMPI PUSH1 0x3F NOT DUP9 DUP7 SUB ADD DUP5 MSTORE PUSH2 0x2EEA DUP6 DUP4 MLOAD PUSH2 0x2D54 JUMP JUMPDEST SWAP5 POP SWAP3 DUP6 ADD SWAP3 SWAP1 DUP6 ADD SWAP1 PUSH1 0x1 ADD PUSH2 0x2ECE JUMP JUMPDEST POP SWAP3 SWAP8 SWAP7 POP POP POP POP POP POP POP JUMP JUMPDEST PUSH1 0x20 DUP2 MSTORE PUSH1 0x0 PUSH2 0x2E74 PUSH1 0x20 DUP4 ADD DUP5 PUSH2 0x2D54 JUMP JUMPDEST PUSH4 0x4E487B71 PUSH1 0xE0 SHL PUSH1 0x0 MSTORE PUSH1 0x41 PUSH1 0x4 MSTORE PUSH1 0x24 PUSH1 0x0 REVERT JUMPDEST PUSH1 0x40 MLOAD PUSH1 0x1F DUP3 ADD PUSH1 0x1F NOT AND DUP2 ADD PUSH8 0xFFFFFFFFFFFFFFFF DUP2 GT DUP3 DUP3 LT OR ISZERO PUSH2 0x2F5B JUMPI PUSH2 0x2F5B PUSH2 0x2F1C JUMP JUMPDEST PUSH1 0x40 MSTORE SWAP2 SWAP1 POP JUMP JUMPDEST PUSH1 0x0 PUSH8 0xFFFFFFFFFFFFFFFF DUP3 GT ISZERO PUSH2 0x2F7D JUMPI PUSH2 0x2F7D PUSH2 0x2F1C JUMP JUMPDEST POP PUSH1 0x5 SHL PUSH1 0x20 ADD SWAP1 JUMP JUMPDEST PUSH1 0x0 DUP3 PUSH1 0x1F DUP4 ADD SLT PUSH2 0x2F98 JUMPI PUSH1 0x0 DUP1 REVERT JUMPDEST DUP2 CALLDATALOAD PUSH8 0xFFFFFFFFFFFFFFFF DUP2 GT ISZERO PUSH2 0x2FB2 JUMPI PUSH2 0x2FB2 PUSH2 0x2F1C JUMP JUMPDEST PUSH2 0x2FC5 PUSH1 0x1F DUP3 ADD PUSH1 0x1F NOT AND PUSH1 0x20 ADD PUSH2 0x2F32 JUMP JUMPDEST DUP2 DUP2 MSTORE DUP5 PUSH1 0x20 DUP4 DUP7 ADD ADD GT ISZERO PUSH2 0x2FDA JUMPI PUSH1 0x0 DUP1 REVERT JUMPDEST DUP2 PUSH1 0x20 DUP6 ADD PUSH1 0x20 DUP4 ADD CALLDATACOPY PUSH1 0x0 SWAP2 DUP2 ADD PUSH1 0x20 ADD SWAP2 SWAP1 SWAP2 MSTORE SWAP4 SWAP3 POP POP POP JUMP JUMPDEST PUSH1 0x0 DUP3 PUSH1 0x1F DUP4 ADD SLT PUSH2 0x3008 JUMPI PUSH1 0x0 DUP1 REVERT JUMPDEST DUP2 CALLDATALOAD PUSH1 0x20 PUSH2 0x301D PUSH2 0x3018 DUP4 PUSH2 0x2F63 JUMP JUMPDEST PUSH2 0x2F32 JUMP JUMPDEST DUP3 DUP2 MSTORE PUSH1 0x5 SWAP3 SWAP1 SWAP3 SHL DUP5 ADD DUP2 ADD SWAP2 DUP2 DUP2 ADD SWAP1 DUP7 DUP5 GT ISZERO PUSH2 0x303C JUMPI PUSH1 0x0 DUP1 REVERT JUMPDEST DUP3 DUP7 ADD JUMPDEST DUP5 DUP2 LT ISZERO PUSH2 0x307C JUMPI DUP1 CALLDATALOAD PUSH8 0xFFFFFFFFFFFFFFFF DUP2 GT ISZERO PUSH2 0x3060 JUMPI PUSH1 0x0 DUP1 DUP2 REVERT JUMPDEST PUSH2 0x306E DUP10 DUP7 DUP4 DUP12 ADD ADD PUSH2 0x2F87 JUMP JUMPDEST DUP5 MSTORE POP SWAP2 DUP4 ADD SWAP2 DUP4 ADD PUSH2 0x3040 JUMP JUMPDEST POP SWAP7 SWAP6 POP POP POP POP POP POP JUMP JUMPDEST PUSH1 0x0 DUP3 PUSH1 0x1F DUP4 ADD SLT PUSH2 0x3098 JUMPI PUSH1 0x0 DUP1 REVERT JUMPDEST DUP2 CALLDATALOAD PUSH1 0x20 PUSH2 0x30A8 PUSH2 0x3018 DUP4 PUSH2 0x2F63 JUMP JUMPDEST DUP3 DUP2 MSTORE PUSH1 0x5 SWAP3 SWAP1 SWAP3 SHL DUP5 ADD DUP2 ADD SWAP2 DUP2 DUP2 ADD SWAP1 DUP7 DUP5 GT ISZERO PUSH2 0x30C7 JUMPI PUSH1 0x0 DUP1 REVERT JUMPDEST DUP3 DUP7 ADD JUMPDEST DUP5 DUP2 LT ISZERO PUSH2 0x307C JUMPI DUP1 CALLDATALOAD DUP4 MSTORE SWAP2 DUP4 ADD SWAP2 DUP4 ADD PUSH2 0x30CB JUMP JUMPDEST PUSH1 0x0 DUP1 PUSH1 0x0 PUSH1 0x60 DUP5 DUP7 SUB SLT ISZERO PUSH2 0x30F7 JUMPI PUSH1 0x0 DUP1 REVERT JUMPDEST DUP4 CALLDATALOAD SWAP3 POP PUSH1 0x20 DUP5 ADD CALLDATALOAD PUSH8 0xFFFFFFFFFFFFFFFF DUP1 DUP3 GT ISZERO PUSH2 0x3116 JUMPI PUSH1 0x0 DUP1 REVERT JUMPDEST PUSH2 0x3122 DUP8 DUP4 DUP9 ADD PUSH2 0x2FF7 JUMP JUMPDEST SWAP4 POP PUSH1 0x40 DUP7 ADD CALLDATALOAD SWAP2 POP DUP1 DUP3 GT ISZERO PUSH2 0x3138 JUMPI PUSH1 0x0 DUP1 REVERT JUMPDEST POP PUSH2 0x3145 DUP7 DUP3 DUP8 ADD PUSH2 0x3087 JUMP JUMPDEST SWAP2 POP POP SWAP3 POP SWAP3 POP SWAP3 JUMP JUMPDEST PUSH1 0x0 DUP1 PUSH1 0x0 DUP1 PUSH1 0x80 DUP6 DUP8 SUB SLT ISZERO PUSH2 0x3165 JUMPI PUSH1 0x0 DUP1 REVERT JUMPDEST DUP5 CALLDATALOAD SWAP4 POP PUSH1 0x20 DUP6 ADD CALLDATALOAD PUSH8 0xFFFFFFFFFFFFFFFF DUP1 DUP3 GT ISZERO PUSH2 0x3184 JUMPI PUSH1 0x0 DUP1 REVERT JUMPDEST PUSH2 0x3190 DUP9 DUP4 DUP10 ADD PUSH2 0x2FF7 JUMP JUMPDEST SWAP5 POP PUSH1 0x40 DUP8 ADD CALLDATALOAD SWAP2 POP DUP1 DUP3 GT ISZERO PUSH2 0x31A6 JUMPI PUSH1 0x0 DUP1 REVERT JUMPDEST POP PUSH2 0x31B3 DUP8 DUP3 DUP9 ADD PUSH2 0x3087 JUMP JUMPDEST SWAP5 SWAP8 SWAP4 SWAP7 POP SWAP4 SWAP5 PUSH1 0x60 ADD CALLDATALOAD SWAP4 POP POP POP JUMP JUMPDEST PUSH1 0x0 DUP1 PUSH1 0x0 DUP1 PUSH1 0x0 DUP1 PUSH1 0xC0 DUP8 DUP10 SUB SLT ISZERO PUSH2 0x31DD JUMPI PUSH1 0x0 DUP1 REVERT JUMPDEST DUP7 CALLDATALOAD PUSH8 0xFFFFFFFFFFFFFFFF DUP1 DUP3 GT ISZERO PUSH2 0x31F5 JUMPI PUSH1 0x0 DUP1 REVERT JUMPDEST PUSH2 0x3201 DUP11 DUP4 DUP12 ADD PUSH2 0x2F87 JUMP JUMPDEST SWAP8 POP PUSH1 0x20 DUP10 ADD CALLDATALOAD SWAP2 POP DUP1 DUP3 GT ISZERO PUSH2 0x3217 JUMPI PUSH1 0x0 DUP1 REVERT JUMPDEST PUSH2 0x3223 DUP11 DUP4 DUP12 ADD PUSH2 0x2F87 JUMP JUMPDEST SWAP7 POP PUSH1 0x40 DUP10 ADD CALLDATALOAD SWAP2 POP DUP1 DUP3 GT ISZERO PUSH2 0x3239 JUMPI PUSH1 0x0 DUP1 REVERT JUMPDEST PUSH2 0x3245 DUP11 DUP4 DUP12 ADD PUSH2 0x2FF7 JUMP JUMPDEST SWAP6 POP PUSH1 0x60 DUP10 ADD CALLDATALOAD SWAP2 POP DUP1 DUP3 GT ISZERO PUSH2 0x325B JUMPI PUSH1 0x0 DUP1 REVERT JUMPDEST POP PUSH2 0x3268 DUP10 DUP3 DUP11 ADD PUSH2 0x3087 JUMP JUMPDEST SWAP4 POP POP PUSH1 0x80 DUP8 ADD CALLDATALOAD SWAP2 POP PUSH1 0xA0 DUP8 ADD CALLDATALOAD SWAP1 POP SWAP3 SWAP6 POP SWAP3 SWAP6 POP SWAP3 SWAP6 JUMP JUMPDEST PUSH1 0x20 DUP1 DUP3 MSTORE DUP3 MLOAD DUP3 DUP3 ADD DUP2 SWAP1 MSTORE PUSH1 0x0 SWAP2 SWAP1 DUP5 DUP3 ADD SWAP1 PUSH1 0x40 DUP6 ADD SWAP1 DUP5 JUMPDEST DUP2 DUP2 LT ISZERO PUSH2 0x32BB JUMPI DUP4 MLOAD DUP4 MSTORE SWAP3 DUP5 ADD SWAP3 SWAP2 DUP5 ADD SWAP2 PUSH1 0x1 ADD PUSH2 0x329F JUMP JUMPDEST POP SWAP1 SWAP7 SWAP6 POP POP POP POP POP POP JUMP JUMPDEST PUSH1 0x1 DUP2 DUP2 SHR SWAP1 DUP3 AND DUP1 PUSH2 0x32DB JUMPI PUSH1 0x7F DUP3 AND SWAP2 POP JUMPDEST PUSH1 0x20 DUP3 LT DUP2 SUB PUSH2 0xF0F JUMPI PUSH4 0x4E487B71 PUSH1 0xE0 SHL PUSH1 0x0 MSTORE PUSH1 0x22 PUSH1 0x4 MSTORE PUSH1 0x24 PUSH1 0x0 REVERT JUMPDEST PUSH1 0x20 DUP1 DUP3 MSTORE PUSH1 0x1B SWAP1 DUP3 ADD MSTORE PUSH32 0x646F6573206E6F74206861766520796B2070726976696C696765730000000000 PUSH1 0x40 DUP3 ADD MSTORE PUSH1 0x60 ADD SWAP1 JUMP JUMPDEST PUSH1 0x0 PUSH1 0x20 DUP3 DUP5 SUB SLT ISZERO PUSH2 0x3344 JUMPI PUSH1 0x0 DUP1 REVERT JUMPDEST DUP2 MLOAD DUP1 ISZERO ISZERO DUP2 EQ PUSH2 0x2E74 JUMPI PUSH1 0x0 DUP1 REVERT JUMPDEST PUSH1 0x20 DUP1 DUP3 MSTORE PUSH1 0x8 SWAP1 DUP3 ADD MSTORE PUSH8 0x4E6F74206120594B PUSH1 0xC0 SHL PUSH1 0x40 DUP3 ADD MSTORE PUSH1 0x60 ADD SWAP1 JUMP JUMPDEST PUSH4 0x4E487B71 PUSH1 0xE0 SHL PUSH1 0x0 MSTORE PUSH1 0x11 PUSH1 0x4 MSTORE PUSH1 0x24 PUSH1 0x0 REVERT JUMPDEST DUP1 DUP3 MUL DUP2 ISZERO DUP3 DUP3 DIV DUP5 EQ OR PUSH2 0x2C2C JUMPI PUSH2 0x2C2C PUSH2 0x3376 JUMP JUMPDEST DUP1 DUP3 ADD DUP1 DUP3 GT ISZERO PUSH2 0x2C2C JUMPI PUSH2 0x2C2C PUSH2 0x3376 JUMP JUMPDEST DUP2 DUP2 SUB DUP2 DUP2 GT ISZERO PUSH2 0x2C2C JUMPI PUSH2 0x2C2C PUSH2 0x3376 JUMP JUMPDEST PUSH4 0x4E487B71 PUSH1 0xE0 SHL PUSH1 0x0 MSTORE PUSH1 0x32 PUSH1 0x4 MSTORE PUSH1 0x24 PUSH1 0x0 REVERT JUMPDEST PUSH1 0x0 PUSH1 0x1 DUP3 ADD PUSH2 0x33F1 JUMPI PUSH2 0x33F1 PUSH2 0x3376 JUMP JUMPDEST POP PUSH1 0x1 ADD SWAP1 JUMP JUMPDEST PUSH1 0x0 PUSH1 0x20 DUP3 DUP5 SUB SLT ISZERO PUSH2 0x340A JUMPI PUSH1 0x0 DUP1 REVERT JUMPDEST POP MLOAD SWAP2 SWAP1 POP JUMP JUMPDEST PUSH1 0x0 DUP3 PUSH2 0x342E JUMPI PUSH4 0x4E487B71 PUSH1 0xE0 SHL PUSH1 0x0 MSTORE PUSH1 0x12 PUSH1 0x4 MSTORE PUSH1 0x24 PUSH1 0x0 REVERT JUMPDEST POP DIV SWAP1 JUMP JUMPDEST PUSH1 0x0 PUSH1 0x20 DUP3 DUP5 SUB SLT ISZERO PUSH2 0x3445 JUMPI PUSH1 0x0 DUP1 REVERT JUMPDEST DUP2 MLOAD PUSH2 0x2E74 DUP2 PUSH2 0x2E42 JUMP JUMPDEST PUSH1 0x1F DUP3 GT ISZERO PUSH2 0x1316 JUMPI PUSH1 0x0 DUP2 DUP2 MSTORE PUSH1 0x20 DUP2 KECCAK256 PUSH1 0x1F DUP6 ADD PUSH1 0x5 SHR DUP2 ADD PUSH1 0x20 DUP7 LT ISZERO PUSH2 0x3477 JUMPI POP DUP1 JUMPDEST PUSH1 0x1F DUP6 ADD PUSH1 0x5 SHR DUP3 ADD SWAP2 POP JUMPDEST DUP2 DUP2 LT ISZERO PUSH2 0x3496 JUMPI DUP3 DUP2 SSTORE PUSH1 0x1 ADD PUSH2 0x3483 JUMP JUMPDEST POP POP POP POP POP POP JUMP JUMPDEST DUP2 MLOAD PUSH8 0xFFFFFFFFFFFFFFFF DUP2 GT ISZERO PUSH2 0x34B8 JUMPI PUSH2 0x34B8 PUSH2 0x2F1C JUMP JUMPDEST PUSH2 0x34CC DUP2 PUSH2 0x34C6 DUP5 SLOAD PUSH2 0x32C7 JUMP JUMPDEST DUP5 PUSH2 0x3450 JUMP JUMPDEST PUSH1 0x20 DUP1 PUSH1 0x1F DUP4 GT PUSH1 0x1 DUP2 EQ PUSH2 0x3501 JUMPI PUSH1 0x0 DUP5 ISZERO PUSH2 0x34E9 JUMPI POP DUP6 DUP4 ADD MLOAD JUMPDEST PUSH1 0x0 NOT PUSH1 0x3 DUP7 SWAP1 SHL SHR NOT AND PUSH1 0x1 DUP6 SWAP1 SHL OR DUP6 SSTORE PUSH2 0x3496 JUMP JUMPDEST PUSH1 0x0 DUP6 DUP2 MSTORE PUSH1 0x20 DUP2 KECCAK256 PUSH1 0x1F NOT DUP7 AND SWAP2 JUMPDEST DUP3 DUP2 LT ISZERO PUSH2 0x3530 JUMPI DUP9 DUP7 ADD MLOAD DUP3 SSTORE SWAP5 DUP5 ADD SWAP5 PUSH1 0x1 SWAP1 SWAP2 ADD SWAP1 DUP5 ADD PUSH2 0x3511 JUMP JUMPDEST POP DUP6 DUP3 LT ISZERO PUSH2 0x354E JUMPI DUP8 DUP6 ADD MLOAD PUSH1 0x0 NOT PUSH1 0x3 DUP9 SWAP1 SHL PUSH1 0xF8 AND SHR NOT AND DUP2 SSTORE JUMPDEST POP POP POP POP POP PUSH1 0x1 SWAP1 DUP2 SHL ADD SWAP1 SSTORE POP JUMP JUMPDEST PUSH1 0x0 DUP2 SLOAD PUSH2 0x356B DUP2 PUSH2 0x32C7 JUMP JUMPDEST DUP1 DUP6 MSTORE PUSH1 0x20 PUSH1 0x1 DUP4 DUP2 AND DUP1 ISZERO PUSH2 0x3588 JUMPI PUSH1 0x1 DUP2 EQ PUSH2 0x35A2 JUMPI PUSH2 0x35D0 JUMP JUMPDEST PUSH1 0xFF NOT DUP6 AND DUP9 DUP5 ADD MSTORE DUP4 ISZERO ISZERO PUSH1 0x5 SHL DUP9 ADD DUP4 ADD SWAP6 POP PUSH2 0x35D0 JUMP JUMPDEST DUP7 PUSH1 0x0 MSTORE DUP3 PUSH1 0x0 KECCAK256 PUSH1 0x0 JUMPDEST DUP6 DUP2 LT ISZERO PUSH2 0x35C8 JUMPI DUP2 SLOAD DUP11 DUP3 ADD DUP7 ADD MSTORE SWAP1 DUP4 ADD SWAP1 DUP5 ADD PUSH2 0x35AD JUMP JUMPDEST DUP10 ADD DUP5 ADD SWAP7 POP POP JUMPDEST POP POP POP POP POP SWAP3 SWAP2 POP POP JUMP JUMPDEST PUSH1 0x0 DUP2 SLOAD DUP1 DUP5 MSTORE PUSH1 0x20 DUP1 DUP6 ADD SWAP5 POP DUP4 PUSH1 0x0 MSTORE DUP1 PUSH1 0x0 KECCAK256 PUSH1 0x0 JUMPDEST DUP4 DUP2 LT ISZERO PUSH2 0x3610 JUMPI DUP2 SLOAD DUP8 MSTORE SWAP6 DUP3 ADD SWAP6 PUSH1 0x1 SWAP2 DUP3 ADD SWAP2 ADD PUSH2 0x35F4 JUMP JUMPDEST POP SWAP5 SWAP6 SWAP5 POP POP POP POP POP JUMP JUMPDEST PUSH1 0x0 PUSH2 0x100 DUP11 DUP4 MSTORE PUSH1 0x20 PUSH1 0x1 DUP1 PUSH1 0xA0 SHL SUB DUP12 AND DUP2 DUP6 ADD MSTORE DUP2 PUSH1 0x40 DUP6 ADD MSTORE PUSH2 0x3644 DUP3 DUP6 ADD DUP12 PUSH2 0x355E JUMP JUMPDEST SWAP2 POP DUP4 DUP3 SUB PUSH1 0x60 DUP6 ADD MSTORE PUSH2 0x3658 DUP3 DUP11 PUSH2 0x355E JUMP JUMPDEST SWAP2 POP DUP4 DUP3 SUB PUSH1 0x80 DUP6 ADD MSTORE DUP2 DUP9 SLOAD DUP1 DUP5 MSTORE DUP3 DUP5 ADD SWAP2 POP DUP3 DUP2 PUSH1 0x5 SHL DUP6 ADD ADD DUP11 PUSH1 0x0 MSTORE DUP4 PUSH1 0x0 KECCAK256 PUSH1 0x0 JUMPDEST DUP4 DUP2 LT ISZERO PUSH2 0x36AD JUMPI DUP7 DUP4 SUB PUSH1 0x1F NOT ADD DUP6 MSTORE PUSH2 0x369B DUP4 DUP4 PUSH2 0x355E JUMP JUMPDEST SWAP5 DUP7 ADD SWAP5 SWAP3 POP PUSH1 0x1 SWAP2 DUP3 ADD SWAP2 ADD PUSH2 0x3680 JUMP JUMPDEST POP POP DUP7 DUP2 SUB PUSH1 0xA0 DUP9 ADD MSTORE PUSH2 0x36C1 DUP2 DUP12 PUSH2 0x35DB JUMP JUMPDEST SWAP5 POP POP POP POP POP DUP5 PUSH1 0xC0 DUP5 ADD MSTORE DUP3 DUP2 SUB PUSH1 0xE0 DUP5 ADD MSTORE PUSH2 0x2E33 DUP2 DUP6 PUSH2 0x355E JUMP INVALID LOG2 PUSH5 0x6970667358 0x22 SLT KECCAK256 0xC4 SMOD PUSH11 0x6FDEA99D9C2A28FF359BAF 0xBC 0xBC ORIGIN SWAP16 0xE2 PUSH2 0x872D 0xF SDIV AND REVERT ADDRESS 0xA7 0xA7 0xAA CALLDATACOPY PUSH10 0x64736F6C634300081200 CALLER "
		},
		"gasEstimates": {
			"creation": {
				"codeDepositCost": "2820200",
				"executionCost": "infinite",
				"totalCost": "infinite"
			},
			"external": {
				"accept_proposal(uint256)": "24678",
				"createProposal(string,string,string[],uint256[],uint256,uint256)": "infinite",
				"dao_clawback_all_voter()": "infinite",
				"dao_clawback_all_yk()": "infinite",
				"dao_clawback_single_voter(address)": "infinite",
				"dao_clawback_single_yk(address)": "infinite",
				"dao_delagation_multiple_getback_all_voter()": "infinite",
				"dao_delagation_multiple_getback_all_yk()": "infinite",
				"dao_delegation_single_getback_all_voter(address)": "infinite",
				"dao_delegation_single_getback_all_yk(address)": "infinite",
				"dao_delegation_single_getback_amount_voter(address,uint256)": "infinite",
				"dao_delegation_single_getback_amount_yk(address,uint256)": "infinite",
				"dao_description()": "infinite",
				"dao_name()": "infinite",
				"debug_array(uint256)": "infinite",
				"delete_this_dao()": "infinite",
				"getDaoid()": "2382",
				"getProposalDescription()": "infinite",
				"getProposalName()": "infinite",
				"getProposalPower(uint256)": "2556",
				"getProposalType(uint256)": "infinite",
				"getProposalVoteNames(uint256)": "infinite",
				"getProposalVoteNumbers(uint256)": "infinite",
				"has_yk_priviliges(address)": "infinite",
				"imageUrl()": "infinite",
				"iterate_proposals()": "infinite",
				"nextProposalId()": "2385",
				"pending_proposal(uint256)": "24668",
				"proposals(uint256)": "infinite",
				"reject_proposal(uint256)": "24614",
				"send_voter_tokens_to_address_yk(address,uint256)": "infinite",
				"send_voter_tokens_to_address_yk_directly(address,uint256)": "infinite",
				"send_yk_tokens_to_address_yk(address,uint256)": "infinite",
				"send_yk_tokens_to_address_yk_directly(address,uint256)": "infinite",
				"test()": "2469",
				"token_amount_to_be_refunded(address,uint256)": "2717",
				"tokens_not_refunded(address,uint256)": "2662",
				"vote_power(uint256,string[],uint256[])": "infinite",
				"vote_power_weighted(uint256,string[],uint256[],uint256)": "infinite",
				"voter_shares_to_be_given(address)": "2624",
				"voter_token()": "2492",
				"votes(address,uint256)": "2730",
				"withdraw_voter_tokens(uint256)": "infinite",
				"withdraw_yk_tokens(uint256)": "infinite",
				"yk_shares_to_be_given(address)": "2580",
				"yk_token()": "2447"
			},
			"internal": {
				"mint_from_DAO_voter_token(uint256)": "infinite",
				"mint_from_DAO_yk_token(uint256)": "infinite",
				"stringsEquals(string memory,string memory)": "infinite"
			}
		},
		"methodIdentifiers": {
			"accept_proposal(uint256)": "a2ded950",
			"createProposal(string,string,string[],uint256[],uint256,uint256)": "c1bff3e0",
			"dao_clawback_all_voter()": "64944d4d",
			"dao_clawback_all_yk()": "4a9f1575",
			"dao_clawback_single_voter(address)": "a38b39d4",
			"dao_clawback_single_yk(address)": "10742870",
			"dao_delagation_multiple_getback_all_voter()": "7b93e652",
			"dao_delagation_multiple_getback_all_yk()": "bdf52c22",
			"dao_delegation_single_getback_all_voter(address)": "339a9e59",
			"dao_delegation_single_getback_all_yk(address)": "114d7756",
			"dao_delegation_single_getback_amount_voter(address,uint256)": "f08c03bc",
			"dao_delegation_single_getback_amount_yk(address,uint256)": "75fd8377",
			"dao_description()": "9d92c108",
			"dao_name()": "e9376882",
			"debug_array(uint256)": "5d808950",
			"delete_this_dao()": "19f33961",
			"getDaoid()": "4b4967e8",
			"getProposalDescription()": "451abcec",
			"getProposalName()": "62b25fc6",
			"getProposalPower(uint256)": "560d09b6",
			"getProposalType(uint256)": "d978ffba",
			"getProposalVoteNames(uint256)": "8f7c59d0",
			"getProposalVoteNumbers(uint256)": "d25129c4",
			"has_yk_priviliges(address)": "a47eb7cf",
			"imageUrl()": "aba83150",
			"iterate_proposals()": "cf5265d8",
			"nextProposalId()": "2ab09d14",
			"pending_proposal(uint256)": "2c14ed17",
			"proposals(uint256)": "013cf08b",
			"reject_proposal(uint256)": "07e25f27",
			"send_voter_tokens_to_address_yk(address,uint256)": "f9b8a27a",
			"send_voter_tokens_to_address_yk_directly(address,uint256)": "23ee2c83",
			"send_yk_tokens_to_address_yk(address,uint256)": "14e72f43",
			"send_yk_tokens_to_address_yk_directly(address,uint256)": "7e11a556",
			"test()": "f8a8fd6d",
			"token_amount_to_be_refunded(address,uint256)": "a9a2a4a3",
			"tokens_not_refunded(address,uint256)": "e5c28c90",
			"vote_power(uint256,string[],uint256[])": "8661fa70",
			"vote_power_weighted(uint256,string[],uint256[],uint256)": "a44b21ae",
			"voter_shares_to_be_given(address)": "d8c6bc21",
			"voter_token()": "dd3bf85c",
			"votes(address,uint256)": "9f2524ee",
			"withdraw_voter_tokens(uint256)": "42b9d7e4",
			"withdraw_yk_tokens(uint256)": "8a19ab35",
			"yk_shares_to_be_given(address)": "71df5605",
			"yk_token()": "f70e51a7"
		}
	},
	"abi": [
		{
			"inputs": [
				{
					"internalType": "string",
					"name": "_dao_name",
					"type": "string"
				},
				{
					"internalType": "string",
					"name": "_imageUrl",
					"type": "string"
				},
				{
					"internalType": "string",
					"name": "_dao_description",
					"type": "string"
				},
				{
					"internalType": "uint256",
					"name": "_dao_id",
					"type": "uint256"
				},
				{
					"internalType": "address",
					"name": "first_yk",
					"type": "address"
				},
				{
					"internalType": "contract ISUToken",
					"name": "yk_token_in",
					"type": "address"
				},
				{
					"internalType": "contract ISUToken",
					"name": "voter_token_in",
					"type": "address"
				},
				{
					"internalType": "contract DAOFactory",
					"name": "_factory",
					"type": "address"
				}
			],
			"stateMutability": "nonpayable",
			"type": "constructor"
		},
		{
			"anonymous": false,
			"inputs": [
				{
					"indexed": false,
					"internalType": "uint256",
					"name": "id",
					"type": "uint256"
				},
				{
					"indexed": false,
					"internalType": "address",
					"name": "author",
					"type": "address"
				},
				{
					"indexed": false,
					"internalType": "string",
					"name": "name",
					"type": "string"
				},
				{
					"indexed": false,
					"internalType": "string",
					"name": "proposal_description",
					"type": "string"
				},
				{
					"indexed": false,
					"internalType": "string[]",
					"name": "options",
					"type": "string[]"
				},
				{
					"indexed": false,
					"internalType": "uint256[]",
					"name": "num_options",
					"type": "uint256[]"
				},
				{
					"indexed": false,
					"internalType": "uint256",
					"name": "power",
					"type": "uint256"
				},
				{
					"indexed": false,
					"internalType": "string",
					"name": "proposal_info_type",
					"type": "string"
				}
			],
			"name": "proposal_info",
			"type": "event"
		},
		{
			"inputs": [
				{
					"internalType": "uint256",
					"name": "_proposalId",
					"type": "uint256"
				}
			],
			"name": "accept_proposal",
			"outputs": [],
			"stateMutability": "nonpayable",
			"type": "function"
		},
		{
			"inputs": [
				{
					"internalType": "string",
					"name": "name",
					"type": "string"
				},
				{
					"internalType": "string",
					"name": "description",
					"type": "string"
				},
				{
					"internalType": "string[]",
					"name": "_options",
					"type": "string[]"
				},
				{
					"internalType": "uint256[]",
					"name": "_options_num",
					"type": "uint256[]"
				},
				{
					"internalType": "uint256",
					"name": "_power",
					"type": "uint256"
				},
				{
					"internalType": "uint256",
					"name": "_type",
					"type": "uint256"
				}
			],
			"name": "createProposal",
			"outputs": [],
			"stateMutability": "nonpayable",
			"type": "function"
		},
		{
			"inputs": [],
			"name": "dao_clawback_all_voter",
			"outputs": [],
			"stateMutability": "nonpayable",
			"type": "function"
		},
		{
			"inputs": [],
			"name": "dao_clawback_all_yk",
			"outputs": [],
			"stateMutability": "nonpayable",
			"type": "function"
		},
		{
			"inputs": [
				{
					"internalType": "address",
					"name": "from",
					"type": "address"
				}
			],
			"name": "dao_clawback_single_voter",
			"outputs": [],
			"stateMutability": "nonpayable",
			"type": "function"
		},
		{
			"inputs": [
				{
					"internalType": "address",
					"name": "to",
					"type": "address"
				}
			],
			"name": "dao_clawback_single_yk",
			"outputs": [],
			"stateMutability": "nonpayable",
			"type": "function"
		},
		{
			"inputs": [],
			"name": "dao_delagation_multiple_getback_all_voter",
			"outputs": [],
			"stateMutability": "nonpayable",
			"type": "function"
		},
		{
			"inputs": [],
			"name": "dao_delagation_multiple_getback_all_yk",
			"outputs": [],
			"stateMutability": "nonpayable",
			"type": "function"
		},
		{
			"inputs": [
				{
					"internalType": "address",
					"name": "from",
					"type": "address"
				}
			],
			"name": "dao_delegation_single_getback_all_voter",
			"outputs": [],
			"stateMutability": "nonpayable",
			"type": "function"
		},
		{
			"inputs": [
				{
					"internalType": "address",
					"name": "from",
					"type": "address"
				}
			],
			"name": "dao_delegation_single_getback_all_yk",
			"outputs": [],
			"stateMutability": "nonpayable",
			"type": "function"
		},
		{
			"inputs": [
				{
					"internalType": "address",
					"name": "from",
					"type": "address"
				},
				{
					"internalType": "uint256",
					"name": "amount",
					"type": "uint256"
				}
			],
			"name": "dao_delegation_single_getback_amount_voter",
			"outputs": [],
			"stateMutability": "nonpayable",
			"type": "function"
		},
		{
			"inputs": [
				{
					"internalType": "address",
					"name": "from",
					"type": "address"
				},
				{
					"internalType": "uint256",
					"name": "amount",
					"type": "uint256"
				}
			],
			"name": "dao_delegation_single_getback_amount_yk",
			"outputs": [],
			"stateMutability": "nonpayable",
			"type": "function"
		},
		{
			"inputs": [],
			"name": "dao_description",
			"outputs": [
				{
					"internalType": "string",
					"name": "",
					"type": "string"
				}
			],
			"stateMutability": "view",
			"type": "function"
		},
		{
			"inputs": [],
			"name": "dao_name",
			"outputs": [
				{
					"internalType": "string",
					"name": "",
					"type": "string"
				}
			],
			"stateMutability": "view",
			"type": "function"
		},
		{
			"inputs": [
				{
					"internalType": "uint256",
					"name": "",
					"type": "uint256"
				}
			],
			"name": "debug_array",
			"outputs": [
				{
					"internalType": "string",
					"name": "",
					"type": "string"
				}
			],
			"stateMutability": "view",
			"type": "function"
		},
		{
			"inputs": [],
			"name": "delete_this_dao",
			"outputs": [],
			"stateMutability": "nonpayable",
			"type": "function"
		},
		{
			"inputs": [],
			"name": "getDaoid",
			"outputs": [
				{
					"internalType": "uint256",
					"name": "",
					"type": "uint256"
				}
			],
			"stateMutability": "view",
			"type": "function"
		},
		{
			"inputs": [],
			"name": "getProposalDescription",
			"outputs": [
				{
					"internalType": "string[]",
					"name": "",
					"type": "string[]"
				}
			],
			"stateMutability": "view",
			"type": "function"
		},
		{
			"inputs": [],
			"name": "getProposalName",
			"outputs": [
				{
					"internalType": "string[]",
					"name": "",
					"type": "string[]"
				}
			],
			"stateMutability": "view",
			"type": "function"
		},
		{
			"inputs": [
				{
					"internalType": "uint256",
					"name": "proposal_idd",
					"type": "uint256"
				}
			],
			"name": "getProposalPower",
			"outputs": [
				{
					"internalType": "uint256",
					"name": "",
					"type": "uint256"
				}
			],
			"stateMutability": "view",
			"type": "function"
		},
		{
			"inputs": [
				{
					"internalType": "uint256",
					"name": "proposal_idd",
					"type": "uint256"
				}
			],
			"name": "getProposalType",
			"outputs": [
				{
					"internalType": "string",
					"name": "",
					"type": "string"
				}
			],
			"stateMutability": "view",
			"type": "function"
		},
		{
			"inputs": [
				{
					"internalType": "uint256",
					"name": "proposal_idd",
					"type": "uint256"
				}
			],
			"name": "getProposalVoteNames",
			"outputs": [
				{
					"internalType": "string[]",
					"name": "",
					"type": "string[]"
				}
			],
			"stateMutability": "view",
			"type": "function"
		},
		{
			"inputs": [
				{
					"internalType": "uint256",
					"name": "proposal_idd",
					"type": "uint256"
				}
			],
			"name": "getProposalVoteNumbers",
			"outputs": [
				{
					"internalType": "uint256[]",
					"name": "",
					"type": "uint256[]"
				}
			],
			"stateMutability": "view",
			"type": "function"
		},
		{
			"inputs": [
				{
					"internalType": "address",
					"name": "chk",
					"type": "address"
				}
			],
			"name": "has_yk_priviliges",
			"outputs": [
				{
					"internalType": "bool",
					"name": "",
					"type": "bool"
				}
			],
			"stateMutability": "view",
			"type": "function"
		},
		{
			"inputs": [],
			"name": "imageUrl",
			"outputs": [
				{
					"internalType": "string",
					"name": "",
					"type": "string"
				}
			],
			"stateMutability": "view",
			"type": "function"
		},
		{
			"inputs": [],
			"name": "iterate_proposals",
			"outputs": [],
			"stateMutability": "nonpayable",
			"type": "function"
		},
		{
			"inputs": [],
			"name": "nextProposalId",
			"outputs": [
				{
					"internalType": "uint256",
					"name": "",
					"type": "uint256"
				}
			],
			"stateMutability": "view",
			"type": "function"
		},
		{
			"inputs": [
				{
					"internalType": "uint256",
					"name": "_proposalId",
					"type": "uint256"
				}
			],
			"name": "pending_proposal",
			"outputs": [],
			"stateMutability": "nonpayable",
			"type": "function"
		},
		{
			"inputs": [
				{
					"internalType": "uint256",
					"name": "",
					"type": "uint256"
				}
			],
			"name": "proposals",
			"outputs": [
				{
					"internalType": "uint256",
					"name": "id",
					"type": "uint256"
				},
				{
					"internalType": "address",
					"name": "author",
					"type": "address"
				},
				{
					"internalType": "string",
					"name": "name",
					"type": "string"
				},
				{
					"internalType": "string",
					"name": "proposal_description",
					"type": "string"
				},
				{
					"internalType": "uint256",
					"name": "createdAt",
					"type": "uint256"
				},
				{
					"internalType": "enum MyDAO.Status",
					"name": "status",
					"type": "uint8"
				},
				{
					"internalType": "uint256",
					"name": "power",
					"type": "uint256"
				},
				{
					"internalType": "string",
					"name": "proposal_info_type",
					"type": "string"
				}
			],
			"stateMutability": "view",
			"type": "function"
		},
		{
			"inputs": [
				{
					"internalType": "uint256",
					"name": "_proposalId",
					"type": "uint256"
				}
			],
			"name": "reject_proposal",
			"outputs": [],
			"stateMutability": "nonpayable",
			"type": "function"
		},
		{
			"inputs": [
				{
					"internalType": "address",
					"name": "voter_candidate",
					"type": "address"
				},
				{
					"internalType": "uint256",
					"name": "_amount",
					"type": "uint256"
				}
			],
			"name": "send_voter_tokens_to_address_yk",
			"outputs": [],
			"stateMutability": "nonpayable",
			"type": "function"
		},
		{
			"inputs": [
				{
					"internalType": "address",
					"name": "voter_candidate",
					"type": "address"
				},
				{
					"internalType": "uint256",
					"name": "_amount",
					"type": "uint256"
				}
			],
			"name": "send_voter_tokens_to_address_yk_directly",
			"outputs": [],
			"stateMutability": "nonpayable",
			"type": "function"
		},
		{
			"inputs": [
				{
					"internalType": "address",
					"name": "yk_candidate",
					"type": "address"
				},
				{
					"internalType": "uint256",
					"name": "_amount",
					"type": "uint256"
				}
			],
			"name": "send_yk_tokens_to_address_yk",
			"outputs": [],
			"stateMutability": "nonpayable",
			"type": "function"
		},
		{
			"inputs": [
				{
					"internalType": "address",
					"name": "yk_candidate",
					"type": "address"
				},
				{
					"internalType": "uint256",
					"name": "_amount",
					"type": "uint256"
				}
			],
			"name": "send_yk_tokens_to_address_yk_directly",
			"outputs": [],
			"stateMutability": "nonpayable",
			"type": "function"
		},
		{
			"inputs": [],
			"name": "test",
			"outputs": [
				{
					"internalType": "address",
					"name": "",
					"type": "address"
				}
			],
			"stateMutability": "view",
			"type": "function"
		},
		{
			"inputs": [
				{
					"internalType": "address",
					"name": "",
					"type": "address"
				},
				{
					"internalType": "uint256",
					"name": "",
					"type": "uint256"
				}
			],
			"name": "token_amount_to_be_refunded",
			"outputs": [
				{
					"internalType": "uint256",
					"name": "",
					"type": "uint256"
				}
			],
			"stateMutability": "view",
			"type": "function"
		},
		{
			"inputs": [
				{
					"internalType": "address",
					"name": "",
					"type": "address"
				},
				{
					"internalType": "uint256",
					"name": "",
					"type": "uint256"
				}
			],
			"name": "tokens_not_refunded",
			"outputs": [
				{
					"internalType": "bool",
					"name": "",
					"type": "bool"
				}
			],
			"stateMutability": "view",
			"type": "function"
		},
		{
			"inputs": [
				{
					"internalType": "uint256",
					"name": "_proposalId",
					"type": "uint256"
				},
				{
					"internalType": "string[]",
					"name": "_vote",
					"type": "string[]"
				},
				{
					"internalType": "uint256[]",
					"name": "_power",
					"type": "uint256[]"
				}
			],
			"name": "vote_power",
			"outputs": [],
			"stateMutability": "nonpayable",
			"type": "function"
		},
		{
			"inputs": [
				{
					"internalType": "uint256",
					"name": "_proposalId",
					"type": "uint256"
				},
				{
					"internalType": "string[]",
					"name": "_vote",
					"type": "string[]"
				},
				{
					"internalType": "uint256[]",
					"name": "_power",
					"type": "uint256[]"
				},
				{
					"internalType": "uint256",
					"name": "weight",
					"type": "uint256"
				}
			],
			"name": "vote_power_weighted",
			"outputs": [],
			"stateMutability": "nonpayable",
			"type": "function"
		},
		{
			"inputs": [
				{
					"internalType": "address",
					"name": "",
					"type": "address"
				}
			],
			"name": "voter_shares_to_be_given",
			"outputs": [
				{
					"internalType": "uint256",
					"name": "",
					"type": "uint256"
				}
			],
			"stateMutability": "view",
			"type": "function"
		},
		{
			"inputs": [],
			"name": "voter_token",
			"outputs": [
				{
					"internalType": "contract ISUToken",
					"name": "",
					"type": "address"
				}
			],
			"stateMutability": "view",
			"type": "function"
		},
		{
			"inputs": [
				{
					"internalType": "address",
					"name": "",
					"type": "address"
				},
				{
					"internalType": "uint256",
					"name": "",
					"type": "uint256"
				}
			],
			"name": "votes",
			"outputs": [
				{
					"internalType": "bool",
					"name": "",
					"type": "bool"
				}
			],
			"stateMutability": "view",
			"type": "function"
		},
		{
			"inputs": [
				{
					"internalType": "uint256",
					"name": "_amount",
					"type": "uint256"
				}
			],
			"name": "withdraw_voter_tokens",
			"outputs": [],
			"stateMutability": "nonpayable",
			"type": "function"
		},
		{
			"inputs": [
				{
					"internalType": "uint256",
					"name": "_amount",
					"type": "uint256"
				}
			],
			"name": "withdraw_yk_tokens",
			"outputs": [],
			"stateMutability": "nonpayable",
			"type": "function"
		},
		{
			"inputs": [
				{
					"internalType": "address",
					"name": "",
					"type": "address"
				}
			],
			"name": "yk_shares_to_be_given",
			"outputs": [
				{
					"internalType": "uint256",
					"name": "",
					"type": "uint256"
				}
			],
			"stateMutability": "view",
			"type": "function"
		},
		{
			"inputs": [],
			"name": "yk_token",
			"outputs": [
				{
					"internalType": "contract ISUToken",
					"name": "",
					"type": "address"
				}
			],
			"stateMutability": "view",
			"type": "function"
		}
	]
}