{
  "contractName": "MyDAO",
  "abi": [
    {
      "inputs": [
        {
          "internalType": "string",
          "name": "_dao_name",
          "type": "string"
        },
        {
          "internalType": "string",
          "name": "_dao_description",
          "type": "string"
        },
        {
          "internalType": "uint256",
          "name": "_dao_id",
          "type": "uint256"
        },
        {
          "internalType": "address",
          "name": "first_yk",
          "type": "address"
        },
        {
          "internalType": "contract ISUToken",
          "name": "yk_token_in",
          "type": "address"
        },
        {
          "internalType": "contract ISUToken",
          "name": "voter_token_in",
          "type": "address"
        },
        {
          "internalType": "contract DAOFactory",
          "name": "_factory",
          "type": "address"
        }
      ],
      "stateMutability": "nonpayable",
      "type": "constructor"
    },
    {
      "anonymous": false,
      "inputs": [
        {
          "indexed": false,
          "internalType": "uint256",
          "name": "id",
          "type": "uint256"
        },
        {
          "indexed": false,
          "internalType": "address",
          "name": "author",
          "type": "address"
        },
        {
          "indexed": false,
          "internalType": "string",
          "name": "name",
          "type": "string"
        },
        {
          "indexed": false,
          "internalType": "string",
          "name": "proposal_description",
          "type": "string"
        },
        {
          "indexed": false,
          "internalType": "string[]",
          "name": "options",
          "type": "string[]"
        },
        {
          "indexed": false,
          "internalType": "uint256[]",
          "name": "num_options",
          "type": "uint256[]"
        },
        {
          "indexed": false,
          "internalType": "uint256",
          "name": "power",
          "type": "uint256"
        },
        {
          "indexed": false,
          "internalType": "string",
          "name": "proposal_info_type",
          "type": "string"
        }
      ],
      "name": "proposal_info",
      "type": "event"
    },
    {
      "inputs": [],
      "name": "dao_description",
      "outputs": [
        {
          "internalType": "string",
          "name": "",
          "type": "string"
        }
      ],
      "stateMutability": "view",
      "type": "function"
    },
    {
      "inputs": [],
      "name": "dao_name",
      "outputs": [
        {
          "internalType": "string",
          "name": "",
          "type": "string"
        }
      ],
      "stateMutability": "view",
      "type": "function"
    },
    {
      "inputs": [
        {
          "internalType": "uint256",
          "name": "",
          "type": "uint256"
        }
      ],
      "name": "debug_array",
      "outputs": [
        {
          "internalType": "string",
          "name": "",
          "type": "string"
        }
      ],
      "stateMutability": "view",
      "type": "function"
    },
    {
      "inputs": [],
      "name": "nextProposalId",
      "outputs": [
        {
          "internalType": "uint256",
          "name": "",
          "type": "uint256"
        }
      ],
      "stateMutability": "view",
      "type": "function"
    },
    {
      "inputs": [
        {
          "internalType": "uint256",
          "name": "",
          "type": "uint256"
        }
      ],
      "name": "proposals",
      "outputs": [
        {
          "internalType": "uint256",
          "name": "id",
          "type": "uint256"
        },
        {
          "internalType": "address",
          "name": "author",
          "type": "address"
        },
        {
          "internalType": "string",
          "name": "name",
          "type": "string"
        },
        {
          "internalType": "string",
          "name": "proposal_description",
          "type": "string"
        },
        {
          "internalType": "uint256",
          "name": "createdAt",
          "type": "uint256"
        },
        {
          "internalType": "enum MyDAO.Status",
          "name": "status",
          "type": "uint8"
        },
        {
          "internalType": "uint256",
          "name": "power",
          "type": "uint256"
        },
        {
          "internalType": "string",
          "name": "proposal_info_type",
          "type": "string"
        }
      ],
      "stateMutability": "view",
      "type": "function"
    },
    {
      "inputs": [],
      "name": "test",
      "outputs": [
        {
          "internalType": "address",
          "name": "",
          "type": "address"
        }
      ],
      "stateMutability": "view",
      "type": "function"
    },
    {
      "inputs": [
        {
          "internalType": "address",
          "name": "",
          "type": "address"
        },
        {
          "internalType": "uint256",
          "name": "",
          "type": "uint256"
        }
      ],
      "name": "token_amount_to_be_refunded",
      "outputs": [
        {
          "internalType": "uint256",
          "name": "",
          "type": "uint256"
        }
      ],
      "stateMutability": "view",
      "type": "function"
    },
    {
      "inputs": [
        {
          "internalType": "address",
          "name": "",
          "type": "address"
        },
        {
          "internalType": "uint256",
          "name": "",
          "type": "uint256"
        }
      ],
      "name": "tokens_not_refunded",
      "outputs": [
        {
          "internalType": "bool",
          "name": "",
          "type": "bool"
        }
      ],
      "stateMutability": "view",
      "type": "function"
    },
    {
      "inputs": [
        {
          "internalType": "address",
          "name": "",
          "type": "address"
        }
      ],
      "name": "voter_shares_to_be_given",
      "outputs": [
        {
          "internalType": "uint256",
          "name": "",
          "type": "uint256"
        }
      ],
      "stateMutability": "view",
      "type": "function"
    },
    {
      "inputs": [],
      "name": "voter_token",
      "outputs": [
        {
          "internalType": "contract ISUToken",
          "name": "",
          "type": "address"
        }
      ],
      "stateMutability": "view",
      "type": "function"
    },
    {
      "inputs": [
        {
          "internalType": "address",
          "name": "",
          "type": "address"
        },
        {
          "internalType": "uint256",
          "name": "",
          "type": "uint256"
        }
      ],
      "name": "votes",
      "outputs": [
        {
          "internalType": "bool",
          "name": "",
          "type": "bool"
        }
      ],
      "stateMutability": "view",
      "type": "function"
    },
    {
      "inputs": [
        {
          "internalType": "address",
          "name": "",
          "type": "address"
        }
      ],
      "name": "yk_shares_to_be_given",
      "outputs": [
        {
          "internalType": "uint256",
          "name": "",
          "type": "uint256"
        }
      ],
      "stateMutability": "view",
      "type": "function"
    },
    {
      "inputs": [],
      "name": "yk_token",
      "outputs": [
        {
          "internalType": "contract ISUToken",
          "name": "",
          "type": "address"
        }
      ],
      "stateMutability": "view",
      "type": "function"
    },
    {
      "inputs": [],
      "name": "iterate_proposals",
      "outputs": [],
      "stateMutability": "nonpayable",
      "type": "function"
    },
    {
      "inputs": [
        {
          "internalType": "uint256",
          "name": "_proposalId",
          "type": "uint256"
        }
      ],
      "name": "accept_proposal",
      "outputs": [],
      "stateMutability": "nonpayable",
      "type": "function"
    },
    {
      "inputs": [
        {
          "internalType": "uint256",
          "name": "_proposalId",
          "type": "uint256"
        }
      ],
      "name": "reject_proposal",
      "outputs": [],
      "stateMutability": "nonpayable",
      "type": "function"
    },
    {
      "inputs": [
        {
          "internalType": "uint256",
          "name": "_proposalId",
          "type": "uint256"
        }
      ],
      "name": "pending_proposal",
      "outputs": [],
      "stateMutability": "nonpayable",
      "type": "function"
    },
    {
      "inputs": [
        {
          "internalType": "uint256",
          "name": "_amount",
          "type": "uint256"
        }
      ],
      "name": "withdraw_voter_tokens",
      "outputs": [],
      "stateMutability": "nonpayable",
      "type": "function"
    },
    {
      "inputs": [
        {
          "internalType": "uint256",
          "name": "_amount",
          "type": "uint256"
        }
      ],
      "name": "withdraw_yk_tokens",
      "outputs": [],
      "stateMutability": "nonpayable",
      "type": "function"
    },
    {
      "inputs": [
        {
          "internalType": "address",
          "name": "yk_candidate",
          "type": "address"
        },
        {
          "internalType": "uint256",
          "name": "_amount",
          "type": "uint256"
        }
      ],
      "name": "send_yk_tokens_to_address_yk",
      "outputs": [],
      "stateMutability": "nonpayable",
      "type": "function"
    },
    {
      "inputs": [
        {
          "internalType": "address",
          "name": "yk_candidate",
          "type": "address"
        },
        {
          "internalType": "uint256",
          "name": "_amount",
          "type": "uint256"
        }
      ],
      "name": "send_yk_tokens_to_address_yk_directly",
      "outputs": [],
      "stateMutability": "nonpayable",
      "type": "function"
    },
    {
      "inputs": [
        {
          "internalType": "address",
          "name": "voter_candidate",
          "type": "address"
        },
        {
          "internalType": "uint256",
          "name": "_amount",
          "type": "uint256"
        }
      ],
      "name": "send_voter_tokens_to_address_yk",
      "outputs": [],
      "stateMutability": "nonpayable",
      "type": "function"
    },
    {
      "inputs": [
        {
          "internalType": "address",
          "name": "voter_candidate",
          "type": "address"
        },
        {
          "internalType": "uint256",
          "name": "_amount",
          "type": "uint256"
        }
      ],
      "name": "send_voter_tokens_to_address_yk_directly",
      "outputs": [],
      "stateMutability": "nonpayable",
      "type": "function"
    },
    {
      "inputs": [
        {
          "internalType": "string",
          "name": "name",
          "type": "string"
        },
        {
          "internalType": "string",
          "name": "description",
          "type": "string"
        },
        {
          "internalType": "string[]",
          "name": "_options",
          "type": "string[]"
        },
        {
          "internalType": "uint256[]",
          "name": "_options_num",
          "type": "uint256[]"
        },
        {
          "internalType": "uint256",
          "name": "_power",
          "type": "uint256"
        },
        {
          "internalType": "uint256",
          "name": "_type",
          "type": "uint256"
        }
      ],
      "name": "createProposal",
      "outputs": [],
      "stateMutability": "nonpayable",
      "type": "function"
    },
    {
      "inputs": [
        {
          "internalType": "uint256",
          "name": "_proposalId",
          "type": "uint256"
        },
        {
          "internalType": "string[]",
          "name": "_vote",
          "type": "string[]"
        },
        {
          "internalType": "uint256[]",
          "name": "_power",
          "type": "uint256[]"
        }
      ],
      "name": "vote_power",
      "outputs": [],
      "stateMutability": "nonpayable",
      "type": "function"
    },
    {
      "inputs": [
        {
          "internalType": "uint256",
          "name": "_proposalId",
          "type": "uint256"
        },
        {
          "internalType": "string[]",
          "name": "_vote",
          "type": "string[]"
        },
        {
          "internalType": "uint256[]",
          "name": "_power",
          "type": "uint256[]"
        },
        {
          "internalType": "uint256",
          "name": "weight",
          "type": "uint256"
        }
      ],
      "name": "vote_power_weighted",
      "outputs": [],
      "stateMutability": "nonpayable",
      "type": "function"
    },
    {
      "inputs": [],
      "name": "getProposalName",
      "outputs": [
        {
          "internalType": "string[]",
          "name": "",
          "type": "string[]"
        }
      ],
      "stateMutability": "view",
      "type": "function"
    },
    {
      "inputs": [],
      "name": "getDaoid",
      "outputs": [
        {
          "internalType": "uint256",
          "name": "",
          "type": "uint256"
        }
      ],
      "stateMutability": "view",
      "type": "function"
    },
    {
      "inputs": [
        {
          "internalType": "address",
          "name": "chk",
          "type": "address"
        }
      ],
      "name": "has_yk_priviliges",
      "outputs": [
        {
          "internalType": "bool",
          "name": "",
          "type": "bool"
        }
      ],
      "stateMutability": "view",
      "type": "function"
    },
    {
      "inputs": [],
      "name": "getProposalDescription",
      "outputs": [
        {
          "internalType": "string[]",
          "name": "",
          "type": "string[]"
        }
      ],
      "stateMutability": "view",
      "type": "function"
    },
    {
      "inputs": [
        {
          "internalType": "uint256",
          "name": "proposal_idd",
          "type": "uint256"
        }
      ],
      "name": "getProposalVoteNames",
      "outputs": [
        {
          "internalType": "string[]",
          "name": "",
          "type": "string[]"
        }
      ],
      "stateMutability": "view",
      "type": "function"
    },
    {
      "inputs": [
        {
          "internalType": "uint256",
          "name": "proposal_idd",
          "type": "uint256"
        }
      ],
      "name": "getProposalVoteNumbers",
      "outputs": [
        {
          "internalType": "uint256[]",
          "name": "",
          "type": "uint256[]"
        }
      ],
      "stateMutability": "view",
      "type": "function"
    },
    {
      "inputs": [
        {
          "internalType": "uint256",
          "name": "proposal_idd",
          "type": "uint256"
        }
      ],
      "name": "getProposalPower",
      "outputs": [
        {
          "internalType": "uint256",
          "name": "",
          "type": "uint256"
        }
      ],
      "stateMutability": "view",
      "type": "function"
    },
    {
      "inputs": [
        {
          "internalType": "uint256",
          "name": "proposal_idd",
          "type": "uint256"
        }
      ],
      "name": "getProposalType",
      "outputs": [
        {
          "internalType": "string",
          "name": "",
          "type": "string"
        }
      ],
      "stateMutability": "view",
      "type": "function"
    },
    {
      "inputs": [
        {
          "internalType": "address",
          "name": "from",
          "type": "address"
        },
        {
          "internalType": "uint256",
          "name": "amount",
          "type": "uint256"
        }
      ],
      "name": "dao_delegation_single_getback_amount_voter",
      "outputs": [],
      "stateMutability": "nonpayable",
      "type": "function"
    },
    {
      "inputs": [
        {
          "internalType": "address",
          "name": "from",
          "type": "address"
        }
      ],
      "name": "dao_delegation_single_getback_all_voter",
      "outputs": [],
      "stateMutability": "nonpayable",
      "type": "function"
    },
    {
      "inputs": [],
      "name": "dao_delagation_multiple_getback_all_voter",
      "outputs": [],
      "stateMutability": "nonpayable",
      "type": "function"
    },
    {
      "inputs": [
        {
          "internalType": "address",
          "name": "from",
          "type": "address"
        }
      ],
      "name": "dao_clawback_single_voter",
      "outputs": [],
      "stateMutability": "nonpayable",
      "type": "function"
    },
    {
      "inputs": [],
      "name": "dao_clawback_all_voter",
      "outputs": [],
      "stateMutability": "nonpayable",
      "type": "function"
    },
    {
      "inputs": [
        {
          "internalType": "address",
          "name": "from",
          "type": "address"
        },
        {
          "internalType": "uint256",
          "name": "amount",
          "type": "uint256"
        }
      ],
      "name": "dao_delegation_single_getback_amount_yk",
      "outputs": [],
      "stateMutability": "nonpayable",
      "type": "function"
    },
    {
      "inputs": [
        {
          "internalType": "address",
          "name": "from",
          "type": "address"
        }
      ],
      "name": "dao_delegation_single_getback_all_yk",
      "outputs": [],
      "stateMutability": "nonpayable",
      "type": "function"
    },
    {
      "inputs": [],
      "name": "dao_delagation_multiple_getback_all_yk",
      "outputs": [],
      "stateMutability": "nonpayable",
      "type": "function"
    },
    {
      "inputs": [
        {
          "internalType": "address",
          "name": "to",
          "type": "address"
        }
      ],
      "name": "dao_clawback_single_yk",
      "outputs": [],
      "stateMutability": "nonpayable",
      "type": "function"
    },
    {
      "inputs": [],
      "name": "dao_clawback_all_yk",
      "outputs": [],
      "stateMutability": "nonpayable",
      "type": "function"
    },
    {
      "inputs": [],
      "name": "delete_this_dao",
      "outputs": [],
      "stateMutability": "nonpayable",
      "type": "function"
    }
  ],
  "bytecode": "0x60806040523480156200001157600080fd5b506040516200618638038062006186833981810160405281019062000037919062000577565b80600560006101000a81548173ffffffffffffffffffffffffffffffffffffffff021916908373ffffffffffffffffffffffffffffffffffffffff16021790555086600090805190602001906200009092919062000200565b50846003819055508560019080519060200190620000b092919062000200565b5082600d60006101000a81548173ffffffffffffffffffffffffffffffffffffffff021916908373ffffffffffffffffffffffffffffffffffffffff16021790555081600c60006101000a81548173ffffffffffffffffffffffffffffffffffffffff021916908373ffffffffffffffffffffffffffffffffffffffff160217905550670de0b6b3a7640000600b60008673ffffffffffffffffffffffffffffffffffffffff1673ffffffffffffffffffffffffffffffffffffffff16815260200190815260200160002060008282546200018c919062000697565b92505081905550670de0b6b3a7640000600a60008673ffffffffffffffffffffffffffffffffffffffff1673ffffffffffffffffffffffffffffffffffffffff1681526020019081526020016000206000828254620001ec919062000697565b925050819055505050505050505062000758565b8280546200020e9062000723565b90600052602060002090601f0160209004810192826200023257600085556200027e565b82601f106200024d57805160ff19168380011785556200027e565b828001600101855582156200027e579182015b828111156200027d57825182559160200191906001019062000260565b5b5090506200028d919062000291565b5090565b5b80821115620002ac57600081600090555060010162000292565b5090565b6000604051905090565b600080fd5b600080fd5b600080fd5b600080fd5b6000601f19601f8301169050919050565b7f4e487b7100000000000000000000000000000000000000000000000000000000600052604160045260246000fd5b6200031982620002ce565b810181811067ffffffffffffffff821117156200033b576200033a620002df565b5b80604052505050565b600062000350620002b0565b90506200035e82826200030e565b919050565b600067ffffffffffffffff821115620003815762000380620002df565b5b6200038c82620002ce565b9050602081019050919050565b60005b83811015620003b95780820151818401526020810190506200039c565b83811115620003c9576000848401525b50505050565b6000620003e6620003e08462000363565b62000344565b905082815260208101848484011115620004055762000404620002c9565b5b6200041284828562000399565b509392505050565b600082601f830112620004325762000431620002c4565b5b815162000444848260208601620003cf565b91505092915050565b6000819050919050565b62000462816200044d565b81146200046e57600080fd5b50565b600081519050620004828162000457565b92915050565b600073ffffffffffffffffffffffffffffffffffffffff82169050919050565b6000620004b58262000488565b9050919050565b620004c781620004a8565b8114620004d357600080fd5b50565b600081519050620004e781620004bc565b92915050565b6000620004fa82620004a8565b9050919050565b6200050c81620004ed565b81146200051857600080fd5b50565b6000815190506200052c8162000501565b92915050565b60006200053f82620004a8565b9050919050565b620005518162000532565b81146200055d57600080fd5b50565b600081519050620005718162000546565b92915050565b600080600080600080600060e0888a031215620005995762000598620002ba565b5b600088015167ffffffffffffffff811115620005ba57620005b9620002bf565b5b620005c88a828b016200041a565b975050602088015167ffffffffffffffff811115620005ec57620005eb620002bf565b5b620005fa8a828b016200041a565b96505060406200060d8a828b0162000471565b9550506060620006208a828b01620004d6565b9450506080620006338a828b016200051b565b93505060a0620006468a828b016200051b565b92505060c0620006598a828b0162000560565b91505092959891949750929550565b7f4e487b7100000000000000000000000000000000000000000000000000000000600052601160045260246000fd5b6000620006a4826200044d565b9150620006b1836200044d565b9250827fffffffffffffffffffffffffffffffffffffffffffffffffffffffffffffffff03821115620006e957620006e862000668565b5b828201905092915050565b7f4e487b7100000000000000000000000000000000000000000000000000000000600052602260045260246000fd5b600060028204905060018216806200073c57607f821691505b602082108103620007525762000751620006f4565b5b50919050565b615a1e80620007686000396000f3fe608060405234801561001057600080fd5b506004361061027f5760003560e01c80638661fa701161015c578063c1bff3e0116100ce578063e5c28c9011610087578063e5c28c901461074b578063e93768821461077b578063f08c03bc14610799578063f70e51a7146107b5578063f8a8fd6d146107d3578063f9b8a27a146107f15761027f565b8063c1bff3e014610677578063cf5265d814610693578063d25129c41461069d578063d8c6bc21146106cd578063d978ffba146106fd578063dd3bf85c1461072d5761027f565b8063a2ded95011610120578063a2ded950146105b9578063a38b39d4146105d5578063a44b21ae146105f1578063a47eb7cf1461060d578063a9a2a4a31461063d578063bdf52c221461066d5761027f565b80638661fa70146105035780638a19ab351461051f5780638f7c59d01461053b5780639d92c1081461056b5780639f2524ee146105895761027f565b8063451abcec116101f557806362b25fc6116101b957806362b25fc61461046957806364944d4d1461048757806371df56051461049157806375fd8377146104c15780637b93e652146104dd5780637e11a556146104e75761027f565b8063451abcec146103c35780634a9f1575146103e15780634b4967e8146103eb578063560d09b6146104095780635d808950146104395761027f565b806319f339611161024757806319f339611461032b57806323ee2c83146103355780632ab09d14146103515780632c14ed171461036f578063339a9e591461038b57806342b9d7e4146103a75761027f565b8063013cf08b1461028457806307e25f27146102bb57806310742870146102d7578063114d7756146102f357806314e72f431461030f575b600080fd5b61029e600480360381019061029991906140fc565b61080d565b6040516102b2989796959493929190614289565b60405180910390f35b6102d560048036038101906102d091906140fc565b610a1a565b005b6102f160048036038101906102ec9190614348565b610a5c565b005b61030d60048036038101906103089190614348565b610b46565b005b61032960048036038101906103249190614375565b610bea565b005b610333610c9f565b005b61034f600480360381019061034a9190614375565b610ef8565b005b610359611001565b60405161036691906143b5565b60405180910390f35b610389600480360381019061038491906140fc565b611007565b005b6103a560048036038101906103a09190614348565b611049565b005b6103c160048036038101906103bc91906140fc565b6110ed565b005b6103cb6112ab565b6040516103d891906144dc565b60405180910390f35b6103e96113e6565b005b6103f36114c4565b60405161040091906143b5565b60405180910390f35b610423600480360381019061041e91906140fc565b6114ce565b60405161043091906143b5565b60405180910390f35b610453600480360381019061044e91906140fc565b6114f7565b60405161046091906144fe565b60405180910390f35b6104716115a3565b60405161047e91906144dc565b60405180910390f35b61048f6116de565b005b6104ab60048036038101906104a69190614348565b6117bc565b6040516104b891906143b5565b60405180910390f35b6104db60048036038101906104d69190614375565b6117d4565b005b6104e5611959565b005b61050160048036038101906104fc9190614375565b6119fa565b005b61051d600480360381019061051891906147fe565b611b03565b005b610539600480360381019061053491906140fc565b61216b565b005b610555600480360381019061055091906140fc565b612316565b60405161056291906144dc565b60405180910390f35b61057361249d565b60405161058091906144fe565b60405180910390f35b6105a3600480360381019061059e9190614375565b61252b565b6040516105b091906148a4565b60405180910390f35b6105d360048036038101906105ce91906140fc565b61255a565b005b6105ef60048036038101906105ea9190614348565b61259c565b005b61060b600480360381019061060691906148bf565b612686565b005b61062760048036038101906106229190614348565b612deb565b60405161063491906148a4565b60405180910390f35b61065760048036038101906106529190614375565b6131c0565b60405161066491906143b5565b60405180910390f35b6106756131e5565b005b610691600480360381019061068c919061495e565b613286565b005b61069b6135b7565b005b6106b760048036038101906106b291906140fc565b6137c8565b6040516106c49190614b19565b60405180910390f35b6106e760048036038101906106e29190614348565b6138c3565b6040516106f491906143b5565b60405180910390f35b610717600480360381019061071291906140fc565b6138db565b60405161072491906144fe565b60405180910390f35b610735613989565b6040516107429190614b9a565b60405180910390f35b61076560048036038101906107609190614375565b6139af565b60405161077291906148a4565b60405180910390f35b6107836139de565b60405161079091906144fe565b60405180910390f35b6107b360048036038101906107ae9190614375565b613a6c565b005b6107bd613bf1565b6040516107ca9190614b9a565b60405180910390f35b6107db613c17565b6040516107e89190614bb5565b60405180910390f35b61080b60048036038101906108069190614375565b613c3d565b005b60066020528060005260406000206000915090508060000154908060010160009054906101000a900473ffffffffffffffffffffffffffffffffffffffff169080600201805461085c90614bff565b80601f016020809104026020016040519081016040528092919081815260200182805461088890614bff565b80156108d55780601f106108aa576101008083540402835291602001916108d5565b820191906000526020600020905b8154815290600101906020018083116108b857829003601f168201915b5050505050908060030180546108ea90614bff565b80601f016020809104026020016040519081016040528092919081815260200182805461091690614bff565b80156109635780601f1061093857610100808354040283529160200191610963565b820191906000526020600020905b81548152906001019060200180831161094657829003601f168201915b5050505050908060040154908060070160009054906101000a900460ff169080600801549080600901805461099790614bff565b80601f01602080910402602001604051908101604052809291908181526020018280546109c390614bff565b8015610a105780601f106109e557610100808354040283529160200191610a10565b820191906000526020600020905b8154815290600101906020018083116109f357829003601f168201915b5050505050905088565b60016006600083815260200190815260200160002060070160006101000a81548160ff02191690836002811115610a5457610a53614212565b5b021790555050565b610a6533612deb565b610aa4576040517f08c379a0000000000000000000000000000000000000000000000000000000008152600401610a9b90614c7c565b60405180910390fd5b600d60009054906101000a900473ffffffffffffffffffffffffffffffffffffffff1673ffffffffffffffffffffffffffffffffffffffff16635dc73582826040518263ffffffff1660e01b8152600401610aff9190614bb5565b6020604051808303816000875af1158015610b1e573d6000803e3d6000fd5b505050506040513d601f19601f82011682018060405250810190610b429190614cc8565b5050565b600d60009054906101000a900473ffffffffffffffffffffffffffffffffffffffff1673ffffffffffffffffffffffffffffffffffffffff1663b1d1ea9782336040518363ffffffff1660e01b8152600401610ba3929190614cf5565b6020604051808303816000875af1158015610bc2573d6000803e3d6000fd5b505050506040513d601f19601f82011682018060405250810190610be69190614cc8565b5050565b610bf333612deb565b610c32576040517f08c379a0000000000000000000000000000000000000000000000000000000008152600401610c2990614d6a565b60405180910390fd5b670de0b6b3a764000081610c469190614db9565b600b60008473ffffffffffffffffffffffffffffffffffffffff1673ffffffffffffffffffffffffffffffffffffffff1681526020019081526020016000206000828254610c949190614e13565b925050819055505050565b610ca833612deb565b80610d005750600560009054906101000a900473ffffffffffffffffffffffffffffffffffffffff1673ffffffffffffffffffffffffffffffffffffffff163373ffffffffffffffffffffffffffffffffffffffff16145b610d3f576040517f08c379a0000000000000000000000000000000000000000000000000000000008152600401610d3690614edb565b60405180910390fd5b600c60009054906101000a900473ffffffffffffffffffffffffffffffffffffffff1673ffffffffffffffffffffffffffffffffffffffff1663c3b639b66040518163ffffffff1660e01b81526004016020604051808303816000875af1158015610dae573d6000803e3d6000fd5b505050506040513d601f19601f82011682018060405250810190610dd29190614cc8565b50600560009054906101000a900473ffffffffffffffffffffffffffffffffffffffff1673ffffffffffffffffffffffffffffffffffffffff166383bef7a930336040518363ffffffff1660e01b8152600401610e30929190614f1c565b600060405180830381600087803b158015610e4a57600080fd5b505af1158015610e5e573d6000803e3d6000fd5b50505050600d60009054906101000a900473ffffffffffffffffffffffffffffffffffffffff1673ffffffffffffffffffffffffffffffffffffffff1663c3b639b66040518163ffffffff1660e01b81526004016020604051808303816000875af1158015610ed1573d6000803e3d6000fd5b505050506040513d601f19601f82011682018060405250810190610ef59190614cc8565b50565b610f0133612deb565b610f40576040517f08c379a0000000000000000000000000000000000000000000000000000000008152600401610f3790614d6a565b60405180910390fd5b600c60009054906101000a900473ffffffffffffffffffffffffffffffffffffffff1673ffffffffffffffffffffffffffffffffffffffff16638da9e67783670de0b6b3a764000084610f939190614db9565b6040518363ffffffff1660e01b8152600401610fb0929190614f45565b6020604051808303816000875af1158015610fcf573d6000803e3d6000fd5b505050506040513d601f19601f82011682018060405250810190610ff39190614cc8565b50610ffd81613cf2565b5050565b600e5481565b60026006600083815260200190815260200160002060070160006101000a81548160ff0219169083600281111561104157611040614212565b5b021790555050565b600c60009054906101000a900473ffffffffffffffffffffffffffffffffffffffff1673ffffffffffffffffffffffffffffffffffffffff1663b1d1ea9782336040518363ffffffff1660e01b81526004016110a6929190614cf5565b6020604051808303816000875af11580156110c5573d6000803e3d6000fd5b505050506040513d601f19601f820116820180604052508101906110e99190614cc8565b5050565b670de0b6b3a7640000816111019190614db9565b600a60003373ffffffffffffffffffffffffffffffffffffffff1673ffffffffffffffffffffffffffffffffffffffff168152602001908152602001600020541015611182576040517f08c379a000000000000000000000000000000000000000000000000000000000815260040161117990614fba565b60405180910390fd5b670de0b6b3a7640000816111969190614db9565b600a60003373ffffffffffffffffffffffffffffffffffffffff1673ffffffffffffffffffffffffffffffffffffffff16815260200190815260200160002060008282546111e49190614fda565b92505081905550600c60009054906101000a900473ffffffffffffffffffffffffffffffffffffffff1673ffffffffffffffffffffffffffffffffffffffff16638da9e67733670de0b6b3a76400008461123e9190614db9565b6040518363ffffffff1660e01b815260040161125b929190614f45565b6020604051808303816000875af115801561127a573d6000803e3d6000fd5b505050506040513d601f19601f8201168201806040525081019061129e9190614cc8565b506112a881613cf2565b50565b60606000600e5467ffffffffffffffff8111156112cb576112ca614525565b5b6040519080825280602002602001820160405280156112fe57816020015b60608152602001906001900390816112e95790505b50905060005b600e548110156113de5760066000828152602001908152602001600020600301805461132f90614bff565b80601f016020809104026020016040519081016040528092919081815260200182805461135b90614bff565b80156113a85780601f1061137d576101008083540402835291602001916113a8565b820191906000526020600020905b81548152906001019060200180831161138b57829003601f168201915b50505050508282815181106113c0576113bf61500e565b5b602002602001018190525080806113d69061503d565b915050611304565b508091505090565b6113ef33612deb565b61142e576040517f08c379a000000000000000000000000000000000000000000000000000000000815260040161142590614c7c565b60405180910390fd5b600d60009054906101000a900473ffffffffffffffffffffffffffffffffffffffff1673ffffffffffffffffffffffffffffffffffffffff1663c3b639b66040518163ffffffff1660e01b81526004016020604051808303816000875af115801561149d573d6000803e3d6000fd5b505050506040513d601f19601f820116820180604052508101906114c19190614cc8565b50565b6000600354905090565b600080600090506006600084815260200190815260200160002060080154905080915050919050565b6002818154811061150757600080fd5b90600052602060002001600091509050805461152290614bff565b80601f016020809104026020016040519081016040528092919081815260200182805461154e90614bff565b801561159b5780601f106115705761010080835404028352916020019161159b565b820191906000526020600020905b81548152906001019060200180831161157e57829003601f168201915b505050505081565b60606000600e5467ffffffffffffffff8111156115c3576115c2614525565b5b6040519080825280602002602001820160405280156115f657816020015b60608152602001906001900390816115e15790505b50905060005b600e548110156116d65760066000828152602001908152602001600020600201805461162790614bff565b80601f016020809104026020016040519081016040528092919081815260200182805461165390614bff565b80156116a05780601f10611675576101008083540402835291602001916116a0565b820191906000526020600020905b81548152906001019060200180831161168357829003601f168201915b50505050508282815181106116b8576116b761500e565b5b602002602001018190525080806116ce9061503d565b9150506115fc565b508091505090565b6116e733612deb565b611726576040517f08c379a000000000000000000000000000000000000000000000000000000000815260040161171d90614c7c565b60405180910390fd5b600c60009054906101000a900473ffffffffffffffffffffffffffffffffffffffff1673ffffffffffffffffffffffffffffffffffffffff1663c3b639b66040518163ffffffff1660e01b81526004016020604051808303816000875af1158015611795573d6000803e3d6000fd5b505050506040513d601f19601f820116820180604052508101906117b99190614cc8565b50565b600b6020528060005260406000206000915090505481565b600d60009054906101000a900473ffffffffffffffffffffffffffffffffffffffff1673ffffffffffffffffffffffffffffffffffffffff1663a95bbced836040518263ffffffff1660e01b815260040161182f9190614bb5565b602060405180830381865afa15801561184c573d6000803e3d6000fd5b505050506040513d601f19601f82011682018060405250810190611870919061509a565b8111156118b2576040517f08c379a00000000000000000000000000000000000000000000000000000000081526004016118a990615113565b60405180910390fd5b600d60009054906101000a900473ffffffffffffffffffffffffffffffffffffffff1673ffffffffffffffffffffffffffffffffffffffff1663490169348333846040518463ffffffff1660e01b815260040161191193929190615133565b6020604051808303816000875af1158015611930573d6000803e3d6000fd5b505050506040513d601f19601f820116820180604052508101906119549190614cc8565b505050565b600c60009054906101000a900473ffffffffffffffffffffffffffffffffffffffff1673ffffffffffffffffffffffffffffffffffffffff1663396473f7336040518263ffffffff1660e01b81526004016119b49190614bb5565b6020604051808303816000875af11580156119d3573d6000803e3d6000fd5b505050506040513d601f19601f820116820180604052508101906119f79190614cc8565b50565b611a0333612deb565b611a42576040517f08c379a0000000000000000000000000000000000000000000000000000000008152600401611a3990614d6a565b60405180910390fd5b600d60009054906101000a900473ffffffffffffffffffffffffffffffffffffffff1673ffffffffffffffffffffffffffffffffffffffff16638da9e67783670de0b6b3a764000084611a959190614db9565b6040518363ffffffff1660e01b8152600401611ab2929190614f45565b6020604051808303816000875af1158015611ad1573d6000803e3d6000fd5b505050506040513d601f19601f82011682018060405250810190611af59190614cc8565b50611aff81613d86565b5050565b600060066000858152602001908152602001600020905060001515600760003373ffffffffffffffffffffffffffffffffffffffff1673ffffffffffffffffffffffffffffffffffffffff168152602001908152602001600020600086815260200190815260200160002060009054906101000a900460ff16151514611bbe576040517f08c379a0000000000000000000000000000000000000000000000000000000008152600401611bb5906151b6565b60405180910390fd5b6000600c60009054906101000a900473ffffffffffffffffffffffffffffffffffffffff1673ffffffffffffffffffffffffffffffffffffffff166370a08231336040518263ffffffff1660e01b8152600401611c1b9190614bb5565b602060405180830381865afa158015611c38573d6000803e3d6000fd5b505050506040513d601f19601f82011682018060405250810190611c5c919061509a565b11611c9c576040517f08c379a0000000000000000000000000000000000000000000000000000000008152600401611c9390615248565b60405180910390fd5b62093a808160040154611caf9190614e13565b421115611cf1576040517f08c379a0000000000000000000000000000000000000000000000000000000008152600401611ce8906152b4565b60405180910390fd5b600280811115611d0457611d03614212565b5b6006600086815260200190815260200160002060070160009054906101000a900460ff166002811115611d3a57611d39614212565b5b14611d7a576040517f08c379a0000000000000000000000000000000000000000000000000000000008152600401611d7190615320565b60405180910390fd5b6000805b8351811015611dc257838181518110611d9a57611d9961500e565b5b602002602001015182611dad9190614e13565b91508080611dba9061503d565b915050611d7e565b508160080154811115611dd457600080fd5b6000805b8360050180549050811015611ef05760005b8651811015611edc57611ebf856005018381548110611e0c57611e0b61500e565b5b906000526020600020018054611e2190614bff565b80601f0160208091040260200160405190810160405280929190818152602001828054611e4d90614bff565b8015611e9a5780601f10611e6f57610100808354040283529160200191611e9a565b820191906000526020600020905b815481529060010190602001808311611e7d57829003601f168201915b5050505050888381518110611eb257611eb161500e565b5b6020026020010151613e1a565b15611ec957600192505b8080611ed49061503d565b915050611dea565b508080611ee89061503d565b915050611dd8565b506001151581151514611f0257600080fd5b60005b836005018054905081101561206a5760005b865181101561205657611fec856005018381548110611f3957611f3861500e565b5b906000526020600020018054611f4e90614bff565b80601f0160208091040260200160405190810160405280929190818152602001828054611f7a90614bff565b8015611fc75780601f10611f9c57610100808354040283529160200191611fc7565b820191906000526020600020905b815481529060010190602001808311611faa57829003601f168201915b5050505050888381518110611fdf57611fde61500e565b5b6020026020010151613e1a565b15612043578581815181106120045761200361500e565b5b60200260200101518560060183815481106120225761202161500e565b5b90600052602060002001600082825461203b9190614e13565b925050819055505b808061204e9061503d565b915050611f17565b5080806120629061503d565b915050611f05565b506001600760003373ffffffffffffffffffffffffffffffffffffffff1673ffffffffffffffffffffffffffffffffffffffff168152602001908152602001600020600088815260200190815260200160002060006101000a81548160ff021916908315150217905550600c60009054906101000a900473ffffffffffffffffffffffffffffffffffffffff1673ffffffffffffffffffffffffffffffffffffffff1663fc13d51887336040518363ffffffff1660e01b8152600401612131929190615340565b600060405180830381600087803b15801561214b57600080fd5b505af115801561215f573d6000803e3d6000fd5b50505050505050505050565b80600b60003373ffffffffffffffffffffffffffffffffffffffff1673ffffffffffffffffffffffffffffffffffffffff1681526020019081526020016000205410156121ed576040517f08c379a00000000000000000000000000000000000000000000000000000000081526004016121e490614fba565b60405180910390fd5b670de0b6b3a7640000816122019190614db9565b600b60003373ffffffffffffffffffffffffffffffffffffffff1673ffffffffffffffffffffffffffffffffffffffff168152602001908152602001600020600082825461224f9190614fda565b92505081905550600d60009054906101000a900473ffffffffffffffffffffffffffffffffffffffff1673ffffffffffffffffffffffffffffffffffffffff16638da9e67733670de0b6b3a7640000846122a99190614db9565b6040518363ffffffff1660e01b81526004016122c6929190614f45565b6020604051808303816000875af11580156122e5573d6000803e3d6000fd5b505050506040513d601f19601f820116820180604052508101906123099190614cc8565b5061231381613d86565b50565b60606000600660008481526020019081526020016000206005018054905067ffffffffffffffff81111561234d5761234c614525565b5b60405190808252806020026020018201604052801561238057816020015b606081526020019060019003908161236b5790505b50905060005b6006600085815260200190815260200160002060050180549050811015612493576006600085815260200190815260200160002060050181815481106123cf576123ce61500e565b5b9060005260206000200180546123e490614bff565b80601f016020809104026020016040519081016040528092919081815260200182805461241090614bff565b801561245d5780601f106124325761010080835404028352916020019161245d565b820191906000526020600020905b81548152906001019060200180831161244057829003601f168201915b50505050508282815181106124755761247461500e565b5b6020026020010181905250808061248b9061503d565b915050612386565b5080915050919050565b600180546124aa90614bff565b80601f01602080910402602001604051908101604052809291908181526020018280546124d690614bff565b80156125235780601f106124f857610100808354040283529160200191612523565b820191906000526020600020905b81548152906001019060200180831161250657829003601f168201915b505050505081565b60076020528160005260406000206020528060005260406000206000915091509054906101000a900460ff1681565b60006006600083815260200190815260200160002060070160006101000a81548160ff0219169083600281111561259457612593614212565b5b021790555050565b6125a533612deb565b6125e4576040517f08c379a00000000000000000000000000000000000000000000000000000000081526004016125db90614c7c565b60405180910390fd5b600c60009054906101000a900473ffffffffffffffffffffffffffffffffffffffff1673ffffffffffffffffffffffffffffffffffffffff16635dc73582826040518263ffffffff1660e01b815260040161263f9190614bb5565b6020604051808303816000875af115801561265e573d6000803e3d6000fd5b505050506040513d601f19601f820116820180604052508101906126829190614cc8565b5050565b600060066000868152602001908152602001600020905060001515600760003373ffffffffffffffffffffffffffffffffffffffff1673ffffffffffffffffffffffffffffffffffffffff168152602001908152602001600020600087815260200190815260200160002060009054906101000a900460ff16151514612741576040517f08c379a0000000000000000000000000000000000000000000000000000000008152600401612738906151b6565b60405180910390fd5b670de0b6b3a7640000600c60009054906101000a900473ffffffffffffffffffffffffffffffffffffffff1673ffffffffffffffffffffffffffffffffffffffff166370a08231336040518263ffffffff1660e01b81526004016127a59190614bb5565b602060405180830381865afa1580156127c2573d6000803e3d6000fd5b505050506040513d601f19601f820116820180604052508101906127e6919061509a565b6127f09190615398565b821115612832576040517f08c379a00000000000000000000000000000000000000000000000000000000081526004016128299061543b565b60405180910390fd5b6000600c60009054906101000a900473ffffffffffffffffffffffffffffffffffffffff1673ffffffffffffffffffffffffffffffffffffffff166370a08231336040518263ffffffff1660e01b815260040161288f9190614bb5565b602060405180830381865afa1580156128ac573d6000803e3d6000fd5b505050506040513d601f19601f820116820180604052508101906128d0919061509a565b11612910576040517f08c379a0000000000000000000000000000000000000000000000000000000008152600401612907906154cd565b60405180910390fd5b62093a8081600401546129239190614e13565b421115612965576040517f08c379a000000000000000000000000000000000000000000000000000000000815260040161295c906152b4565b60405180910390fd5b60028081111561297857612977614212565b5b6006600087815260200190815260200160002060070160009054906101000a900460ff1660028111156129ae576129ad614212565b5b146129ee576040517f08c379a00000000000000000000000000000000000000000000000000000000081526004016129e590615320565b60405180910390fd5b6000805b8451811015612a3657848181518110612a0e57612a0d61500e565b5b602002602001015182612a219190614e13565b91508080612a2e9061503d565b9150506129f2565b508160080154811115612a4857600080fd5b6000805b8360050180549050811015612b645760005b8751811015612b5057612b33856005018381548110612a8057612a7f61500e565b5b906000526020600020018054612a9590614bff565b80601f0160208091040260200160405190810160405280929190818152602001828054612ac190614bff565b8015612b0e5780601f10612ae357610100808354040283529160200191612b0e565b820191906000526020600020905b815481529060010190602001808311612af157829003601f168201915b5050505050898381518110612b2657612b2561500e565b5b6020026020010151613e1a565b15612b3d57600192505b8080612b489061503d565b915050612a5e565b508080612b5c9061503d565b915050612a4c565b506001151581151514612b7657600080fd5b60005b8360050180549050811015612ce95760005b8751811015612cd557612c60856005018381548110612bad57612bac61500e565b5b906000526020600020018054612bc290614bff565b80601f0160208091040260200160405190810160405280929190818152602001828054612bee90614bff565b8015612c3b5780601f10612c1057610100808354040283529160200191612c3b565b820191906000526020600020905b815481529060010190602001808311612c1e57829003601f168201915b5050505050898381518110612c5357612c5261500e565b5b6020026020010151613e1a565b15612cc25785878281518110612c7957612c7861500e565b5b6020026020010151612c8b9190614db9565b856006018381548110612ca157612ca061500e565b5b906000526020600020016000828254612cba9190614e13565b925050819055505b8080612ccd9061503d565b915050612b8b565b508080612ce19061503d565b915050612b79565b506001600760003373ffffffffffffffffffffffffffffffffffffffff1673ffffffffffffffffffffffffffffffffffffffff168152602001908152602001600020600089815260200190815260200160002060006101000a81548160ff021916908315150217905550600c60009054906101000a900473ffffffffffffffffffffffffffffffffffffffff1673ffffffffffffffffffffffffffffffffffffffff1663fc13d51888336040518363ffffffff1660e01b8152600401612db0929190615340565b600060405180830381600087803b158015612dca57600080fd5b505af1158015612dde573d6000803e3d6000fd5b5050505050505050505050565b60006001600d60009054906101000a900473ffffffffffffffffffffffffffffffffffffffff1673ffffffffffffffffffffffffffffffffffffffff166370a08231846040518263ffffffff1660e01b8152600401612e4a9190614bb5565b602060405180830381865afa158015612e67573d6000803e3d6000fd5b505050506040513d601f19601f82011682018060405250810190612e8b919061509a565b10612e9957600190506131bb565b6000600560009054906101000a900473ffffffffffffffffffffffffffffffffffffffff1673ffffffffffffffffffffffffffffffffffffffff16637a57c0ff6003546040518263ffffffff1660e01b8152600401612ef891906143b5565b602060405180830381865afa158015612f15573d6000803e3d6000fd5b505050506040513d601f19601f82011682018060405250810190612f39919061552b565b90506000600560009054906101000a900473ffffffffffffffffffffffffffffffffffffffff1673ffffffffffffffffffffffffffffffffffffffff16632c36b4b4836040518263ffffffff1660e01b8152600401612f989190615558565b602060405180830381865afa158015612fb5573d6000803e3d6000fd5b505050506040513d601f19601f82011682018060405250810190612fd9919061552b565b905060005b600073ffffffffffffffffffffffffffffffffffffffff168273ffffffffffffffffffffffffffffffffffffffff16146131b457670de0b6b3a76400008273ffffffffffffffffffffffffffffffffffffffff1663f70e51a76040518163ffffffff1660e01b8152600401602060405180830381865afa158015613066573d6000803e3d6000fd5b505050506040513d601f19601f8201168201806040525081019061308a91906155b1565b73ffffffffffffffffffffffffffffffffffffffff166370a08231876040518263ffffffff1660e01b81526004016130c29190614bb5565b602060405180830381865afa1580156130df573d6000803e3d6000fd5b505050506040513d601f19601f82011682018060405250810190613103919061509a565b1061311157600190506131b4565b600560009054906101000a900473ffffffffffffffffffffffffffffffffffffffff1673ffffffffffffffffffffffffffffffffffffffff16632c36b4b4836040518263ffffffff1660e01b815260040161316c9190615558565b602060405180830381865afa158015613189573d6000803e3d6000fd5b505050506040513d601f19601f820116820180604052508101906131ad919061552b565b9150612fde565b8093505050505b919050565b6009602052816000526040600020602052806000526040600020600091509150505481565b600d60009054906101000a900473ffffffffffffffffffffffffffffffffffffffff1673ffffffffffffffffffffffffffffffffffffffff1663396473f7336040518263ffffffff1660e01b81526004016132409190614bb5565b6020604051808303816000875af115801561325f573d6000803e3d6000fd5b505050506040513d601f19601f820116820180604052508101906132839190614cc8565b50565b61328f33612deb565b6132ce576040517f08c379a00000000000000000000000000000000000000000000000000000000081526004016132c590615650565b60405180910390fd5b606060008203613315576040518060400160405280600681526020017f6e6f726d616c00000000000000000000000000000000000000000000000000008152509050613357565b60018203613356576040518060400160405280600881526020017f776569676874656400000000000000000000000000000000000000000000000081525090505b5b604051806101400160405280600e5481526020013373ffffffffffffffffffffffffffffffffffffffff1681526020018881526020018781526020014281526020018681526020018581526020016002808111156133b8576133b7614212565b5b81526020018481526020018281525060066000600e5481526020019081526020016000206000820151816000015560208201518160010160006101000a81548173ffffffffffffffffffffffffffffffffffffffff021916908373ffffffffffffffffffffffffffffffffffffffff1602179055506040820151816002019080519060200190613449929190613efe565b506060820151816003019080519060200190613466929190613efe565b506080820151816004015560a082015181600501908051906020019061348d929190613f84565b5060c08201518160060190805190602001906134aa929190613fe4565b5060e08201518160070160006101000a81548160ff021916908360028111156134d6576134d5614212565b5b02179055506101008201518160080155610120820151816009019080519060200190613503929190613efe565b50905050600e600081548092919061351a9061503d565b9190505550600c60009054906101000a900473ffffffffffffffffffffffffffffffffffffffff1673ffffffffffffffffffffffffffffffffffffffff1663a19dea70600e546040518263ffffffff1660e01b815260040161357c91906143b5565b600060405180830381600087803b15801561359657600080fd5b505af11580156135aa573d6000803e3d6000fd5b5050505050505050505050565b60005b600e548110156137c5576002808111156135d7576135d6614212565b5b6006600083815260200190815260200160002060070160009054906101000a900460ff16600281111561360d5761360c614212565b5b146136a257600c60009054906101000a900473ffffffffffffffffffffffffffffffffffffffff1673ffffffffffffffffffffffffffffffffffffffff1663ff2b5fa182336040518363ffffffff1660e01b815260040161366f929190615340565b600060405180830381600087803b15801561368957600080fd5b505af115801561369d573d6000803e3d6000fd5b505050505b7f4c42442933829b3de657efc6a23fbe895206dd2453c5a00c3e26d2e969f8272760066000838152602001908152602001600020600001546006600084815260200190815260200160002060010160009054906101000a900473ffffffffffffffffffffffffffffffffffffffff16600660008581526020019081526020016000206002016006600086815260200190815260200160002060030160066000878152602001908152602001600020600501600660008881526020019081526020016000206006016006600089815260200190815260200160002060080154600660008a81526020019081526020016000206009016040516137aa989796959493929190615910565b60405180910390a180806137bd9061503d565b9150506135ba565b50565b60606000600660008481526020019081526020016000206006018054905067ffffffffffffffff8111156137ff576137fe614525565b5b60405190808252806020026020018201604052801561382d5781602001602082028036833780820191505090505b50905060005b60066000858152602001908152602001600020600601805490508110156138b95760066000858152602001908152602001600020600601818154811061387c5761387b61500e565b5b906000526020600020015482828151811061389a5761389961500e565b5b60200260200101818152505080806138b19061503d565b915050613833565b5080915050919050565b600a6020528060005260406000206000915090505481565b6060600060066000848152602001908152602001600020600901805461390090614bff565b80601f016020809104026020016040519081016040528092919081815260200182805461392c90614bff565b80156139795780601f1061394e57610100808354040283529160200191613979565b820191906000526020600020905b81548152906001019060200180831161395c57829003601f168201915b5050505050905080915050919050565b600c60009054906101000a900473ffffffffffffffffffffffffffffffffffffffff1681565b60086020528160005260406000206020528060005260406000206000915091509054906101000a900460ff1681565b600080546139eb90614bff565b80601f0160208091040260200160405190810160405280929190818152602001828054613a1790614bff565b8015613a645780601f10613a3957610100808354040283529160200191613a64565b820191906000526020600020905b815481529060010190602001808311613a4757829003601f168201915b505050505081565b600c60009054906101000a900473ffffffffffffffffffffffffffffffffffffffff1673ffffffffffffffffffffffffffffffffffffffff1663a95bbced836040518263ffffffff1660e01b8152600401613ac79190614bb5565b602060405180830381865afa158015613ae4573d6000803e3d6000fd5b505050506040513d601f19601f82011682018060405250810190613b08919061509a565b811115613b4a576040517f08c379a0000000000000000000000000000000000000000000000000000000008152600401613b4190615113565b60405180910390fd5b600c60009054906101000a900473ffffffffffffffffffffffffffffffffffffffff1673ffffffffffffffffffffffffffffffffffffffff1663490169348333846040518463ffffffff1660e01b8152600401613ba993929190615133565b6020604051808303816000875af1158015613bc8573d6000803e3d6000fd5b505050506040513d601f19601f82011682018060405250810190613bec9190614cc8565b505050565b600d60009054906101000a900473ffffffffffffffffffffffffffffffffffffffff1681565b600460009054906101000a900473ffffffffffffffffffffffffffffffffffffffff1681565b613c4633612deb565b613c85576040517f08c379a0000000000000000000000000000000000000000000000000000000008152600401613c7c90614d6a565b60405180910390fd5b670de0b6b3a764000081613c999190614db9565b600a60008473ffffffffffffffffffffffffffffffffffffffff1673ffffffffffffffffffffffffffffffffffffffff1681526020019081526020016000206000828254613ce79190614e13565b925050819055505050565b600560009054906101000a900473ffffffffffffffffffffffffffffffffffffffff1673ffffffffffffffffffffffffffffffffffffffff166350ee8e8f3083336040518463ffffffff1660e01b8152600401613d51939291906159b1565b600060405180830381600087803b158015613d6b57600080fd5b505af1158015613d7f573d6000803e3d6000fd5b5050505050565b600560009054906101000a900473ffffffffffffffffffffffffffffffffffffffff1673ffffffffffffffffffffffffffffffffffffffff1663205cdcff3083336040518463ffffffff1660e01b8152600401613de5939291906159b1565b600060405180830381600087803b158015613dff57600080fd5b505af1158015613e13573d6000803e3d6000fd5b5050505050565b600080839050600083905060008251905081518114613e3f5760009350505050613ef8565b60005b81811015613eef57828181518110613e5d57613e5c61500e565b5b602001015160f81c60f81b7effffffffffffffffffffffffffffffffffffffffffffffffffffffffffffff1916848281518110613e9d57613e9c61500e565b5b602001015160f81c60f81b7effffffffffffffffffffffffffffffffffffffffffffffffffffffffffffff191614613edc576000945050505050613ef8565b8080613ee79061503d565b915050613e42565b50600193505050505b92915050565b828054613f0a90614bff565b90600052602060002090601f016020900481019282613f2c5760008555613f73565b82601f10613f4557805160ff1916838001178555613f73565b82800160010185558215613f73579182015b82811115613f72578251825591602001919060010190613f57565b5b509050613f809190614031565b5090565b828054828255906000526020600020908101928215613fd3579160200282015b82811115613fd2578251829080519060200190613fc2929190613efe565b5091602001919060010190613fa4565b5b509050613fe0919061404e565b5090565b828054828255906000526020600020908101928215614020579160200282015b8281111561401f578251825591602001919060010190614004565b5b50905061402d9190614031565b5090565b5b8082111561404a576000816000905550600101614032565b5090565b5b8082111561406e57600081816140659190614072565b5060010161404f565b5090565b50805461407e90614bff565b6000825580601f1061409057506140af565b601f0160209004906000526020600020908101906140ae9190614031565b5b50565b6000604051905090565b600080fd5b600080fd5b6000819050919050565b6140d9816140c6565b81146140e457600080fd5b50565b6000813590506140f6816140d0565b92915050565b600060208284031215614112576141116140bc565b5b6000614120848285016140e7565b91505092915050565b614132816140c6565b82525050565b600073ffffffffffffffffffffffffffffffffffffffff82169050919050565b600061416382614138565b9050919050565b61417381614158565b82525050565b600081519050919050565b600082825260208201905092915050565b60005b838110156141b3578082015181840152602081019050614198565b838111156141c2576000848401525b50505050565b6000601f19601f8301169050919050565b60006141e482614179565b6141ee8185614184565b93506141fe818560208601614195565b614207816141c8565b840191505092915050565b7f4e487b7100000000000000000000000000000000000000000000000000000000600052602160045260246000fd5b6003811061425257614251614212565b5b50565b600081905061426382614241565b919050565b600061427382614255565b9050919050565b61428381614268565b82525050565b60006101008201905061429f600083018b614129565b6142ac602083018a61416a565b81810360408301526142be81896141d9565b905081810360608301526142d281886141d9565b90506142e16080830187614129565b6142ee60a083018661427a565b6142fb60c0830185614129565b81810360e083015261430d81846141d9565b90509998505050505050505050565b61432581614158565b811461433057600080fd5b50565b6000813590506143428161431c565b92915050565b60006020828403121561435e5761435d6140bc565b5b600061436c84828501614333565b91505092915050565b6000806040838503121561438c5761438b6140bc565b5b600061439a85828601614333565b92505060206143ab858286016140e7565b9150509250929050565b60006020820190506143ca6000830184614129565b92915050565b600081519050919050565b600082825260208201905092915050565b6000819050602082019050919050565b600082825260208201905092915050565b600061441882614179565b61442281856143fc565b9350614432818560208601614195565b61443b816141c8565b840191505092915050565b6000614452838361440d565b905092915050565b6000602082019050919050565b6000614472826143d0565b61447c81856143db565b93508360208202850161448e856143ec565b8060005b858110156144ca57848403895281516144ab8582614446565b94506144b68361445a565b925060208a01995050600181019050614492565b50829750879550505050505092915050565b600060208201905081810360008301526144f68184614467565b905092915050565b6000602082019050818103600083015261451881846141d9565b905092915050565b600080fd5b7f4e487b7100000000000000000000000000000000000000000000000000000000600052604160045260246000fd5b61455d826141c8565b810181811067ffffffffffffffff8211171561457c5761457b614525565b5b80604052505050565b600061458f6140b2565b905061459b8282614554565b919050565b600067ffffffffffffffff8211156145bb576145ba614525565b5b602082029050602081019050919050565b600080fd5b600080fd5b600067ffffffffffffffff8211156145f1576145f0614525565b5b6145fa826141c8565b9050602081019050919050565b82818337600083830152505050565b6000614629614624846145d6565b614585565b905082815260208101848484011115614645576146446145d1565b5b614650848285614607565b509392505050565b600082601f83011261466d5761466c614520565b5b813561467d848260208601614616565b91505092915050565b6000614699614694846145a0565b614585565b905080838252602082019050602084028301858111156146bc576146bb6145cc565b5b835b8181101561470357803567ffffffffffffffff8111156146e1576146e0614520565b5b8086016146ee8982614658565b855260208501945050506020810190506146be565b5050509392505050565b600082601f83011261472257614721614520565b5b8135614732848260208601614686565b91505092915050565b600067ffffffffffffffff82111561475657614755614525565b5b602082029050602081019050919050565b600061477a6147758461473b565b614585565b9050808382526020820190506020840283018581111561479d5761479c6145cc565b5b835b818110156147c657806147b288826140e7565b84526020840193505060208101905061479f565b5050509392505050565b600082601f8301126147e5576147e4614520565b5b81356147f5848260208601614767565b91505092915050565b600080600060608486031215614817576148166140bc565b5b6000614825868287016140e7565b935050602084013567ffffffffffffffff811115614846576148456140c1565b5b6148528682870161470d565b925050604084013567ffffffffffffffff811115614873576148726140c1565b5b61487f868287016147d0565b9150509250925092565b60008115159050919050565b61489e81614889565b82525050565b60006020820190506148b96000830184614895565b92915050565b600080600080608085870312156148d9576148d86140bc565b5b60006148e7878288016140e7565b945050602085013567ffffffffffffffff811115614908576149076140c1565b5b6149148782880161470d565b935050604085013567ffffffffffffffff811115614935576149346140c1565b5b614941878288016147d0565b9250506060614952878288016140e7565b91505092959194509250565b60008060008060008060c0878903121561497b5761497a6140bc565b5b600087013567ffffffffffffffff811115614999576149986140c1565b5b6149a589828a01614658565b965050602087013567ffffffffffffffff8111156149c6576149c56140c1565b5b6149d289828a01614658565b955050604087013567ffffffffffffffff8111156149f3576149f26140c1565b5b6149ff89828a0161470d565b945050606087013567ffffffffffffffff811115614a2057614a1f6140c1565b5b614a2c89828a016147d0565b9350506080614a3d89828a016140e7565b92505060a0614a4e89828a016140e7565b9150509295509295509295565b600081519050919050565b600082825260208201905092915050565b6000819050602082019050919050565b614a90816140c6565b82525050565b6000614aa28383614a87565b60208301905092915050565b6000602082019050919050565b6000614ac682614a5b565b614ad08185614a66565b9350614adb83614a77565b8060005b83811015614b0c578151614af38882614a96565b9750614afe83614aae565b925050600181019050614adf565b5085935050505092915050565b60006020820190508181036000830152614b338184614abb565b905092915050565b6000819050919050565b6000614b60614b5b614b5684614138565b614b3b565b614138565b9050919050565b6000614b7282614b45565b9050919050565b6000614b8482614b67565b9050919050565b614b9481614b79565b82525050565b6000602082019050614baf6000830184614b8b565b92915050565b6000602082019050614bca600083018461416a565b92915050565b7f4e487b7100000000000000000000000000000000000000000000000000000000600052602260045260246000fd5b60006002820490506001821680614c1757607f821691505b602082108103614c2a57614c29614bd0565b5b50919050565b7f646f6573206e6f74206861766520796b2070726976696c696765730000000000600082015250565b6000614c66601b83614184565b9150614c7182614c30565b602082019050919050565b60006020820190508181036000830152614c9581614c59565b9050919050565b614ca581614889565b8114614cb057600080fd5b50565b600081519050614cc281614c9c565b92915050565b600060208284031215614cde57614cdd6140bc565b5b6000614cec84828501614cb3565b91505092915050565b6000604082019050614d0a600083018561416a565b614d17602083018461416a565b9392505050565b7f4e6f74206120594b000000000000000000000000000000000000000000000000600082015250565b6000614d54600883614184565b9150614d5f82614d1e565b602082019050919050565b60006020820190508181036000830152614d8381614d47565b9050919050565b7f4e487b7100000000000000000000000000000000000000000000000000000000600052601160045260246000fd5b6000614dc4826140c6565b9150614dcf836140c6565b9250817fffffffffffffffffffffffffffffffffffffffffffffffffffffffffffffffff0483118215151615614e0857614e07614d8a565b5b828202905092915050565b6000614e1e826140c6565b9150614e29836140c6565b9250827fffffffffffffffffffffffffffffffffffffffffffffffffffffffffffffffff03821115614e5e57614e5d614d8a565b5b828201905092915050565b7f646f6573206e6f74206861766520796b2070726976696c69676573206f72206960008201527f73206e6f7420666163746f727900000000000000000000000000000000000000602082015250565b6000614ec5602d83614184565b9150614ed082614e69565b604082019050919050565b60006020820190508181036000830152614ef481614eb8565b9050919050565b6000614f0682614b67565b9050919050565b614f1681614efb565b82525050565b6000604082019050614f316000830185614f0d565b614f3e602083018461416a565b9392505050565b6000604082019050614f5a600083018561416a565b614f676020830184614129565b9392505050565b7f4e6f7420656e6f75676820736861726573000000000000000000000000000000600082015250565b6000614fa4601183614184565b9150614faf82614f6e565b602082019050919050565b60006020820190508181036000830152614fd381614f97565b9050919050565b6000614fe5826140c6565b9150614ff0836140c6565b92508282101561500357615002614d8a565b5b828203905092915050565b7f4e487b7100000000000000000000000000000000000000000000000000000000600052603260045260246000fd5b6000615048826140c6565b91507fffffffffffffffffffffffffffffffffffffffffffffffffffffffffffffffff820361507a57615079614d8a565b5b600182019050919050565b600081519050615094816140d0565b92915050565b6000602082840312156150b0576150af6140bc565b5b60006150be84828501615085565b91505092915050565b7f6e6f7420656e6f756768206465627420736f6d65686f77000000000000000000600082015250565b60006150fd601783614184565b9150615108826150c7565b602082019050919050565b6000602082019050818103600083015261512c816150f0565b9050919050565b6000606082019050615148600083018661416a565b615155602083018561416a565b6151626040830184614129565b949350505050565b7f616c726561647920766f74656400000000000000000000000000000000000000600082015250565b60006151a0600d83614184565b91506151ab8261516a565b602082019050919050565b600060208201905081810360008301526151cf81615193565b9050919050565b7f4e6f7420656e6f7567682073686172657320746f20766f7465206f6e2061207060008201527f726f706f73616c00000000000000000000000000000000000000000000000000602082015250565b6000615232602783614184565b915061523d826151d6565b604082019050919050565b6000602082019050818103600083015261526181615225565b9050919050565b7f566f74696e6720706572696f64206973206f7665720000000000000000000000600082015250565b600061529e601583614184565b91506152a982615268565b602082019050919050565b600060208201905081810360008301526152cd81615291565b9050919050565b7f566f74696e6720706572696f642069732066696e697368656400000000000000600082015250565b600061530a601983614184565b9150615315826152d4565b602082019050919050565b60006020820190508181036000830152615339816152fd565b9050919050565b60006040820190506153556000830185614129565b615362602083018461416a565b9392505050565b7f4e487b7100000000000000000000000000000000000000000000000000000000600052601260045260246000fd5b60006153a3826140c6565b91506153ae836140c6565b9250826153be576153bd615369565b5b828204905092915050565b7f446f6e74206861766520656e6f75676820746f6b656e7320286368616e67652060008201527f7765696768742900000000000000000000000000000000000000000000000000602082015250565b6000615425602783614184565b9150615430826153c9565b604082019050919050565b6000602082019050818103600083015261545481615418565b9050919050565b7f446f6e74206861766520656e6f75676820746f6b656e7320286c69746572616c60008201527f6c79203029000000000000000000000000000000000000000000000000000000602082015250565b60006154b7602583614184565b91506154c28261545b565b604082019050919050565b600060208201905081810360008301526154e6816154aa565b9050919050565b60006154f882614158565b9050919050565b615508816154ed565b811461551357600080fd5b50565b600081519050615525816154ff565b92915050565b600060208284031215615541576155406140bc565b5b600061554f84828501615516565b91505092915050565b600060208201905061556d6000830184614f0d565b92915050565b600061557e82614158565b9050919050565b61558e81615573565b811461559957600080fd5b50565b6000815190506155ab81615585565b92915050565b6000602082840312156155c7576155c66140bc565b5b60006155d58482850161559c565b91505092915050565b7f4e6f7420656e6f7567682073686172657320746f20637265617465206120707260008201527f6f706f73616c0000000000000000000000000000000000000000000000000000602082015250565b600061563a602683614184565b9150615645826155de565b604082019050919050565b600060208201905081810360008301526156698161562d565b9050919050565b60008190508160005260206000209050919050565b6000815461569281614bff565b61569c8186614184565b945060018216600081146156b757600181146156c9576156fc565b60ff19831686526020860193506156fc565b6156d285615670565b60005b838110156156f4578154818901526001820191506020810190506156d5565b808801955050505b50505092915050565b600081549050919050565b60008190508160005260206000209050919050565b6000815461573281614bff565b61573c81866143fc565b9450600182166000811461575757600181146157695761579c565b60ff198316865260208601935061579c565b61577285615670565b60005b8381101561579457815481890152600182019150602081019050615775565b808801955050505b50505092915050565b60006157b18383615725565b905092915050565b6000600182019050919050565b60006157d182615705565b6157db81856143db565b9350836020820285016157ed85615710565b8060005b858110156158285784840389528161580985826157a5565b9450615814836157b9565b925060208a019950506001810190506157f1565b50829750879550505050505092915050565b600081549050919050565b60008190508160005260206000209050919050565b60008160001c9050919050565b6000819050919050565b600061588461587f8361585a565b615867565b9050919050565b60006158978254615871565b9050919050565b6000600182019050919050565b60006158b68261583a565b6158c08185614a66565b93506158cb83615845565b8060005b83811015615903576158e08261588b565b6158ea8882614a96565b97506158f58361589e565b9250506001810190506158cf565b5085935050505092915050565b600061010082019050615926600083018b614129565b615933602083018a61416a565b81810360408301526159458189615685565b905081810360608301526159598188615685565b9050818103608083015261596d81876157c6565b905081810360a083015261598181866158ab565b905061599060c0830185614129565b81810360e08301526159a28184615685565b90509998505050505050505050565b60006060820190506159c66000830186614f0d565b6159d36020830185614129565b6159e0604083018461416a565b94935050505056fea2646970667358221220c08ab4924d62c36d2ade8893d71446dbfb6b25557cd26ecc8ec244d96018240f64736f6c634300080d0033",
  "immutableReferences": {},
  "source": "// SPDX-License-Identifier: GPL-3.0\r\n\r\npragma solidity >=0.7.0 <0.9.0;\r\npragma experimental ABIEncoderV2;\r\n\r\nimport \"./itoken.sol\";\r\nimport \"./newFactory1.sol\";\r\n\r\n\r\ncontract MyDAO {\r\n    string public dao_name;\r\n    string public dao_description;\r\n    string[] public debug_array;\r\n    uint256 dao_id;\r\n    enum VotingOptions { Yes, No }\r\n    enum Status     { Accepted, Rejected, Pending }\r\n    \r\n\r\n    address public test;\r\n\r\n    struct Proposal {\r\n        uint256 id;\r\n        address author;\r\n        string name;\r\n        string proposal_description;\r\n        uint256 createdAt;\r\n        string[] options;\r\n        uint256[] options_num;\r\n        Status status;\r\n        uint256 power;\r\n        string proposal_info_type;\r\n\r\n    }   \r\n    \r\n\r\n    function stringsEquals(string memory s1, string memory s2) private pure returns (bool) {\r\n        bytes memory b1 = bytes(s1);\r\n        bytes memory b2 = bytes(s2);\r\n        uint256 l1 = b1.length;\r\n        if (l1 != b2.length) return false;\r\n        for (uint256 i=0; i<l1; i++) {\r\n            if (b1[i] != b2[i]) return false;\r\n        }\r\n        return true;\r\n    }\r\n\r\n    DAOFactory factory;\r\n\r\n    // store all proposals\r\n    mapping(uint => Proposal) public proposals;    \r\n    //to print out proposals\r\n    event proposal_info(uint256 id, address author, string name,string proposal_description, string[] options, uint256[] num_options, uint256 power, string proposal_info_type);\r\n    // who already votes for who and to avoid vote twice\r\n    mapping(address => mapping(uint => bool)) public votes;\r\n    mapping(address => mapping(uint => bool)) public tokens_not_refunded;\r\n    mapping(address => mapping(uint => uint)) public token_amount_to_be_refunded;\r\n    // one share for governance tokens\r\n    mapping(address => uint256) public voter_shares_to_be_given;\r\n    mapping(address => uint256) public yk_shares_to_be_given;\r\n\r\n    // the IERC20 allow us to use avax like our governance token.\r\n    ISUToken public voter_token;\r\n    ISUToken public yk_token;\r\n    // the user need minimum 25 AVAX to create a proposal.\r\n    uint constant CREATE_PROPOSAL_MIN_SHARE = 1 * 10 ** 18;\r\n    uint constant VOTING_PERIOD = 7 days;\r\n    uint public nextProposalId;\r\n    \r\n    mapping(address => bool) transferLock;\r\n\r\n    constructor(string memory _dao_name, string memory _dao_description,uint _dao_id, address first_yk, ISUToken yk_token_in, ISUToken voter_token_in, DAOFactory _factory) {\r\n        factory = _factory;\r\n        dao_name = _dao_name;\r\n        dao_id=_dao_id;\r\n        dao_description = _dao_description;\r\n        yk_token = yk_token_in; // AVAX address\r\n        voter_token = voter_token_in;\r\n\r\n        //maybe mintabele amount can be taken as an input and 1000 yerine konabilir\r\n        yk_shares_to_be_given[first_yk] += (1 * 10 ** 18);\r\n        \r\n        voter_shares_to_be_given[first_yk] += (1 * 10 ** 18);\r\n\r\n    }\r\n\r\n    function mint_from_DAO_yk_token(uint _amount) internal {\r\n        factory.mint_dao_yk(this, _amount, msg.sender);\r\n    }\r\n\r\n    function mint_from_DAO_voter_token(uint _amount) internal {\r\n        factory.mint_dao_voter(this, _amount, msg.sender);\r\n    }\r\n\r\n\r\n    function iterate_proposals() public //ama sanirim boyle degilde teker teker yapmamiz gerekcek cok pahali olabilir obur turlu\r\n    {\r\n        for(uint i=0;i<nextProposalId;i++) //degistirmedim cunku artik sirf bunu kullaniriz yani\r\n        {\r\n            if(proposals[i].status != Status.Pending){\r\n                voter_token.update_active_voter_lock_off(i, msg.sender);\r\n            }\r\n\r\n            emit proposal_info(proposals[i].id, proposals[i].author, proposals[i].name,proposals[i].proposal_description, proposals[i].options, proposals[i].options_num, proposals[i].power, proposals[i].proposal_info_type);\r\n\r\n        }\r\n        \r\n    }        \r\n\r\n    function accept_proposal(uint _proposalId) external {\r\n        proposals[_proposalId].status = Status.Accepted;\r\n    }\r\n\r\n    function reject_proposal(uint _proposalId) external {\r\n        proposals[_proposalId].status = Status.Rejected;\r\n    \r\n    }    \r\n\r\n    function pending_proposal(uint _proposalId) external {\r\n        proposals[_proposalId].status = Status.Pending;\r\n    }       \r\n\r\n        \r\n\r\n\r\n    function withdraw_voter_tokens(uint _amount) external {\r\n        require(voter_shares_to_be_given[msg.sender] >= _amount*10**18, 'Not enough shares');\r\n        voter_shares_to_be_given[msg.sender] -= (_amount * 10 ** 18);\r\n        voter_token.transferDAO(msg.sender, (_amount * 10 ** 18));\r\n        mint_from_DAO_voter_token(_amount);\r\n    }    \r\n\r\n\r\n\r\n    \r\n\r\n\r\n    function withdraw_yk_tokens(uint _amount) external {\r\n        require(yk_shares_to_be_given[msg.sender] >= _amount, 'Not enough shares');\r\n        yk_shares_to_be_given[msg.sender] -= (_amount * 10 ** 18);\r\n        yk_token.transferDAO(msg.sender, (_amount * 10 ** 18));\r\n        mint_from_DAO_yk_token(_amount);\r\n\r\n    }    \r\n    \r\n    function send_yk_tokens_to_address_yk(address yk_candidate, uint _amount) external {\r\n        require(has_yk_priviliges(msg.sender), 'Not a YK');\r\n        //yk_shares[msg.sender] -= (_amount * 10 ** 18);\r\n        //totalShares -= (_amount * 10 ** 18);\r\n        //total_yk_shares -= (_amount * 10 ** 18);\r\n        //neden olmuyor bu\r\n        //yk_token.transfer(yk_candidate, _amount * 18 **18);\r\n        yk_shares_to_be_given[yk_candidate] += _amount * 10 ** 18;\r\n        //yk_token.transfer(yk_candidate, (_amount * 10 ** 18));\r\n    } \r\n\r\n    function send_yk_tokens_to_address_yk_directly(address yk_candidate, uint _amount) public {\r\n        require(has_yk_priviliges(msg.sender) , 'Not a YK');\r\n        //yk_shares[msg.sender] -= (_amount * 10 ** 18);\r\n        //totalShares -= (_amount * 10 ** 18);\r\n        //total_yk_shares -= (_amount * 10 ** 18);\r\n        //neden olmuyor bu\r\n        //yk_token.transfer(yk_candidate, _amount * 18 **18);\r\n        //yk_shares_to_be_given[yk_candidate] += _amount * 10 ** 18;\r\n        //yk_token.transfer(yk_candidate, (_amount * 10 ** 18));\r\n        yk_token.transferDAO(yk_candidate, (_amount * 10 ** 18));\r\n        mint_from_DAO_yk_token(_amount);\r\n    } \r\n \r\n \r\n    function send_voter_tokens_to_address_yk(address voter_candidate, uint _amount) external {\r\n        require(has_yk_priviliges(msg.sender), 'Not a YK');\r\n        //yk_shares[msg.sender] -= (_amount * 10 ** 18);\r\n        //totalShares -= (_amount * 10 ** 18);\r\n        //total_yk_shares -= (_amount * 10 ** 18);\r\n        //ones above are in comments becaue this whole process is done in the contract\r\n        voter_shares_to_be_given[voter_candidate] += _amount * 10 ** 18;\r\n        //voter_token.transfer(voter_candidate, (_amount * 10 ** 18));\r\n    }                   \r\n\r\n    function send_voter_tokens_to_address_yk_directly(address voter_candidate, uint _amount) public {\r\n        require(has_yk_priviliges(msg.sender) , 'Not a YK');\r\n        //yk_shares[msg.sender] -= (_amount * 10 ** 18);\r\n        //totalShares -= (_amount * 10 ** 18);\r\n        //total_yk_shares -= (_amount * 10 ** 18);\r\n        //ones above are in comments becaue this whole process is done in the contract\r\n        voter_token.transferDAO(voter_candidate, (_amount * 10 ** 18));\r\n        mint_from_DAO_voter_token(_amount);\r\n\r\n        //voter_token.transfer(voter_candidate, (_amount * 10 ** 18));\r\n    }        \r\n    //in yk functions token verification tokens have to be in the contract however in voter sending function \r\n     \r\n\r\n    function createProposal(string memory name,string memory description, string[] memory _options, uint256[] memory _options_num, uint256 _power, uint256 _type) external {\r\n        // validate the user has enough shares to create a proposal\r\n        //require(yk_token.balanceOf(msg.sender) >= CREATE_PROPOSAL_MIN_SHARE, 'Not enough shares to create a proposal');\r\n        require(has_yk_priviliges(msg.sender), 'Not enough shares to create a proposal');\r\n        string memory proposal_type;\r\n        //sorun olursa buradan\r\n        if(_type == 0){\r\n            proposal_type = \"normal\";\r\n        }\r\n        else if(_type == 1){\r\n            proposal_type = \"weighted\";\r\n        }\r\n\r\n        proposals[nextProposalId] = Proposal(\r\n            nextProposalId,\r\n            msg.sender,\r\n            name,\r\n            description,\r\n            block.timestamp,\r\n            _options,\r\n            _options_num,\r\n            Status.Pending,\r\n            _power,\r\n            proposal_type\r\n        );\r\n        nextProposalId++; //might need\r\n        voter_token.update_proposal_num(nextProposalId);\r\n    }      \r\n\r\n\r\n    function vote_power(uint _proposalId, string[] memory _vote, uint[] memory _power) external {\r\n        Proposal storage proposal = proposals[_proposalId];\r\n        require(votes[msg.sender][_proposalId] == false, 'already voted');\r\n        //i check if the user is a yk or has voter shares\r\n        require(voter_token.balanceOf(msg.sender) > 0, 'Not enough shares to vote on a proposal');\r\n        //bu alttaki sadece 1 kez oylamayi garantilemek icin, teoride bunu kullanmayacakgiz\r\n        //requires(tokens_refunded[msg.sender][_proposalId] == false, 'Already voted);\r\n        require(block.timestamp <= proposal.createdAt + VOTING_PERIOD, 'Voting period is over');\r\n        require(proposals[_proposalId].status == Status.Pending, 'Voting period is finished');\r\n        uint total_power = 0; \r\n        for(uint i=0;i<_power.length;i++) //checks if the amount of votes given is equal to the max amount of votes\r\n        {\r\n            total_power = total_power + _power[i];\r\n        }          \r\n        require(total_power <= proposal.power);\r\n        bool init = false;\r\n        //asagida yaptiklarim: iste yapiyo yazmaya usendim\r\n        for(uint i=0;i<proposal.options.length;i++)\r\n        {\r\n            for(uint y=0; y<_vote.length; y++){\r\n                \r\n                if(stringsEquals(proposal.options[i], _vote[y])){\r\n                    init = true;\r\n                }\r\n            }\r\n        }           \r\n        require(init == true);\r\n        /** make sure to add the necessary require checks */\r\n\r\n        for(uint i=0;i<proposal.options.length;i++)\r\n        {\r\n            for(uint y=0; y<_vote.length; y++){\r\n                if(stringsEquals(proposal.options[i], _vote[y])){\r\n                    proposal.options_num[i]+= _power[y];\r\n                }\r\n            }\r\n        }\r\n\r\n        votes[msg.sender][_proposalId] = true;\r\n        voter_token.update_active_voter_lock_on(_proposalId, msg.sender);\r\n\r\n\r\n        \r\n    }  \r\n\r\n    \r\n\r\n    function vote_power_weighted(uint _proposalId, string[] memory _vote, uint[] memory _power, uint weight) external {\r\n        Proposal storage proposal = proposals[_proposalId];\r\n        require(votes[msg.sender][_proposalId] == false, 'already voted');\r\n        require(weight <= (voter_token.balanceOf(msg.sender) / (10 ** 18)), \"Dont have enough tokens (change weight)\" );\r\n\r\n        //i check if the user is a yk or has voter shares\r\n        require(voter_token.balanceOf(msg.sender) > 0, \"Dont have enough tokens (literally 0)\");\r\n        //bu alttaki sadece 1 kez oylamayi garantilemek icin, teoride bunu kullanmayacakgiz\r\n        //requires(tokens_refunded[msg.sender][_proposalId] == false, 'Already voted);\r\n        require(block.timestamp <= proposal.createdAt + VOTING_PERIOD, 'Voting period is over');\r\n        require(proposals[_proposalId].status == Status.Pending, 'Voting period is finished');\r\n        uint total_power = 0; \r\n        for(uint i=0;i<_power.length;i++) //checks if the amount of votes given is equal to the max amount of votes\r\n        {\r\n            total_power = total_power + _power[i];\r\n        }          \r\n        require(total_power <= proposal.power);\r\n        bool init = false;\r\n        //asagida yaptiklarim: iste yapiyo yazmaya usendim\r\n        for(uint i=0;i<proposal.options.length;i++)\r\n        {\r\n            for(uint y=0; y<_vote.length; y++){\r\n                \r\n                if(stringsEquals(proposal.options[i], _vote[y])){\r\n                    init = true;\r\n                }\r\n            }\r\n        }           \r\n        require(init == true);\r\n        /** make sure to add the necessary require checks */\r\n\r\n        \r\n\r\n        for(uint i=0;i<proposal.options.length;i++)\r\n        {\r\n            for(uint y=0; y<_vote.length; y++){\r\n                if(stringsEquals(proposal.options[i], _vote[y])){\r\n                    proposal.options_num[i]+= _power[y] * weight;\r\n                }\r\n            }\r\n        }\r\n\r\n        votes[msg.sender][_proposalId] = true;\r\n        voter_token.update_active_voter_lock_on(_proposalId, msg.sender);\r\n\r\n\r\n    }   \r\n    //(string[][] memory myproposaloptions, string[][] memory myproposals, string[][] memory myproposalvotes )\r\n    function getProposalName() public view returns (string[] memory){\r\n        //string[][] propoptions;\r\n        string[] memory myprops = new string[](nextProposalId);\r\n        //string[][] propvotes;\r\n        for (uint i = 0; i < nextProposalId; i++) {\r\n            myprops[i] = proposals[i].name;\r\n            //propvotes.push(proposals[i].name);\r\n            //for(uint y = 0; y < proposals[i].options.length; y++){\r\n            //    propvotes[i][y]\r\n            //}\r\n        }\r\n        return myprops;\r\n    }\r\n    function getDaoid() public view returns (uint256){\r\n        return dao_id;\r\n\r\n    }\r\n    //my chk is the person I am checking lol\r\n    function has_yk_priviliges(address chk) public view returns (bool){\r\n\r\n         if(yk_token.balanceOf(chk) >= 1)\r\n         {\r\n            return true;\r\n         }\r\n         MyDAO current_dao=factory.getCurrentDAO(dao_id);\r\n         MyDAO parent_dao= factory.getParentDAO(current_dao);\r\n         \r\n         \r\n         bool exist=false;\r\n         while(address(parent_dao)!=address(0)){\r\n             if(parent_dao.yk_token().balanceOf(chk) >= 1 * 10 **18)\r\n             {\r\n                 exist=true;\r\n                 break;\r\n             }\r\n             parent_dao= factory.getParentDAO( parent_dao );\r\n         }\r\n         return exist;\r\n\r\n    }\r\n    \r\n    function getProposalDescription() public view returns (string[] memory){\r\n        //string[][] propoptions;\r\n        string[] memory myprops = new string[](nextProposalId);\r\n        //string[][] propvotes;\r\n        for (uint i = 0; i < nextProposalId; i++) {\r\n            myprops[i] = proposals[i].proposal_description;\r\n            //propvotes.push(proposals[i].name);\r\n            //for(uint y = 0; y < proposals[i].options.length; y++){\r\n            //    propvotes[i][y]\r\n            //}\r\n        }\r\n        return myprops;\r\n    }\r\n\r\n    function getProposalVoteNames(uint proposal_idd) public view returns (string[] memory){\r\n        //string[][] propoptions;\r\n        string[] memory mypropvotes = new string[](proposals[proposal_idd].options.length);\r\n        //string[][] propvotes;\r\n        for (uint i = 0; i < proposals[proposal_idd].options.length; i++) {\r\n            mypropvotes[i] = proposals[proposal_idd].options[i];\r\n            //propvotes.push(proposals[i].name);\r\n            //for(uint y = 0; y < proposals[i].options.length; y++){\r\n            //    propvotes[i][y]\r\n            //}\r\n        }\r\n        return mypropvotes;\r\n    }    \r\n\r\n    function getProposalVoteNumbers(uint proposal_idd) public view returns (uint[] memory){\r\n        //string[][] propoptions;\r\n        uint[] memory mypropvotenums = new uint[](proposals[proposal_idd].options_num.length);\r\n        //string[][] propvotes;\r\n        for (uint i = 0; i < proposals[proposal_idd].options_num.length; i++) {\r\n            mypropvotenums[i] = proposals[proposal_idd].options_num[i];\r\n            //propvotes.push(proposals[i].name);\r\n            //for(uint y = 0; y < proposals[i].options.length; y++){\r\n            //    propvotes[i][y]\r\n            //}\r\n        }\r\n        return mypropvotenums;\r\n    }    \r\n\r\n    function getProposalPower(uint proposal_idd) public view returns (uint ){\r\n        //string[][] propoptions;\r\n        uint myproppower = 0;\r\n        //string[][] propvotes;\r\n        myproppower = proposals[proposal_idd].power;\r\n\r\n        return myproppower;\r\n    }     \r\n\r\n    function getProposalType(uint proposal_idd) public view returns (string memory){\r\n        //string[][] propoptions;\r\n        \r\n        //string[][] propvotes;\r\n        string memory myproppower = proposals[proposal_idd].proposal_info_type;\r\n\r\n        return myproppower;\r\n    }     \r\n\r\n    \r\n    //form = b tokeni gecici olarak alan kisi to = a tokeni basta gonderen kisi \r\n    function dao_delegation_single_getback_amount_voter(address from, uint256 amount) external{\r\n        require(amount <= voter_token.getDebtToken(from), \"not enough debt somehow\");       \r\n        voter_token. delegation_single_getback_amount(from, msg.sender, amount);        \r\n    }\r\n\r\n    function dao_delegation_single_getback_all_voter(address from ) external  {\r\n        voter_token.delegation_single_getback_all(from, msg.sender);\r\n    }\r\n\r\n    function dao_delagation_multiple_getback_all_voter( ) external{\r\n        voter_token.delagation_multiple_getback_all( msg.sender);\r\n    }\r\n    function dao_clawback_single_voter(address from) external{\r\n        require(has_yk_priviliges(msg.sender), \"does not have yk priviliges\") ;\r\n        voter_token.clawback_single( from);\r\n    }\r\n    function dao_clawback_all_voter() external{\r\n        require(has_yk_priviliges(msg.sender), \"does not have yk priviliges\") ;\r\n        voter_token.clawback_all( );\r\n    }\r\n    \r\n\r\n\r\n\r\n\r\n    \r\n    /////////////////////////////////////////////////////////////////////////////////////\r\n    function dao_delegation_single_getback_amount_yk(address from, uint256 amount) external {\r\n        require(amount <= yk_token.getDebtToken(from), \"not enough debt somehow\");       \r\n        yk_token. delegation_single_getback_amount(from, msg.sender, amount);      \r\n        \r\n    }\r\n    function dao_delegation_single_getback_all_yk(address from) external {\r\n        yk_token.delegation_single_getback_all(from, msg.sender);\r\n\r\n    }\r\n    function dao_delagation_multiple_getback_all_yk() external{\r\n        yk_token.delagation_multiple_getback_all(msg.sender);\r\n    }\r\n    function dao_clawback_single_yk(address to) external{\r\n        require(has_yk_priviliges(msg.sender), \"does not have yk priviliges\") ;\r\n        yk_token.clawback_single( to);\r\n    }\r\n    function dao_clawback_all_yk() external {\r\n        require(has_yk_priviliges(msg.sender), \"does not have yk priviliges\") ;\r\n        yk_token.clawback_all( );\r\n    }\r\n\r\n    function delete_this_dao( ) external {\r\n        require(has_yk_priviliges(msg.sender) || msg.sender == address(factory) , \"does not have yk priviliges or is not factory\") ;\r\n        voter_token.clawback_all( );\r\n        factory.delete_DAO(this, msg.sender);\r\n        yk_token.clawback_all( );\r\n    }\r\n\r\n\r\n\r\n\r\n\r\n}                   \r\n\r\n\r\n   \r\n",
  "sourcePath": "C:\\Users\\batu0\\Desktop\\Visual_Studio_Code\\SU_Govern\\contract_for_front_end\\ui_sol_deneme2\\ui_sol_deneme\\sol_ui\\blockchain1\\contracts\\newDAO1.sol",
  "compiler": {
    "name": "solc",
    "version": "0.8.13+commit.abaa5c0e.Emscripten.clang"
  },
  "schemaVersion": "3.4.12",
  "updatedAt": "2023-02-28T13:53:38.933Z",
  "devdoc": {
    "kind": "dev",
    "methods": {},
    "version": 1
  },
  "userdoc": {
    "kind": "user",
    "methods": {},
    "version": 1
  }
}